:0934C9009002ADEFF0A3120ED049
:1034D200E49002B1F0A3F09002AE120EB09002B1ED
:1034E200E0FEA3E0F5828E83120D40FF602790027A
:1034F200ADE0FD3395E0FC74DE2DF58274013CF500
:1035020083EFF09002ADE004F09002B1E475F001B7
:05351200120DB380C2A0
:013517002291
:0D3C0000E4FF7E289001DE7420F0A3DEFCBE
:013C0D002294
:10396200D3EF9400EE94004015E4FDFC0DBD000180
:0E3972000CBC05F8BD12F5EF1F70E51E80E2DB
:013980002224
:1032DF00E4900289F0A3F0A3F07F64FE123962122A
:1032EF003C007B01E4FD7F301237517F0A7E0012D4
:1032FF0039627F301233257F301233447F381233D7
:10330F00257F081233447F0C1233381239627F063F
:06331F001233380239628E
:103325007B01E4FD1237517F017E001239627B017A
:10333500E4FD227B01E4FD1237517F017E0022125C
:0A33450037517F017E001239622229
:102A8B00900275E07055900009E0C3648094A840F3
:102A9B000AE4F07B01AD357F02804D900009E0B474
:102AAB00140B74FFF07B01AD357FA8803B900009C0
:102ABB00E0C36480948050057414F0800390000987
:102ACB00E0FF04F0EF3395E0FE74DE2FF582740126
:102ADB003EF583E0FFE4FBAD35800D900275E07BA6
:102AEB0001AD35B401077F08123751800A7F0C12F4
:102AFB003751E4900275F0E549603D654F7027E56D
:102B0B004AD394004046154AE54A7040E52AD394CF
:102B1B00324039854F4BE4F52A900275E064017021
:102B2B002BE004F08026E54B702285494F754A0A4D
:102B3B0090027174FAF08014E4F54FF54A9002712B
:102B4B0074FAF0E52AC394FF5002052AE5484222A5
:012B5B002257
:10375100EB7006ED4420FD8004ED54DFFDC294E4DE
:10376100F5A3C2FF30FFFD85A348AE058EA3C2FFBE
:1037710030FFFD85A3498FA3C2FF30FFFD85A35212
:08378100D294E4F5A3C2FF227B
:0437BE00AB07AA06A5
:1037C200E4F54B900271E0FF7E007C007DF0120D6B
:1037D200A1EEFDEAC313FEEB13FFC3ED9FEC9E5077
:0F37E20002AD07AF05900271EFF0F54A752AFFAF
:0137F10022B5
:0F39E70030FFFD8FA3C2FF30FFFDD295C29522A6
:10399E00AD07AC06ECF5A3C2FF30FFFDC296EDF508
:0939AE00A3C2FF30FFFDD29622F6
:1038500053D9BFE4F5EF1237F2123C0E123824129E
:1038600035B31239F67FC87E001239621232DF7F1B
:0A387000211239E712393DD2AF22D0
:0D3C0E0043B203E4F5A943A91075B6902256
:1035B300E59620E7FB759601759708E59620E7FBEE
:1035C300759607759707E59620E7FB759609759736
:1035D30007E59620E7FB75960B75970775D7C0E54A
:1035E3009620E7FB75960F7597A043E602D2AFE5E9
:0B35F3009620E7FB75960175970122FA
:1038240075A4D575A5F175A6FD75D488E4F5D5F50F
:10383400D675E10375E2E8D297D296D294C295C2C6
:0C384400A7C2A6C2A5C2A4C2A2C2A322B1
:0A39F60075A20B75A14075F80122BF
:10393D0075D90675D840758951D2A9D2B9D28CD214
:10394D008E75CBFE75CA0C75CDFF75B12075C8018E
:05395D00D2ADD2CA2228
:1037F20020A12EE4F5B1F5E2F5E1C2CAC28EC28C77
:10380200C2ADC2ABC2A9F5D8F5D7C2AF53D9BFF585
:10381200FFF5EF75C980F5F1F5F2F5F3F5F475876B
:02382200022280
:1027C50020474F4F434820414E4420484F555345DD
:1027D500474F20200020204F4C203430302D4320FF
:1027E50020205625342E326620200041202020202E
:1027F50000205F5F2E5F5F5F2041200025372E336D
:1028050066204120002020205F5F5F5F204B200075
:1028150025203764204B20002520372E326620687E
:10282500720020203E31303030302068720025376C
:10283500752072410045252B3033640025372E3431
:1028450066202573200052452D5A45524F20257389
:10285500200025377520257320002D2D2D2D2D2D9C
:102865002D202573200020204F564552202025730A
:10287500200020554E4445522020257320005F5FDF
:102885005F5F2E5F5F205620002056434D504C2140
:10289500205620002056204F564552205620002015
:1028A50056554E4445522056200025372E32662077
:1028B50056200025203775207256002141224224DA
:1028C500442040404040D3333340D0000040800096
:0128D5000002
:10371300012C000132000B5E0000000000000000DD
:103723000000000B53000000000000000000000038
:103733004102750041000900410271644201C30066
:0737430000014100014400F8
:10173500900005120E2F90016B120E6790016B122F
:101745000E2FE48F5590016B120E2F7808120E089C
:1017550090016B120E6790016B120E2FE48F56905D
:10176500016B120E2F7808120E0890016B120E678E
:1017750090016B120E2FE48F5790016B120E2F788C
:1017850008120E0890016B120E6790016B020E2F66
:10179500120E2F9001C5120E4B1208A39001D11203
:1017A5000E4B1208A39001D5120E4B1208A39001FF
:1017B500D9120E4B0208A37A28793A7BFF9002B61C
:1017C500020ED0900184F0A3E560F0E07F00FE906A
:1017D5000184F0A3EFF0E55FFF900184EEF0A3EF45
:1017E500F0227F977EFF7D1F900186120E4B020A25
:1017F50049900184E0FCA3E0FDE4120ABB90009748
:10180500120E67900097120E2FE4FBFA797A78444E
:101815001209AC900097120E67900097020E2F12D6
:101825000E579002B3120E2F0207AE755301852194
:1018350054900274E0F555900273E0FF8F569001C5
:10184500A8E0F5579001A7E0FF8F589001C2E0F599
:10185500599001C1E0FF8F5A229002B97B017A02AB
:10186500796B120ED07A01797022903A42120E5796
:101875000208A3E493FC740193FDE4120ABBA804D7
:10188500A905AA06AB0722F9F89001C3E0FEA3E07B
:10189500FFE4FCFD227808120E1C90016B120E6706
:1018A50090016B020E4B900000120E4B9028CE1249
:1018B5000E3B0207AEEE9002B9F0A3EFF0229002C4
:1018C500AD120E679002AD020E2F120E2F9002B9C7
:1018D500020E67E4FBFAF9783F1207B2020AF490A8
:1018E5000184E0FEA3E09001A5FFEEF0A3EFF02256
:1018F500900005120E2FE4120AB67B457AA979AB42
:10190500784D020A49120E679001C9120E2F9001F7
:10191500C522900000120E2F9028D2020E57F0A378
:10192500E561F0E07F00FE900184F0A3EFF0E56053
:10193500222400FFEE343AFE900269F0A3EFF02274
:10194500E0F555900184E0F8E4F0E8A3F0E0F55601
:10195500227553089001A4E0F5549001A3E0FF8F90
:101965005522E4FFFE7D7A7C4422C39001C4E094B5
:10197500649001C3E094002290003AEEF0A3EFF0EA
:10198500229028CA120E3B90000022E025E0249FF9
:10199500F582E43400F58322E025E0247EF582E437
:1019A5003400F583227B017A027976229001860242
:1019B5000E67900186020E2F9002737480F0A3E4E7
:1019C500F022EEF0A3EFF07BFF229001C3E0FEA32F
:1019D500E022747FF0A374FFF022E5A054F0F556E1
:1019E500C4540FF55622E4FCFDFE020DD7E4FFFEBC
:1019F5007DC87C4290006822FFE43EFEE43DFDE4A4
:101A05003CFC227B017A00791E227B017A00793C1D
:101A150022E4FBFAF9783F22E4FBFAF978BF227B4E
:101A2500017A02796B22E0FCA3E0FDE4020ABB9097
:101A35000272E025E0227F977EFF7D1F9001BD2287
:101A4500900068020E679002AF020E67FEFDFC90E3
:101A5500009B020E4B9002AF020E2F1207B29002AE
:0B1A6500AD020E67855F5485605522BE
:10204400123850E4900037F0A3F0900037E0FEA37C
:10205400E0FFC39408EE648094805026EF7802C3B6
:1020640033CE33CED8F92410F58274023EF58312B0
:102074000E7300000000900037E475F001120DB3F8
:1020840080C8E490002EF0F54B900004E0700990B5
:102094000272E0D394074005E4900272F090027259
:1020A400E00490002EF090018AE0D394044002E40E
:1020B400F0900039E0D394024002E4F0900234E05E
:1020C400D3946440037464F0900234E0C3940150E8
:1020D400037401F01218F5500A900005120E7315DE
:1020E40075B6A01219861217F0600C400A90000011
:1020F400120E7300000000C20CC20EC20DC20FE427
:102104009001A5F0A3F07545027529029001C3F072
:10211400A3F0F550F551FFFE12399E122B5C7A277D
:1021240079C51217C01221D9E4FF1234C97BFF7A92
:102134002779DA1217C29002B9120E73400CCCCD73
:102144001221D97F141234C97FD07E07123962124A
:102154003C001236D312004612138E90018AE07BA3
:102164000170117A0179707F021234C97BFF7A27DA
:1021740079F0801B7A0179A97F021234C990018A0F
:10218400E075F006A4246AF9743A35F0FA7BFF7F0F
:102194000F1234C9121A087F141234C9300E0512F2
:1021A4001A0F801F300F07900039E0B402087B013A
:1021B4007A00796E800D900039E0B4010D7B017ACC
:1021C40000790A7F1E1234C98088121A0F7F1E12EA
:1021D40034C90221567B017A027936120F707B01D1
:0521E4007A02793622A9
:10004600200703020793C2079001DDE004F0C39482
:100056000A4002E4F0900234E0FF900268E004F007
:10006600C39F4002E4F0900235E004F0C3940A40D6
:1000760002E4F0C2AD900268121990E527F0A3E5FC
:1000860028F090023512199DE533F0A3E534F0D23D
:10009600AD300D03020243300E0D900033120E7385
:1000A60000000000020153903A4CE493FE74019361
:1000B600FBAA06EA3395E012188C120DC9EC120A57
:1000C600B6903A48121872900033120E671219173A
:1000D600120A49900033601B4019120E2FC004C04B
:1000E60005C006C007903A42120E3B900033121725
:1000F600B68046120E2FC004C005C006C0071218EF
:10010600ABC004C005C006C0079028D2120E3B1231
:10011600186FD003D002D001D0001208A3C004C0CB
:1001260005C006C00712191D1218B1121883D00790
:10013600D006D005D0041209AC121883D007D00619
:10014600D005D0041207AE900033120E67E4FFFE0E
:10015600FDFC9000331217F06010400E12196790E4
:1001660000331217B6121A16800C12196790003354
:100176001217B6121A1D1218DE9001A7EEF0A3EFA1
:10018600F0900033120E2F12233C90001A120E67C5
:10019600200F0512196F4003300E0B7BFF7A27796B
:1001A600F61217C2800F7BFF7A2879011217C290C8
:1001B60000331218CF121A08120F707F007EF07DDE
:1001C600F97C4490001A1217F0E450119001A3F044
:1001D600A3F07BFF7A28790A1217C2801EFFFEFD64
:1001E6007C3F90001A120E4B1218DE9001A31219D2
:1001F600C77A2879151217C21218BA7B017A0079C4
:100206000A120F701218F57BFF602340217A2879B5
:100216001D1217C2900005120E2FE4120AB67B00BB
:100226007AA0790C78471209AC1218D280077A287E
:1002360079271217C27B017A00796E80181219CFBE
:100246009001A71218EE7BFF7A2879331217C21293
:1002560018BA121A08120F7030045E900272E0FF8C
:10026600C374FD9FFF74FF9400FE9002ADF0A3EFF0
:10027600F01217BC1218BA121A24120F7090018AC3
:10028600E0FFD39400401CEF25E02466F582E434B9
:100296003AF583E493FE740193FF9002ADEE8FF07E
:1002A600120DB31217BC9002ADE0FFA3E0CF1218F7
:1002B600BB1219AA120F70C2043003030204CE3017
:1002C60001030204CEE52F60030204CE90018612DC
:1002D6000E7300000000E490016FF0900234E0FF1E
:1002E60090016FE0C39F502D900186120E4BC00007
:1002F600C001C002C00390016F121990121A2BD0D0
:1003060003D002D001D0001207B21219B190016FCA
:10031600E004F080C61219B7C004C005C006C007C5
:10032600900234E0FCE4120AC0121883D007D0060B
:10033600D005D0041209AC1219B1300D030204A97C
:10034600121A342430F582E4343AF5831218789080
:10035600018612182A121A3425E0240CF582E43498
:100366003AF5831218721219B11219B7121A3425F6
:10037600E02410F582E43402F583120E4B1207AE28
:100386001219B1E4FFFEFDFC1217ED7F007E407DE1
:100396001C7C46900186600A40081217B6121A168F
:1003A60080061217B6121A1D1218DE900273EEF0AE
:1003B600A3EFF07FD07EB37D517C401217ED600A2B
:1003C60040089002731219D780107F747EB57D5154
:1003D6007CC01217ED50031219BD7C411217E7506D
:1003E600207CC11217E7601940177BFF7A287941F4
:1003F6001217C29001861218CF121A249002BD80DD
:100406000F7BFF7A28794B1217C2121A249002B971
:10041600121867120F7090018AE06039900273E03B
:10042600FCA3E0FDEC120ABB7B177AB779D17838CA
:100436001208A39001BD120E679001BD120E2F90F7
:10044600018AE025E025E02454F582E4343AF58378
:1004560012187280031219B79001BD120E677C4103
:10046600121A3B1217F050237CC1121A3B1217F0D6
:10047600601940177BFF7A2879411217C29001BD97
:100486001218CF1219AA9002BD800F7BFF7A287925
:100496004B1217C21219AA9002B9120ED07A01791C
:1004A600A9801FE490018AF01219B7120AF490028B
:1004B600731219C77A2879571217C21218BAA312DB
:1004C6001861120F7002054BE52FD3940040257B6F
:1004D600FF7A28795F1217C212185E120F707BFF1F
:1004E6007A28795F1217C21207947480F0A37401F8
:1004F600F002054B3003207BFF7A28796B1217C276
:1005060012185E120F707BFF7A28796B1217C212CF
:1005160007941219D7802E30012B7BFF7A28797722
:100526001217C212185E120F707BFF7A28797712A3
:1005360017C21219AA9002B9120ED07A0179A9121D
:100546000F701219BD900068120E7300000000E4CF
:1005560090016FF0900068120E4BC000C001C002FF
:10056600C00390016F12199D121A2BD003D002D02E
:1005760001D0001207B2121A4590016FE004F0E0B4
:10058600B40AD1900068120E2FE4FBFA7920784164
:100596001209AC121A45300D0302067B903A52122C
:1005A600187890006812182A903A4E121872121A89
:1005B600457F7B7ED47DA37C439000681217F06054
:1005C6000840069001C11219D77FC37ED57DA37C52
:1005D600C39000681217F050069001C11219C0E4CA
:1005E600FFFEFDFC9000681217F0600D400B12191B
:1005F600F21217B6121A1680091219F21217B6124B
:100606001A1D1218DE9001C1EEF0A3EFF0200F0DB7
:1006160012196F50087BFF7A287983801D300E08E7
:100626007BFF7A28798E80129001C1E0B47F10A3F7
:10063600E0B4FF0B7BFF7A2879991217C2804F909E
:1006460001C1E0FEA3E0FFEE3395E0FDFC7B007AFE
:100656008079FF78FFC3120DF27BFF70097A287943
:10066600A41217C2800D7A2879AF1217C2900068BB
:100676001218CF8019900068120E2F120AF49001FA
:10068600C11219C77A2879B81217C21218BA121AE3
:100696000F120F70200F201219CFFFD39484EE94FF
:1006A600034011EF240CFFEE34FEFEE4FCFD121AAB
:1006B6004B020771020767900005120E2FEF240107
:1006C6001219FD900005120E6790003AE0FEA3E0B5
:1006D600FBAA06E412188C120DC990009B120E6735
:1006E60012188E121A4B74FF7F9C121A51C3120DE8
:1006F600F2500B121A5AEF24641219FD803A900038
:100706009B120E2FEC33500890003A121891802855
:10071600E47F64121A51D3120DF24016121A5AC30C
:10072600EF9464FFEE9400FEED9400FDEC9400FC63
:10073600800690003A121891121A4BE47FFF7EFF52
:10074600FDFC9002AF120E4BD3120DF2400C90023C
:10075600AF120E730000FFFF8011121A5AEC3350CD
:100766000A9002AF120E73000000009002B1E0FE84
:10077600A3E0FF9001C3E06E7003A3E06F600CC2BC
:0D078600AD9001C3EEF0A3EFF0D2ADD206AE
:10079300227B017A0279769002B9120ED07A01791E
:0807A300A9120F7090027322ED
:03000B0002002EC2
:10002E00C0E0758CFFE58030E70553807F80034389
:05003E008080D0E032DB
:03002B00021A7046
:101A7000C0E0C0F0C083C082C0D075D000C000C03C
:101A800001C002C003C004C005C006C007308F04F7
:101A90000539C28F30DF04054CC2DF1529E5296006
:101AA00003021B91752932D5450B7545050551E596
:101AB0005170020550858D37308F040539C28F85EE
:101AC0008B3AE537B58D03308F0D858B3A858D3791
:101AD000308F040539C28F753F00853740E540756A
:101AE0004000F53FE53A2540F540E4353FF53FC37A
:101AF000E5409531F528E53F9530F527C313F527E7
:101B0000E52813F528E539D394015010E539B401DF
:101B10000EC3E5409531E53F95304003432780856E
:101B20003F308540315331FE75390085F93A85FAE9
:101B30003730DF04054CC2DF754D0085374EE54E6A
:101B4000754E00F54DE53A254EF54EE4354DF54D13
:101B5000C3E54E953EF534E54D953DF533C313F59C
:101B600033E53413F534E54CD394015010E54CB40F
:101B7000010EC3E54E953EE54D953D400343338050
:101B8000854D3D854E3E533EFE754C00D207021CEE
:101B900054E52964196003021C54E52FD3940840CE
:101BA000035322F1E52242203013057569058005B3
:101BB000D56902C2033011057546058005D5460278
:101BC000C201301205752B058005D52B02C20230EB
:101BD00010057547058005D54702C200300004D2C4
:101BE0000E8002C20E752200E52FD394004002152C
:101BF0002F900004E0603420030330011190027242
:101C0000E0D394004008E52F7004E014801820020F
:101C10002F20032C200129900272E0C3940750204A
:101C2000E52F701CE004F0E0FF801290002EE0FF32
:101C3000600E14FF900272F090002EE4F01238A2B1
:101C4000E541600415418002C2A3E54460041544E7
:101C50008002C2A21237F21219CFFF12399E122A45
:101C60008BC2CFD007D006D005D004D003D002D08D
:0E1C700001D000D0D0D082D083D0F0D0E032AE
:1038A20090027CEFF0D394074002E4F090027CE0B7
:1038B2009028C093FF1239E7752F0AD2045321F8DA
:0738C20090027CE04221228C
:102B5C001219861217F0600C400A900000120E73C6
:102B6C0000000000121917120A49600D400B903A30
:102B7C00421219891217B6802E12191D1218B1C0E3
:102B8C0004C005C006C0071218ABD003D002D00198
:102B9C00D0001209AC1218C312186F1218C3902867
:102BAC00D21218721218C3900000120E4B121A6037
:102BBC00903A48120E571218C91209ACC004C0053D
:102BCC00C006C007903A4CE493FC740193FDEC12E0
:102BDC000ABBD003D002D001D000121A60E4FFFE71
:102BEC00FDFC9002AD1217F0500A9002AD120E735C
:102BFC00000000007F007EFF7D7F7C479002AD12BD
:102C0C0017F0600C400A9002AD120E73477FFF0064
:092C1C001218C9120AF412197D04
:012C2500228C
:10233C009002B3120E67E4FFFE7D407C409002B326
:10234C001217F05006E4FFFEFDFC22903A8812189A
:10235C00249001C5120E67903A8C1218249001C972
:10236C00120E67903A901218249001CD120E6790BD
:10237C003A941218249001D1120E67903A981218C0
:10238C00249001D5120E67903A9C1218249001D912
:10239C00120E679001CD120E2F9001C912179B904F
:1023AC003AD012187290018B120E679001CD121751
:1023BC0095903AD412187290018F120E679001C941
:1023CC00121795903AD812187290019312190A129A
:1023DC0017B69001CD1217A4903ADC121872900126
:1023EC009712190A1217B69001CD1217B69001D197
:1023FC001217AD903AE012187290019B12190A1242
:10240C0017B69001CD1217B69001D11217B69001E4
:10241C00D51217B6903AE412187290019F120E67FB
:10242C00900197120E4B90019312182AC004C0050C
:10243C00C006C00790018F120E4B90018B12182A08
:10244C00D003D002D001D0001207B2C004C005C026
:10245C0006C00790019F120E4B90019B12182AD0B8
:0B246C0003D002D001D0001207B22202
:10138E005321F7900004E06003432108E532700317
:10139E00021700E4F553F554F555F556F557F55883
:1013AE00F559F55AF55BF55CF55DE55E6401600394
:1013BE00021443855F43E54330E30B900004740150
:1013CE00F0432108801AE4900004F05321F7E5431E
:1013DE005407FF900272E06F6006EF0490002EF04B
:1013EE00E54330E704D20F8002C20FE54330E50437
:1013FE00D20D8002C20DE54330E404D20C8002C24D
:10140E000C900184E41219231217DD9001A5E06EF1
:10141E007003A3E06F60111218E4300D0512197DF0
:10142E0080061217F612172BE52C60030216FD121A
:10143E001830021548E55E640270341217C8240095
:10144E00FFEE343A12193DE52C60030216FD75537A
:10145E0002121A69900269E0FEA3E0FF900066EEA8
:10146E00F0A3EFF0F5828E83E493F556021548E56E
:10147E005E6403701E1217C8121936AD611238C998
:10148E00E52C60030216FD755303121A6985615629
:10149E000216E7E55E640470191217C812193612A7
:1014AE003917E52C60030216FD755304121A6902F2
:1014BE0016E7E55E6405600302154BE52C6003023A
:1014CE0016FD755305855F54E554B401069002343C
:1014DE0002152FE554B4020690018A02152FE55429
:1014EE00640370071217358F58804FE554B4040506
:1014FE00900275802CE554B40505852155803BE599
:10150E0054640670141219689000001217B612185F
:10151E00D81217DE1219458021E554B40708900041
:10152E0039E0F5558014E554B4080FE590540EF5E6
:10153E00553085034355011219DF0216E7E55E6447
:10154E000660030216D0E55FB40119E560D394641A
:10155E004003021646E560940050030216469002C0
:10156E003402162FE55FB40212E560C394045006F0
:10157E0090018AE560F0D204021646E55F640370BE
:10158E0032AF63FCFDFE12178912189AAF62121960
:10159E00EB12178912189AAF611219EB12178912F2
:1015AE00189AAF601219EB121789900005120E6788
:1015BE00021646E55FB40419E560B40109900275A0
:1015CE007401F0021646900275E0606C04F002168B
:1015DE0046E55FB4050EE5607005C20C021646D2F4
:1015EE000C021646E55F64067028900184121923DA
:1015FE001217DD9001A5E06E7003A3E06F60391243
:10160E0018E4300D0512197D802E1217F612172BC5
:10161E008026E55FB4070FE560C39403501A90006F
:10162E0039E560F08012E55FB4080DE560C454F052
:10163E00FFE5A0540F4FF5A0E52C60030216FD75D3
:10164E005306855F54E554B401069002340216B574
:10165E00E554B4020690018A0216B5E5546403708F
:10166E00081217358F580216CEE554B404059002B1
:10167E00758034E554B4050D300C05755501804068
:10168E00E4F555803BE55464067014121968900019
:10169E00001217B61218D81217DE1219458021E55E
:1016AE0054B40708900039E0F5558014E554B40899
:1016BE000FE590540EF5553085034355011219DF91
:1016CE008017E55EB40705122E4F8023E55E640891
:1016DE007011E52C7019121956752C01D2A2754491
:1016EE000A800CE5326008E55E7004C20CF52CE44D
:1016FE00F532300C1030060DE52C7009121830C280
:10170E0006D216800F300C14301611E52C700D1207
:10171E001956C216752C01D2A275440A22900000E9
:07172E00120E67122B5C2272
:1026B3002532640025342E3166004155544F0045C0
:1026C300252B30336400484F5552530025372E32A3
:1026D300660045444954204C414D502054415247D3
:1026E300455400252525642E2564660041202020BD
:1026F30020004741494E2052414E4745203D20008E
:10270300524553504F4E53452054494D45203D208B
:10271300202053004D454E55204F5054494F4E00F5
:102723002053455420524553504F4E53452054494E
:102733004D4520200053454C454354204D4F4E49B1
:10274300544F5220554E495453002053454C454352
:1027530054204C414D5020554E49545320200020C5
:102763002056494557204C414D502054494D455220
:102773002020200020205455524E20444953504CD1
:102783004159204F464620200020205553422043E4
:102793004F4D4D204D4F4E49544F52202000564926
:1027A3004557204354454D502043414C20434F450A
:1027B300464600FF2723FF2738FF274DFF2762FFE9
:0227C300277776
:1033BC0090002F120E2FE4FBFA7920784122120E86
:1033CC002F9002B9120E677B017A02793622FD33F7
:1033DC0095E0FC74362DF58274023CF583227BFF5C
:1033EC009002B6020ED0120E2F900289120E4B02D2
:1033FC000A49F0900297E0FF900296E02290028931
:10340C00E4F0A3227401F0E4F54B2290002F020E9D
:01341C006748
:1036D300E54B603BE54BB41004D20F802FE54BB4B0
:1036E30008051221E98025E54BB480051229B28033
:1036F3001BE54BB42005122E4F8011E54BB4040596
:103703001236498007E54BB40102C20FE4F54B22A0
:1021E90012340904F0A3E4F0A304F0E4F54B12233C
:1021F9002D1222DC90028BE07002A3E07003022210
:10220900D912004612138EE54B60E9B4101FC39032
:10221900028AE09405900289E0648094805006E483
:1022290075F001802212340904F00222D0E54BB482
:102239000123D390028AE09401900289E06480949A
:1022490080400A74FFF5F0120DB30222D01234094E
:102259007405F08072E54BB44009E490028BF0A359
:10226900F08064E54B6402705E900289E07004A31B
:10227900E0640170051228D6804A900289E0700452
:10228900A3E0640270051224778039900289E07016
:1022990004A3E064037005122D9B8028900289E055
:1022A9007004A3E06404700512325F8017900289FC
:1022B900E07004A3E06405700B900275E0700204FD
:1022C900F0E4F54B12232D1222DCE4F54B0221FD3B
:0322D900023C00C4
:1022DC007BFF7A2679B39002B6120ED0900289E079
:1022EC00FFA3E09002B9CFF0A3EFF07B017A027963
:1022FC0036120F707B017A0279367F0F1234C99037
:10230C000289E0FEA3E09027B375F003120EA4EE51
:10231C0075F003A42583F583120ED97F141234C9EA
:10232C0022123C007BFF7A2779177F031234C922D3
:1028D600900295123410900234E0900294F0123C6B
:1028E600007BFF7A2779037F141234C9900295E0A2
:1028F60070030229A312004612138E7B017A017916
:10290600707F041234C9900234E0FCE4120AC090CD
:102916000296120E679002961233BF1209AC90020D
:1029260096120E677A2679B71233EA900296123318
:10293600CA120F701233D37F231234C9E54B60AC31
:10294600B410291229A6C39464504CE004F09000F8
:102956009FE0FEA3E0FF900234E025E0249DF5828F
:10296600E43400F583EEF0A3EFF0802BE54BB401E1
:102976000D1229A6D39401401EE014F08019E54BF0
:10298600B4400A900294E0900234F08005E54BB41E
:102996000205E4900295F0E4F54B0228F2023C00B1
:0C29A6007F647E001237BE900234E022F5
:1029B20090028B123410900272E0900289F0900023
:1029C20004E090028AF0123C007BFF7A2679F57FC0
:1029D200141234C990028BE07003022A8812004656
:1029E20012138E7B017A0179707F041234C9900030
:1029F20004E060087BFF7A2679BD80067B017A02BB
:102A0200796B7F211234C9E54B60C9641070249040
:102A12000004E0700F900272E0FFC394075005EFCC
:102A220024028021900272E0640770549000040432
:102A3200F0804DE54BB40124900004E0600DE4F019
:102A4200900272E00490002EF08035900272E0FF56
:102A5200D39400402B90002EEFF08024E54BB4403D
:102A62001590028AE0900004F07010900289E00450
:102A720090002EF08005E54BB40205E490028BF045
:092A8200E4F54B0229D6023C00E8
:102477009002957401F090018AE0D394044002E43D
:10248700F0E4F54B90018AE0900294F0123C007B57
:10249700FF7A2779387F141234C9900295E07003C8
:1024A700022597900272E0FFC374FD9FFF74FF94AB
:1024B70000FE90018AE0FDD394004017ED25E0244B
:1024C70066F582E4343AF583E493FC7401932FFFB5
:1024D700EC3EFE7A2679C21233EA9002B9EEF0A3F7
:1024E700EFF07B017A027976120F70120046121311
:1024F7008E90018AE0FFD394004009EF44309002A8
:1025070036F080069002367420F0E4900237F0121D
:1025170033D3FF1234C97B017A0179A97F021234C0
:10252700C990018AE070087BFF7A2679EF801290C4
:10253700018AE075F006A4246AF9743A35F0FA7B4B
:10254700FF7F0F1234C9E54B70030224A1B4100EAC
:1025570090018AE0C394045031E004F0802CE54BED
:10256700B4010E90018AE0D39400401EE014F0807D
:1025770019E54BB4400A900294E090018AF0800577
:10258700E54BB40205E4900295F0E4F54B0224A173
:03259700023C0003
:102D9B009002957401F0900039E0D394024002E464
:102DAB00F0E4F54B900039E0900294F0123C007B7C
:102DBB00FF7A27794D7F141234C9900295E0700386
:102DCB00022E4C12004612138E7B017A00791EE400
:102DDB00FF1234C9900039E070087B017A00793C0E
:102DEB008013900039E07B01B401067A00790A80E8
:102DFB00047A00796E7F0A1234C9E54B60BCB410BB
:102E0B000E900039E0C394025031E004F0802CE5C1
:102E1B004BB4010E900039E0D39400401EE014F047
:102E2B008019E54BB4400A900294E0900039F08091
:102E3B0005E54BB40205E4900295F0E4F54B022D49
:042E4B00C5023C0080
:102E4F00900272E025E025E02410F582E43402F5CB
:102E5F0083120E2F900186120E4B1207B2123417E7
:102E6F00900272E0FF900037E4F0A3EFF0D39000F0
:102E7F0038E09400900037E064809480401512335E
:102E8F00BC1209AC12341790003774FFF5F0120D15
:102E9F00B380DAE4900037F0A3F090002F120E2FDA
:102EAF00C004C005C006C007900037E0FEA3E0785D
:102EBF0002C333CE33CED8F92410F58274023EF517
:102ECF0083D007D006D005D004120E671233BC1280
:102EDF0008A3123417900037E475F001120DB39068
:0C2EEF000037E07004A3E0640870AF221C
:10325F00900298123410123C007BFF7A2779627F1C
:10326F00141234C97BFF7A2679C97F0D1234C990A5
:10327F000298E0605812004612138E900005120E4D
:10328F002FE4120AB6900294120E67900294120E57
:10329F002F7B007AA0790C78471209AC9002941218
:1032AF000E677BFF7A2679CF1233EC90029412339C
:1032BF00CA120F701233D37F051234C9E54B60AFBA
:1032CF00B44005E4900298F0E4F54B80A2023C0074
:10364900E4F54B123C007BFF7A2679D57F161234BC
:10365900C990028D120E73000000009028CA120E44
:103669003B900291120E679002957405F0A304F045
:10367900A37403F0900000120E2F121E7790000021
:09368900120E67122B5C023C00DA
:061E7700900289120E67C3
:101E7D00900289120E2F9002A7120E679002ABE40A
:101E8D00F0A3041233FEC39F24FE9002A2F0A3120E
:101E9D000E733F8000007BFF7A2679E61233EC90BB
:101EAD000296E0FE3395E09002B9F0A3CEF09002D9
:101EBD0097E0FE3395E09002BBF0A3CEF07B017A64
:101ECD00027998120F709002ABE07002A3E07003DC
:101EDD0002203512004612138E7B017A0279981278
:101EED0033EC900289120E2F9002B9120E677A020E
:101EFD007936120F709002A2E0FF1233DAE0B420AF
:101F0D0014EF1233DAE0B4200CAE070FEE1233DB10
:101F1D007430F080ECE54F701BE55130E016900207
:101F2D00A2E0FF3395E0FE74362FF58274023EF584
:101F3D00837420F0900295E0FF1233D31234C9E57B
:101F4D004B6083B4100E1220369002A3120E4B126A
:101F5D0007B28011E54BB401121220369002A31284
:101F6D000E4B1207AE900289021FECE54B64807098
:101F7D002E9002A2E0D364809481500302200CE0E5
:101F8D00141233FE9F14FF9002A2E0B50703E01474
:101F9D00F09002A31233BF1208A39002A38040E574
:101FAD004B6420703F900296E0FF14FE9002A2E079
:101FBD00FDC3EE6480F8ED6480985043E004F0902A
:101FCD000297E0FEC3EF9E14FF9002A2E0B5070357
:101FDD00E004F09002A31233BF1209AC9002A312D9
:101FED000E67801BE54BB44008E4F54B9002A780CB
:101FFD000BE54BB40209E4F54B900289020E2F90CC
:10200D0002911233F260074005900291800B90020D
:10201D008D1233F2500C90028D120E2F90028912F8
:08202D000E67E4F54B021ED31F
:0F203500227F647E001237BE900289120E2F2286
:102EFB001201000100000008740C12000001010215
:102F0B00000109022900010100C0000904000002B0
:102F1B0003000000092100010001221B00070581AD
:102F2B000308000A0705020308000A0600FF09014F
:102F3B00A10109019508750826FF001500090181FB
:102F4B000209019102C0040309041C034F00700025
:102F5B00740072006F006E006900630020004C006B
:102F6B0061006200730028034F004C002000340006
:102F7B003000300020004C006900670068007400CE
:102F8B00200053006F007500720063006500FF2F77
:072F9B0051FF2F55FF2F71BC
:06374A004302EF00000045
:1039B700FEE02400FFEC3EF0A3EFF022900282E04D
:0939C7004408F0E49002EFF02244
:03004300022C2666
:102C2600C0E0C0F0C083C082C0D075D000C000C074
:0D2C360001C002C003C004C005C006C007F5
:102C4300E59620E7FB759686E59620E7FB90027DE7
:102C5300E597F0E59620E7FB759682E59620E7FB7E
:102C630090027EE597F0E59620E7FB759684E5965E
:102C730020E7FB90027FE597F0E59620E7FB75964A
:102C830091E59620E7FB900280E597F090027DE0C6
:102C930030E103123C1B90027DE030E20312000E90
:102CA30090027EE030E003121C7E90027EE030E171
:102CB3000312334F90027FE030E20312315490024B
:082CC3007DE030E003123C2526
:102CCB00D007D006D005D004D003D002D001D0005D
:0B2CDB00D0D0D082D083D0F0D0E03207
:0A3C1B00900281E475F001020DB380
:10000E009002F57402F0E59620E7FB759601759760
:0D001E0001E49002EFF0A37403F0A3F022C0
:101C7E00E59620E7FB75960EE4F597E59620E7FBD3
:101C8E00759691E59620E7FB900281E597F090021C
:101C9E00EFE0B40513E59620E7FBE4F5969002E637
:101CAE00E0F597E49002EFF0900281E0FF30E21051
:101CBE00E59620E7FB759611E4F5979002EFF0227A
:101CCE00EF30E41BE59620E7FB759611759708E556
:101CDE009620E7FB759611759780E49002EFF090D1
:101CEE0002EFE06003021DC6900281E020E00302D5
:101CFE001DC67B017A0279E37D087C007F201235B8
:101D0E00189002E6E0FE9002E5E07C001239B990F0
:101D1E0002E8E09002E71239B79002EAE09002E999
:101D2E001239B79002E3E0547F64217035A3E024AA
:101D3E00FE601B14602224FA600F14601614601DDE
:101D4E00240A707112387A806F12000A806A1200AB
:101D5E00078065123C2F8060123C32805B123C3350
:101D6E0080569002E4E0120EE51D96001D9B011DAB
:101D7E00A0031DA5051DAA061DAF081DB4091DB99A
:101D8E000A1DBE0B00001DC3122CE6802B1230362E
:101D9E008026122FA280211235FE801C12259A80D9
:101DAE001712347680121231DA800D1236928008B4
:101DBE0012378980031239819002EFE064016003CB
:101DCE00021E76900281E030E103021E76E5962037
:101DDE00E7FB759691E59620E7FB900281E597F07B
:101DEE00E030E40630E003021E769002827402F0C8
:101DFE00C39002EEE094089002EDE0940040309023
:101E0E0002F2120EB07D087C007F20123566900221
:101E1E00F3E475F008120DB39002ED74FF75F0F84F
:101E2E00120DB39002EBE475F008120DB38016900C
:101E3E0002EDE0FCA3E0FD9002F2120EB07F201244
:101E4E0035661239C39002E9E0FEA3E0FFA3E0B5C8
:101E5E000608A3E0B507031239C3E59620E7FB7524
:081E6E009611900282E0F59745
:011E76002249
:10334F00E59620E7FB75960E759701E59620E7FB4E
:10335F00759691E59620E7FBAF979002F0E0B403E6
:10336F000CE59620E7FB75961175971022EF30E567
:10337F000BE59620E7FB759611759740EF30E20B42
:10338F00E59620E7FB759611E4F597E52C60127B27
:10339F00007A0079537D087C007F21123566E4F5B1
:0C33AF002CE59620E7FB75961175970140
:0133BB0022EF
:10315400E4FFE59620E7FB75960E759702E5962049
:10316400E7FB759694E59620E7FBAE979002F1E0B5
:10317400B4030CE59620E7FB75961475972022EEB0
:1031840030E60BE59620E7FB759614759780E59677
:1031940020E7FB759696E59620E7FBAF97E532703E
:1031A40005EF6408600DE59620E7FB7596167597A4
:1031B4001080177B007A00795E7D087C007F2212E4
:1031C4003518753201D2A375410AE59620E7FB75DF
:0531D4009614E4F597DC
:0131D90022D3
:0A3C2500900281E475F001020DB376
:10351800900283EFF0900286120ED0900284ECF0B5
:03352800A3EDF020
:10352B004C6037900283E0F5964396C0E4FFFED3E0
:10353B00900285E09F900284E09E401BE59620E779
:10354B00FB900286120EB08F828E83E597120D7F51
:0A355B000FBF00010E80D8E4F596C2
:013565002243
:10356600900283EFF0900286120ED0900284ECF067
:03357600A3EDF0D2
:103579004C6036E59620E7FB900283E0F596E4FF80
:10358900FED3900285E09F900284E09E401B90024A
:1035990086120EB08F828E83120D40F597E5962024
:0935A900E7FB0FBF00010E80D802
:0135B20022F6
:10398100E59620E7FB75960EE4F597E59620E7FBB3
:0D3991007596117597209002EF7404F022D6
:0400030001000000F8
:10341D007596117597409002EF7401F0E49002EBF0
:10342D00F0A3F0227A0079057BFF9002F2120ED004
:10343D009002EDE4F0A32275960EE4F5979002EF5D
:10344D00E06404227BFF9002F2020ED07596117596
:10345D00974022E493FF9002EDE4229002F5E064A0
:09346D00042275960E75970122E8
:102CE6009002E5E07010A3E0700C9002E9E0700637
:102CF600A3E0640260031239819002E3E0247F605E
:102D06001B1460332402707C9002E7E0701FA3E07E
:102D1600600280707BFF7A007903805E9002F5E0A6
:102D2600B4040A9002E7E07004A3E0600280557BD9
:102D3600FF7A00790580439002F5E0B4040690021C
:102D4600E7E06002803E9002E8E0FFB48115900261
:102D5600F0E07BFFB403067A00790380047A0079F9
:102D6600058017EFB4021B9002F1E07BFFB4030667
:102D76007A00790380047A0079051234377402F0F8
:102D86008005800012398112344A6008E59620E7F2
:052D9600FB12341D22B8
:1030360012346870779002E3E0FF60706401606CA0
:103046009002E5E070669002E7E070609002E9E0C9
:10305600705AA3E0600280549002E3E06402704C70
:103066009002E6E070469002E8E0FF64816005EFBA
:1030760064027038EFB48117E59620E7FB12346FCF
:10308600E59620E7FB123459E49002F0F08020E543
:103096009620E7FB75960E759702E59620E7FB7579
:1030A6009614759780E49002F1F08003123981E559
:1030B6009620E7FB1234446008E59620E7FB1234BD
:0230C60059228D
:102FA20012346870799002E3E0FF60726401606E2F
:102FB2009002E5E070689002E7E070629002E9E05A
:102FC200705CA3E0600280569002E3E06402704EFF
:102FD2009002E6E070489002E8E0FF64816005EF4D
:102FE2006402703AEFB48118E59620E7FB12346F61
:102FF200E59620E7FB7596117597109002F08019FF
:10300200E59620E7FB75960E759702E59620E7FB9D
:103012007596147597209002F17403F080031239AB
:1030220081E59620E7FB1234446008E59620E7FB31
:0430320012345922D9
:1035FE009002E3E0701D9002E7E07017A3E07013F5
:10360E00A3E0700FA3E0700B9002E5E07005A3E05D
:10361E0030E7031239819002EF7405F09002E6E074
:10362E009002F560057403F080037402F012344AC0
:0B363E006008E59620E7FB12345922DB
:10259A009002E5E0120EE525BA0125C60225E503FB
:1025AA002602042613052642212657220000266306
:1025BA007A2E79FB123451902EFB80487A2F790DAE
:1025CA00123451902F10E493FE902F0FE4937C0065
:1025DA002400FFEC3E9002ED0226519002E6E075DF
:1025EA00F003902F99120EA4120ED9123453120D21
:1025FA0027FF9002EDE4804F7BFF7A2F7916123481
:10260A0053902F16123460803E9002E6E0FF6481F8
:10261A006005EF64027042EF7BFFB4810C7A2F7978
:10262A0028123453902F28800A7A2F792F12345384
:10263A00902F2F123460800F7BFF7A2F791F12346C
:10264A0053902F1F123460F0A3EFF0800F7A2F7986
:10265A0036123435741BF080031239819002E5E09A
:10266A00FF64016013EF6402600EEF64036009EF18
:10267A0064046004EFB405239002EAE0FFD39002F9
:10268A00EEE09F9002EDE0940040109002E9E070C5
:10269A000AE0FE9002EDEEF0A3EFF012344A600871
:0926AA00E59620E7FB12341D2225
:103476009002E3E06480701C9002E5E07016A3E021
:103486007012A3E0700EA3E0700AA3E07006A3E03A
:1034960064016005123981801C9002F5E0FFB404D6
:1034A6000B7BFF7A00790312343704F0EFB403057F
:1034B60012343104F012344A6008E59620E7FB1214
:0334C600341D2290
:1031DA009002F5E0640260259002E3E0701F90021D
:1031EA00E7E07019A3E07015A3E07011A3E0700D79
:1031FA009002E5E07007A3E0D394014005123981FB
:10320A0080459002E6E0D3940040309002F57404C1
:10321A00F0E49002F0F0A3F0E59620E7FB12346F99
:10322A00E59620E7FB75961275972012334FE596BF
:10323A0020E7FB75960EE4F597800C9002F574036F
:10324A00F09002F0F0A3F012344A6008E59620E705
:05325A00FB12345922B3
:1036920012346870249002E3E06481701C9002E5A9
:1036A200E07016A3E07012A3E0700EA3E0700AA30C
:1036B200E07006A3E06401600512398180051234CE
:1036C2003104F012344A6008E59620E7FB12341DFB
:0136D20022D5
:103789009002E3E06401701C9002E9E07016A3E086
:1037990070129002E5E0700CA3E07008A3E07004D9
:1037A900A3E0600312398112344A6008E59620E7E4
:0537B900FB123459224F
:10387A00900269E0FEA3E0FF9002EFE06401600AB3
:10388A00AA06A9071234357440F012344A6008E5D2
:07389A009620E7FB12341D2C
:0138A1002204
:01000A0022D3
:030007000239813A
:033C2F00023981D6
:013C3200226F
:013C3300226E
:103A00000000000100000064000000003882715FC7
:103A10003882715F3882715F3882715F3882715F7E
:103A20003882715F3882715F3882715F3882715F6E
:103A3000149F149814A01499149F149914A014A9F5
:103A4000000000000000131538DA1A9301F43A5907
:103A5000C3551379400CCCCD3F800000405B4396AA
:103A60000000000000000000000800080000000046
:103A7000664C2020200063642F6D3200202020201F
:103A80002000202020202000000000000000000076
:103A90000000000000000000000000000000000026
:103AA0000000000000000000000000000000000016
:103AB0000000000000000000000000000000000006
:103AC00000000000000000000000000000000000F6
:103AD00000000000000000000000000000000000E6
:0A3AE00000000000000000007FFF5E
:1039D000C2AF8F828E8375FF80E4FFFE2243EF0229
:0739E00075B7A575B7F122D0
:1038C900A2AF92181239D00FBF00010EEF64C34E98
:1038D90070F51239DD438F01EDF053EFFDE4F5FF8B
:0638E900F58FA21892AF5A
:0138EF0022B6
:10391700A2AF92181239D00FBF00010EBE01F8BF37
:1039270090F51239DD438F03E4F053EFFDF5FFF512
:053937008FA21892AF01
:01393C002268
:1007AB00020B60E86480F8E933E83360110460F011
:1007BB00ED33EC337009E8FCE9FDEAFEEBFF2204B4
:1007CB0060DED3EB9FEA9EE99DE8C2E78CF0C2F7AF
:1007DB0095F0400CE8CCF8E9CDF9EACEFAEBCFFB7B
:1007EB00120B2B85D0F05804700320D5B3E804709E
:1007FB00075002B2D5020B6A92D5EC0460F7E4CC39
:10080B00C0E0C398F8603B94186008400DD0E0FB43
:10081B00020B42E4FBFAC9FC8028E830E406E4C989
:10082B00FBE4CAFCE830E305E4C9CACBFCE8540797
:10083B006010F8C3E913F9EA13FAEB13FBEC13FCA2
:10084B00D8F130F52FC3E49CFCEF9BFFEE9AFEED45
:10085B0099FDD0E0FBEF4E4D4C701222DB03020BE7
:10086B0067EC2CFCEF33FFEE33FEED33FDED30E7A1
:10087B00EB020B42EF2BFFEE3AFEED39FDD0E0FB26
:10088B0050130BBB0003020B6AED13FDEE13FEEFCF
:08089B0013FFEC13FC020B42F9
:1008A300EC4D6011E8497017ED33EC3304600DE44F
:1008B300FCFFFEFD22E933E8330470F8020B6012FB
:1008C3000B2B58046009E4CC2481500628500902FC
:1008D3000B6A284003020B67C0E0EB4A7044B980FF
:1008E30006D0E0FB020B56EF4E701CBD8008EBFFF9
:1008F300EAFEE9FD80EBE98DF0A4FEE5F002098C48
:10090300E9CDF9EAFEEBFFEF89F0A4FCE5F0CE892F
:10091300F0A42EFFE435F0CD89F0A42DFEE435F0EC
:100923008067EF4E7005BD80D780C3EF8BF0A4AC1A
:10093300F0EE8BF0A42CFCE435F0F8EF8AF0A42C55
:10094300E5F038FCE433CB8DF0A42CFCE5F03BF868
:10095300EE8AF0A42CFCE5F038F8E433CF89F0A458
:100963002CFCE5F038CF3400CE89F0A42FFFE5F05E
:100973003EFEE433C98DF0A42EFEE5F039CD8AF0B6
:10098300A42FFFE5F03EFEE43DFD33D0E0FB50072E
:100993000BBB000F020B6AEC2CFCEF33FFEE33FEB4
:0609A300ED33FD020B42E2
:1009A900020B6AEC5D046005E859047003020B60F0
:1009B900120B2B580460F6EC4860F2EC7004FDFE53
:1009C900FF22C860DB2481C85009C3986002500621
:1009D900020B679850CAF582E9294B4A7005AB8228
:1009E900020B5675F0007C1A7880C3EF9BEE9AEDE6
:1009F90099400DC3EF9BFFEE9AFEED99FDE842F099
:100A0900DC23ACF0D0E0FFD0E0FED0E0FDAB8220EB
:100A1900E7101BEB60BAEC2CFCEF33FFEE33FEED75
:100A290033FD020B42E803F830E705C0F075F0002A
:100A3900EF2FFFEE33FEED33FD40B830E7C280AA59
:100A490074F8CC6480CCC86480C8F582046043C360
:100A5900EB9FF5F0EA9E42F0E99D42F0E89C45F0F3
:100A690060305018E5825FFFE582F42B5582FB5018
:100A7900210ABA001D09B90019088016E5825BFB35
:100A8900E582F42F5582FF50090EBE00050DBD0009
:100A9900010CC3EB9FF5F0EA9E42F0E99D42F0E8B4
:0D0AA9009C45F06007CC4820E701B3EC222B
:100AB60075F020800E75F010800575F0087D007EBB
:100AC600007F003392D530D503120DE4EC3340108D
:100AD600EF33FFEE33FEED33FDEC33FCD5F0ED22C4
:0E0AE600E5F0247EA2D513CC92E7CDCEFF2200
:100AF400EDD2E7CD33EC3392D524814006E4FFFEFA
:100B0400FDFC22FCE4CFCECDCC24E0501174FF8058
:100B1400EDC3CC13CCCD13CDCE13CECF13CF0470F5
:070B2400F030D5DE020DE404
:100F0B00E50824B6F582E43402F583E00508229067
:100F1B0002B3301F039002B6E475F001120EB90252
:100F2B000D272018E97F2ED2188018EF540F24902C
:100F3B00D43440D4FF301C0BEF24BFB41A00500341
:100F4B002461FFE50960021509050CE50C7002052B
:100F5B000B301F0E9002B3E475F001120EB9EF02C5
:100F6B000D6D0238F07403D21F8003E4C21FF50825
:100F7B009002B3120ED0E4F509F50BF50CE5096000
:100F8B00077F20120F4E80F5750AFFC219C218C2D7
:100F9B001AC21BC21DC21EC220120F1AFF700D30C7
:100FAB001F057F00120F5FAF0CAE0B22B4255FC283
:100FBB00D5C21C120F1AFF24D0B40A00501A75F0B8
:100FCB000A780930D50508B6FF0106C6A426F62017
:100FDB00D5047002D21B80D924CFB41A00EF500471
:100FEB00C2E5D21C021251D21980C6D21880C0D2CF
:100FFB001A80BCD2D580BAD21D80B47F20120F4E7E
:10100B00201A077401B5090040F1120F0BFF120FE4
:10101B004E020F88D220D21E8095120F0BFB120F9F
:10102B000BFA120F0BF94A4B7006794F7A137BFFB1
:10103B00201A2EE509602A7E008E82758300120D20
:10104B004060060EEE650A70F0C2D5EBC0E0EAC058
:10105B00E0E9C0E0EE1212B2D0E0F9D0E0FAD0E055
:10106B00FB120D27FF60AAEBC0E0EAC0E0E9C0E08D
:10107B00120F4ED0E02401F9D0E03400FAD0E0FB9F
:10108B00E50A0460DCD50AD98087D21A80A2121235
:10109B009460F7E50A700104120B75A90A600DE55F
:1010AB000A600914F50A12133CEF60F3EA30E70209
:1010BB00F404C3995079EAF4250A0430E701E404F7
:1010CB00F50A800D12129460C1EA050A250A120B6B
:1010DB0075EA9002E2F030E701E4250A04D50A0430
:1010EB00201D01141212B2E4C0E012133C9002E274
:1010FB00E0601320E70714F0120F36802204F0D0C3
:10110B00E014C0E07F00120F36E50A6007120F2DC6
:10111B00150A800B301D03120F2DD0E0020F88D063
:10112B00E00480C4121294609EE50A04120B7590C1
:10113B0002E2EAF0E50A201D026001042404121207
:01114B00B2F1
:10114C0074FF04C0E012133C120F36E50A201D0296
:10115C006003120F2DD0E0B50AE87F45120F4090C6
:10116C0002E2E07F2B30E7047F2DF404C0E0120F85
:10117C004ED0E075F00A84C0F0120F37D0E0120F99
:10118C0037020F88791080027908C21EC2208008AD
:10119C00D2D5790A8004790AC2D5E50A047002F521
:1011AC000AE4FAFDFEFF120F0BFC7B082019131248
:1011BC000F0BFD7B1030180A120F0BFE120F0BFFDA
:1011CC007B20EC3382D592D55013C3E43018069FA4
:1011DC00FFE49EFEE42019039DFDE49CFCE4CBF8A7
:1011EC00C219EC700CCFCECDCCE824F8F870F3809B
:1011FC0017C3EF33FFEE33FEED33FDEC33FCEB3373
:10120C00FB994002FB0FD8E9EB301905F8D0E0C48C
:10121C0048B219C0E00AEC4D4E4F78207B0070C2EA
:10122C00EAB50A0040BCC0E01212B4D0F0D0E02005
:10123C001904C4C0E0C4B219C0F0120F37D0F0D5F5
:10124C00F0EB020F88120EE51025531190580FF693
:10125C004C0FF24211944F119C44119C49100B43BA
:10126C0011A25510CF46112F45109947136F500FEF
:10127C00FA2D0FFE2E10212B100223101F201358B5
:10128C002A0FBA4800001019E50AB4FF03750A06C4
:10129C00120F0BFC120F0BFD120F0BFE120F0BFF9C
:1012AC009002DB020BB2790AA2D5201B14301D0967
:1012BC00B910020404B9080104A2D5201E02500181
:1012CC0004201A68921AB509005034C0E07F20300F
:1012DC001B197F30A21A721E721D500F12130BC2F3
:1012EC001AC21EC21DC2207F30800F301D03E9C000
:1012FC00E0120F4E301D03D0E0F9D0E0B509CC3030
:10130C001D177F30B9100C120F4E7F58301C077F01
:10131C00788003B90803120F4E301A057F2D020F87
:10132C004E7F202020F87F2B201EF322921A80CF94
:10133C007F00B40700500B24DBF582E43402F58304
:10134C00E0FF22286E756C6C2900D219120F0B303D
:10135C0019F8C219780930D50108F6020FBA2D50C8
:10136C00434958120F0B2403B405004001E49013B9
:10137C006A93120F3F743A120F3FD21B7509040285
:02138C001190BE
:100B2B00E9D2E7C933E833F892D5EDD2E7CD33EC10
:070B3B0033FC5002B2D52289
:100B4200EC30E7100FBF000C0EBE00080DBD000414
:100B52000BEB6014A2D5EB13FCED92E7FD2274FFC0
:100B6200FCFDFEFF22E480F8A2D574FF13FC7D8019
:030B7200E480EF2D
:100B7500F920E73624F950037907E4F42402FBE56C
:100B850082158270021583DBF6E024FB501BE960B9
:100B950014E4F0E582158270021583E004F0B40ACE
:0D0BA50008E4F0D9EE7401F00A22C2D52256
:100BB200ED33EC3392D5FA602AB4FF33EDC2E77B12
:100BC200FF60067A0B79D7E4227A0B79E020D5040C
:100BD2007A0B79DB224E614E002B494E46002D499D
:100BE2004E4600E47A08F0A3DAFC7B00740722C0C8
:100BF20083C082ECC0E0EDC0E0EEC0E0EFC0E0EA0E
:100C020075F010A4CAABF075F04DA42BFBE435F0DF
:100C1200FCEA2410FAEB34C5FBEC34D9FCEDC2E754
:100C2200FF75F056A4F42411C5F0F434C58FF0A476
:100C32002AE5F03BE43CF020E714120CE7D0E0FF99
:100C4200D0E0FED0E0FDD0E0FC1209AC8014F40448
:100C5200120CE7D0E0FFD0E0FED0E0FDD0E0FC12C5
:100C620008A3D082D083E0FAEDD2E7CD33EC33246F
:100C720082FBE4C3CF33CFCE33CECD33CD33DBF3E0
:100C82007B0775F00A846004F0A31B0AE5F0F0A369
:100C92008FF0740AA4FFACF08EF0740AA42CFEACA0
:100CA200F050010C8DF0740AA42CFDE435F0F0A391
:050CB200DBDE740722E7
:100CB7003F8000004120000042C80000447A000045
:100CC700461C400047C35000497424004B189680C7
:100CD7004CBEBC205A0E1BCA6753C21C749DC5AEBE
:100CE700FB60065407601C2323120D15EB54386074
:100CF70009120D01120D101208A3ECF8EDF9EEFA26
:100D0700EFCB22EB120D1080F1543803241C900C0A
:100D1700B7FE93FC0EEE93FD0EEE930ECE93FF22DD
:030000000230C803
:0C30C800787FE4F6D8FD75816902310FB5
:100D2700BB010689828A83E0225002E722BBFE02CA
:090D3700E32289828A83E49322FD
:100D4000BB010CE58229F582E5833AF583E0225068
:100D500006E92582F8E622BBFE06E92582F8E222B2
:0D0D6000E58229F582E5833AF583E49322CC
:100D6D00BB010689828A83F0225002F722BBFE0165
:020D7D00F3225F
:100D7F00F8BB010DE58229F582E5833AF583E8F0AA
:100D8F00225006E92582C8F622BBFE05E92582C856
:020D9F00F2223E
:100DA100EF8DF0A4A8F0CF8CF0A428CE8DF0A42E66
:020DB100FE2220
:100DB300C5F0F8A3E028F0C5F0F8E58215827002CB
:060DC3001583E038F02268
:0E0DC900C3EF9BFFEE9AFEED99FDEC98FC2225
:0D0DD700EF4BFFEE4AFEED49FDEC48FC221B
:0E0DE400C3E49FFFE49EFEE49DFDE49CFC2220
:100DF200EB9FF5F0EA9E42F0E99D42F0EC6480C878
:060E020064809845F02217
:100E0800E86010ECA2E713FCED13FDEE13FEEF1300
:040E1800FFD8F022ED
:100E1C00E8600FEFC333FFEE33FEED33FDEC33FC34
:030E2C00D8F122D8
:0C0E2F00E0FCA3E0FDA3E0FEA3E0FF2236
:100E3B00E493FC740193FD740293FE740393FF22FD
:0C0E4B00E0F8A3E0F9A3E0FAA3E0FB222A
:100E5700E493F8740193F9740293FA740393FB22F1
:0C0E6700ECF0A3EDF0A3EEF0A3EFF022FE
:100E7300A8828583F0D083D082120E8A120E8A1242
:100E83000E8A120E8AE473E493A3C583C5F0C58367
:100E9300C8C582C8F0A3C583C5F0C583C8C582C8C9
:010EA300222C
:0C0EA400A42582F582E5F03583F5832259
:090EB000E0FBA3E0FAA3E0F92243
:100EB900F8E0FBA3A3E0F925F0F0E58215827002C2
:070EC9001583E0FA38F02266
:090ED000EBF0A3EAF0A3E9F02223
:0C0ED900E493FB740193FA740293F92275
:100EE500D083D082F8E4937012740193700DA3A39C
:100EF50093F8740193F5828883E4737402936860B0
:060F0500EFA3A3A380DFAF
:1038F000EFB40A07740D1238FB740A309811A899B6
:10390000B8130CC2983098FDA899C298B811F63037
:0739100099FDC299F599220F
:1030D400022044E493A3F8E493A34003F68001F2AE
:1030E40008DFF48029E493A3F85407240CC8C333FD
:1030F400C4540F4420C8834004F456800146F6DFCC
:10310400E4800B0102040810204080903713E47E11
:10311400019360BCA3FF543F30E509541FFEE493C0
:10312400A360010ECF54C025E060A840B8E493A387
:10313400FAE493A3F8E493A3C8C582C8CAC583CAB2
:10314400F0A3C8C582C8CAC583CADFE9DEE780BE6A
:013750000078
:00000001FF
