:09355B009002ADEFF0A3120ED6B0
:10356400E49002B1F0A3F09002AE120EB69002B154
:10357400E0FEA3E0F5828E83120D46FF60279002E1
:10358400ADE0FD3395E0FC74DE2DF58274013CF56D
:1035940083EFF09002ADE004F09002B1E475F00125
:0535A400120DB980C208
:0135A90022FF
:0D3C9400E4FF7E289001DE7420F0A3DEFC2A
:013CA1002200
:103C0000D3EF9400EE94004015E4FDFC0DBD0001DF
:0E3C10000CBC05F8BD12F5EF1F70E51E80E23A
:013C1E002283
:1033D200E4900289F0A3F0A3F07F64FE123C001295
:1033E2003C947B01E4FD7F301237E37F0A7E0012BA
:1033F2003C007F301234187F301234377F38123459
:10340200187F081234377F0C12342B123C007F06CF
:0634120012342B023C0005
:103418007B01E4FD1237E37F017E00123C007B0153
:10342800E4FD227B01E4FD1237E37F017E002212D6
:0A34380037E37F017E00123C002202
:102B0900900275E07055900009E0C3648094A84074
:102B19000AE4F07B01AD357F02804D900009E0B4F5
:102B2900140B74FFF07B01AD357FA8803B90000941
:102B3900E0C36480948050057414F0800390000908
:102B4900E0FF04F0EF3395E0FE74DE2FF5827401A7
:102B59003EF583E0FFE4FBAD35800D900275E07B27
:102B690001AD35B401077F081237E3800A7F0C12E3
:102B790037E3E4900275F0E549603D654F7027E55C
:102B89004AD394004046154AE54A7040E52AD39451
:102B9900324039854F4BE4F52A900275E0640170A3
:102BA9002BE004F08026E54B702285494F754A0ACF
:102BB90090027174FAF08014E4F54FF54A900271AD
:102BC90074FAF0E52AC394FF5002052AE548422227
:012BD90022D9
:1037E300EB7006ED4420FD8004ED54DFFDC294E44C
:1037F300F5A3C2FF30FFFD85A348AE058EA3C2FF2C
:1038030030FFFD85A3498FA3C2FF30FFFD85A3527F
:08381300D294E4F5A3C2FF22E8
:04385000AB07AA0612
:10385400E4F54B900271E0FF7E007C007DF0120DD8
:10386400A7EEFDEAC313FEEB13FFC3ED9FEC9E50DE
:0F38740002AD07AF05900271EFF0F54A752AFF1C
:013883002222
:0F3C850030FFFD8FA3C2FF30FFFDD295C2952205
:103C3C00AD07AC06ECF5A3C2FF30FFFDC296EDF567
:093C4C00A3C2FF30FFFDD2962255
:1038E20053D9BFE4F5EF123884123CA21238B61253
:1038F20036451239F47FC87E00123C001233D27F63
:0A39020021123C851239CFD2AF220A
:0D3CA20043B203E4F5A943A91075B69022C2
:10364500E59620E7FB759601759708E59620E7FB5B
:10365500759607759707E59620E7FB7596097597A3
:1036650007E59620E7FB75960B75970775D7C0E5B7
:103675009620E7FB75960F7597A043E602D2AFE556
:0B3685009620E7FB7596017597012267
:1038B60075A4D575A5F175A6FD75D488E4F5D5F57D
:1038C600D675E10375E2E8D297D296D294C295C234
:0C38D600A7C2A6C2A5C2A4C2A2C2A3221F
:0A39F40075A20B75A14075F80122C1
:1039CF0075D90675D840758951D2A9D2B9D28CD282
:1039DF008E75CBFE75CA0C75CDFF75B12075C801FC
:0539EF00D2ADD2CA2296
:1038840020A12EE4F5B1F5E2F5E1C2CAC28EC28CE4
:10389400C2ADC2ABC2A9F5D8F5D7C2AF53D9BFF5F3
:1038A400FFF5EF75C980F5F1F5F2F5F3F5F47587D9
:0238B4000222EE
:1028430020474F4F434820414E4420484F5553455E
:10285300474F20200020204F4C203430302D432080
:1028630020205625342E32662020004120202020AF
:1028730000205F5F2E5F5F5F2041200025372E33EE
:1028830066204120002020205F5F5F5F204B2000F7
:1028930025203764204B20002520372E3266206800
:1028A300720020203E3130303030206872002537EE
:1028B300752072410045252B3033640025372E34B3
:1028C30066202573200052452D5A45524F2025730B
:1028D300200025377520257320002D2D2D2D2D2D1E
:1028E3002D202573200020204F564552202025738C
:1028F300200020554E4445522020257320005F5F61
:102903005F5F2E5F5F205620002056434D504C21C1
:10291300205620002056204F564552205620002096
:1029230056554E4445522056200025372E326620F8
:10293300562000252037752072560021412242245B
:10294300442040404040D3333340D0000040800017
:012953000083
:1037A500012C000132000B5E00000000000000004B
:1037B5000000000B530000000000000000000000A6
:1037C5004102750041000900410271644201C300D4
:0737D5000001410001440066
:10174900900005120E3590016B120E6D90016B120F
:101759000E35E48F5590016B120E357808120E0E76
:1017690090016B120E6D90016B120E35E48F56903D
:10177900016B120E357808120E0E90016B120E6D68
:1017890090016B120E35E48F5790016B120E35786C
:1017990008120E0E90016B120E6D90016B020E3540
:1017A900120E359001C5120E511208A99001D112DD
:1017B9000E511208A99001D5120E511208A99001D3
:1017C900D9120E510208A97A2879B87BFF9002B67E
:1017D900020ED6900184F0A3E560F0E07F00FE9050
:1017E9000184F0A3EFF0E55FFF900184EEF0A3EF31
:1017F900F0227F977EFF7D1F900186120E51020A0B
:101809004F900184E0FCA3E0FDE4120AC190009727
:10181900120E6D900097120E35E4FBFA797A78442E
:101829001209B2900097120E6D900097020E3512B0
:101839000E5D9002B3120E350207B475530185216E
:1018490054900274E0F555900273E0FF8F569001B1
:10185900A8E0F5579001A7E0FF8F589001C2E0F585
:10186900599001C1E0FF8F5A229002B97B017A0297
:10187900796B120ED67A01797022903A42120E5D76
:101889000208A975F006A4246AF582E4343AF583BE
:10189900E4935480FF3395E04F22E493FC74019361
:1018A900FDE4120AC1A804A905AA06AB0722F9F8A2
:1018B9009001C3E0FEA3E0FFE4FCFD227808120ECC
:1018C9002290016B120E6D90016B020E5190000077
:1018D900120E5190294C120E410207B4EE9002B932
:1018E900F0A3EFF0229002AD120E6D9002AD020E40
:1018F90035120E359002B9020E6DE4FBFAF9783F04
:101909001207B8020AFA900184E0FEA3E09001A54B
:10191900FFEEF0A3EFF022900005120E35E4120A53
:10192900BC7B457AA979AB784D020A4F120E6D90AE
:1019390001C9120E359001C522900000120E359092
:101949002950020E5DF0A3E561F0E07F00FE9001F1
:1019590084F0A3EFF0E560222400FFEE343AFE9014
:101969000269F0A3EFF022E0F555900184E0F8E474
:10197900F0E8A3F0E0F556227553089001A4E0F5CC
:10198900549001A3E0FF8F5522E4FFFE7D7A7C4449
:1019990022C39001C4E094649001C3E094002290B2
:1019A900003AEEF0A3EFF022902948120E41900080
:1019B9000022E025E0249FF582E43400F58322E04B
:1019C90025E0247EF582E43400F583227B017A0246
:1019D900797622900186020E6D900186020E35906D
:1019E90002737480F0A3E4F022EEF0A3EFF07BFF22
:1019F900229001C3E0FEA3E022747FF0A374FFF0FC
:101A090022E5A054F0F556C4540FF55622E4FCFD26
:101A1900FE020DDDE4FFFE7DC87C4290006822FFD6
:101A2900E43EFEE43DFDE43CFC227B017A00791EA4
:101A3900227B017A00793C22E4FBFAF9783F22E41F
:101A4900FBFAF978BF227B017A02796B22E0FCA3C9
:101A5900E0FDE4020AC1900272E025E0227F977E50
:101A6900FF7D1F9001BD22900068020E6D9002AFAC
:101A7900020E6DFEFDFC90009B020E519002AF021A
:101A89000E351207B89002AD020E6D855F54856060
:021A99005522D4
:10206F001238E2E4900037F0A3F0900037E0FEA3BF
:10207F00E0FFC39408EE648094805026EF7802C38B
:10208F0033CE33CED8F92410F58274023EF5831285
:10209F000E7900000000900037E475F001120DB9C1
:1020AF0080C8E490002EF0F54B900004E07009908A
:1020BF000272E0D394074005E4900272F09002722E
:1020CF00E00490002EF090018AE0D394044002E4E3
:1020DF00F090018AE0FFD39400400BEF12188C6050
:1020EF0005E490018AF0900039E0D394024002E4B5
:1020FF00F0900234E0D3946440037464F09002349F
:10210F00E0C3940150037401F0121920500A90009B
:10211F0005120E791575B6A01219B1121804600CBC
:10212F00400A900000120E7900000000C20CC20E8F
:10213F00C20DC20FE49001A5F0A3F07545027529F9
:10214F00029001C3F0A3F0F550F551FFFE123C3C95
:10215F00122BDA7A2879431217D4122219E4FF12BC
:10216F00355B7BFF7A2879581217D69002B9120E79
:10217F0079400D70A41222197F1412355B7FD07E27
:10218F0007123C00123C941237651200461213944A
:10219F0090018AE07B0170117A0179707F0212350C
:1021AF005B7BFF7A28796E801B7A0179A97F0212F7
:1021BF00355B90018AE075F006A4246AF9743A350C
:1021CF00F0FA7BFF7F0F12355B121A337F14123533
:1021DF005B300E05121A3A801F300F07900039E05E
:1021EF00B402087B017A00796E800D900039E0B45B
:1021FF00010D7B017A00790A7F1E12355B808812F0
:10220F001A3A7F1E12355B0221967B017A027936CC
:0A221F00120F767B017A0279362255
:10004600200703020799C2079001DDE004F0C3947C
:100056000A4002E4F0900234E0FF900268E004F007
:10006600C39F4002E4F0900235E004F0C3940A40D6
:1000760002E4F0C2AD9002681219BBE527F0A3E5D1
:1000860028F09002351219C8E533F0A3E534F0D212
:10009600AD300D03020243300E0D900033120E797F
:1000A60000000000020153903A4CE493FE74019361
:1000B600FBAA06EA3395E01218B7120DCFEC120A26
:1000C600BC903A48121886900033120E6D121942EF
:1000D600120A4F900033601B4019120E35C004C03F
:1000E60005C006C007903A42120E4190003312171F
:1000F600CA8046120E35C004C005C006C0071218D5
:10010600D6C004C005C006C007902950120E411281
:100116001883D003D002D001D0001208A9C004C0B1
:1001260005C006C0071219481218DC1218AED0070F
:10013600D006D005D0041209B21218AED007D006E8
:10014600D005D0041207B4900033120E6DE4FFFE02
:10015600FDFC9000331218046010400E12199290A4
:1001660000331217CA121A41800C121992900033EA
:100176001217CA121A481219099001A7EEF0A3EF36
:10018600F0900033120E351224D790001A120E6D1D
:10019600200F0512199A4003300E0B7BFF7A28793F
:1001A600741217D6800F7BFF7A28797F1217D690A4
:1001B60000331218FA121A33120F767F007EF07D82
:1001C600F97C4490001A121804E450119001A3F02F
:1001D600A3F07BFF7A2879881217D6801EFFFEFDD2
:1001E6007C3F90001A120E511219099001A31219A0
:1001F600F27A2879931217D61218E57B017A0079DC
:100206000A120F761219207BFF602340217A287983
:100216009B1217D6900005120E35E4120ABC7B001D
:100226007AA0790C78471209B21218FD80077A284D
:1002360079A51217D67B017A00796E80181219FA01
:100246009001A71219197BFF7A2879B11217D612D5
:1002560018E5121A33120F7630045E900272E0FF30
:10026600C374FD9FFF74FF9400FE9002ADF0A3EFF0
:10027600F01217D01218E5121A4F120F7690018A53
:10028600E0FFD39400401CEF25E02466F582E434B9
:100296003AF583E493FE740193FF9002ADEE8FF07E
:1002A600120DB91217D09002ADE0FFA3E0CF1218DD
:1002B600E61219D5120F76C2043003030204D430B5
:1002C60001030204D4E52F60030204D490018612D0
:1002D6000E7900000000E490016FF0900234E0FF18
:1002E60090016FE0C39F502D900186120E51C00001
:1002F600C001C002C00390016F1219BB121A56D07A
:1003060003D002D001D0001207B81219DC90016F99
:10031600E004F080C61219E2C004C005C006C0079A
:10032600900234E0FCE4120AC61218AED007D006DA
:10033600D005D0041209B21219DC300D030204AF45
:10034600121A5F2430F582E4343AF5831218A3902A
:10035600018612183E121A5F25E0240CF582E43459
:100366003AF5831218861219DC1219E2121A5F2561
:10037600E02410F582E43402F583120E511207B41C
:100386001219DCE4FFFEFDFC1218017F007E407DA1
:100396001C7C46900186600A40081217CA121A4150
:1003A60080061217CA121A48121909900273EEF043
:1003B600A3EFF07FD07EB37D517C40121801600A16
:1003C6004008900273121A0280107F747EB57D5128
:1003D6007CC012180150031219E87C411217FB5019
:1003E600207CC11217FB601940177BFF7A2879BF62
:1003F6001217D69001861218FA121A4F9002BD8073
:100406000F7BFF7A2879C91217D6121A4F9002B9B4
:1004160012187B120F7690018AE0FF603E12188C4C
:100426007039900273E0FCA3E0FDEC120AC17B1761
:100436007AB779D178381208A99001BD120E6D905D
:1004460001BD120E3590018AE025E025E02454F521
:1004560082E4343AF58312188680031219E2900179
:10046600BD120E6D7C41121A6612180450237CC10F
:10047600121A66121804601940177BFF7A2879BF92
:100486001217D69001BD1218FA1219D59002BD8026
:100496000F7BFF7A2879C91217D61219D59002B99F
:1004A600120ED67A0179A9801FE490018AF01219FA
:1004B600E2120AFA9002731219F27A2879D5121703
:1004C600D61218E5A3121875120F76020551E52FFC
:1004D600D3940040257BFF7A2879DD1217D61218AF
:1004E60072120F767BFF7A2879DD1217D612079AD9
:1004F6007480F0A37401F00205513003207BFF7A6B
:100506002879E91217D6121872120F767BFF7A280D
:1005160079E91217D612079A121A02802E30012B89
:100526007BFF7A2879F51217D6121872120F767B8E
:10053600FF7A2879F51217D61219D59002B9120E3C
:10054600D67A0179A9120F761219E8900068120E70
:100556007900000000E490016FF0900068120E51DF
:10056600C000C001C002C00390016F1219C8121A60
:1005760056D003D002D001D0001207B8121A7090DC
:10058600016FE004F0E0B40AD1900068120E35E481
:10059600FBFA792078411209B2121A70300D030263
:1005A6000681903A521218A390006812183E903AAB
:1005B6004E121886121A707F7B7ED47DA37C4390E0
:1005C6000068121804600840069001C1121A027FE2
:1005D600C37ED57DA37CC390006812180450069094
:1005E60001C11219EBE4FFFEFDFC9000681218042D
:1005F600600D400B121A1D1217CA121A41800912F9
:100606001A1D1217CA121A481219099001C1EEF0E2
:10061600A3EFF0200F0D12199A50087BFF7A297963
:1006260001801D300E087BFF7A29790C801290011B
:10063600C1E0B47F10A3E0B4FF0B7BFF7A297917E2
:100646001217D6804F9001C1E0FEA3E0FFEE33956E
:10065600E0FDFC7B007A8079FF78FFC3120DF87B02
:10066600FF70097A2979221217D6800D7A29792DF9
:100676001217D69000681218FA8019900068120EA8
:1006860035120AFA9001C11219F27A29793612172F
:10069600D61218E5121A3A120F76200F201219FAFE
:1006A600FFD39484EE94034011EF240CFFEE34FE46
:1006B600FEE4FCFD121A7602077702076D9000052C
:1006C600120E35EF2401121A28900005120E6D90B5
:1006D600003AE0FEA3E0FBAA06E41218B7120DCF1B
:1006E60090009B120E6D1218B9121A7674FF7F9C39
:1006F600121A7CC3120DF8500B121A85EF246412DD
:100706001A28803A90009B120E35EC335008900060
:100716003A1218BC8028E47F64121A7CD3120DF8B2
:100726004016121A85C3EF9464FFEE9400FEED9412
:1007360000FDEC9400FC800690003A1218BC121AD8
:1007460076E47FFF7EFFFDFC9002AF120E51D312BE
:100756000DF8400C9002AF120E790000FFFF8011D9
:10076600121A85EC33500A9002AF120E790000007F
:10077600009002B1E0FEA3E0FF9001C3E06E7003BB
:10078600A3E06F600CC2AD9001C3EEF0A3EFF0D210
:03079600ADD206DB
:10079900227B017A0279769002B9120ED67A017912
:0807A900A9120F7690027322E1
:03000B0002002EC2
:10002E00C0E0758CFFE58030E70553807F80034389
:05003E008080D0E032DB
:03002B00021A9B1B
:101A9B00C0E0C0F0C083C082C0D075D000C000C011
:101AAB0001C002C003C004C005C006C007308F04CC
:101ABB000539C28F30DF04054CC2DF1529E52960DB
:101ACB0003021BBC752932D5450B7545050551E540
:101ADB005170020550858D37308F040539C28F85C3
:101AEB008B3AE537B58D03308F0D858B3A858D3766
:101AFB00308F040539C28F753F00853740E540753F
:101B0B004000F53FE53A2540F540E4353FF53FC34E
:101B1B00E5409531F528E53F9530F527C313F527BB
:101B2B00E52813F528E539D394015010E539B401B4
:101B3B000EC3E5409531E53F953040034327808543
:101B4B003F308540315331FE75390085F93A85FABE
:101B5B003730DF04054CC2DF754D0085374EE54E3F
:101B6B00754E00F54DE53A254EF54EE4354DF54DE8
:101B7B00C3E54E953EF534E54D953DF533C313F571
:101B8B0033E53413F534E54CD394015010E54CB4E4
:101B9B00010EC3E54E953EE54D953D400343338025
:101BAB00854D3D854E3E533EFE754C00D207021CC3
:101BBB007FE52964196003021C7FE52FD39408404D
:101BCB00035322F1E5224220301305756905800588
:101BDB00D56902C2033011057546058005D546024D
:101BEB00C201301205752B058005D52B02C20230C0
:101BFB0010057547058005D54702C200300004D299
:101C0B000E8002C20E752200E52FD3940040021500
:101C1B002F900004E0603420030330011190027216
:101C2B00E0D394004008E52F7004E01480182002E4
:101C3B002F20032C200129900272E0C3940750201F
:101C4B00E52F701CE004F0E0FF801290002EE0FF07
:101C5B00600E14FF900272F090002EE4F0123934F3
:101C6B00E541600415418002C2A3E54460041544BC
:101C7B008002C2A21238841219FAFF123C3C122BBA
:101C8B0009C2CFD007D006D005D004D003D002D0E4
:0E1C9B0001D000D0D0D082D083D0F0D0E03283
:1039340090027CEFF0D394074002E4F090027CE024
:1039440090293E93FF123C85752F0AD2045321F827
:0739540090027CE0422122F9
:102BDA001219B1121804600C400A900000120E7902
:102BEA0000000000121942120A4F600D400B903A81
:102BFA00421219B41217CA802E1219481218DCC0D0
:102C0A0004C005C006C0071218D6D003D002D001EE
:102C1A00D0001209B21218EE1218831218EE902977
:102C2A00501218861218EE900000120E51121A8BCA
:102C3A00903A48120E5D1218F41209B2C004C00587
:102C4A00C006C007903A4CE493FC740193FDEC1261
:102C5A000AC1D003D002D001D000121A8BE4FFFEC1
:102C6A00FDFC9002AD121804500A9002AD120E79C2
:102C7A00000000007F007EFF7D7F7C479002AD123E
:102C8A001804600C400A9002AD120E79477FFF00CB
:092C9A001218F4120AFA1219A82A
:012CA300220E
:1024D7009002B3120E6DE4FFFE7D407C409002B384
:1024E7001218045006E4FFFEFDFC22903A881218E9
:1024F700389001C5120E6D903A8C1218389001C9A8
:10250700120E6D903A901218389001CD120E6D9000
:102517003A941218389001D1120E6D903A98121809
:10252700389001D5120E6D903A9C1218389001D947
:10253700120E6D9001CD120E359001C91217AF9092
:102547003AD012188690018B120E6D9001CD12179A
:10255700A9903AD412188690018F120E6D9001C976
:102567001217A9903AD812188690019312193512AA
:1025770017CA9001CD1217B8903ADC12188690014D
:10258700971219351217CA9001CD1217CA9001D1A7
:102597001217C1903AE012188690019B1219351252
:1025A70017CA9001CD1217CA9001D11217CA90010C
:1025B700D51217CA903AE412188690019F120E6D31
:1025C700900197120E5190019312183EC004C00556
:1025D700C006C00790018F120E5190018B12183E52
:1025E700D003D002D001D0001207B8C004C005C084
:1025F70006C00790019F120E5190019B12183ED002
:0B26070003D002D001D0001207B8225F
:101394005321F7900004E06003432108E532700311
:1013A400021714E4F553F554F555F556F557F55869
:1013B400F559F55AF55BF55CF55DE55E640160038E
:1013C400021449855F43E54330E30B900004740144
:1013D400F0432108801AE4900004F05321F7E54318
:1013E4005407FF900272E06F6006EF0490002EF045
:1013F400E54330E704D20F8002C20FE54330E50431
:10140400D20D8002C20DE54330E404D20C8002C246
:101414000C900184E412194E1217F19001A5E06EAC
:101424007003A3E06F601112190F300D051219A893
:10143400800612180A12173FE52C600302171112D6
:10144400184402154EE55E640270341217DC240061
:10145400FFEE343A121968E52C6003021711755334
:1014640002121A94900269E0FEA3E0FF900066EE77
:10147400F0A3EFF0F5828E83E493F55602154EE562
:101484005E6403701E1217DC121961AD6112395BC0
:10149400E52C6003021711755303121A94856156E3
:1014A4000216FBE55E640470191217DC121961124E
:1014B40039A9E52C6003021711755304121A94021A
:1014C40016FBE55E64056003021551E52C6003021A
:1014D4001711755305855F54E554B4010690023421
:1014E400021535E554B4020690018A021535E55417
:1014F400640370071217498F58804FE554B40405EC
:10150400900275802CE554B40505852155803BE592
:1015140054640670141219939000001217CA121919
:10152400031217F21219708021E554B407089000D1
:1015340039E0F5558014E554B4080FE590540EF5E0
:1015440055308503435501121A0A0216FBE55E6401
:101554000660030216E4E55FB40119E560D3946400
:10156400400302165AE5609400500302165A900292
:1015740034021643E55F6402701FE5607002800E5A
:10158400E560C39405500DE56012188C7006900157
:101594008AE560F0D20402165AE55F64037032AF44
:1015A40063FCFDFE12179D1218C5AF62121A1612C3
:1015B400179D1218C5AF61121A1612179D1218C57D
:1015C400AF60121A1612179D900005120E6D0216C6
:1015D4005AE55FB40419E560B40109900275740119
:1015E400F002165A900275E0606C04F002165AE597
:1015F4005FB4050EE5607005C20C02165AD20C02E7
:10160400165AE55F6406702890018412194E121769
:10161400F19001A5E06E7003A3E06F603912190F19
:10162400300D051219A8802E12180A12173F8026B1
:10163400E55FB4070FE560C39403501A900039E5E1
:1016440060F08012E55FB4080DE560C454F0FFE576
:10165400A0540F4FF5A0E52C600302171175530633
:10166400855F54E554B401069002340216C9E5546A
:10167400B4020690018A0216C9E554640370081284
:1016840017498F580216E2E554B404059002758098
:1016940034E554B4050D300C057555018040E4F56E
:1016A40055803BE55464067014121993900000129F
:1016B40017CA1219031217F21219708021E554B4D3
:1016C4000708900039E0F5558014E554B4080FE597
:1016D40090540EF555308503435501121A0A8017AC
:1016E400E55EB40705122ECD8023E55E6408701113
:1016F400E52C7019121981752C01D2A275440A8047
:101704000CE5326008E55E7004C20CF52CE4F53299
:10171400300C1030060DE52C7009121844C206D2A4
:1017240016800F300C14301611E52C700D1219812F
:10173400C216752C01D2A275440A22900000120E22
:051744006D122BDA22FA
:10272B002532640025342E3166004155544F004547
:10273B00252B303364002D2D2D2D2D00484F555258
:10274B00530025372E32660045444954204C414DE9
:10275B00502054415247455400252525642E2564AD
:10276B0066004120202020004741494E2052414E17
:10277B004745203D2000524553504F4E5345205462
:10278B00494D45203D20202053004D454E55204FAF
:10279B005054494F4E002053455420524553504FEF
:1027AB004E53452054494D4520200053454C45433D
:1027BB0054204D4F4E49544F5220554E49545300BF
:1027CB002053454C454354204C414D5020554E49C8
:1027DB005453202000202056494557204C414D5042
:1027EB002054494D45522020200020205455524E54
:1027FB0020444953504C4159204F4646202000203D
:10280B002055534220434F4D4D204D4F4E49544F71
:10281B005220200056494557204354454D502043E4
:10282B00414C20434F45464600FF27A1FF27B6FFEB
:08283B0027CBFF27E0FF27F582
:10335D0090002F120E35E4FBFA792078412290016E
:10336D008AE075F006A4246AF582E4343AF583E424
:10337D009322120E359002B9120E6D7B017A0279ED
:10338D003622FD3395E0FC74362DF58274023CF542
:10339D0083227BFF9002B6020ED6120E3590028963
:1033AD00120E51020A4FF0900297E0FF900296E044
:1033BD0022900289E4F0A3227401F0E4F54B2290EF
:0533CD00002F020E6D4F
:10376500E54B603BE54BB41004D20F802FE54BB41D
:1037750008051223848025E54BB48005122A308084
:103785001BE54BB42005122ECD8011E54BB4040585
:103795001236DB8007E54BB40102C20FE4F54B227C
:102384001233BE04F0A3E4F0A304F0E4F54B1224EA
:10239400C812247790028BE07002A3E07003022439
:1023A40074120046121394E54B60E9B4101FC390F5
:1023B400028AE09405900289E0648094805006E4E7
:1023C40075F00180221233BE04F002246BE54BB495
:1023D4000123D390028AE09401900289E0648094FE
:1023E40080400A74FFF5F0120DB902246B1233BE5B
:1023F4007405F08072E54BB44009E490028BF0A3BD
:10240400F08064E54B6402705E900289E07004A37E
:10241400E064017005122954804A900289E0700436
:10242400A3E0640270051222298039900289E070C9
:1024340004A3E064037005122E198028900289E039
:102444007004A3E0640470051232DD8017900289E1
:10245400E07004A3E06405700B900275E070020460
:10246400F0E4F54B1224C8122477E4F54B022398C8
:03247400023C9493
:102477007BFF7A27792B9002B6120ED6900289E05D
:10248700FFA3E09002B9CFF0A3EFF07B017A0279C6
:1024970036120F767B017A0279367F0F12355B9001
:1024A7000289E0FEA3E090283175F003120EAAEE30
:1024B70075F003A42583F583120EDF7F1412355BB5
:1024C70022123C947BFF7A2779957F0312355B2292
:102954009002951233C5900234E0900294F0123C38
:10296400947BFF7A2779817F1412355B900295E07E
:102974007003022A211200461213947B017A017912
:10298400707F0412355B900234E0FCE4120AC690B6
:102994000296120E6D9002961233601209B29002E2
:1029A40096120E6D7A27792F12339F900296123366
:1029B4007F120F761233887F2312355BE54B60ACB0
:1029C400B41029122A24C39464504CE004F09000FB
:1029D4009FE0FEA3E0FF900234E025E0249DF58211
:1029E400E43400F583EEF0A3EFF0802BE54BB40163
:1029F4000D122A24D39401401EE014F08019E54BF3
:102A0400B4400A900294E0900234F08005E54BB49F
:102A14000205E4900295F0E4F54B022970023C941F
:0C2A24007F647E00123850900234E022E3
:102A300090028B1233C5900272E0900289F09000F0
:102A400004E090028AF0123C947BFF7A2779737F2E
:102A50001412355B90028BE07003022B06120046C5
:102A60001213947B017A0179707F0412355B900018
:102A700004E060087BFF7A27793580067B017A02C3
:102A8000796B7F2112355BE54B60C964107024902F
:102A90000004E0700F900272E0FFC394075005EF4E
:102AA00024028021900272E06407705490000404B4
:102AB000F0804DE54BB40124900004E0600DE4F09B
:102AC000900272E00490002EF08035900272E0FFD8
:102AD000D39400402B90002EEFF08024E54BB440BF
:102AE0001590028AE0900004F07010900289E004D2
:102AF00090002EF08005E54BB40205E490028BF0C7
:092B0000E4F54B022A54023C9456
:102229009002957401F090018AE0D394044002E48D
:10223900F090018AE0FFD394004012EF12336F54FB
:1022490080FF3395E04F6005E490018AF0E4F54B97
:1022590090018AE0900294F0123C947BFF7A2779EE
:10226900B67F1412355B900295E0700302238190CA
:102279000272E0FFC374FD9FFF74FF9400FE90019A
:102289008AE0FDD394004017ED25E02466F582E449
:10229900343AF583E493FC7401932FFFEC3EFE7A04
:1022A90027793A12339F9002B9EEF0A3EFF07B0140
:1022B9007A027976120F7612004612139490018AE7
:1022C900E0FFD394004009EF4430900236F08006D5
:1022D9009002367420F0E4900237F0123388FF122E
:1022E900355B7B017A0179A97F0212355B90018AFE
:1022F900E070087BFF7A27796D802012336B30E715
:10230900087BFF7A277941801290018AE075F006EF
:10231900A4246AF9743A35F0FA7BFF7F0F12355B12
:10232900E54B700302226FB4100E90018AE0C3944A
:1023390004503FE004F0803AE54BB4010E90018A65
:10234900E0D39400402CE014F08027E54BB4400A18
:10235900900294E090018AF08013E54BB4021312C5
:10236900336B30E708900294E090018AF0E4900220
:0B23790095F0E4F54B02226F023C944B
:102E19009002957401F0900039E0D394024002E4E5
:102E2900F0E4F54B900039E0900294F0123C947B69
:102E3900FF7A2779CB7F1412355B900295E07003F6
:102E4900022ECA1200461213947B017A00791EE4FD
:102E5900FF12355B900039E070087B017A00793CFC
:102E69008013900039E07B01B401067A00790A8069
:102E7900047A00796E7F0A12355BE54B60BCB410A9
:102E89000E900039E0C394025031E004F0802CE543
:102E99004BB4010E900039E0D39400401EE014F0C9
:102EA9008019E54BB4400A900294E0900039F08013
:102EB90005E54BB40205E4900295F0E4F54B022ECA
:042EC90043023C94F0
:102ECD00900272E025E025E02410F582E43402F54D
:102EDD0083120E35900186120E511207B81233CCA3
:102EED00900272E0FF900037E4F0A3EFF0D3900072
:102EFD0038E09400900037E06480948040151233E0
:102F0D005D1209B21233CC90003774FFF5F0120D3B
:102F1D00B980DAE4900037F0A3F090002F120E354F
:102F2D00C004C005C006C007900037E0FEA3E078DE
:102F3D0002C333CE33CED8F92410F58274023EF598
:102F4D0083D007D006D005D004120E6D12335D125A
:102F5D0008A91233CC900037E475F001120DB99029
:0C2F6D000037E07004A3E0640870AF229D
:1032DD009002981233C5123C947BFF7A2779E07FD8
:1032ED001412355B7BFF7A2779477F0D12355B9082
:1032FD000298E06058120046121394900005120EC9
:10330D0035E4120ABC900294120E6D900294120EC6
:10331D00357B007AA0790C78471209B2900294128D
:10332D000E6D7BFF7A27794D1233A19002941233E3
:10333D007F120F761233887F0512355BE54B60AF38
:10334D00B44005E4900298F0E4F54B80A2023C9461
:1036DB00E4F54B123C947BFF7A2779537F16123516
:1036EB005B90028D120E7900000000902948120E9B
:1036FB0041900291120E6D9002957405F0A304F0A7
:10370B00A37403F0900000120E35121EA29000005D
:09371B00120E6D122BDA023C942F
:061EA200900289120E6D92
:101EA800900289120E359002A7120E6D9002ABE4D3
:101EB800F0A3041233B3C39F24FE9002A2F0A3122E
:101EC8000E793F8000007BFF7A2779641233A19056
:101ED8000296E0FE3395E09002B9F0A3CEF09002AE
:101EE80097E0FE3395E09002BBF0A3CEF07B017A39
:101EF800027998120F769002ABE07002A3E07003AB
:101F08000220601200461213947B017A027998121B
:101F180033A1900289120E359002B9120E6D7A0221
:101F28007936120F769002A2E0FF12338FE0B420C8
:101F380014EF12338FE0B4200CAE070FEE1233907B
:101F48007430F080ECE54F701BE55130E0169002DC
:101F5800A2E0FF3395E0FE74362FF58274023EF559
:101F6800837420F0900295E0FF12338812355BE508
:101F78004B6083B4100E1220619002A3120E51120E
:101F880007B88011E54BB401121220619002A31228
:101F98000E511207B4900289022017E54B64807035
:101FA8002E9002A2E0D3648094815003022037E08F
:101FB800141233B39F14FF9002A2E0B50703E01494
:101FC800F09002A31233601208A99002A38040E5A2
:101FD8004B6420703F900296E0FF14FE9002A2E04E
:101FE800FDC3EE6480F8ED6480985043E004F090FF
:101FF8000297E0FEC3EF9E14FF9002A2E0B507032C
:10200800E004F09002A31233601209B29002A31206
:102018000E6D801BE54BB44008E4F54B9002A78099
:102028000BE54BB40209E4F54B900289020E35909A
:1020380002911233A760074005900291800B90022D
:102048008D1233A7500C90028D120E359002891212
:082058000E6DE4F54B021EFEC3
:0F206000227F647E00123850900289120E3522C2
:102F79001201000100000008740C12000001010296
:102F8900000109022900010100C000090400000232
:102F990003000000092100010001221B000705812F
:102FA9000308000A0705020308000A0600FF0901D1
:102FB900A10109019508750826FF0015000901817D
:102FC9000209019102C0040309041C034F007000A7
:102FD900740072006F006E006900630020004C00ED
:102FE90061006200730028034F004C002000340088
:102FF9003000300020004C00690067006800740050
:10300900200053006F007500720063006500FF2FF8
:07301900CFFF2FD3FF2FEFC3
:0637DC004302EF000000B3
:103C5500FEE02400FFEC3EF0A3EFF022900282E0AC
:093C65004408F0E49002EFF022A3
:03004300022CA4E8
:102CA400C0E0C0F0C083C082C0D075D000C000C0F6
:0D2CB40001C002C003C004C005C006C00777
:102CC100E59620E7FB759686E59620E7FB90027D69
:102CD100E597F0E59620E7FB759682E59620E7FB00
:102CE10090027EE597F0E59620E7FB759684E596E0
:102CF10020E7FB90027FE597F0E59620E7FB7596CC
:102D010091E59620E7FB900280E597F090027DE047
:102D110030E103123CAF90027DE030E20312000E7D
:102D210090027EE030E003121CA990027EE030E1C7
:102D31000312344290027FE030E2031231D290025A
:082D41007DE030E003123CB913
:102D4900D007D006D005D004D003D002D001D000DE
:0B2D5900D0D0D082D083D0F0D0E03288
:0A3CAF00900281E475F001020DB9E6
:10000E009002F57402F0E59620E7FB759601759760
:0D001E0001E49002EFF0A37403F0A3F022C0
:101CA900E59620E7FB75960EE4F597E59620E7FBA8
:101CB900759691E59620E7FB900281E597F09002F1
:101CC900EFE0B40513E59620E7FBE4F5969002E60C
:101CD900E0F597E49002EFF0900281E0FF30E21026
:101CE900E59620E7FB759611E4F5979002EFF0224F
:101CF900EF30E41BE59620E7FB759611759708E52B
:101D09009620E7FB759611759780E49002EFF090A5
:101D190002EFE06003021DF1900281E020E003027E
:101D29001DF17B017A0279E37D087C007F20123561
:101D3900AA9002E6E0FE9002E5E07C00123C579092
:101D490002E8E09002E7123C559002EAE09002E9CD
:101D5900123C559002E3E0547F64217035A3E024DE
:101D6900FE601B14602224FA600F14601614601DB3
:101D7900240A707112390C806F12000A806A1200ED
:101D8900078065123CC380601239FE805B1239FFFF
:101D990080569002E4E0120EEB1DC1001DC6011D24
:101DA900CB031DD0051DD5061DDA081DDF091DE46D
:101DB9000A1DE90B00001DEE122D64802B1230B4B0
:101DC90080261230208021123690801C1226128023
:101DD900171235088012123258800D1237248008E4
:101DE90012381B8003123C1F9002EFE0640160036C
:101DF900021EA1900281E030E103021EA1E59620B6
:101E0900E7FB759691E59620E7FB900281E597F04F
:101E1900E030E40630E003021EA19002827402F071
:101E2900C39002EEE094089002EDE09400403090F7
:101E390002F2120EB67D087C007F201235F890025E
:101E4900F3E475F008120DB99002ED74FF75F0F81E
:101E5900120DB99002EBE475F008120DB9801690D5
:101E690002EDE0FCA3E0FD9002F2120EB67F201213
:101E790035F8123C619002E9E0FEA3E0FFA3E0B56A
:101E89000608A3E0B50703123C61E59620E7FB7558
:081E99009611900282E0F5971A
:011EA100221E
:10344200E59620E7FB75960E759701E59620E7FB5A
:10345200759691E59620E7FBAF979002F0E0B403F2
:103462000CE59620E7FB75961175971022EF30E573
:103472000BE59620E7FB759611759740EF30E20B4E
:10348200E59620E7FB759611E4F597E52C60127B33
:10349200007A0079537D087C007F211235F8E4F52B
:0C34A2002CE59620E7FB7596117597014C
:0134AE0022FB
:1031D200E4FFE59620E7FB75960E759702E59620CB
:1031E200E7FB759694E59620E7FBAE979002F1E037
:1031F200B4030CE59620E7FB75961475972022EE32
:1032020030E60BE59620E7FB759614759780E596F8
:1032120020E7FB759696E59620E7FBAF97E53270BF
:1032220005EF6408600DE59620E7FB759616759725
:103232001080177B007A00795E7D087C007F221265
:1032420035AA753201D2A375410AE59620E7FB75CE
:053252009614E4F5975D
:013257002254
:0A3CB900900281E475F001020DB9DC
:1035AA00900283EFF0900286120ED6900284ECF01D
:0335BA00A3EDF08E
:1035BD004C6037900283E0F5964396C0E4FFFED34E
:1035CD00900285E09F900284E09E401BE59620E7E7
:1035DD00FB900286120EB68F828E83E597120D85B3
:0A35ED000FBF00010E80D8E4F59630
:0135F70022B1
:1035F800900283EFF0900286120ED6900284ECF0CF
:03360800A3EDF03F
:10360B004C6036E59620E7FB900283E0F596E4FFED
:10361B00FED3900285E09F900284E09E401B9002B7
:10362B0086120EB68F828E83120D46F597E5962085
:09363B00E7FB0FBF00010E80D86F
:013644002263
:103C1F00E59620E7FB75960EE4F597E59620E7FB12
:0D3C2F007596117597209002EF7404F02235
:0400030001000000F8
:1034AF007596117597409002EF7401F0E49002EB5E
:1034BF00F0A3F0227A0079057BFF9002F2120ED66C
:1034CF009002EDE4F0A32275960EE4F5979002EFCB
:1034DF00E06404227BFF9002F2020ED675961175FE
:1034EF00974022E493FF9002EDE4229002F5E0640E
:0934FF00042275960E7597012256
:102D64009002E5E07010A3E0700C9002E9E07006B8
:102D7400A3E064026003123C1F9002E3E0247F603E
:102D84001B1460332402707C9002E7E0701FA3E000
:102D9400600280707BFF7A007903805E9002F5E028
:102DA400B4040A9002E7E07004A3E0600280557B5B
:102DB400FF7A00790580439002F5E0B4040690029E
:102DC400E7E06002803E9002E8E0FFB481159002E3
:102DD400F0E07BFFB403067A00790380047A00797B
:102DE400058017EFB4021B9002F1E07BFFB40306E9
:102DF4007A00790380047A0079051234C97402F0E8
:102E040080058000123C1F1234DC6008E59620E740
:052E1400FB1234AF22A7
:1030B4001234FA70779002E3E0FF60706401606C90
:1030C4009002E5E070669002E7E070609002E9E04B
:1030D400705AA3E0600280549002E3E06402704CF2
:1030E4009002E6E070469002E8E0FF64816005EF3C
:1030F40064027038EFB48117E59620E7FB123501BE
:10310400E59620E7FB1234EBE49002F0F08020E532
:103114009620E7FB75960E759702E59620E7FB75FA
:103124009614759780E49002F1F08003123C1FE539
:103134009620E7FB1234D66008E59620E7FB1234AC
:02314400EB227C
:103020001234FA70799002E3E0FF60726401606E1E
:103030009002E5E070689002E7E070629002E9E0DB
:10304000705CA3E0600280569002E3E06402704E80
:103050009002E6E070489002E8E0FF64816005EFCE
:103060006402703AEFB48118E59620E7FB1235014F
:10307000E59620E7FB7596117597109002F0801980
:10308000E59620E7FB75960E759702E59620E7FB1F
:103090007596147597209002F17403F08003123C2A
:1030A0001FE59620E7FB1234D66008E59620E7FB83
:0430B0001234EB22C9
:103690009002E3E0701D9002E7E07017A3E0701362
:1036A000A3E0700FA3E0700B9002E5E07005A3E0CB
:1036B00030E703123C1F9002EF7405F09002E6E041
:1036C0009002F560057403F080037402F01234DC9C
:0B36D0006008E59620E7FB1234EB22B7
:102612009002E5E0120EEB263201263E02265D0311
:10262200267A04268B0526BA2126CF22000026DB35
:102632007A2F79791234E3902F7980487A2F798B27
:102642001234E3902F8EE493FE902F8DE4937C005E
:102652002400FFEC3E9002ED0226C99002E6E075EE
:10266200F003903017120EAA120EDF1234E5120D8B
:102672002DFF9002EDE4804F7BFF7A2F7994123484
:10268200E5902F941234F2803E9002E6E0FF6481DE
:102692006005EF64027042EF7BFFB4810C7A2F7900
:1026A200A61234E5902FA6800A7A2F79AD1234E56E
:1026B200902FAD1234F2800F7BFF7A2F799D123466
:1026C200E5902F9D1234F2F0A3EFF0800F7A2F796C
:1026D200B41234C7741BF08003123C1F9002E5E071
:1026E200FF64016013EF6402600EEF64036009EFA0
:1026F20064046004EFB405239002EAE0FFD3900281
:10270200EEE09F9002EDE0940040109002E9E0704C
:102712000AE0FE9002EDEEF0A3EFF01234DC600866
:09272200E59620E7FB1234AF221A
:103508009002E3E06480701C9002E5E07016A3E08E
:103518007012A3E0700EA3E0700AA3E07006A3E0A7
:1035280064016005123C1F801C9002F5E0FFB404A2
:103538000B7BFF7A0079031234C904F0EFB403055A
:103548001234C304F01234DC6008E59620E7FB125D
:0335580034AF226B
:103258009002F5E0640260259002E3E0701F90029E
:10326800E7E07019A3E07015A3E07011A3E0700DFA
:103278009002E5E07007A3E0D394014005123C1FDB
:1032880080459002E6E0D3940040309002F5740443
:10329800F0E49002F0F0A3F0E59620E7FB12350188
:1032A800E59620E7FB759612759720123442E5964D
:1032B80020E7FB75960EE4F597800C9002F57403F1
:1032C800F09002F0F0A3F01234DC6008E59620E7F5
:0532D800FB1234EB22A3
:103724001234FA70249002E3E06481701C9002E584
:10373400E07016A3E07012A3E0700EA3E0700AA379
:10374400E07006A3E064016005123C1F800512349A
:10375400C304F01234DC6008E59620E7FB1234AFB2
:013764002242
:10381B009002E3E06401701C9002E9E07016A3E0F3
:10382B0070129002E5E0700CA3E07008A3E0700446
:10383B00A3E06003123C1F1234DC6008E59620E71E
:05384B00FB1234EB222A
:10390C00900269E0FEA3E0FF9002EFE06401600A20
:10391C00AA06A9071234C77440F01234DC6008E51B
:07392C009620E7FB1234AF07
:013933002271
:01000A0022D3
:03000700023C1F99
:033CC300023C1FA1
:0139FE0022A6
:0139FF0022A5
:103A00000000000100000064000000003882715FC7
:103A10003882715F3882715F3882715F3882715F7E
:103A20003882715F3882715F3882715F3882715F6E
:103A3000149F149814A01499149F149914A014A9F5
:103A4000000000000000131538DA1A9301F43A5907
:103A5000C3551379400D70A43F800000405B43962E
:103A60000000000000000000000800080000000046
:103A7000664C2020200063642F6D3200FFFFFFFFA3
:103A8000FFFFFFFFFFFFFFFF00000000000000003E
:103A90000000000000000000000000000000000026
:103AA0000000000000000000000000000000000016
:103AB0000000000000000000000000000000000006
:103AC00000000000000000000000000000000000F6
:103AD00000000000000000000000000000000000E6
:0A3AE00000000000000000007FFF5E
:103C6E00C2AF8F828E8375FF80E4FFFE2243EF0288
:073C7E0075B7A575B7F1222F
:10395B00A2AF9218123C6E0FBF00010EEF64C34E64
:10396B0070F5123C7B438F01EDF053EFFDE4F5FF57
:06397B00F58FA21892AFC7
:013981002223
:1039A900A2AF9218123C6E0FBF00010EBE01F8BF04
:1039B90090F5123C7B438F03E4F053EFFDF5FFF5DF
:0539C9008FA21892AF6F
:0139CE0022D6
:1007B100020B66E86480F8E933E83360110460F005
:1007C100ED33EC337009E8FCE9FDEAFEEBFF2204AE
:1007D10060DED3EB9FEA9EE99DE8C2E78CF0C2F7A9
:1007E10095F0400CE8CCF8E9CDF9EACEFAEBCFFB75
:1007F100120B3185D0F05804700320D5B3E8047092
:10080100075002B2D5020B7092D5EC0460F7E4CC2C
:10081100C0E0C398F8603B94186008400DD0E0FB3D
:10082100020B48E4FBFAC9FC8028E830E406E4C97D
:10083100FBE4CAFCE830E305E4C9CACBFCE8540791
:100841006010F8C3E913F9EA13FAEB13FBEC13FC9C
:10085100D8F130F52FC3E49CFCEF9BFFEE9AFEED3F
:1008610099FDD0E0FBEF4E4D4C701222DB03020BE1
:100871006DEC2CFCEF33FFEE33FEED33FDED30E795
:10088100EB020B48EF2BFFEE3AFEED39FDD0E0FB1A
:1008910050130BBB0003020B70ED13FDEE13FEEFC3
:0808A10013FFEC13FC020B48ED
:1008A900EC4D6011E8497017ED33EC3304600DE449
:1008B900FCFFFEFD22E933E8330470F8020B6612EF
:1008C9000B3158046009E4CC2481500628500902F0
:1008D9000B70284003020B6DC0E0EB4A7044B980ED
:1008E90006D0E0FB020B5CEF4E701CBD8008EBFFED
:1008F900EAFEE9FD80EBE98DF0A4FEE5F00209923C
:10090900E9CDF9EAFEEBFFEF89F0A4FCE5F0CE8929
:10091900F0A42EFFE435F0CD89F0A42DFEE435F0E6
:100929008067EF4E7005BD80D780C3EF8BF0A4AC14
:10093900F0EE8BF0A42CFCE435F0F8EF8AF0A42C4F
:10094900E5F038FCE433CB8DF0A42CFCE5F03BF862
:10095900EE8AF0A42CFCE5F038F8E433CF89F0A452
:100969002CFCE5F038CF3400CE89F0A42FFFE5F058
:100979003EFEE433C98DF0A42EFEE5F039CD8AF0B0
:10098900A42FFFE5F03EFEE43DFD33D0E0FB500728
:100999000BBB000F020B70EC2CFCEF33FFEE33FEA8
:0609A900ED33FD020B48D6
:1009AF00020B70EC5D046005E859047003020B66DE
:1009BF00120B31580460F6EC4860F2EC7004FDFE47
:1009CF00FF22C860DB2481C85009C398600250061B
:1009DF00020B6D9850CAF582E9294B4A7005AB821C
:1009EF00020B5C75F0007C1A7880C3EF9BEE9AEDDA
:1009FF0099400DC3EF9BFFEE9AFEED99FDE842F093
:100A0F00DC23ACF0D0E0FFD0E0FED0E0FDAB8220E5
:100A1F00E7101BEB60BAEC2CFCEF33FFEE33FEED6F
:100A2F0033FD020B48E803F830E705C0F075F0001E
:100A3F00EF2FFFEE33FEED33FD40B830E7C280AA53
:100A4F0074F8CC6480CCC86480C8F582046043C35A
:100A5F00EB9FF5F0EA9E42F0E99D42F0E89C45F0ED
:100A6F0060305018E5825FFFE582F42B5582FB5012
:100A7F00210ABA001D09B90019088016E5825BFB2F
:100A8F00E582F42F5582FF50090EBE00050DBD0003
:100A9F00010CC3EB9FF5F0EA9E42F0E99D42F0E8AE
:0D0AAF009C45F06007CC4820E701B3EC2225
:100ABC0075F020800E75F010800575F0087D007EB5
:100ACC00007F003392D530D503120DEAEC33401081
:100ADC00EF33FFEE33FEED33FDEC33FCD5F0ED22BE
:0E0AEC00E5F0247EA2D513CC92E7CDCEFF22FA
:100AFA00EDD2E7CD33EC3392D524814006E4FFFEF4
:100B0A00FDFC22FCE4CFCECDCC24E0501174FF8052
:100B1A00EDC3CC13CCCD13CDCE13CECF13CF0470EF
:070B2A00F030D5DE020DEAF8
:100F1100E50824B6F582E43402F583E00508229061
:100F210002B3301F039002B6E475F001120EBF0246
:100F31000D2D2018E97F2ED2188018EF540F249020
:100F4100D43440D4FF301C0BEF24BFB41A0050033B
:100F51002461FFE50960021509050CE50C70020525
:100F61000B301F0E9002B3E475F001120EBFEF02B9
:100F71000D730239827403D21F8003E4C21FF50886
:100F81009002B3120ED6E4F509F50BF50CE50960F4
:100F9100077F20120F5480F5750AFFC219C218C2CB
:100FA1001AC21BC21DC21EC220120F20FF700D30BB
:100FB1001F057F00120F65AF0CAE0B22B4255FC277
:100FC100D5C21C120F20FF24D0B40A00501A75F0AC
:100FD1000A780930D50508B6FF0106C6A426F62011
:100FE100D5047002D21B80D924CFB41A00EF50046B
:100FF100C2E5D21C021257D21980C6D21880C0D2C3
:101001001A80BCD2D580BAD21D80B47F20120F5471
:10101100201A077401B5090040F1120F11FF120FD8
:1010210054020F8ED220D21E8095120F11FB120F87
:1010310011FA120F11F94A4B700679557A137BFF99
:10104100201A2EE509602A7E008E82758300120D1A
:101051004660060EEE650A70F0C2D5EBC0E0EAC04C
:10106100E0E9C0E0EE1212B8D0E0F9D0E0FAD0E049
:10107100FB120D2DFF60AAEBC0E0EAC0E0E9C0E081
:10108100120F54D0E02401F9D0E03400FAD0E0FB93
:10109100E50A0460DCD50AD98087D21A80A212122F
:1010A1009A60F7E50A700104120B7BA90A600DE54D
:1010B1000A600914F50A121342EF60F3EA30E702FD
:1010C100F404C3995079EAF4250A0430E701E404F1
:1010D100F50A800D12129A60C1EA050A250A120B5F
:1010E1007BEA9002E2F030E701E4250A04D50A0424
:1010F100201D01141212B8E4C0E01213429002E262
:10110100E0601320E70714F0120F3C802204F0D0B6
:10111100E014C0E07F00120F3CE50A6007120F33B4
:10112100150A800B301D03120F33D0E0020F8ED051
:10113100E00480C412129A609EE50A04120B7B90AF
:1011410002E2EAF0E50A201D026001042404121201
:01115100B8E5
:1011520074FF04C0E0121342120F3CE50A201D0284
:101162006003120F33D0E0B50AE87F45120F4690B4
:1011720002E2E07F2B30E7047F2DF404C0E0120F7F
:1011820054D0E075F00A84C0F0120F3DD0E0120F87
:101192003D020F8E791080027908C21EC22080089B
:1011A200D2D5790A8004790AC2D5E50A047002F51B
:1011B2000AE4FAFDFEFF120F11FC7B08201913123C
:1011C2000F11FD7B1030180A120F11FE120F11FFC2
:1011D2007B20EC3382D592D55013C3E43018069F9E
:1011E200FFE49EFEE42019039DFDE49CFCE4CBF8A1
:1011F200C219EC700CCFCECDCCE824F8F870F38095
:1012020017C3EF33FFEE33FEED33FDEC33FCEB336C
:10121200FB994002FB0FD8E9EB301905F8D0E0C486
:1012220048B219C0E00AEC4D4E4F78207B0070C2E4
:10123200EAB50A0040BCC0E01212BAD0F0D0E020F9
:101242001904C4C0E0C4B219C0F0120F3DD0F0D5E9
:10125200F0EB020F8E120EEB102B531196580FFC6F
:101262004C0FF842119A4F11A24411A24910114396
:1012720011A85510D546113545109F4713755010CA
:10128200002D10042E10272B100823102520135E8A
:101292002A0FC0480000101FE50AB4FF03750A06B2
:1012A200120F11FC120F11FD120F11FE120F11FF7E
:1012B2009002DB020BB8790AA2D5201B14301D095B
:1012C200B910020404B9080104A2D5201E0250017B
:1012D20004201A68921AB509005034C0E07F203009
:1012E2001B197F30A21A721E721D500F121311C2E7
:1012F2001AC21EC21DC2207F30800F301D03E9C0FA
:10130200E0120F54301D03D0E0F9D0E0B509CC3023
:101312001D177F30B9100C120F547F58301C077FF5
:10132200788003B90803120F54301A057F2D020F7B
:10133200547F202020F87F2B201EF322921A80CF88
:101342007F00B40700500B24DBF582E43402F583FE
:10135200E0FF22286E756C6C2900D219120F113031
:1013620019F8C219780930D50108F6020FC02D50BC
:10137200434958120F112403B405004001E49013AD
:101382007093120F45743A120F45D21B750904026D
:021392001196B2
:100B3100E9D2E7C933E833F892D5EDD2E7CD33EC0A
:070B410033FC5002B2D52283
:100B4800EC30E7100FBF000C0EBE00080DBD00040E
:100B58000BEB6014A2D5EB13FCED92E7FD2274FFBA
:100B6800FCFDFEFF22E480F8A2D574FF13FC7D8013
:030B7800E480EF27
:100B7B00F920E73624F950037907E4F42402FBE566
:100B8B0082158270021583DBF6E024FB501BE960B3
:100B9B0014E4F0E582158270021583E004F0B40AC8
:0D0BAB0008E4F0D9EE7401F00A22C2D52250
:100BB800ED33EC3392D5FA602AB4FF33EDC2E77B0C
:100BC800FF60067A0B79DDE4227A0B79E620D504FA
:100BD8007A0B79E1224E614E002B494E46002D4991
:100BE8004E4600E47A08F0A3DAFC7B00740722C0C2
:100BF80083C082ECC0E0EDC0E0EEC0E0EFC0E0EA08
:100C080075F010A4CAABF075F04DA42BFBE435F0D9
:100C1800FCEA2410FAEB34C5FBEC34D9FCEDC2E74E
:100C2800FF75F056A4F42411C5F0F434C58FF0A470
:100C38002AE5F03BE43CF020E714120CEDD0E0FF8D
:100C4800D0E0FED0E0FDD0E0FC1209B28014F4043C
:100C5800120CEDD0E0FFD0E0FED0E0FDD0E0FC12B9
:100C680008A9D082D083E0FAEDD2E7CD33EC332463
:100C780082FBE4C3CF33CFCE33CECD33CD33DBF3DA
:100C88007B0775F00A846004F0A31B0AE5F0F0A363
:100C98008FF0740AA4FFACF08EF0740AA42CFEAC9A
:100CA800F050010C8DF0740AA42CFDE435F0F0A38B
:050CB800DBDE740722E1
:100CBD003F8000004120000042C80000447A00003F
:100CCD00461C400047C35000497424004B189680C1
:100CDD004CBEBC205A0E1BCA6753C21C749DC5AEB8
:100CED00FB60065407601C2323120D1BEB54386068
:100CFD0009120D07120D161208A9ECF8EDF9EEFA0E
:100D0D00EFCB22EB120D1680F1543803241C900CFE
:100D1D00BDFE93FC0EEE93FD0EEE930ECE93FF22D1
:0300000002314684
:0C314600787FE4F6D8FD75816902318DB8
:100D2D00BB010689828A83E0225002E722BBFE02C4
:090D3D00E32289828A83E49322F7
:100D4600BB010CE58229F582E5833AF583E0225062
:100D560006E92582F8E622BBFE06E92582F8E222AC
:0D0D6600E58229F582E5833AF583E49322C6
:100D7300BB010689828A83F0225002F722BBFE015F
:020D8300F32259
:100D8500F8BB010DE58229F582E5833AF583E8F0A4
:100D9500225006E92582C8F622BBFE05E92582C850
:020DA500F22238
:100DA700EF8DF0A4A8F0CF8CF0A428CE8DF0A42E60
:020DB700FE221A
:100DB900C5F0F8A3E028F0C5F0F8E58215827002C5
:060DC9001583E038F02262
:0E0DCF00C3EF9BFFEE9AFEED99FDEC98FC221F
:0D0DDD00EF4BFFEE4AFEED49FDEC48FC2215
:0E0DEA00C3E49FFFE49EFEE49DFDE49CFC221A
:100DF800EB9FF5F0EA9E42F0E99D42F0EC6480C872
:060E080064809845F02211
:100E0E00E86010ECA2E713FCED13FDEE13FEEF13FA
:040E1E00FFD8F022E7
:100E2200E8600FEFC333FFEE33FEED33FDEC33FC2E
:030E3200D8F122D2
:0C0E3500E0FCA3E0FDA3E0FEA3E0FF2230
:100E4100E493FC740193FD740293FE740393FF22F7
:0C0E5100E0F8A3E0F9A3E0FAA3E0FB2224
:100E5D00E493F8740193F9740293FA740393FB22EB
:0C0E6D00ECF0A3EDF0A3EEF0A3EFF022F8
:100E7900A8828583F0D083D082120E90120E901230
:100E89000E90120E90E473E493A3C583C5F0C58355
:100E9900C8C582C8F0A3C583C5F0C583C8C582C8C3
:010EA9002226
:0C0EAA00A42582F582E5F03583F5832253
:090EB600E0FBA3E0FAA3E0F9223D
:100EBF00F8E0FBA3A3E0F925F0F0E58215827002BC
:070ECF001583E0FA38F02260
:090ED600EBF0A3EAF0A3E9F0221D
:0C0EDF00E493FB740193FA740293F9226F
:100EEB00D083D082F8E4937012740193700DA3A396
:100EFB0093F8740193F5828883E4737402936860AA
:060F0B00EFA3A3A380DFA9
:10398200EFB40A07740D12398D740A309811A89990
:10399200B8130CC2983098FDA899C298B811F630A5
:0739A20099FDC299F599227D
:1031520002206FE493A3F8E493A34003F68001F204
:1031620008DFF48029E493A3F85407240CC8C3337E
:10317200C4540F4420C8834004F456800146F6DF4D
:10318200E4800B01020408102040809037A5E47E01
:10319200019360BCA3FF543F30E509541FFEE49342
:1031A200A360010ECF54C025E060A840B8E493A309
:1031B200FAE493A3F8E493A3C8C582C8CAC583CA34
:1031C200F0A3C8C582C8CAC583CADFE9DEE780BEEC
:0137E20000E6
:00000001FF
