:0936D9009002A9EFF0A312076BA7
:1036E200E49002ADF0A3F09002AA12074B9002AD53
:1036F200E0FEA3E0F5828E831205DBFF60279002D5
:10370200A9E0FD3395E0FC74DC2DF58274013CF5F3
:1037120083EFF09002A9E004F09002ADE475F001AD
:0537220012064E80C2FA
:01372700227F
:0D3CF500E4FF7E289001DC7420F0A3DEFCCB
:013D0200229E
:103C4800D3EF9400EE94004015E4FDFC0DBD000197
:0E3C58000CBC05F8BD12F5EF1F70E51E80E2F2
:013C6600223B
:10355200E4900285F0A3F0A3F07F64FE123C4812CF
:103562003CF57B01E4FD7F301239817F0A7E001237
:103572003C487F301235987F301235B77F3812358C
:10358200987F081235B77F0C1235AB123C487F0684
:063592001235AB023C48BB
:103598007B01E4FD1239817F017E00123C487B01EA
:1035A800E4FD227B01E4FD1239817F017E002212B5
:0A35B80039817F017E00123C482299
:102DFA00900271E07055900009E0C3648094A84085
:102E0A000AE4F07B01AD347F02804D900009E0B402
:102E1A00140B74FFF07B01AD347FA8803B9000094E
:102E2A00E0C36480948050057414F0800390000914
:102E3A00E0FF04F0EF3395E0FE74DC2FF5827401B5
:102E4A003EF583E0FFE4FBAD34800D900271E07B38
:102E5A0001AD34B401077F08123981800A7F0C1250
:102E6A003981E4900271F0E548602AB54E1BE549C4
:102E7A00D39400402B1549E5497025854E4A9002A6
:102E8A0071E0B4011B04F08017E54A701385484EBF
:102E9A0075490A8005E4F54EF54990026D74FAF019
:052EAA00E54742222271
:10398100EB7006ED4420FD8004ED54DFFDC294AEE2
:10399100058EA3C2FF30FFFD85A3478FA3C2FF3071
:0D39A100FFFD85A348D294E4F5A3C2FF22E8
:04395000AB07AA0611
:10395400E4F54A90026DE0FF7E007C007DF01206E3
:103964003CEEFDEAC313FEEB13FFC3ED9FEC9E5048
:0C39740002AD07AF0590026DEFF0F549C1
:013980002224
:0F3CE60030FFFD8FA3C2FF30FFFDD295C29522A4
:103CA100AD07AC06ECF5A3C2FF30FFFDC296EDF502
:093CB100A3C2FF30FFFDD29622F0
:1039DA0053D9BF123D101239AE1237C3123D1A7FA6
:1039EA00C87E00123C481235527F21123CE6123C36
:0439FA0027D2AF22FF
:0A3D100043B203E4F5A943A9102211
:1037C300E59620E7FB759601759708E59620E7FBDC
:1037D300759607759707E59620E7FB759609759724
:1037E30007E59620E7FB75960B75970775D7C0E538
:1037F3009620E7FB75960F7597A043E602D2AFE5D7
:0B3803009620E7FB75960175970122E7
:1039AE0075A4D575A5F175A6FE75D408E4F5D5F503
:1039BE00D675E10375E278D297D296D294C295C2AB
:0C39CE00A7C2A6C2A5C2A4C2A2C2A32226
:0A3D1A0075A20B75A14075F8012297
:103C270075D90675D840758955D28CD28E75CBFE5D
:103C370075CA0C75CDFF75B12075C801D2ADD2CA52
:013C4700225A
:1028FD00204F5054524F4E4943204C4142532C20AF
:10290D00494E432E0020204F4C203430302D432093
:10291D00202056312E303020200041202020200054
:10292D00205F5F2E5F5F5F2041200025372E3366CD
:10293D00204120002020205F5F5F5F204B2000257D
:10294D00203764204B20002520372E326620487218
:10295D00002537752020200045252B3033640025B8
:10296D00372E3466202573200052452D5A45524F7F
:10297D00202573200025377520257320002D2D2D42
:10298D002D2D2D2D202573200020204F5645522012
:10299D00202573200020554E4445522020257320BC
:1029AD00005F5F5F5F2E5F5F205620002056434D16
:1029BD00504C212056200025372E326620562000FF
:1029CD0025203775202000214122422444204040FB
:0529DD004040D333333C
:1038DD00012B000131000B5C000000000000000016
:1038ED000000000B5100000000000000000000006F
:1038FD00410271004100090041026D644201C100A5
:07390D00000140000143002E
:101967009000051206CA90016912070290016912D8
:1019770006CAE48F539001691206CA78081206A3B3
:101987009001691207029001691206CAE48F549008
:1019970001691206CA78081206A3900169120702A4
:1019A7009001691206CAE48F559001691206CA7838
:1019B700081206A39001691207029001690206CA7C
:1019C7001206CA9001C31206E612013E9001CF1219
:1019D70006E612013E9001D31206E612013E90017F
:1019E700D71206E602013E7A2979657BFF9002B29B
:1019F70002076B7F977EFF7D1F9001841206E60228
:101A070002E41206F29002AF1206CA0200497551AB
:101A170001852152900270E0F55390026FE0FF8F2D
:101A2700549001A6E0F5559001A5E0FF8F5690016F
:101A3700C0E0F5579001BFE0FF8F58229002B57BB9
:101A4700017A02796712076B7A01796E22F58312A0
:101A570006F202013EF9F89001C1E0FEA3E0FFE4BF
:101A6700FCFD2278081206B790016912070290015F
:101A7700690206E6EE9002B5F0A3EFF0221206CA5D
:101A87009002B5020702E493FC740193FDE412038C
:101A970056A804A905AA06AB07221207029001C798
:101AA7001206CA9001C322855D5290006AE0FEA328
:101AB700E0F5828E83E493F55322F583E0FCA3E0FF
:101AC700FDE40203567551089001A2E0F55290011A
:101AD700A1E0FF8F5322903A481206F290000012BD
:101AE70006CA0202471206CA02038F12004D0203FA
:101AF7008FEEF0A3EFF07BFF22903A4CE493FC7457
:101B07000193FDEC020356120702E4FFFEFDFC22DF
:101B1700C39001C2E094649001C1E0940022E4FB09
:101B2700FAF9783F227B017A02797222900182EEDC
:101B3700F0A3EFF022E5A054F0F554C4540FF55488
:101B470022E4FCFDFE0206729000051206CAE402BA
:101B57000351E025E0249DF582E4340022E025E0EE
:101B6700247CF582E4340022E4FFFE7D7A7C442263
:101B7700E4FFFE7DC87C4290006622FFE43EFEE45F
:101B87003DFDE43CFC227B017A00791E227B017A31
:101B970000793C22E4FBFAF978BF227B017A0279CB
:101BA70067229001840207029001840206CA90020C
:101BB7006EE025E02290026F7480F0A3E4F0227FAC
:101BC700977EFF7D1F9001BB22900066020702905F
:101BD70002AB020702FEFDFC9000990206E69002A6
:041BE700AB0206CA7D
:101BEB001239DAE4900037F0A3F0900037E0FEA34F
:101BFB00E0FFC39408EE648094805026EF7802C314
:101C0B0033CE33CED8F9240EF58274023EF583120F
:101C1B00070E00000000900037E475F00112064E2D
:101C2B0080C8E490002EF0F54A900004E070099013
:101C3B00026EE0D394074005E490026EF090026EC2
:101C4B00E00490002EF0900188E0D394044002E46D
:101C5B00F0900039E0D394024002E4F0900232E0BD
:101C6B00D3946440037464F0900232E0C394015047
:101C7B00037401F0121B4F7B457AA979AB784D1297
:101C8B0002E4500A90000512070E157528A0902942
:101C9B00DE1206D6900000121A03600C400A900068
:101CAB000012070E00000000C20CC20EC20DC20FC4
:101CBB00E49001A3F0A3F07544027529029001C1D1
:101CCB00F0A3F0F54FF550FFFE123CA1121ADDC048
:101CDB0004C005C006C007121B00D003D002D00100
:101CEB00D00012004D90002F121B0E90002F121AD5
:101CFB0003500A90002F12070E000000007F007E99
:101D0B00FF7D7F7C4790002F121A03600C400A90D6
:101D1B00002F12070E477FFF0090002F121AEC9036
:101D2B00003AEEF0A3EFF07A2879FD1219F2121DAA
:101D3B00DFE4FF1236D97BFF7A2979121219F412DC
:101D4B001DDF7F141236D97FD07E07123C48123C20
:101D5B00F512389D1207A61212E4900188E07B0160
:101D6B0070117A01796E7F021236D97BFF7A29794D
:101D7B0027801B7A0179A77F021236D9900188E060
:101D8B0075F006A4246AF9743A35F0FA7BFF7F0FDD
:101D9B001236D9121B8D7F141236D9300E05121B39
:101DAB0094801F300F07900039E0B402087B017A52
:101DBB0000796C800D900039E0B4010D7B017A0045
:101DCB00790A7F1E1236D98088121B947F1E123619
:101DDB00D9021D5C7B017A027934120EC67B017A23
:041DEB000279342223
:1007A600200703020E49C2079001DBE004F0C39460
:1007B6000A4002E4F0900232E0FF900266E004F0A4
:1007C600C39F4002E4F0900233E004F0C3940A4071
:1007D60002E4F0C2AD9001DBE025E02450F582E4AE
:1007E6003400F583E525F0A3E526F0900266121B9A
:1007F60059F583E527F0A3E528F0900233121B6430
:10080600F583E532F0A3E533F0D2AD300D030209EE
:1008160025300E0C90003312070E000000008026D3
:10082600903A4CE493FE740193FBAA06EA3395E0F2
:10083600121A5C120664EC120351903A48121A56C8
:10084600900033120702E4FFFEFDFC900033121AFB
:10085600036010400E121B6F9000331219E8121B32
:1008660025800C121B6F9000331219E8121B9B1285
:100876001AF29001A5EEF0A3EFF09000331206CA2B
:1008860012249390001A120702200F05121B17401C
:1008960003300E0B7BFF7A29792D1219F4800F7B1A
:1008A600FF7A2979381219F4900033121A84121B30
:1008B6008D120EC67F007EF07DF97C4490001A12E0
:1008C6001A03E450119001A1F0A3F07BFF7A297975
:1008D600411219F4801EFFFEFD7C3F90001A12069D
:1008E600E6121AF29001A1121AF87A29794C121915
:1008F600F4121A7B7B017A00790A120EC67BFF7A04
:100906002979541219F4121B4F7B007AA0790C78BE
:1009160047120247121A877B017A00796C80199078
:100926000033121AEC9001A5121AF87A29795E1290
:1009360019F4121A7B121B8D120EC630045E900239
:100946006EE0FFC374FD9FFF74FF9400FE9002A942
:10095600F0A3EFF01219EE121A7B121BA2120EC6AA
:10096600900188E0FFD39400401CEF25E02466F553
:1009760082E4343AF583E493FE740193FF9002A96E
:10098600EE8FF012064E1219EE9002A9E0FFA3E0D8
:10099600CF121A7C121B2C120EC6C204300303029D
:1009A6000BAF300103020BAFE52E6003020BAF90D5
:1009B600018412070E00000000E490016DF0900221
:1009C60032E0FF90016DE0C39F502D900184120626
:1009D600E6C000C001C002C00390016D121B59128F
:1009E6001AC1D003D002D001D00012004D121BA9AB
:1009F60090016DE004F080C6121BAFC004C005C0B4
:100A060006C007900232E0FCE412035B121A98D08B
:100A160007D006D005D004120247121BA9300D03D9
:100A2600020B8A121BB52430F582E4343AF58312A0
:100A36001A8D900184121A0F121BB525E0240CF5AD
:100A460082E4343A121A54121BA9121BAF121BB5B8
:100A560025E0240EF582E43402F5831206E6120040
:100A660049900184121B0E121A007F007E407D1CE5
:100A76007C46900184600A40081219E8121B258002
:100A8600061219E8121B9B121AF290026FEEF0A3DF
:100A9600EFF07FD07EB37D517C40121A00600E408D
:100AA6000C90026F747FF0A374FFF080107F747E49
:100AB600B57D517CC0121A005003121BBC7C41123A
:100AC60019FA50207CC11219FA601940177BFF7A77
:100AD60029796C1219F4900184121A84121BA290BF
:100AE60002B9800F7BFF7A2979761219F4121BA2BC
:100AF6009002B5121A4C120EC6900188E06037902B
:100B0600026FE0FCA3E0FDEC1203567B177AB7797F
:100B1600D1783812013E9001BB1207029001BB1238
:100B260006CA900188E025E025E02454F582E434E5
:100B36003A121A548003121BAF9001BB1207027CB3
:100B460041121BC6121A0350237CC1121BC6121A6D
:100B560003601940177BFF7A29796C1219F490010A
:100B6600BB121A84121B2C9002B9800F7BFF7A29C4
:100B760079761219F4121B2C9002B512076B7A01C2
:100B860079A7801FE4900188F0900184121AEC90F6
:100B9600026F121AF87A2979821219F4121A7BA3B3
:100BA600121A46120EC6020C30E52ED394004025CA
:100BB6007BFF7A29798A1219F4121A43120EC67B20
:100BC600FF7A29798A1219F4120E4A7480F0A374F6
:100BD60001F0020C303003247BFF7A297996121932
:100BE600F4121A43120EC67BFF7A2979961219F46B
:100BF600120E4A747FF0A374FFF0802E30012B7B17
:100C0600FF7A2979A21219F4121A43120EC67BFF33
:100C16007A2979A21219F4121B2C9002B512076BCD
:100C26007A0179A7120EC6121BBC90006612070E37
:100C360000000000E490016DF09000661206E6C028
:100C460000C001C002C00390016D121B64121AC1DC
:100C5600D003D002D001D00012004D121BD090015B
:100C66006DE004F0E0B40AD19000661206CAE4FB17
:100C7600FA79207841120247121BD0300D03020D7B
:100C860030903A52121A8D900066121A0F903A4E10
:100C9600121A56121BD07F7B7ED47DA37C43900014
:100CA60066121A03600C400A9001BF7401F0A37427
:100CB60047F07FC37ED57DA37CC3900066121A03DE
:100CC600500A9001BF74FEF0A374B9F0E4FFFEFD74
:100CD600FC900066121A03600D400B121B77121966
:100CE600E8121B258009121B771219E8121B9B12AA
:100CF6001AF29001BFEEF0A3EFF0200F10121B17AF
:100D0600500B7BFF7A2979AE1219F480337BFF30C2
:100D16000E097A2979B91219F4800D7A2979C41243
:100D260019F4900066121A848016900066121AEC66
:100D36009001BF121AF87A2979CD1219F4121A7B8A
:100D4600121B94120EC6200F249001C1E0FEA3E0F0
:100D5600FFD39484EE94034011EF240CFFEE34FE8F
:100D6600FEE4FCFD121BD6020E27020E1D900005A6
:100D76001206CAEF2401121B829000051207029088
:100D8600003AE0FEA3E0FBAA06E4121A5C1206642F
:100D9600900099120702121A5E121BD674FF7F9CEE
:100DA600121BDCC312068D500B121BE5EF246412D6
:100DB6001B82803A9000991206CAEC3350089000C4
:100DC6003A121A618028E47F64121BDCD312068D66
:100DD6004016121BE5C3EF9464FFEE9400FEED94FB
:100DE60000FDEC9400FC800690003A121A61121B7A
:100DF600D6E47FFF7EFFFDFC9002AB1206E6D3121F
:100E0600068D400C9002AB12070E0000FFFF80110A
:100E1600121BE5EC33500A9002AB12070E000000DD
:100E2600009002ADE0FEA3E0FF9001C1E06E70030A
:100E3600A3E06F600CC2AD9001C1EEF0A3EFF0D25B
:030E4600ADD20624
:100E4900227B017A0279729002B512076B7A0179D5
:080E5900A7120EC690026F22E1
:03002B000216DCDE
:1016DC00C0E0C0F0C083C082C0D075D000C000C0D4
:1016EC0001C002C003C004C005C006C007308D0491
:1016FC000537C28D308F040538C28F30DF04054B9F
:10170C00C2DF1529E529600302187A752932D54400
:10171C000B7544050550E5507002054F858C36302D
:10172C008D040537C28D858A39E536B58C03308D2D
:10173C000D858A39858C36308D040537C28D753A06
:10174C000085363BE53B753B00F53AE539253BF525
:10175C003BE4353AF53AC3E53B952DF526E53A954C
:10176C002CF525C313F525E52613F526E537D3947B
:10177C00015010E537B4010EC3E53B952DE53A95C4
:10178C002C4003432580853A2C853B2D532DFE752B
:10179C003700858D36308F040538C28F858B39E53F
:1017AC0036B58D03308F0D858B39858D36308F0492
:1017BC000538C28F753E0085363FE53F753F00F515
:1017CC003EE539253FF53FE4353EF53EC3E53F9513
:1017DC0030F528E53E952FF527C313F527E528139B
:1017EC00F528E538D394015010E538B4010EC3E563
:1017FC003F9530E53E952F4003432780853E2F854E
:10180C003F305330FE75380085F93985FA3630DFB4
:10181C0004054BC2DF754C0085364DE54D754D000A
:10182C00F54CE539254DF54DE4354CF54CC3E54DFE
:10183C00953DF533E54C953CF532C313F532E53364
:10184C0013F533E54BD394015010E54BB4010EC3A3
:10185C00E54D953DE54C953C4003433280854C3C31
:10186C00854D3D533DFE754B00D20702193CE529D1
:10187C006419600302193CE52ED3940840035322EB
:10188C00F1E52242203013057567058005D5670206
:10189C00C2033011057545058005D54502C20130DE
:1018AC001205752A058005D52A02C202301005756D
:1018BC0046058005D54602C200300004D20E8002D7
:1018CC00C20E752200E52ED394004002152E900016
:1018DC0004E0603420030330011190026EE0D394D5
:1018EC00004008E52E7004E014801820022E20031E
:1018FC002B20012890026EE0C39407501FE52E7038
:10190C001BE004F0E0FF801190002EE0600E14FF4D
:10191C0090026EF090002EE4F0120003E54060049B
:10192C0015408002C2A3E543600415438002C2A2A5
:10193C009001C1E0FEA3E0FF123CA1122DFAC2CF30
:10194C00D007D006D005D004D003D002D001D000EF
:0B195C00D0D0D082D083D0F0D0E03299
:10000300900278EFF0D394074002E4F0900278E096
:100013009029D493FF123CE6752E0AD2045321F89B
:07002300900278E042212267
:102493009002AF120702E4FFFE7D407C409002AF42
:1024A300121A035006E4FFFEFDFC22903A88121A2A
:1024B300099001C3120702903A8C121A099001C7BE
:1024C300120702903A90121A099001CB1207029058
:1024D3003A94121A099001CF120702903A98121AED
:1024E300099001D3120702903A9C121A099001D75E
:1024F3001207029001CB1206CA9001C71219CD90A0
:102503003AD0121A569001891207029001CB121980
:10251300C7903AD4121A5690018D1207029001C740
:102523001219C7903AD8121A56900191121AA11291
:1025330019E89001CB1219D6903ADC121A56900181
:1025430095121AA11219E89001CB1219E89001CF44
:102553001219DF903AE0121A56900199121AA11239
:1025630019E89001CB1219E89001CF1219E89001F4
:10257300D31219E8903AE4121A5690019D120702F9
:102583009001951206E6900191121A0FC004C0053E
:10259300C006C00790018D1206E6900189121A0F3A
:1025A300D003D002D001D00012004DC004C005C03A
:1025B30006C00790019D1206E6900199121A0FD0EA
:0B25C30003D002D001D00012004D2216
:1012E4005321F7900004E06003432108E5317003C3
:1012F4000216B1E4F551F552F553F554F555F5568A
:10130400F557F558F559F55AF55BE55C640160034A
:1013140002144A855D42E54230E30B9000047401F7
:10132400F0432108801AE4900004F05321F7E542C9
:101334005407FF90026EE06F6006EF0490002EF0F9
:10134400E54230E704D20F8002C20FE54230E504E3
:10135400D20D8002C20DE54230E404D20C8002C2F8
:101364000C900182E4F0A3E55FF0E07F00FE9001C1
:1013740082F0A3EFF0E55EFF121B339001A3E06E51
:101384007003A3E06F700302143D900182E0FEA39A
:10139400E0FF9001A3EEF0A3EFF0300D030214354B
:1013A400900182121AC390009512070290009512C0
:1013B40006CAE4FBFA797A7844120247900095123F
:1013C40007029029DE1206D6900095121A036002D5
:1013D40050679000951206CA900000120702121A74
:1013E400DDC004C005C006C007121B00D003D00234
:1013F400D001D00012004D900095121B0E90009564
:10140400121A03500A90009512070E000000007F84
:10141400007EFF7D7F7C47900095121A03600C408C
:101424000A90009512070E477FFF00900095121A4C
:10143400EC90003AEEF0A3EFF0E52B60030216AE59
:10144400121A15021547E55C6402701D255DFEE461
:10145400343A90006AF0A3CEF0E52B60030216AE96
:10146400755102121AAE021547E55C640370232518
:101474005DFFE4343AFE90006AF0A3EFF0AD5E1233
:10148400002EE52B60030216AE755103121AAE024C
:101494001698E55CB404147F007E3A123CD3E52B25
:1014A40060030216AE755104021698E55C6405608B
:1014B4000302154AE52B60030216AE755105855DDE
:1014C40052E552B4010690023202152EE552B402DE
:1014D4000690018802152EE55264037007121967FD
:1014E4008F56805FE552B40405900271803CE5524A
:1014F400B40505852153804BE55264067024121B04
:10150400709000001219E8121B25121AF2121B33F4
:10151400E0F553900182E0F8E4F0E8A3F0E0F5543C
:101524008021E552B40708900039E0F5538014E5B2
:1015340052B4080FE590540EF5533085034353011C
:10154400121B3C021698E55C64066003021681E5F2
:101554005DB40119E55ED394644003021612E55E9E
:10156400940050030216129002320215FBE55DB49A
:101574000212E55EC394045006900188E55EF0D241
:1015840004021612E55D64037031AF61FCFDFE12C6
:1015940019BB121A6AAF60121B481219BB121A6ADD
:1015A400AF5F121B481219BB121A6AAF5E121B48B6
:1015B4001219BB9000051207028053E55DB40417AD
:1015C400E55EB401089002717401F08041900271EB
:1015D400E0603B04F08037E55DB4050CE55E700423
:1015E400C20C802AD20C8026E55DB4070FE55EC3E9
:1015F4009403501A900039E55EF08012E55DB4085A
:101604000DE55EC454F0FFE5A0540F4FF5A0E52BA3
:1016140060030216AE755106855D52E552B40106AB
:10162400900232021666E552B40206900188021650
:1016340066E552640370071219678F56803DE552C0
:10164400B40405900271801AE552B4050D300C05FE
:101654007553018026E4F5538021E552B4070890C0
:101664000039E0F5538014E552B4080FE590540EA8
:10167400F553308503435301121B3C8017E55CB4DA
:10168400070512316C8023E55C64087011E52B704A
:1016940019121ACC752B01D2A275430A800CE531BC
:1016A4006008E55C7004C20CF52BE4F531300C10D5
:1016B40030060DE52B7009121A15C206D216800FDA
:1016C400300C14301611E52B700D121ACCC216759D
:0816D4002B01D2A275430A228A
:1023360025326400256420433D25352E336620541E
:102346003D25352E316620202000613D25352E3174
:1023560045206B25352E314520202000253032586A
:102366002C253032582C253032582C253032582C1A
:10237600253032582C253032582C2530325800253D
:10238600342E3166004155544F0045252B303364B9
:1023960000484F5552530025372E326600454449B2
:1023A60054204C414D502054415247455400252558
:1023B60025642E25646600412020202000474149DF
:1023C6004E2052414E4745203D2000524553504F26
:1023D6004E53452054494D45203D20202053004D65
:1023E600454E55204F5054494F4E002053455420DA
:1023F600524553504F4E53452054494D45202000D9
:1024060053454C454354204D4F4E49544F52205549
:102416004E495453002053454C454354204C414D9E
:102426005020554E495453202000202056494557E8
:10243600204C414D502054494D455220202000202B
:10244600205455524E20444953504C4159204F4632
:1024560046202000202055534220434F4D4D204D0D
:102466004F4E49544F522020005649455720435459
:10247600454D502043414C20434F45464600FF23DF
:0D248600F1FF2406FF241BFF2430FF244536
:10280E00FBAA062488F582743A3AF5831206D6900E
:10281E0002B712070274A02BF582743A3AF58312AE
:10282E0006D69002BB1207027B017A0279342290FF
:10283E000289E024FFFEE434FFA3F0A3CEF07A2356
:10284E00793A7BFF9002B202076BFBAA0624D0F501
:10285E0082743A3AF5831206D69002B512070274C4
:10286E00B82BF582743A3AF5830206D690002F12F1
:10287E0006CAE4FBFA7920784122A3F0A3E4F0A380
:10288E002290028AE0FEA3E0FFEE9002B5F0A3EFE5
:10289E00F022FD3395E0FC74342DF58274023CF584
:1028AE008322A3F0A3E4F0A3221206CA900285129B
:1028BE0006E60202E412004D90002F02070290027B
:1028CE008AE0FEA3E0780222F0900293E0FF9002ED
:1028DE0092E022900285E4F0A322A3F0A3E4F0A3F9
:0F28EE00227401F0E4F54A221206CA9002B522C4
:10389D00E54A603BE54AB41004D20F802FE54AB4E7
:1038AD0008051221B28025E54AB48005122BA780A8
:1038BD001BE54AB4200512316C8011E54AB40405AC
:1038CD00122D408007E54AB40102C20FE4F54A22E9
:1021B2001228E104F0A3E4F0A304F0E4F54A1223A8
:1021C200277A237936122850900285E0FFA3E0CFC8
:1021D200122898122836120EC612283612230090A0
:1021E2000287E07002A3E070030222FD1207A6122A
:1021F20012E4E54A60E9B4101FC3900286E0940538
:10220200900285E0648094805006E475F00180229B
:102212001228E104F00222D3E54AB40124D3900249
:1022220086E09401900285E064809480400A74FF05
:10223200F5F012064E0222D31228E17405F00222B2
:10224200D3E54AB4400AE4900287F0A3F00222D315
:10225200E54A6402707B900285E07004A3E06401A9
:102262007005122AC68067900285E07004A3E064BC
:102272000270051225CE8056900285E07004A3E01C
:1022820064037005122EAF8045900285E07004A3AE
:10229200E0640470051234CF8034900285E0FEA31E
:1022A200E0FF64054E700D900271E0700204F0E4EC
:1022B200F54A801AEF64064E7005122F63800F9064
:1022C2000285E07004A3E0640770031229E212237E
:1022D200277BFF7A237936122852900285E0FFA3EA
:1022E200E09002B5CFF0A3EFF0122836120EC6121C
:0E22F2002836122300E4F54A0221E1023CF5F1
:102300007F0F1236D9900285E0FEA3E090248175FC
:10231000F00312073FEE75F003A42583F58312073F
:10232000747F141236D922123CF57BFF7A2379E5AB
:062330007F031236D922E2
:1029E2009002897401F0E4A3F0A3F0123CF51228DE
:1029F2003D12288F7802C333CE33CED8F912280E77
:102A0200120EC6122836122ABA1228521228CCC323
:102A120033CE33CED8F91228589002B91228331285
:102A22000EC61228367F141236D9900289E070033E
:102A3200022AB71207A61212E4E54A60EDB4400575
:102A4200E4900289F0E54AB41012900289E0B406DB
:102A5200057401F08006900289E004F0E54AB401B1
:102A620012900289E0B401057406F0800690028992
:102A7200E014F012283D12288F7802C333CE33CEF1
:102A8200D8F912280E120EC6122836122ABA1228A5
:102A9200521228CCC333CE33CED8F9122858900222
:102AA200B9122833120EC61228367F141236D9E410
:082AB200F54A022A2C023CF552
:0C2ABA00E4FF1236D97BFF7A237950220A
:102F63009002897401F0123CF5900289E07003022B
:102F730030121207A61212E47BFF7A237962122819
:102F8300529002B5E4F0E55C122888E55DF0A3E415
:102F9300F0E55E122888E55FF0A3E4F0E56012280F
:102FA300B0E561F0A3E4F0A3E562F0122836120E57
:102FB300C6122836E4FF1236D97BFF7A23796212D0
:102FC30028529002B5E4F0E5511228B0E552F0A37F
:102FD300E4F0E5531228E8E554F0A3E4F0E55512D4
:102FE30028E8E556F0A3E4F0A3E557F012283612DB
:102FF3000EC61228367F141236D9E54A7003022F03
:103003006CB44005E4900289F0E4F54A022F6C02A7
:023013003CF58A
:102AC60090028A1228EF900232E0900289F0123CBE
:102AD600F57BFF7A2379D17F141236D990028AE0EA
:102AE6007003022B981207A61212E47B017A017971
:102AF6006E7F041236D9900232E0FCE412035B903A
:102B0600028B12070290028B12287D120247900256
:102B16008B1207027BFF7A23798512285290028B4B
:102B26001228F6122833120EC61228367F231236C2
:102B3600D9E54A60A7B41029122B9BC39464504C64
:102B4600E004F090009DE0FEA3E0FF900232E02555
:102B5600E0249BF582E43400F583EEF0A3EFF080E9
:102B66002BE54AB4010D122B9BD39401401EE014B1
:102B7600F08019E54AB4400A900289E0900232F0EA
:102B86008005E54AB40205E490028AF0E4F54A02BB
:052B96002AE2023CF5FB
:0C2B9B007F647E00123950900232E0226C
:102BA7009002871228EF90026EE0900285F0900065
:102BB70004E0900286F0123CF57BFF7A2379C37F0D
:102BC700141236D9900287E07003022C7D1207A6F3
:102BD7001212E47B017A01796E7F041236D99000D4
:102BE70004E060087BFF7A23798B80067B017A02F9
:102BF70079677F211236D9E54A60C964107024903D
:102C07000004E0700F90026EE0FFC394075005EFD9
:102C17002402802190026EE064077054900004043F
:102C2700F0804DE54AB40124900004E0600DE4F023
:102C370090026EE00490002EF0803590026EE0FF67
:102C4700D39400402B90002EEFF08024E54AB44047
:102C570015900286E0900004F07010900285E00461
:102C670090002EF08005E54AB40205E4900287F053
:092C7700E4F54A022BCB023CF506
:1025CE0090028A7401F0900188E0D394044002E4F2
:1025DE00F0E4F54A900188E0900289F0123CF57B18
:1025EE00FF7A2479067F141236D990028AE070039E
:1025FE000226EB90026EE0FFC374FD9FFF74FF9402
:10260E0000FE900188E0FDD394004017ED25E024F4
:10261E0066F582E4343AF583E493FC7401932FFF5C
:10262E00EC3EFE7BFF7A2379901228521228977B7C
:10263E00017A027972120EC61207A61212E49001E6
:10264E0088E0FFD394004009EF4430900234F080CC
:10265E00069002347420F0E4900235F0122836FF12
:10266E001236D97B017A0179A77F021236D99001F1
:10267E0088E070087BFF7A2379BD8012900188E094
:10268E0075F006A4246AF9743A35F0FA7BFF7F0FD1
:10269E001236D9E54A70030225F8B4100E9001885F
:1026AE00E0C394045031E004F0802CE54AB4010EEE
:1026BE00900188E0D39400401EE014F08019E54AA2
:1026CE00B4400A900289E0900188F08005E54AB492
:1026DE000205E490028AF0E4F54A0225F8023CF580
:102EAF0090028A7401F0900039E0D394024002E45A
:102EBF00F0E4F54A900039E0900289F0123CF57B7E
:102ECF00FF7A24791B7F141236D990028AE070039F
:102EDF00022F601207A61212E47B017A00791EE41A
:102EEF00FF1236D9900039E070087B017A00793CE7
:102EFF008013900039E07B01B401067A00790A80D3
:102F0F00047A00796C7F0A1236D9E54A60BCB41096
:102F1F000E900039E0C394025031E004F0802CE5AC
:102F2F004AB4010E900039E0D39400401EE014F033
:102F3F008019E54AB4400A900289E0900039F08088
:102F4F0005E54AB40205E490028AF0E4F54A022E40
:042F5F00D9023CF562
:10316C0090026EE025E025E0240EF582E43402F5B1
:10317C00831206CA9001841206E61228C390026ECE
:10318C00E0FF900037E4F0A3EFF0D3900038E09428
:10319C0000900037E064809480401512287A120267
:1031AC00471228C690003774FFF5F012064E80DAED
:1031BC00E4900037F0A3F090002F1206CAC004C0B0
:1031CC0005C006C0079000371228CFC333CE33CECC
:1031DC00D8F9240EF58274023EF583D007D006D0C0
:1031EC0005D00412070212287A12013E1228C6904A
:1031FC000037E475F00112064E900037E07004A31E
:06320C00E0640870B2222C
:1034CF0090028D1228EF123CF57BFF7A2479307F22
:1034DF00141236D97BFF7A2379977F0D1236D99044
:1034EF00028DE0605B1207A61212E490000512062F
:1034FF00CAE4120351900289120702900289120640
:10350F00CA7B007AA0790C78471202479002891281
:10351F0007027BFF7A23799D122852900289122885
:10352F00F6122833120EC61228367F051236D9E549
:10353F004A60ACB44005E490028DF0E4F54A809FF8
:03354F00023CF546
:102D4000E4F54A123CF57BFF7A2379A37F1612360D
:102D5000D990028912070E000000009029DE1206A9
:102D6000D690028D1207029002917405F0A304F030
:102D7000A37403F09000001206CA121FE89000002E
:102D8000120702903A481206F29000001206CA1288
:102D90000247C004C005C006C007903A4CE493FC4B
:102DA000740193FDEC120356D003D002D001D00081
:102DB0001228C3E4FFFEFDFC90002F1228BD500A2C
:102DC00090002F12070E000000007F007EFF7D7F25
:102DD0007C4790002F1228BD600C400A90002F12F3
:102DE000070E477FFF0090002F1206CA12038F9034
:0A2DF000003AEEF0A3EFF0023CF50C
:061FE800900285120702C1
:101FEE009002851206CA9002A31207029002A7E47D
:101FFE00F0A3041228D6C39F24FE90029EF0A312D3
:10200E00070E3F8000007BFF7A2379B4122852908E
:10201E000292E0FE3395E09002B5F0A3CEF090026E
:10202E0093E0FE3395E09002B7F0A3CEF07B017AF9
:10203E00027994120EC69002A7E07002A3E070031C
:10204E000221A31207A61212E47B017A02799412DE
:10205E0028529002851228F61207027A027934125B
:10206E000EC690029EE0FF1228A0E0B42014EF12DC
:10207E0028A0E0B4200CAE070FEE1228A17430F0A9
:10208E0080ECE54E701BE55030E01690029EE0FFAE
:10209E003395E0FE74342FF58274023EF58374207E
:1020AE00F0900291E0FF1228361236D9E54A60868A
:1020BE00B4100E1221A490029F1206E612004D805B
:1020CE0011E54AB401121221A490029F1206E612E3
:1020DE00004990028502215AE54A6480702E9002D2
:1020EE009EE0D364809481500302217AE01412287A
:1020FE00D69F14FF90029EE0B50703E014F0900205
:10210E009F12287D12013E90029F8040E54A642076
:10211E00703F900292E0FF14FE90029EE0FDC3EE2F
:10212E006480F8ED6480985043E004F0900293E0F0
:10213E00FEC3EF9E14FF90029EE0B50703E004F08D
:10214E0090029F12287D12024790029F1207028072
:10215E001BE54AB44008E4F54A9002A3800BE54A19
:10216E00B40209E4F54A9002850206CA90028D1265
:10217E0028B76007400590028D800B9002891228C7
:10218E00B7500C9002891206CA900285120702E41B
:05219E00F54A02204497
:0F21A300227F647E001239509002851206CA22F4
:0D3D0300C2AF8F828E8375B7A575B7F12210
:10002E00A2AF9218123D03438F01EDF0E4F58FA2BB
:03003E001892AF66
:01004100229C
:103CD300A2AF9218123D03438F03E4F0F58FA218AD
:023CE30092AF9E
:013CE50022BC
:1030C5001201000100000008740C07000001010254
:1030D5000001090229000101004000090400000265
:1030E50003000000092100010001221B00070581E2
:1030F5000308000A0705020308000A0600FF090184
:10310500A10109019508750826FF0015000901812F
:103115000209019102C0040309041C034F00700059
:10312500740072006F006E006900630020004C009F
:1031350061006200730028034F004C00200034003A
:103145003000300020004C00690067006800740002
:10315500200053006F007500720063006500FF31A9
:073165001BFF311FFF313B8E
:063914004302EB0000007D
:103CBA00FEE02400FFEC3EF0A3EFF02290027EE04B
:093CCA004408F0E49002EBF02242
:03004300022C800C
:102C8000C0E0C0F0C083C082C0D075D000C000C01A
:0D2C900001C002C003C004C005C006C0079B
:102C9D00E59620E7FB759686E59620E7FB90027991
:102CAD00E597F0E59620E7FB759682E59620E7FB24
:102CBD0090027AE597F0E59620E7FB759684E59608
:102CCD0020E7FB90027BE597F0E59620E7FB7596F4
:102CDD0091E59620E7FB90027CE597F0900279E074
:102CED0030E103123D24900279E030E203123C679B
:102CFD0090027AE030E003121DEF90027AE030E1AD
:102D0D00031235C290027BE030E2031233C490020D
:082D1D0079E030E003123D2EC5
:102D2500D007D006D005D004D003D002D001D00002
:0B2D3500D0D0D082D083D0F0D0E032AC
:0A3D240090027DE475F00102064EE6
:103C67009002F17402F0E59620E7FB7596017597CF
:0D3C770001E49002EBF0A37403F0A3F0222F
:101DEF00E59620E7FB75960EE4F597E59620E7FB61
:101DFF00759691E59620E7FB90027DE597F09002AE
:101E0F00EBE0B40513E59620E7FBE4F5969002E2CC
:101E1F00E0F597E49002EBF090027DE0FF30E210E6
:101E2F00E59620E7FB759611E4F5979002EBF0220B
:101E3F00EF30E41BE59620E7FB759611759708E5E3
:101E4F009620E7FB759611759780E49002EBF09062
:101E5F0002EBE06003021F3790027DE020E00302F7
:101E6F001F377B017A0279DF7D087C007F201237D4
:101E7F00289002E2E0FE9002E1E07C00123CBC9070
:101E8F0002E4E09002E3123CBA9002E6E09002E531
:101E9F00123CBA9002DFE0547F64217035A3E02436
:101EAF00FE601B14602224FA600F14601614601D6C
:101EBF00240A707112002A806F120042806A123950
:101ECF00FE8065123D3C80601239FF805B123D3F02
:101EDF0080569002E0E01207801F07001F0C011FC1
:101EEF0011031F16051F1B061F20081F25091F2A78
:101EFF000A1F2F0B00001F34123015802B1232A631
:101F0F008026123212802112380E801C1226EE808B
:101F1F001712362F801212344A800D12385980084A
:101F2F0012391B8003123C849002EBE064016003C2
:101F3F00021FE790027DE030E103021FE7E59620E4
:101F4F00E7FB759691E59620E7FB90027DE597F00C
:101F5F00E030E40630E003021FE790027E7402F0E7
:101F6F00C39002EAE094089002E9E09400403090B8
:101F7F0002EE12074B7D087C007F2012377690020D
:101F8F00EFE475F00812064E9002E974FF75F0F851
:101F9F0012064E9002E7E475F00812064E80169076
:101FAF0002E9E0FCA3E0FD9002EE12074B7F201246
:101FBF003776123CC69002E5E0FEA3E0FFA3E0B542
:101FCF000608A3E0B50703123CC6E59620E7FB75AC
:081FDF00961190027EE0F597D7
:011FE70022D7
:1035C200E59620E7FB75960E759701E59620E7FBD9
:1035D200759691E59620E7FBAF979002ECE0B40375
:1035E2000CE59620E7FB75961175971022EF30E5F2
:1035F2000BE59620E7FB759611759740EF30E20BCD
:10360200E59620E7FB759611E4F597E52B60127BB2
:10361200007A0079517D087C007F21123776E4F52B
:0C3622002BE59620E7FB759611759701CB
:01362E002279
:1033C400E4FFE59620E7FB75960E759702E59620D7
:1033D400E7FB759694E59620E7FBAE979002EDE047
:1033E400B4030CE59620E7FB75961475972022EE3E
:1033F40030E60BE59620E7FB759614759780E59605
:1034040020E7FB759696E59620E7FBAF97E53170CC
:1034140005EF6408600DE59620E7FB759616759731
:103424001080177B007A00795C7D087C007F221273
:103434003728753101D2A375400AE59620E7FB755C
:053444009614E4F59769
:013449002260
:0A3D2E0090027DE475F00102064EDC
:1037280090027FEFF090028212076B900280ECF01B
:03373800A3EDF00E
:10373B004C603790027FE0F5964396C0E4FFFED3D2
:10374B00900281E09F900280E09E401BE59620E76F
:10375B00FB90028212074B8F828E83E59712061A1B
:0A376B000FBF00010E80D8E4F596B0
:013775002231
:1037760090027FEFF090028212076B900280ECF0CD
:03378600A3EDF0C0
:103789004C6036E59620E7FB90027FE0F596E4FF72
:10379900FED3900281E09F900280E09E401B900240
:1037A9008212074B8F828E831205DBF597E59620EF
:0937B900E7FB0FBF00010E80D8F0
:0137C20022E4
:103C8400E59620E7FB75960EE4F597E59620E7FBAD
:0D3C94007596117597209002EB7404F022D4
:043D38000100000086
:103688007A3D793A7BFF9002EE02076B75961175C9
:1036980097409002EB7401F0E49002E7F0A3F02267
:1036A80075960EE4F5979002EBE064042275961186
:1036B800759740229002E9E4F0A322E493FF900278
:1036C800E9E4229002F1E064042275960E759701F0
:0136D80022CF
:103015009002E1E07010A3E0700C9002E5E070060C
:10302500A3E064026003123C849002DFE0247F6029
:103035001314602B240270779002E3E07071A3E013
:103045006015806B9002F1E0B4040A9002E3E07031
:1030550004A3E0600280587BFF7A3D793A80439073
:1030650002F1E0B404069002E3E0600280419002C0
:10307500E4E0FFB481159002ECE07BFFB403067A2F
:103085003D793880047A3D793A8017EFB4021E9075
:1030950002EDE07BFFB403067A3D793880047A3D82
:1030A500793A12368E1236BC7402F0800580001211
:1030B5003C841236AE6008E59620E7FB1236942272
:1032A6001236CB70779002DFE0FF60706401606CCD
:1032B6009002E1E070669002E3E070609002E5E063
:1032C600705AA3E0600280549002DFE06402704C02
:1032D6009002E2E070469002E4E0FF64816005EF50
:1032E60064027038EFB48117E59620E7FB1236D2F8
:1032F600E59620E7FB1236B5E49002ECF08020E577
:103306009620E7FB75960E759702E59620E7FB7506
:103316009614759780E49002EDF08003123C84E5E4
:103326009620E7FB1236A86008E59620E7FB1236E2
:02333600B522BE
:103212001236CB70799002DFE0FF60726401606E5B
:103222009002E1E070689002E3E070629002E5E0F3
:10323200705CA3E0600280569002DFE06402704E90
:103242009002E2E070489002E4E0FF64816005EFE2
:103252006402703AEFB48118E59620E7FB1236D289
:10326200E59620E7FB7596117597109002EC801990
:10327200E59620E7FB75960E759702E59620E7FB2B
:103282007596147597209002ED7403F08003123C3A
:1032920084E59620E7FB1236A86008E59620E7FB56
:0432A2001236B52209
:10380E009002DFE0701D9002E3E07017A3E07013EA
:10381E00A3E0700FA3E0700B9002E1E07005A3E04F
:10382E0030E703123C849002EB7405F09002E2E064
:10383E009002F160057403F080037402F01236AE4C
:0B384E006008E59620E7FB1236B5226B
:1026EE009002E1E0120780270E01271A02273B0312
:1026FE0027580427690527982127AD22000027BEF9
:10270E007A3079C512368C9030C5804A7BFF7A308C
:10271E0079D712368E9030DAE493FE9030D9E49366
:10272E007C002400FFEC3E9002E90227A79002E213
:10273E00E075F00390316312073F12077412368E64
:10274E001205C2FF9002E9E4804F7BFF7A3079E0F8
:10275E0012368E9030E01236C3803E9002E2E0FFD9
:10276E0064816005EF64027047EF7BFFB4810C7AE1
:10277E003079F212368E9030F2800A7A3079F91270
:10278E00368E9030F91236C3800F7BFF7A3079E99E
:10279E0012368E9030E91236C3F0A3EFF080147B20
:1027AE00FF7A31790012368E1236BC741BF080031C
:1027BE00123C849002E1E0FF64016013EF6402605A
:1027CE000EEF64036009EF64046004EFB405239018
:1027DE0002E6E0FFD39002EAE09F9002E9E0940067
:1027EE0040109002E5E0700AE0FE9002E9EEF0A3E0
:1027FE00EFF01236AE6008E59620E7FB1236942213
:10362F009002DFE06480701C9002E1E07016A3E06E
:10363F007012A3E0700EA3E0700AA3E07006A3E07F
:10364F0064016005123C8480229002F1E0FFB40413
:10365F000E7BFF7A3D793812368E1236BC04F0EFAE
:10366F00B403081236881236BC04F01236AE600866
:09367F00E59620E7FB12369422C7
:10344A009002F1E0640260259002DFE0701F9002B2
:10345A00E3E07019A3E07015A3E07011A3E0700D0A
:10346A009002E1E07007A3E0D394014005123C8486
:10347A0080459002E2E0D3940040309002F1740457
:10348A00F0E49002ECF0A3F0E59620E7FB1236D2C6
:10349A00E59620E7FB7596127597201235C2E596D8
:1034AA0020E7FB75960EE4F597800C9002F1740301
:1034BA00F09002ECF0A3F01236AE6008E59620E731
:0534CA00FB1236B522E3
:103859001236CB70249002DFE06481701C9002E183
:10386900E07016A3E07012A3E0700EA3E0700AA343
:10387900E07006A3E064016005123C8480081236FA
:10388900881236BC04F01236AE6008E59620E7FBD4
:04389900123694222D
:10391B009002DFE06401701C9002E5E07016A3E0FA
:10392B0070129002E1E0700CA3E07008A3E0700449
:10393B00A3E06003123C841236AE6008E59620E7E4
:05394B00FB1236B5225D
:01002A0022B3
:01004200229B
:0139FE0022A6
:033D3C00023C84C2
:0139FF0022A5
:013D3F002261
:103A00000000000100000064000000003882715FC7
:103A10003882715F3882715F3882715F3882715F7E
:103A20003882715F3882715F3882715F3882715F6E
:103A3000149F149814A01499149F149914A014A9F5
:103A400000003961719F1315390D8EC9FFEC3A5989
:103A5000C35513793F8000003F800000405B4396D0
:103A60000000000000000000000800080000000046
:103A7000664C2020200063642F6D3200202020201F
:103A80002000202020202000000000000000000076
:103A90000000000000000000000000000000000026
:103AA0000000000000000000000000000000000016
:103AB0000000000000000000000000000000000006
:103AC00000000000000000000000000000000000F6
:103AD00000000000000000000000000000000000E6
:0A3AE00000000000000000007FFF5E
:100046000203FBE86480F8E933E83360110460F0EA
:10005600ED33EC337009E8FCE9FDEAFEEBFF220420
:1000660060DED3EB9FEA9EE99DE8C2E78CF0C2F71B
:1000760095F0400CE8CCF8E9CDF9EACEFAEBCFFBE7
:100086001203C685D0F05804700320D5B3E8047077
:10009600075002B2D502040592D5EC0460F7E4CC11
:1000A600C0E0C398F8603B94186008400DD0E0FBB0
:1000B6000203DDE4FBFAC9FC8028E830E406E4C963
:1000C600FBE4CAFCE830E305E4C9CACBFCE8540704
:1000D6006010F8C3E913F9EA13FAEB13FBEC13FC0F
:1000E600D8F130F52FC3E49CFCEF9BFFEE9AFEEDB2
:1000F60099FDD0E0FBEF4E4D4C701222DB0302045B
:1001060002EC2CFCEF33FFEE33FEED33FDED30E772
:10011600EB0203DDEF2BFFEE3AFEED39FDD0E0FBFF
:1001260050130BBB0003020405ED13FDEE13FEEFA7
:0801360013FFEC13FC0203DDD2
:10013E00EC4D6011E8497017ED33EC3304600DE4BB
:10014E00FCFFFEFD22E933E8330470F80203FB12D4
:10015E0003C658046009E4CC2481500628500902D5
:10016E000405284003020402C0E0EB4A7044B98043
:10017E0006D0E0FB0203F1EF4E701CBD8008EBFFD2
:10018E00EAFEE9FD80EBE98DF0A4FEE5F002022720
:10019E00E9CDF9EAFEEBFFEF89F0A4FCE5F0CE899C
:1001AE00F0A42EFFE435F0CD89F0A42DFEE435F059
:1001BE008067EF4E7005BD80D780C3EF8BF0A4AC87
:1001CE00F0EE8BF0A42CFCE435F0F8EF8AF0A42CC2
:1001DE00E5F038FCE433CB8DF0A42CFCE5F03BF8D5
:1001EE00EE8AF0A42CFCE5F038F8E433CF89F0A4C5
:1001FE002CFCE5F038CF3400CE89F0A42FFFE5F0CB
:10020E003EFEE433C98DF0A42EFEE5F039CD8AF022
:10021E00A42FFFE5F03EFEE43DFD33D0E0FB50079A
:10022E000BBB000F020405EC2CFCEF33FFEE33FE8C
:06023E00ED33FD0203DDBB
:10024400020405EC5D046005E8590470030203FB35
:100254001203C6580460F6EC4860F2EC7004FDFE2C
:10026400FF22C860DB2481C85009C398600250068D
:100274000204029850CAF582E9294B4A7005AB8200
:100284000203F175F0007C1A7880C3EF9BEE9AEDBF
:1002940099400DC3EF9BFFEE9AFEED99FDE842F005
:1002A400DC23ACF0D0E0FFD0E0FED0E0FDAB822058
:1002B400E7101BEB60BAEC2CFCEF33FFEE33FEEDE2
:1002C40033FD0203DDE803F830E705C0F075F00004
:1002D400EF2FFFEE33FEED33FD40B830E7C280AAC6
:1002E40074F8CC6480CCC86480C8F582046043C3CD
:1002F400EB9FF5F0EA9E42F0E99D42F0E89C45F060
:1003040060305018E5825FFFE582F42B5582FB5084
:10031400210ABA001D09B90019088016E5825BFBA1
:10032400E582F42F5582FF50090EBE00050DBD0075
:10033400010CC3EB9FF5F0EA9E42F0E99D42F0E820
:0D0344009C45F06007CC4820E701B3EC2297
:1003510075F020800E75F010800575F0087D007E27
:10036100007F003392D530D50312067FEC33401065
:10037100EF33FFEE33FEED33FDEC33FCD5F0ED2230
:0E038100E5F0247EA2D513CC92E7CDCEFF226C
:10038F00EDD2E7CD33EC3392D524814006E4FFFE66
:10039F00FDFC22FCE4CFCECDCC24E0501174FF80C5
:1003AF00EDC3CC13CCCD13CDCE13CECF13CF047062
:0703BF00F030D5DE02067FDD
:100E6100E50824B2F582E43402F583E00508229016
:100E710002AF301F039002B2E475F0011207540271
:100E810005C22018E97F2ED2188018EF540F249044
:100E9100D43440D4FF301C0BEF24BFB41A005003EC
:100EA1002461FFE50960021509050CE50C700205D6
:100EB1000B301F0E9002AFE475F001120754EF02E0
:100EC1000608023C007403D21F8003E4C21FF50828
:100ED1009002AF12076BE4F509F50BF50CE509601B
:100EE100077F20120EA480F5750AFFC219C218C22D
:100EF1001AC21BC21DC21EC220120E70FF700D301D
:100F01001F057F00120EB5AF0CAE0B22B4255FC2D8
:100F1100D5C21C120E70FF24D0B40A00501A75F00D
:100F21000A780930D50508B6FF0106C6A426F620C1
:100F3100D5047002D21B80D924CFB41A00EF50041B
:100F4100C2E5D21C0211A7D21980C6D21880C0D224
:100F51001A80BCD2D580BAD21D80B47F20120EA4D3
:100F6100201A077401B5090040F1120E61FF120E3B
:100F7100A4020EDED220D21E8095120E61FB120E4B
:100F810061FA120E61F94A4B700679A57A127BFF5C
:100F9100201A2EE509602A7E008E827583001205D3
:100FA100DB60060EEE650A70F0C2D5EBC0E0EAC068
:100FB100E0E9C0E0EE121208D0E0F9D0E0FAD0E0AA
:100FC100FB1205C2FF60AAEBC0E0EAC0E0E9C0E0A5
:100FD100120EA4D0E02401F9D0E03400FAD0E0FBF5
:100FE100E50A0460DCD50AD98087D21A80A21211E1
:100FF100EA60F7E50A700104120410A90A600DE520
:101001000A600914F50A121292EF60F3EA30E7025E
:10101100F404C3995079EAF4250A0430E701E404A1
:10102100F50A800D1211EA60C1EA050A250A1204C7
:1010310010EA9002DEF030E701E4250A04D50A0443
:10104100201D0114121208E4C0E01212929002DE77
:10105100E0601320E70714F0120E8C802204F0D018
:10106100E014C0E07F00120E8CE50A6007120E83C7
:10107100150A800B301D03120E83D0E0020EDED064
:10108100E00480C41211EA609EE50A041204109083
:1010910002DEEAF0E50A201D0260010424041212B6
:0110A1000846
:1010A20074FF04C0E0121292120E8CE50A201D0297
:1010B2006003120E83D0E0B50AE87F45120E9690C7
:1010C20002DEE07F2B30E7047F2DF404C0E0120E35
:1010D200A4D0E075F00A84C0F0120E8DD0E0120E9A
:1010E2008D020EDE791080027908C21EC2208008AD
:1010F200D2D5790A8004790AC2D5E50A047002F5CC
:101102000AE4FAFDFEFF120E61FC7B08201913129D
:101112000E61FD7B1030180A120E61FE120E61FF85
:101122007B20EC3382D592D55013C3E43018069F4E
:10113200FFE49EFEE42019039DFDE49CFCE4CBF851
:10114200C219EC700CCFCECDCCE824F8F870F38045
:1011520017C3EF33FFEE33FEED33FDEC33FCEB331D
:10116200FB994002FB0FD8E9EB301905F8D0E0C437
:1011720048B219C0E00AEC4D4E4F78207B0070C295
:10118200EAB50A0040BCC0E012120AD0F0D0E0205A
:101192001904C4C0E0C4B219C0F0120E8DD0F0D54B
:1011A200F0EB020EDE1207800F7B5310E6580F4C55
:1011B2004C0F484210EA4F10F24410F2490F6143BB
:1011C20010F8551025461085450FEF4712C5500FF0
:1011D200502D0F542E0F772B0F58230F752012AE60
:1011E2002A0F104800000F6FE50AB4FF03750A06C4
:1011F200120E61FC120E61FD120E61FE120E61FFF3
:101202009002D702044D790AA2D5201B14301D0981
:10121200B910020404B9080104A2D5201E0250012B
:1012220004201A68921AB509005034C0E07F2030B9
:101232001B197F30A21A721E721D500F121261C248
:101242001AC21EC21DC2207F30800F301D03E9C0AA
:10125200E0120EA4301D03D0E0F9D0E0B509CC3085
:101262001D177F30B9100C120EA47F58301C077F57
:10127200788003B90803120EA4301A057F2D020EDE
:10128200A47F202020F87F2B201EF322921A80CFE9
:101292007F00B40700500B24D7F582E43402F583B3
:1012A200E0FF22286E756C6C2900D219120E613093
:1012B20019F8C219780930D50108F6020F102D501D
:1012C200434958120E612403B405004001E4901210
:1012D200C093120E95743A120E95D21B7509040230
:0212E20010E614
:1003C600E9D2E7C933E833F892D5EDD2E7CD33EC7D
:0703D60033FC5002B2D522F6
:1003DD00EC30E7100FBF000C0EBE00080DBD000481
:1003ED000BEB6014A2D5EB13FCED92E7FD2274FF2D
:1003FD00FCFDFEFF22E480F8A2D574FF13FC7D8086
:03040D00E480EF99
:10041000F920E73624F950037907E4F42402FBE5D8
:1004200082158270021583DBF6E024FB501BE96025
:1004300014E4F0E582158270021583E004F0B40A3A
:0D04400008E4F0D9EE7401F00A22C2D522C2
:10044D00ED33EC3392D5FA602AB4FF33EDC2E77B7E
:10045D00FF60067A047972E4227A04797B20D50450
:10046D007A047976224E614E002B494E46002D4975
:10047D004E4600E47A08F0A3DAFC7B00740722C034
:10048D0083C082ECC0E0EDC0E0EEC0E0EFC0E0EA7A
:10049D0075F010A4CAABF075F04DA42BFBE435F04C
:1004AD00FCEA2410FAEB34C5FBEC34D9FCEDC2E7C1
:1004BD00FF75F056A4F42411C5F0F434C58FF0A4E3
:1004CD002AE5F03BE43CF020E714120582D0E0FF72
:1004DD00D0E0FED0E0FDD0E0FC1202478014F40421
:1004ED00120582D0E0FFD0E0FED0E0FDD0E0FC129E
:1004FD00013ED082D083E0FAEDD2E7CD33EC332448
:10050D0082FBE4C3CF33CFCE33CECD33CD33DBF34C
:10051D007B0775F00A846004F0A31B0AE5F0F0A3D5
:10052D008FF0740AA4FFACF08EF0740AA42CFEAC0C
:10053D00F050010C8DF0740AA42CFDE435F0F0A3FD
:05054D00DBDE74072253
:100552003F8000004120000042C80000447A0000B1
:10056200461C400047C35000497424004B18968033
:100572004CBEBC205A0E1BCA6753C21C749DC5AE2A
:10058200FB60065407601C23231205B0EB5438604D
:100592000912059C1205AB12013EECF8EDF9EEFAD8
:1005A200EFCB22EB1205AB80F1543803241C9005EB
:1005B20052FE93FC0EEE93FD0EEE930ECE93FF22AF
:0300000002333890
:0C333800787FE4F6D8FD75816702337FD2
:1005C200BB010689828A83E0225002E722BBFE0237
:0905D200E32289828A83E493226A
:1005DB00BB010CE58229F582E5833AF583E02250D5
:1005EB0006E92582F8E622BBFE06E92582F8E2221F
:0D05FB00E58229F582E5833AF583E4932239
:10060800BB010689828A83F0225002F722BBFE01D1
:02061800F322CB
:10061A00F8BB010DE58229F582E5833AF583E8F016
:10062A00225006E92582C8F622BBFE05E92582C8C2
:02063A00F222AA
:10063C00EF8DF0A4A8F0CF8CF0A428CE8DF0A42ED2
:02064C00FE228C
:10064E00C5F0F8A3E028F0C5F0F8E5821582700237
:06065E001583E038F022D4
:0E066400C3EF9BFFEE9AFEED99FDEC98FC2291
:0D067200EF4BFFEE4AFEED49FDEC48FC2287
:0E067F00C3E49FFFE49EFEE49DFDE49CFC228C
:10068D00EB9FF5F0EA9E42F0E99D42F0EC6480C8E4
:06069D0064809845F02284
:1006A300E86010ECA2E713FCED13FDEE13FEEF136D
:0406B300FFD8F0225A
:1006B700E8600FEFC333FFEE33FEED33FDEC33FCA1
:0306C700D8F12245
:0C06CA00E0FCA3E0FDA3E0FEA3E0FF22A3
:1006D600E493FC740193FD740293FE740393FF226A
:0C06E600E0F8A3E0F9A3E0FAA3E0FB2297
:1006F200E493F8740193F9740293FA740393FB225E
:0C070200ECF0A3EDF0A3EEF0A3EFF0226A
:10070E00A8828583F0D083D0821207251207251286
:10071E000725120725E473E493A3C583C5F0C583AB
:10072E00C8C582C8F0A3C583C5F0C583C8C582C835
:01073E002298
:0C073F00A42582F582E5F03583F58322C5
:09074B00E0FBA3E0FAA3E0F922AF
:10075400F8E0FBA3A3E0F925F0F0E582158270022E
:070764001583E0FA38F022D2
:09076B00EBF0A3EAF0A3E9F0228F
:0C077400E493FB740193FA740293F922E1
:10078000D083D082F8E4937012740193700DA3A308
:1007900093F8740193F5828883E47374029368601C
:0607A000EFA3A3A380DF1C
:103C0000EFB40A07740D123C0B740A309811A8998E
:103C1000B8130CC2983098FDA899C298B811F63024
:073C200099FDC299F59922FC
:10334400021BEBE493A3F8E493A34003F68001F299
:1033540008DFF48029E493A3F85407240CC8C3338A
:10336400C4540F4420C8834004F456800146F6DF59
:10337400E4800B01020408102040809038DDE47ED4
:10338400019360BCA3FF543F30E509541FFEE4934E
:10339400A360010ECF54C025E060A840B8E493A315
:1033A400FAE493A3F8E493A3C8C582C8CAC583CA40
:1033B400F0A3C8C582C8CAC583CADFE9DEE780BEF8
:01391A0000AC
:00000001FF
