:093653009002B3EFF0A3120EDFA8
:10365C00E49002B7F0A3F09002B4120EBF9002B740
:10366C00E0FEA3E0F5828E83120D4FFF60279002DF
:10367C00B3E0FD3395E0FC74E42DF58274013CF568
:10368C0083EFF09002B3E004F09002B7E475F00120
:05369C00120DC280C206
:0136A1002206
:0D3DBB00E4FF7E289001E47420F0A3DEFCFC
:013DC80022D8
:103CEC00D3EF9400EE94004015E4FDFC0DBD0001F3
:0E3CFC000CBC05F8BD12F5EF1F70E51E80E24E
:013D0A002296
:10000E00900039EEF0A3EFF0D390003AE094009018
:0D001E000039E09400400512139D80EC2293
:1034CA00E490028FF0A3F0A3F07F64FE123CEC12AA
:1034DA003DBB7B01E4FD7F301238DB7F0A7E0012A0
:1034EA003CEC7F301235107F3012352F7F38123581
:1034FA00107F0812352F7F0C123523123CEC7F0601
:06350A00123523023CEC27
:103510007B01E4FD1238DB7F017E00123CEC7B0175
:10352000E4FD227B01E4FD1238DB7F017E002212E4
:0A35300038DB7F017E00123CEC2224
:102B2D0090027BE0705F900009E0C3648094A84040
:102B3D000AE4F07B01AD357F028057900009E06417
:102B4D0014701474FFF0E5527B01AD3530E7047F4E
:102B5D00C0803F7FA8803B900009E0C364809480D3
:102B6D0050057414F08003900009E0FF04F0EF337A
:102B7D0095E0FE74E42FF58274013EF583E0FFE4E9
:102B8D00FBAD35800D90027BE07B01AD35B40107C7
:102B9D007F081238DB800A7F0C1238DBE490027B51
:102BAD00F0E549603D654F7027E54AD394004046F6
:102BBD00154AE54A7040E52AD394324039854F4B8A
:102BCD00E4F52A90027BE06401702BE004F080268E
:102BDD00E54B702285494F754A0A90027774FAF0D9
:102BED008014E4F54FF54A90027774FAF0E52AC3A4
:0B2BFD0094FF5002052AE54842222206
:1038DB00EB7006ED4420FD8004ED54DFFDC294E453
:1038EB00F5A3C2FF30FFFD85A348AE058EA3C2FF33
:1038FB0030FFFD85A3498FA3C2FF30FFFD85A35287
:08390B00D294E4F5A3C2FF22EF
:04394800AB07AA0619
:10394C00E4F54B900277E0FF7E007C007DF0120DD9
:10395C00B0EEFDEAC313FEEB13FFC3ED9FEC9E50DC
:0F396C0002AD07AF05900277EFF0F54A752AFF1D
:01397B002229
:0F3DAC0030FFFD8FA3C2FF30FFFDD295C29522DD
:103D6300AD07AC06ECF5A3C2FF30FFFDC296EDF53F
:093D7300A3C2FF30FFFDD296222D
:103C000053D9BFE4F5EF12397C123D0B1239AE12D5
:103C1000373D123DC97FC87E00123CEC1234CA7F8A
:0A3C200021123DAC123CC7D2AF22C6
:103D0B0043B203E4F5B943B98043B9C07F01FE1256
:0E3D1B003CECE5B930E5FBE4F5A975B6902265
:10373D00E59620E7FB759601759708E59620E7FB62
:10374D00759607759707E59620E7FB7596097597AA
:10375D0007E59620E7FB75960B75970775D7E0E59E
:10376D009620E7FB75960F75978043E602D2AFE57D
:0B377D009620E7FB759601759701226E
:1039AE0075A4D575A5F175A6FD75D488E4F5D5F584
:1039BE00D675E10375E2E8D297D296D294C295C23B
:0C39CE00A7C2A6C2A5C2A4C2A2C2A32226
:0A3DC90075A20B75A14075F80122E8
:103CC70075D90675D840758951D2A9D2B9D28CD287
:103CD7008E75CBFE75CA0C75CDFF75B12075C80101
:053CE700D2ADD2CA229B
:10397C0020A12EE4F5B1F5E2F5E1C2CAC28EC28CEB
:10398C00C2ADC2ABC2A9F5D8F5D7C2AF53D9BFF5FA
:10399C00FFF5EF75C980F5F1F5F2F5F3F5F47587E0
:0239AC000222F5
:1029400020474F4F434820414E4420484F55534560
:10295000474F20200020204F4C203430302D432082
:1029600020205625342E32662020004120202020B1
:1029700000205F5F2E5F5F5F2041200025372E33F0
:1029800066204120002020205F5F5F5F204B2000F9
:1029900025203764204B20002520372E3266206802
:1029A000720020203E3130303030206872002537F0
:1029B000752072410045252B3033640025372E34B5
:1029C00066202573200052452D5A45524F2025730D
:1029D000200025377520257320002D2D2D2D2D2D20
:1029E0002D202573200020204F564552202025738E
:1029F000200020554E4445522020257320005F5F63
:102A00005F5F2E5F5F205620002056434D504C21C3
:102A1000205620002056204F564552205620002098
:102A200056554E4445522056200025372E326620FA
:102A3000562000252037752072560021412242245D
:102A4000442040404040D3333340D0000040800019
:012A50000085
:10389D00012C000132000B5E000000000000000052
:1038AD000000000B530000000000000000000000AD
:1038BD0041027B0041000900410277644201C900C9
:0738CD00000141000144006D
:1017DD00AF63FCFDFE900171120E76900171120E39
:1017ED003E7808120E2B900171120E769001711237
:1017FD000E5AAF62E4FCFDFE120DE6900171120E61
:10180D0076900171120E3E7808120E2B9001711216
:10181D000E76900171120E5AAF61E4FCFDFE120DB1
:10182D00E6900171120E76900171120E3E7808123B
:10183D000E2B900171120E7690017122120E3E90B8
:10184D0001CB120E5A1208B29001D7120E5A12087D
:10185D00B29001DB120E5A1208B29001DF120E5A2D
:10186D000208B27A2979B57BFF9002BC020EDF9097
:10187D00018AF0A3E560F0E07F00FE90018AF0A3FD
:10188D00EFF0E55FFF90018AEEF0A3EFF0227F9776
:10189D007EFF7D1F90018C120E5A020A5890018A0C
:1018AD00E0FCA3E0FDE4120ACA90009D120E7690B2
:1018BD00009D120E3EE4FBFA797A78441209BB9032
:1018CD00009D120E7690009D020E3E120E66900245
:1018DD00B9120E3E0207BDFFFE7DC87C42903A5400
:1018ED00120E660208B2120E3EE48F55900171126F
:1018FD000E3E7808020E1775530185215490027A19
:10190D00E0F555900279E0FF8F569001AEE0F55766
:10191D009001ADE0FF8F589001C8E0F5599001C7D7
:10192D00E0FF8F5A229002BF7B017A027971120E6D
:10193D00DF7A0179762275F006A4246AF582E43403
:10194D003AF583E4935480FF3395E04F22E493FC02
:10195D00740193FDE4120ACAA804A905AA06AB07EF
:10196D0022F9F89001C9E0FEA3E0FFE4FCFD22900E
:10197D000000120E5A902A49120E4A0207BDEE902F
:10198D0002BFF0A3EFF0229002B3120E769002B3D5
:10199D00020E3E120E3E9002BF020E76120E3EEF6A
:1019AD002401FFE43EFEE43DFDE43CFC2290018A6F
:1019BD00E0FEA3E09001ABFFEEF0A3EFF02290006C
:1019CD0005120E3EE4120AC57B457AA979AB784D16
:1019DD00020A58120E769001CF120E3E9001CB22C4
:1019ED00900000120E3E902A4D020E66F0A3E561A6
:1019FD00F0E07F00FE90018AF0A3EFF0E560222475
:101A0D0000FFEE343AFE90026FF0A3EFF022E0F506
:101A1D005590018AE0F8E4F0E8A3F0E0F556227560
:101A2D0053089001AAE0F5549001A9E0FF8F5522CB
:101A3D00E4FBFAF9783F22E4FFFE7D7A7C4422C371
:101A4D009001CAE094649001C9E094002290003C9A
:101A5D00EEF0A3EFF022902A45120E4A90000022DC
:101A6D00E025E024A5F582E43400F58322E025E0AD
:101A7D002484F582E43400F583221207C1020B039E
:101A8D007B017A02797C2290018C020E7690018C7A
:101A9D00020E3E9002797480F0A3E4F022120E5AE9
:101AAD00AF60E4FCFDFE020DE6EEF0A3EFF07BFF70
:101ABD00229001C9E0FEA3E022747FF0A374FFF031
:101ACD0022E5A054F0F556C4540FF55622E4FFFE5E
:101ADD007DC87C4290006E227B017A00791E227BAC
:101AED00017A00793E22E4FBFAF978BF227B017A74
:101AFD0002797122E0FCA3E0FDE4020ACA900278AB
:101B0D00E025E0227F977EFF7D1F9001C32290008C
:101B1D006E020E769002B5020E76FEFDFC9000A1CF
:101B2D00020E5A9002B5020E3E1207C19002B30288
:091B3D000E76855F548560552287
:10213A00123C00E4900037F0A3F0900037E0FEA3D1
:10214A00E0FFC39408EE648094805026EF7802C3BF
:10215A0033CE33CED8F92416F58274023EF58312B3
:10216A000E8200000000900037E475F001120DC2E3
:10217A0080C8E490002EF0F54B900004E0700990BE
:10218A000278E0D394074005E4900278F090027850
:10219A00E00490002EF0900190E0D394044002E411
:1021AA00F0900190E0FFD39400400BEF12194360C6
:1021BA0005E4900190F090003BE0D394024002E4E1
:1021CA00F090023AE0D3946440037464F090023AC7
:1021DA00E0C3940150037401F01219CB500A900025
:1021EA0005120E821575B6A0121A631218A4600C95
:1021FA00400A900000120E8200000000C20CC20EBB
:10220A00C20DC20FE49001ABF0A3F0754502752927
:10221A00029001C9F0A3F0F550F551FFFE123D639B
:10222A00122CE17A2979401218741222E4E4FF127E
:10223A0036537BFF7A2979551218769002BF120E0F
:10224A00824019999A1222E47F141236537FD07E63
:10225A000712000E123DBB12385D12004612139D82
:10226A00900190E07B0170117A0179767F02123633
:10227A00537BFF7A29796B801B7A0179AF7F02122F
:10228A003653900190E075F006A4246AF9743A3541
:10229A00F0FA7BFF7F0F123653121AE57F141236BB
:1022AA0053300E05121AEC801F300F0790003BE0E6
:1022BA00B402087B017A007974800D90003BE0B487
:1022CA00010D7B017A00790A7F1E1236538088122B
:1022DA001AEC7F1E1236530222617B017A02793C84
:0A22EA00120F7F7B017A02793C227B
:100046002007030207A2C2079001E3E004F0C3946D
:100056000A4002E4F090023AE0FF90026EE004F0FB
:10006600C39F4002E4F090023BE004F0C3940A40D0
:1000760002E4F0C2AD90026E121A6DE527F0A3E518
:1000860028F090023B121A7AE533F0A3E534F0D259
:10009600AD300D03020246300E0D900033120E8273
:1000A60000000000020156903A4CE493FE7401935E
:1000B600FBAA06EA3395E012196E120DD8EC120A65
:1000C600C5903A481218ED900033120E761219EDCB
:1000D600120A58900033601B4019120E3EC004C02D
:1000E60005C006C007903A42120E4A900033121815
:1000F6006A8049120E3EC004C005C006C007121928
:100106007CC004C005C006C007902A4D120E4A9056
:100116003A421218EDD003D002D001D0001208B234
:10012600C004C005C006C0071219F31219821219BD
:1001360065D007D006D005D0041209BB121965D0C8
:1001460007D006D005D0041207BD900033120E76F4
:10015600E4FFFEFDFC9000331218A46010400E125E
:100166001A4490003312186A121A3D800C121A446F
:1001760090003312186A121AF3121A879001ADEE24
:10018600F0A3EFF0900033120E3E1225D190001A24
:10019600120E76200F05121A4C4003300E0B7BFF11
:1001A6007A297971121876800F7BFF7A29797C1269
:1001B60018769000331219A0121AE5120F7F7F00ED
:1001C6007EF07DF97C4490001A1218A4E450119038
:1001D60001A9F0A3F07BFF7A297985121876801E93
:1001E600FFFEFD7C3F90001A120E5A121A879001EC
:1001F600A9121AB67A29799012187612198B7B01F0
:100206007A00790A120F7F1219CB7BFF60234021F7
:100216007A297998121876900005120E3EE4120A91
:10022600C57B007AA0790C78471209BB1219A38006
:10023600077A2979A21218767B017A0079748018D8
:10024600121ABE9001AD1219C47BFF7A2979AE123B
:10025600187612198B121AE5120F7F30045E90027F
:1002660078E0FFC374FD9FFF74FF9400FE9002B315
:10027600F0A3EFF012187012198B121AFA120F7FF0
:10028600900190E0FFD39400401CEF25E02466F532
:1002960082E4343AF583E493FE740193FF9002B34B
:1002A600EE8FF0120DC21218709002B3E0FFA3E0B9
:1002B600CF12198C121A8D120F7FC204300303025B
:1002C60004D73001030204D7E52F60030204D79058
:1002D600018C120E8200000000E4900175F090027D
:1002E6003AE0FF900175E0C39F502D90018C120EED
:1002F6005AC000C001C002C003900175121A6D12E7
:100306001B01D003D002D001D0001207C1121A94EB
:10031600900175E004F080C6121A9AC004C005C0A8
:1003260006C00790023AE0FCE4120ACF121965D023
:1003360007D006D005D0041209BB121A94300D035B
:100346000204B2121B0A2430F582E4343AF5831211
:10035600195A90018C1218DE121B0A25E0240CF59E
:1003660082E4343AF5831218ED121A94121A9A128C
:100376001B0A25E02416F582E43402F583120E5A90
:100386001207BD121A94E4FFFEFDFC1218A17F00AD
:100396007E407D1C7C4690018C600A400812186ADB
:1003A600121A3D800612186A121AF3121A87900260
:1003B60079EEF0A3EFF07FD07EB37D517C4012182A
:1003C600A1600A4008900279121AC680107F747ED6
:1003D600B57D517CC01218A15003121AA07C41129F
:1003E600189B50207CC112189B601940177BFF7A1E
:1003F6002979BC12187690018C1219A0121AFA905B
:1004060002C3800F7BFF7A2979C6121876121AFA70
:100416009002BF12193B120F7F900190E0FF603EE1
:100426001219437039900279E0FCA3E0FDEC120A40
:10043600CA7B177AB779D178381208B29001C312FD
:100446000E769001C3120E3E900190E025E025E065
:100456002454F582E4343AF5831218ED8003121A17
:100466009A9001C3120E767C41121B111218A450E9
:10047600237CC1121B111218A4601940177BFF7A46
:100486002979BC1218769001C31219A0121A8D9000
:1004960002C3800F7BFF7A2979C6121876121A8D4D
:1004A6009002BF120EDF7A0179AF801FE4900190AF
:1004B600F0121A9A120B03900279121AB67A297957
:1004C600D212187612198BA3121935120F7F020554
:1004D60054E52FD3940040257BFF7A2979DA121848
:1004E60076121932120F7F7BFF7A2979DA12187683
:1004F6001207A37480F0A37401F0020554300320A0
:100506007BFF7A2979E6121876121932120F7F7B51
:10051600FF7A2979E61218761207A3121AC6802ED8
:1005260030012B7BFF7A2979F212187612193212D2
:100536000F7F7BFF7A2979F2121876121A8D9002B4
:10054600BF120EDF7A0179AF120F7F121AA0900048
:100556006E120E8200000000E4900175F090006EAD
:10056600120E5AC000C001C002C003900175121AD3
:100576007A121B01D003D002D001D0001207C1129B
:100586001B1B900175E004F0E0B40AD190006E12D6
:100596000E3EE4FBFA792078411209BB121B1B3090
:1005A6000D03020684903A5212195A90006E1218E0
:1005B600DE903A4E1218ED121B1B7F7B7ED47DA374
:1005C6007C4390006E1218A4600840069001C71282
:1005D6001AC67FC37ED57DA37CC390006E1218A475
:1005E60050069001C7121AA3E4FFFEFDFC90006EB0
:1005F6001218A4600D400B121ADA12186A121A3D6C
:100606008009121ADA12186A121AF3121A8790015E
:10061600C7EEF0A3EFF0200F0D121A4C50087BFF27
:100626007A2979FE801D300E087BFF7A2A790980A7
:10063600129001C7E0B47F10A3E0B4FF0B7BFF7AF2
:100646002A7914121876804F9001C7E0FEA3E0FFC6
:10065600EE3395E0FDFC7B007A8079FF78FFC312CC
:100666000E017BFF70097A2A791F121876800D7A9F
:100676002A792A12187690006E1219A08019900015
:100686006E120E3E120B039001C7121AB67A2A7921
:100696003312187612198B121AEC120F7F200F20C4
:1006A600121ABEFFD39484EE94034011EF240CFF7C
:1006B600EE34FEFEE4FCFD121B21020780020776E3
:1006C6009000051219A9900005120E76900052129C
:1006D60019A9900052120E7690003CE0FEA3E0FBB2
:1006E600AA06E412196E120DD89000A1120E761207
:1006F6001970121B2174FF7F9C121B27C3120E0157
:10070600500B121B30EF24641219AF803A9000A1EF
:10071600120E3EEC33500890003C1219738028E408
:100726007F64121B27D3120E014016121B30C3EF33
:100736009464FFEE9400FEED9400FDEC9400FC80C2
:100746000690003C121973121B21E47FFF7EFFFD09
:10075600FC9002B5120E5AD3120E01400C9002B54F
:10076600120E820000FFFF8011121B30EC33500A7C
:100776009002B5120E82000000009002B7E0FEA3C0
:10078600E0FF9001C9E06E7003A3E06F600CC2AD9C
:0C0796009001C9EEF0A3EFF0D2ADD20646
:1007A200227B017A02797C9002BF120EDF7A0179F4
:0807B200AF120F7F90027922C3
:03000B0002002EC2
:10002E00C0E0758CFFE58030E70553807F80034389
:05003E008080D0E032DB
:03002B00021B466F
:101B4600C0E0C0F0C083C082C0D075D000C000C065
:101B560001C002C003C004C005C006C007308F0420
:101B66000539C28F30DF04054CC2DFD390003AE05E
:101B76009401900039E09400400A74FF75F0FE125B
:101B86000DC28007900039E4F0A3F01529E529601D
:101B960003021C87752932D5450B7545050551E5A8
:101BA6005170020550858D37308F040539C28F85F7
:101BB6008B3AE537B58D03308F0D858B3A858D379A
:101BC600308F040539C28F753F00853740E5407573
:101BD6004000F53FE53A2540F540E4353FF53FC383
:101BE600E5409531F528E53F9530F527C313F527F0
:101BF600E52813F528E539D394015010E539B401E9
:101C06000EC3E5409531E53F953040034327808577
:101C16003F308540315331FE75390085F93A85FAF2
:101C26003730DF04054CC2DF754D0085374EE54E73
:101C3600754E00F54DE53A254EF54EE4354DF54D1C
:101C4600C3E54E953EF534E54D953DF533C313F5A5
:101C560033E53413F534E54CD394015010E54CB418
:101C6600010EC3E54E953EE54D953D400343338059
:101C7600854D3D854E3E533EFE754C00D207021DF6
:101C86004AE52964196003021D4AE52FD3940840EA
:101C9600035322F1E52242203013057569058005BC
:101CA600D56902C2033011057546058005D5460281
:101CB600C201301205752B058005D52B02C20230F4
:101CC60010057547058005D54702C200300004D2CD
:101CD6000E8002C20E752200E52FD3940040021535
:101CE6002F900004E0603420030330011190027845
:101CF600E0D394004008E52F7004E0148018200219
:101D06002F20032C200129900278E0C3940750204D
:101D1600E52F701CE004F0E0FF801290002EE0FF3B
:101D2600600E14FF900278F090002EE4F0123C5200
:101D3600E541600415418002C2A3E54460041544F0
:101D46008002C2A212397C121ABEFF123D63122B08
:101D56002DC2CFD007D006D005D004D003D002D0F4
:0E1D660001D000D0D0D082D083D0F0D0E032B7
:103C5200900282EFF0D394074002E4F0900282E0F7
:103C6200902A3B93FF123DAC752F0AD2045321F8E0
:073C7200900282E0422122D2
:102CE100121A631218A4600C400A900000120E829E
:102CF100000000001219ED120A58600D400B903AC5
:102D010042121A6612186A80311219F3121982C01E
:102D110004C005C006C00712197CD003D002D0013F
:102D2100D0001209BB121994903A421218ED1219EF
:102D310094902A4D1218ED121994900000120E5A17
:102D4100121B36903A48120E6612199A1209BBC02C
:102D510004C005C006C007903A4CE493FC7401938B
:102D6100FDEC120ACAD003D002D001D000121B36EA
:102D7100E4FFFEFDFC9002B31218A4500A9002B3C6
:102D8100120E82000000007F007EFF7D7F7C479055
:102D910002B31218A4600C400A9002B3120E8247CB
:0C2DA1007FFF0012199A120B03121A5A3D
:012DAD002203
:1025D1009002B9120E76E4FFFE7D407C409002B974
:1025E1001218A45006E4FFFEFDFC22903A8812184E
:1025F100D89001CB120E76903A8C1218D89001CF58
:10260100120E76903A901218D89001D3120E76904D
:102611003A941218D89001D7120E76903A9812185F
:10262100D89001DB120E76903A9C1218D89001DFF7
:10263100120E769001D3120E3E9001CF12184F90D8
:102641003AD01218ED900191120E769001D3121822
:1026510049903AD41218ED900195120E769001CF5F
:10266100121849903AD81218ED9001991219E012F6
:10267100186A9001D3121858903ADC1218ED9001A3
:102681009D1219E012186A9001D312186A9001D7AD
:10269100121861903AE01218ED9001A11219E0129E
:1026A100186A9001D312186A9001D712186A900122
:1026B100DB12186A903AE41218ED9001A5120E7619
:1026C10090019D120E5A9001991218DEC004C005A6
:1026D100C006C007900195120E5A9001911218DEA2
:1026E100D003D002D001D0001207C1C004C005C080
:1026F10006C0079001A5120E5A9001A11218DED052
:0B27010003D002D001D0001207C1225B
:10139D005321F7900004E06003432108E532700308
:1013AD000217A8E4F553F554F555F556F557F558CC
:1013BD00F559F55AF55BF55CF55DE55E6401600385
:1013CD00021452855F43E54330E30B900004740132
:1013DD00F0432108801AE4900004F05321F7E5430F
:1013ED005407FF900278E06F6006EF0490002EF036
:1013FD00E54330E704D20F8002C20FE54330E50428
:10140D00D20D8002C20DE54330E404D20C8002C23D
:10141D000C90018AE41219F91218919001ABE06E4B
:10142D007003A3E06F60111219BA300D05121A5A2C
:10143D0080061218AA1217D3E52C60030217A51205
:10144D00190402159CE55E6402703412187C2400A8
:10145D00FFEE343A121A13E52C60030217A57553EB
:10146D0002121B3F90026FE0FEA3E0FF90006CEEB6
:10147D00F0A3EFF0F5828E83E493F55602159CE50B
:10148D005E6403701E12187C121A0CAD61123C7949
:10149D00E52C60030217A5755303121B3F8561569A
:1014AD0002178FE55E6404701912187C121A0C1263
:1014BD0039DAE52C60030217A5755304121B3F02A0
:1014CD00178FE55E6405600302159FE52C6003022E
:1014DD0017A5755305855F54E554B4010590023A7F
:1014ED00804AE554B402059001908040E5546403B0
:1014FD007006900005021573E554B4040590027B47
:10150D00802AE554B4050685215502159CE55464E1
:10151D00067011121A4590000012186A121A3D1227
:10152D0007C1802EE554B4070990003BE0F5550244
:10153D00159CE554B40812E590540EF5553085030D
:10154D00435501121ACE02159CE554640F700E120C
:10155D0018E4120B03121892121A1B8032E5546410
:10156D00FE702C900052120E3E12183F1218F312FC
:10157D00183F120E3EE48F561218F912183F120E34
:10158D003EE48F571218F912183F120E3E8F580273
:10159D00178FE55E64066003021778E55FB40119E5
:1015AD00E560D3946440030216A9E56094005003EE
:1015BD000216A990023A021676E55F6402701FE5E5
:1015CD00607002800EE560C39405500DE560121940
:1015DD00437006900190E560F0D2040216A9E55F14
:1015ED00640370121217DD121AAA12183F120E3E62
:1015FD009000050216A6E55FB4041CE560B4010970
:10160D0090027B7401F00216A990027BE070030238
:10161D0016A904F00216A9E55FB4050EE560700584
:10162D00C20C0216A9D20C0216A9E55F6406702A37
:10163D0090018A1219F91218919001ABE06E7003A6
:10164D00A3E06F60571219BA300D06121A5A02161E
:10165D00A91218AA1217D30216A9E55FB40710E54F
:10166D0060C39403503690003BE560F00216A9E587
:10167D005FB40810E560C454F0FFE5A0540F4FF5BA
:10168D00A00216A9E55F64FE70121217DD121AAAE8
:10169D0012183F120E3E900052120E76E52C60038A
:1016AD000217A5755306855F54E554B401059002E4
:1016BD003A8053E554B402059001908049E5546495
:1016CD0003700690000502174DE554B40405900211
:1016DD007B8033E554B4050F300C067555010217A8
:1016ED0076E4F555021776E55464067011121A4525
:1016FD0090000012186A121A3D1207C1802EE5548F
:10170D00B4070990003BE0F555021776E554B4088F
:10171D0012E590540EF555308503435501121ACE3E
:10172D00021776E554640F700E1218E4120B0312B3
:10173D001892121A1B8032E55464FE702C900052E0
:10174D00120E3E12183F1218F312183F120E3EE4FD
:10175D008F561218F912183F120E3EE48F571218B9
:10176D00F912183F120E3E8F588017E55EB407052B
:10177D00122FD78023E55E64087011E52C701912C5
:10178D001A2C752C01D2A275440A800CE532600822
:10179D00E55E7004C20CF52CE4F532300C10300609
:1017AD000DE52C7009121904C206D216800F300CEB
:1017BD0014301611E52C700D121A2CC216752C0151
:1017CD00D2A275440A22900000120E76122CE1224C
:10270C002532640025342E3166004155544F004566
:10271C00252B303364002D2D2D2D2D00484F555277
:10272C00530025372E32660045444954204C414D08
:10273C00502054415247455400252525642E2564CC
:10274C0066004120202020004741494E2052414E36
:10275C004745203D2000524553504F4E5345205481
:10276C00494D45203D20202053004D454E55204FCE
:10277C005054494F4E002053455420524553504F0E
:10278C004E53452054494D4520200053454C45435C
:10279C0054204D4F4E49544F5220554E49545300DE
:1027AC002053454C454354204C414D5020554E49E7
:1027BC005453202000202056494557204C414D5061
:1027CC002054494D45522020200020205455524E73
:1027DC0020444953504C4159204F4646202000205C
:1027EC002055534220434F4D4D204D4F4E49544F91
:1027FC005220200056494557204354454D50204304
:10280C00414C20434F45464600FF2782FF2797FF48
:0B281C0027ACFF27C1FF27D6000000FB
:1034550090002F120E3EE4FBFA792078412290016C
:1034650090E075F006A4246AF582E4343AF583E425
:103475009322120E3E9002BF120E767B017A0279DC
:103485003C22FD3395E0FC743C2DF58274023CF53D
:1034950083227BFF9002BC020EDF120E3E90028F4C
:1034A500120E5A020A58F090029DE0FF90029CE02D
:1034B5002290028FE4F0A3227401F0E4F54B2290F0
:0534C500002F020E764D
:10385D00E54B603BE54BB41004D20F802FE54BB424
:10386D0008051222F48025E54BB48005122C088042
:10387D001BE54BB42005122FD78011E54BB4040581
:10388D001237D38007E54BB40102C20FE4F54B228A
:1022F4001234B604F0A3E4F0A304F0E4F54B122482
:1023040067122416900291E07002A3E07003022485
:102314001312004612139DE54B60E9B4101FC390DD
:102324000290E0940690028FE0648094805006E46A
:1023340075F00180221234B604F002240AE54BB48D
:102344000124D3900290E0940190028FE064809481
:1023540080400A74FFF5F0120DC202240A1234B64A
:102364007406F002240AE54BB4400AE4900291F0AA
:10237400A3F002240AE54B6402600302240A9002DB
:102384008FE07004A3E064017005122A51807490F8
:10239400028FE07004A3E064027005122476806367
:1023A40090028FE07004A3E064037005122F238071
:1023B4005290028FE07004A3E0640470051233D5D8
:1023C400804190028FE0FEA3E0FF64054E700D9003
:1023D400027BE0700204F0E4F54B8027EF64064EC4
:1023E400702190028FE0FEA3E090281275F0031292
:1023F4000EB3EE75F003A42583F583120EE87F1463
:10240400123653122467122416E4F54B02230802F1
:022414003DBBCE
:102416007BFF7A27790C9002BC120EDF90028FE0C8
:10242600FFA3E09002BFCFF0A3EFF07B017A027921
:102436003C120F7F7B017A02793C7F0F1236539054
:10244600028FE0FEA3E090281275F003120EB3EEA1
:1024560075F003A42583F583120EE87F1412365314
:1024660022123DBB7BFF7A2779767F0312365322F1
:102A51009002941234BD90023AE0900293F0123D3C
:102A6100BB7BFF7A2779627F14123653900294E080
:102A71007003022B1E12004612139D7B017A01790D
:102A8100767F0412365390023AE0FCE4120ACF90AA
:102A91000295120E769002951234581209BB9002DB
:102AA10095120E767A277910123497900295123486
:102AB10077120F7F1234807F23123653E54B60ACBF
:102AC100B41029122B21C39464504CE004F09000FF
:102AD100A5E0FEA3E0FF90023AE025E024A3F58201
:102AE100E43400F583EEF0A3EFF0802BE54BB40165
:102AF1000D122B21D39401401EE014F08019E54BF7
:102B0100B4400A900293E090023AF08005E54BB49C
:102B11000205E4900294F0E4F54B022A6D023DBBFC
:0C2B21007F647E0012394890023AE022E6
:102C08009002911234BD900278E090028FF090000B
:102C180004E0900290F0123DBB7BFF7A2779547F45
:102C280014123653900291E07003022CDE12004613
:102C380012139D7B017A0179767F04123653900036
:102C480004E060087BFF7A27791680067B017A0208
:102C580079717F21123653E54B60C9641070249056
:102C68000004E0700F900278E0FFC394075005EF6E
:102C780024028021900278E06407705490000404D4
:102C8800F0804DE54BB40124900004E0600DE4F0C1
:102C9800900278E00490002EF08035900278E0FFF2
:102CA800D39400402B90002EEFF08024E54BB440E5
:102CB80015900290E0900004F0701090028FE004EC
:102CC80090002EF08005E54BB40205E4900291F0E7
:092CD800E4F54B022C2C023DBB7B
:102476009002947401F0900190E0D394044002E439
:10248600F0900190E0FFD394004012EF12346754AD
:1024960080FF3395E04F6005E4900190F0E4F54B42
:1024A600900190E0900293F0123DBB7BFF7A277972
:1024B600977F14123653900294E070030225CE9053
:1024C6000278E0FFC374FD9FFF74FF9400FE900145
:1024D60090E0FDD394004017ED25E02466F582E4F4
:1024E600343AF583E493FC7401932FFFEC3EFE7AB5
:1024F60027791B1234979002BFEEF0A3EFF07B0111
:102506007A02797C120F7F12004612139D90019079
:10251600E0FFD394004009EF443090023CF080067F
:1025260090023C7420F0E490023DF0123480FF12D9
:1025360036537B017A0179AF7F02123653900190B0
:10254600E070087BFF7A27794E802012346330E7EB
:10255600087BFF7A2779228012900190E075F006B9
:10256600A4246AF9743A35F0FA7BFF7F0F123653CA
:10257600E54B70030224BCB4100E900190E0C394A6
:1025860004503FE004F0803AE54BB4010E90019010
:10259600E0D39400402CE014F08027E54BB4400AC9
:1025A600900293E0900190F08013E54BB402131271
:1025B600346330E708900293E0900190F0E49002D3
:0B25C60094F0E4F54B0224BC023DBB86
:102F23009002947401F090003BE0D394024002E4D9
:102F3300F0E4F54B90003BE0900293F0123DBB7B35
:102F4300FF7A2779AC7F14123653900294E0700312
:102F5300022FD412004612139D7B017A00791EE4DE
:102F6300FF12365390003BE070087B017A00793EF4
:102F7300801390003BE07B01B401067A00790A805C
:102F8300047A0079747F0A123653E54B60BCB4109F
:102F93000E90003BE0C394025031E004F0802CE536
:102FA3004BB4010E90003BE0D39400401EE014F0BC
:102FB3008019E54BB4400A900293E090003BF08007
:102FC30005E54BB40205E4900294F0E4F54B022FBF
:042FD3004D023DBBB3
:102FD700900278E025E025E02416F582E43402F536
:102FE70083120E3E90018C120E5A1207C11234C47E
:102FF700900278E0FF900037E4F0A3EFF0D3900061
:1030070038E09400900037E06480948040151234D3
:10301700551209BB1234C490003774FFF5F0120D36
:10302700C280DAE4900037F0A3F090002F120E3E32
:10303700C004C005C006C007900037E0FEA3E078D3
:1030470002C333CE33CED8F92416F58274023EF587
:1030570083D007D006D005D004120E76123455124D
:1030670008B21234C4900037E475F001120DC29013
:0C3077000037E07004A3E0640870AF2292
:1033D5009002971234BD123DBB7BFF7A2779C17FDE
:1033E500141236537BFF7A2779287F0D12365390B6
:1033F5000297E0605812004612139D900005120EC8
:103405003EE4120AC5900293120E76900293120EB4
:103415003E7B007AA0790C78471209BB9002931283
:103425000E767BFF7A27792E123499900293123407
:1034350077120F7F1234807F05123653E54B60AF4C
:10344500B44005E4900297F0E4F54B80A2023DBB41
:1037D300E4F54B123DBB7BFF7A2779347F16123613
:1037E30053900293120E8200000000902A45120E9D
:1037F3004A900297120E7690029B7405F0A304F090
:10380300A37403F0900000120E3E121F6D9000008F
:09381300120E76122CE1023DBBFD
:061F6D0090028F120E76B7
:101F730090028F120E3E9002AD120E769002B1E4E3
:101F8300F0A3041234ABC39F24FE9002A8F0A31263
:101F93000E823F8000007BFF7A27794512349990A7
:101FA300029CE0FE3395E09002BFF0A3CEF09002D6
:101FB3009DE0FE3395E09002C1F0A3CEF07B017A61
:101FC30002799E120F7F9002B1E07002A3E07003CA
:101FD30002212B12004612139D7B017A02799E1275
:101FE300349990028F120E3E9002BF120E767A023F
:101FF300793C120F7F9002A8E0FF123487E0B420EF
:1020030014EF123487E0B4200CAE070FEE123488BD
:102013007430F080ECE54F701BE55130E016900210
:10202300A8E0FF3395E0FE743C2FF58274023EF581
:10203300837420F090029BE0FF123480123653E544
:102043004B6083B4100E12212C9002A9120E5A1267
:1020530007C18011E54BB4011212212C9002A91281
:102063000E5A1207BD90028F0220E2E54B64807086
:102073002E9002A8E0D3648094815003022102E0F1
:10208300141234AB9F14FF9002A8E0B50703E014C9
:10209300F09002A91234581208B29002A98040E5C8
:1020A3004B6420703F90029CE0FF14FE9002A8E076
:1020B300FDC3EE6480F8ED6480985043E004F09033
:1020C300029DE0FEC3EF9E14FF9002A8E0B5070354
:1020D300E004F09002A91234581209BB9002A9122D
:1020E3000E76801BE54BB44008E4F54B9002AD80BF
:1020F3000BE54BB40209E4F54B90028F020E3E90C0
:10210300029712349F60074005900297800B90025C
:102113009312349F500C900293120E3E90028F1232
:082123000E76E4F54B021FC922
:0F212B00227F647E0012394890028F120E3E22EE
:103083001201000100000040740C12000001010253
:10309300000109022900010100C000090400000227
:1030A30003000000092100010001221B0007058124
:1030B3000308000A0705020308000A0600FF0901C6
:1030C300A10109019508750826FF00150009018172
:1030D3000209019102C004030904240347006F009D
:1030E3006F0063006800200061006E006400200030
:1030F30048006F0075007300650067006F000E03E2
:103103004F004C002000340030003000FF30D9FF66
:0531130030DDFF310179
:0638D4004302F5000000B4
:103D7C00FEE02400FFEC3EF0A3EFF022900288E07E
:093D8C004408F0E49002F5F02275
:03004300022DAEDD
:102DAE00C0E0C0F0C083C082C0D075D000C000C0EB
:0D2DBE0001C002C003C004C005C006C0076C
:102DCB00E59620E7FB759686E59620E7FB90028358
:102DDB00E597F0E59620E7FB759682E59620E7FBF5
:102DEB00900284E597F0E59620E7FB759684E596CF
:102DFB0020E7FB900285E597F0E59620E7FB7596BB
:102E0B0091E59620E7FB900286E597F0900283E030
:102E1B0030E103123DD3900283E030E203123D29EF
:102E2B00900284E030E003121D74900284E030E1E4
:102E3B000312353A900285E030E2031232CA900257
:082E4B0083E030E003123DDDDD
:102E5300D007D006D005D004D003D002D001D000D3
:0B2E6300D0D0D082D083D0F0D0E0327D
:0A3DD300900287E475F001020DC2B2
:103D29009002FB7402F0E59620E7FB759601759702
:0D3D390001E49002F5F0A37403F0A3F02262
:101D7400E59620E7FB75960EE4F597E59620E7FBDC
:101D8400759691E59620E7FB900287E597F090021F
:101D9400F5E0B40513E59620E7FBE4F5969002EC34
:101DA400E0F597E49002F5F0900287E0FF30E2104E
:101DB400E59620E7FB759611E4F5979002F5F0227D
:101DC400EF30E41BE59620E7FB759611759708E55F
:101DD4009620E7FB759611759780E49002F5F090D4
:101DE40002F5E06003021EBC900287E020E00302DB
:101DF4001EBC7B017A0279E97D087C007F201236C3
:101E0400A29002ECE0FE9002EBE07C00123D7E909A
:101E140002EEE09002ED123D7C9002F0E09002EFC1
:101E2400123D7C9002E9E0547F64217035A3E024E4
:101E3400FE601B14602224FA600F14601614601DE7
:101E4400240A7071123C2A806F12000A806A120000
:101E5400078065123DE78060123DEA805B123DEB2E
:101E640080569002EAE0120EF41E8C001E91011EB0
:101E740096031E9B051EA0061EA5081EAA091EAFDA
:101E84000A1EB40B00001EB9122E6E802B1231AC48
:101E940080261231188021123788801C122827804E
:101EA400171236008012123350800D12381C80082D
:101EB4001239138003123D469002F5E06401600379
:101EC400021F6C900287E030E103021F6CE596204C
:101ED400E7FB759691E59620E7FB900287E597F07E
:101EE400E030E40630E003021F6C9002887402F0D4
:101EF400C39002F4E094409002F3E09400403090E8
:101F040002F8120EBF7D407C007F201236F0900252
:101F1400F9E475F040120DC29002F374FF75F0C03D
:101F2400120DC29002F1E475F040120DC2801690B9
:101F340002F3E0FCA3E0FD9002F8120EBF7F201232
:101F440036F0123D889002EFE0FEA3E0FFA3E0B577
:101F54000608A3E0B50703123D88E59620E7FB7564
:081F64009611900288E0F59748
:011F6C002252
:10353A00E59620E7FB75960E759701E59620E7FB61
:10354A00759691E59620E7FBAF979002F6E0B403F3
:10355A000CE59620E7FB75961175971022EF30E57A
:10356A000BE59620E7FB759611759740EF30E20B55
:10357A00E59620E7FB759611E4F597E52C60127B3A
:10358A00007A0079537D087C007F211236F0E4F539
:0C359A002CE59620E7FB75961175970153
:0135A6002202
:1032CA00E4FFE59620E7FB75960E759702E59620D2
:1032DA00E7FB759694E59620E7FBAE979002F7E038
:1032EA00B4030CE59620E7FB75961475972022EE39
:1032FA0030E60BE59620E7FB759614759780E59600
:10330A0020E7FB759696E59620E7FBAF97E53270C6
:10331A0005EF6408600DE59620E7FB75961675972C
:10332A001080177B007A00795E7D087C007F22126C
:10333A0036A2753201D2A375410AE59620E7FB75DC
:05334A009614E4F59764
:01334F00225B
:0A3DDD00900287E475F001020DC2A8
:1036A200900289EFF090028C120EDF90028AECF009
:0336B200A3EDF095
:1036B5004C6037900289E0F5964396C0E4FFFED34F
:1036C50090028BE09F90028AE09E401BE59620E7E2
:1036D500FB90028C120EBF8F828E83E597120D8EA2
:0A36E5000FBF00010E80D8E4F59637
:0136EF0022B8
:1036F000900289EFF090028C120EDF90028AECF0BB
:03370000A3EDF046
:103703004C6036E59620E7FB900289E0F596E4FFEE
:10371300FED390028BE09F90028AE09E401B9002B2
:103723008C120EBF8F828E83120D4FF597E5962074
:09373300E7FB0FBF00010E80D876
:01373C00226A
:103D4600E59620E7FB75960EE4F597E59620E7FBEA
:0D3D56007596117597209002F57404F02207
:0400030001000000F8
:1035A7007596117597409002F57401F0E49002F159
:1035B700F0A3F0227A0079057BFF9002F8120EDF64
:1035C7009002F3E4F0A32275960EE4F5979002F5C6
:1035D700E06404227BFF9002F8020EDF75961175F6
:1035E700974022E493FF9002F3E4229002FBE06409
:0935F700042275960E759701225D
:102E6E009002EBE07010A3E0700C9002EFE07006A1
:102E7E00A3E064026003123D469002E9E0247F6005
:102E8E001B1460332402707C9002EDE0701FA3E0EF
:102E9E00600280707BFF7A007903805E9002FBE017
:102EAE00B4040A9002EDE07004A3E0600280557B4A
:102EBE00FF7A00790580439002FBE0B4040690028D
:102ECE00EDE06002803E9002EEE0FFB481159002CC
:102EDE00F6E07BFFB403067A00790380047A00796A
:102EEE00058017EFB4021B9002F7E07BFFB40306D8
:102EFE007A00790380047A0079051235C17402F0E4
:102F0E0080058000123D461235D46008E59620E714
:052F1E00FB1235A722A3
:1031AC001235F270779002E9E0FF60706401606C98
:1031BC009002EBE070669002EDE070609002EFE040
:1031CC00705AA3E0600280549002E9E06402704CF3
:1031DC009002ECE070469002EEE0FF64816005EF37
:1031EC0064027038EFB48117E59620E7FB1235F9CD
:1031FC00E59620E7FB1235E3E49002F6F08020E53B
:10320C009620E7FB75960E759702E59620E7FB7501
:10321C009614759780E49002F7F08003123D46E512
:10322C009620E7FB1235CE6008E59620E7FB1235B9
:02323C00E3228B
:103118001235F270799002E9E0FF60726401606E26
:103128009002EBE070689002EDE070629002EFE0D0
:10313800705CA3E0600280569002E9E06402704E81
:103148009002ECE070489002EEE0FF64816005EFC9
:103158006402703AEFB48118E59620E7FB1235F95E
:10316800E59620E7FB7596117597109002F6801981
:10317800E59620E7FB75960E759702E59620E7FB26
:103188007596147597209002F77403F08003123D2A
:1031980046E59620E7FB1235CE6008E59620E7FB6A
:0431A8001235E322D7
:103788009002E9E0701D9002EDE07017A3E070135D
:10379800A3E0700FA3E0700B9002EBE07005A3E0CC
:1037A80030E703123D469002F57405F09002ECE014
:1037B8009002FB60057403F080037402F01235D4A4
:0B37C8006008E59620E7FB1235E322C5
:102827009002EBE0120EF4284701285302287203A6
:10283700288F0428A00528CF2128E422000028F0AB
:102847007A3079831235DB90308380487A307995F6
:102857001235DB903098E493FE903097E4937C0038
:102867002400FFEC3E9002F30228DE9002ECE075B4
:10287700F00390310F120EB3120EE81235DD120D70
:1028870036FF9002F3E4804F7BFF7A30799E123552
:10289700DD90309E1235EA803E9002ECE0FF6481C5
:1028A7006005EF64027042EF7BFFB4810C7A3079E8
:1028B700B01235DD9030B0800A7A3079B71235DD45
:1028C7009030B71235EA800F7BFF7A3079A712353F
:1028D700DD9030A71235EAF0A3EFF0800F7A307958
:1028E700BE1235BF741BF08003123D469002EBE029
:1028F700FF64016013EF6402600EEF64036009EF89
:1029070064046004EFB405239002F0E0FFD3900263
:10291700F4E09F9002F3E0940040109002EFE07023
:102927000AE0FE9002F3EEF0A3EFF01235D4600850
:09293700E59620E7FB1235A7220A
:103600009002E9E06480701C9002EBE07016A3E089
:103610007012A3E0700EA3E0700AA3E07006A3E0AE
:1036200064016005123D46801C9002FBE0FFB4047B
:103630000B7BFF7A0079031235C104F0EFB4030568
:103640001235BB04F01235D46008E59620E7FB1272
:0336500035A72279
:103350009002FBE0640260259002E9E0701F900299
:10336000EDE07019A3E07015A3E07011A3E0700DFB
:103370009002EBE07007A3E0D394014005123D46B4
:1033800080459002ECE0D3940040309002FB74043E
:10339000F0E49002F6F0A3F0E59620E7FB1235F991
:1033A000E59620E7FB75961275972012353AE5965B
:1033B00020E7FB75960EE4F597800C9002FB7403F2
:1033C000F09002F6F0A3F01235D46008E59620E7FD
:0533D000FB1235E322B1
:10381C001235F270249002E9E06481701C9002EB86
:10382C00E07016A3E07012A3E0700EA3E0700AA380
:10383C00E07006A3E064016005123D468005123578
:10384C00BB04F01235D46008E59620E7FB1235A7CF
:01385C002249
:103913009002E9E06401701C9002EFE07016A3E0EE
:1039230070129002EBE0700CA3E07008A3E0700447
:10393300A3E06003123D461235D46008E59620E704
:05394300FB1235E32238
:103C2A0090026FE0FEA3E0FF9002F5E06401600AF3
:103C3A00AA06A9071235BF7440F01235D46008E508
:073C4A009620E7FB1235A7ED
:013C51002250
:01000A0022D3
:03000700023D4671
:033DE700023D4654
:013DEA0022B6
:013DEB0022B5
:103A00000000000100000064000000003882715FC7
:103A10003882715F3882715F3882715F3882715F7E
:103A20003882715F3882715F3882715F3882715F6E
:103A3000149F149814A01499149F149914A014A9F5
:103A4000000000000000131538DA1A9301F43A5907
:103A5000C35513794019999A3F800000405B439603
:103A60000000000000000000000800080000000046
:103A7000664C2020200063642F6D3200FFFFFFFFA3
:103A8000FFFFFFFFFFFFFFFF00000000000000003E
:103A90000000000000000000000000000000000026
:103AA0000000000000000000000000000000000016
:103AB0000000000000000000000000000000000006
:103AC00000000000000000000000000000000000F6
:103AD00000000000000000000000000000000000E6
:0A3AE00000000000000000007FFF5E
:103D9500C2AF8F828E8375FF80E4FFFE2243EF0260
:073DA50075B7A575B7F12207
:103C7900A2AF9218123D950FBF00010EEF64C34E1B
:103C890070F5123DA2438F01EDF053EFFDE4F5FF0E
:063C9900F58FA21892AFA6
:013C9F002202
:1039DA00A2AF9218123D950FBF00010EBE01F8BFAB
:1039EA0090F5123DA2438F03E4F053EFFDF5FFF586
:0539FA008FA21892AF3E
:0139FF0022A5
:1007BA00020B6FE86480F8E933E83360110460F0F3
:1007CA00ED33EC337009E8FCE9FDEAFEEBFF2204A5
:1007DA0060DED3EB9FEA9EE99DE8C2E78CF0C2F7A0
:1007EA0095F0400CE8CCF8E9CDF9EACEFAEBCFFB6C
:1007FA00120B3A85D0F05804700320D5B3E8047080
:10080A00075002B2D5020B7992D5EC0460F7E4CC1A
:10081A00C0E0C398F8603B94186008400DD0E0FB34
:10082A00020B51E4FBFAC9FC8028E830E406E4C96B
:10083A00FBE4CAFCE830E305E4C9CACBFCE8540788
:10084A006010F8C3E913F9EA13FAEB13FBEC13FC93
:10085A00D8F130F52FC3E49CFCEF9BFFEE9AFEED36
:10086A0099FDD0E0FBEF4E4D4C701222DB03020BD8
:10087A0076EC2CFCEF33FFEE33FEED33FDED30E783
:10088A00EB020B51EF2BFFEE3AFEED39FDD0E0FB08
:10089A0050130BBB0003020B79ED13FDEE13FEEFB1
:0808AA0013FFEC13FC020B51DB
:1008B200EC4D6011E8497017ED33EC3304600DE440
:1008C200FCFFFEFD22E933E8330470F8020B6F12DD
:1008D2000B3A58046009E4CC2481500628500902DE
:1008E2000B79284003020B76C0E0EB4A7044B980D2
:1008F20006D0E0FB020B65EF4E701CBD8008EBFFDB
:10090200EAFEE9FD80EBE98DF0A4FEE5F002099B29
:10091200E9CDF9EAFEEBFFEF89F0A4FCE5F0CE8920
:10092200F0A42EFFE435F0CD89F0A42DFEE435F0DD
:100932008067EF4E7005BD80D780C3EF8BF0A4AC0B
:10094200F0EE8BF0A42CFCE435F0F8EF8AF0A42C46
:10095200E5F038FCE433CB8DF0A42CFCE5F03BF859
:10096200EE8AF0A42CFCE5F038F8E433CF89F0A449
:100972002CFCE5F038CF3400CE89F0A42FFFE5F04F
:100982003EFEE433C98DF0A42EFEE5F039CD8AF0A7
:10099200A42FFFE5F03EFEE43DFD33D0E0FB50071F
:1009A2000BBB000F020B79EC2CFCEF33FFEE33FE96
:0609B200ED33FD020B51C4
:1009B800020B79EC5D046005E859047003020B6FC3
:1009C800120B3A580460F6EC4860F2EC7004FDFE35
:1009D800FF22C860DB2481C85009C3986002500612
:1009E800020B769850CAF582E9294B4A7005AB820A
:1009F800020B6575F0007C1A7880C3EF9BEE9AEDC8
:100A080099400DC3EF9BFFEE9AFEED99FDE842F089
:100A1800DC23ACF0D0E0FFD0E0FED0E0FDAB8220DC
:100A2800E7101BEB60BAEC2CFCEF33FFEE33FEED66
:100A380033FD020B51E803F830E705C0F075F0000C
:100A4800EF2FFFEE33FEED33FD40B830E7C280AA4A
:100A580074F8CC6480CCC86480C8F582046043C351
:100A6800EB9FF5F0EA9E42F0E99D42F0E89C45F0E4
:100A780060305018E5825FFFE582F42B5582FB5009
:100A8800210ABA001D09B90019088016E5825BFB26
:100A9800E582F42F5582FF50090EBE00050DBD00FA
:100AA800010CC3EB9FF5F0EA9E42F0E99D42F0E8A5
:0D0AB8009C45F06007CC4820E701B3EC221C
:100AC50075F020800E75F010800575F0087D007EAC
:100AD500007F003392D530D503120DF3EC3340106F
:100AE500EF33FFEE33FEED33FDEC33FCD5F0ED22B5
:0E0AF500E5F0247EA2D513CC92E7CDCEFF22F1
:100B0300EDD2E7CD33EC3392D524814006E4FFFEEA
:100B1300FDFC22FCE4CFCECDCC24E0501174FF8049
:100B2300EDC3CC13CCCD13CDCE13CECF13CF0470E6
:070B3300F030D5DE020DF3E6
:100F1A00E50824BCF582E43402F583E00508229052
:100F2A0002B9301F039002BCE475F001120EC80228
:100F3A000D362018E97F2ED2188018EF540F24900E
:100F4A00D43440D4FF301C0BEF24BFB41A00500332
:100F5A002461FFE50960021509050CE50C7002051C
:100F6A000B301F0E9002B9E475F001120EC8EF02A1
:100F7A000D7C023CA07403D21F8003E4C21FF50853
:100F8A009002B9120EDFE4F509F50BF50CE50960DC
:100F9A00077F20120F5D80F5750AFFC219C218C2B9
:100FAA001AC21BC21DC21EC220120F29FF700D30A9
:100FBA001F057F00120F6EAF0CAE0B22B4255FC265
:100FCA00D5C21C120F29FF24D0B40A00501A75F09A
:100FDA000A780930D50508B6FF0106C6A426F62008
:100FEA00D5047002D21B80D924CFB41A00EF500462
:100FFA00C2E5D21C021260D21980C6D21880C0D2B1
:10100A001A80BCD2D580BAD21D80B47F20120F5D5F
:10101A00201A077401B5090040F1120F1AFF120FC6
:10102A005D020F97D220D21E8095120F1AFB120F63
:10103A001AFA120F1AF94A4B7006795E7A137BFF75
:10104A00201A2EE509602A7E008E82758300120D11
:10105A004F60060EEE650A70F0C2D5EBC0E0EAC03A
:10106A00E0E9C0E0EE1212C1D0E0F9D0E0FAD0E037
:10107A00FB120D36FF60AAEBC0E0EAC0E0E9C0E06F
:10108A00120F5DD0E02401F9D0E03400FAD0E0FB81
:10109A00E50A0460DCD50AD98087D21A80A2121226
:1010AA00A360F7E50A700104120B84A90A600DE532
:1010BA000A600914F50A12134BEF60F3EA30E702EB
:1010CA00F404C3995079EAF4250A0430E701E404E8
:1010DA00F50A800D1212A360C1EA050A250A120B4D
:1010EA0084EA9002E8F030E701E4250A04D50A040C
:1010FA00201D01141212C1E4C0E012134B9002E841
:10110A00E0601320E70714F0120F45802204F0D0A4
:10111A00E014C0E07F00120F45E50A6007120F3C99
:10112A00150A800B301D03120F3CD0E0020F97D036
:10113A00E00480C41212A3609EE50A04120B849094
:10114A0002E8EAF0E50A201D0260010424041212F2
:01115A00C1D3
:10115B0074FF04C0E012134B120F45E50A201D0269
:10116B006003120F3CD0E0B50AE87F45120F4F9099
:10117B0002E8E07F2B30E7047F2DF404C0E0120F70
:10118B005DD0E075F00A84C0F0120F46D0E0120F6C
:10119B0046020F97791080027908C21EC220800880
:1011AB00D2D5790A8004790AC2D5E50A047002F512
:1011BB000AE4FAFDFEFF120F1AFC7B08201913122A
:1011CB000F1AFD7B1030180A120F1AFE120F1AFF9E
:1011DB007B20EC3382D592D55013C3E43018069F95
:1011EB00FFE49EFEE42019039DFDE49CFCE4CBF898
:1011FB00C219EC700CCFCECDCCE824F8F870F3808C
:10120B0017C3EF33FFEE33FEED33FDEC33FCEB3363
:10121B00FB994002FB0FD8E9EB301905F8D0E0C47D
:10122B0048B219C0E00AEC4D4E4F78207B0070C2DB
:10123B00EAB50A0040BCC0E01212C3D0F0D0E020E7
:10124B001904C4C0E0C4B219C0F0120F46D0F0D5D7
:10125B00F0EB020F97120EF4103453119F58100538
:10126B004C10014211A34F11AB4411AB49101A435F
:10127B0011B15510DE46113E4510A847137E501094
:10128B00092D100D2E10302B101123102E2013674B
:10129B002A0FC94800001028E50AB4FF03750A0697
:1012AB00120F1AFC120F1AFD120F1AFE120F1AFF51
:1012BB009002E1020BC1790AA2D5201B14301D0943
:1012CB00B910020404B9080104A2D5201E02500172
:1012DB0004201A68921AB509005034C0E07F203000
:1012EB001B197F30A21A721E721D500F12131AC2D5
:1012FB001AC21EC21DC2207F30800F301D03E9C0F1
:10130B00E0120F5D301D03D0E0F9D0E0B509CC3011
:10131B001D177F30B9100C120F5D7F58301C077FE3
:10132B00788003B90803120F5D301A057F2D020F69
:10133B005D7F202020F87F2B201EF322921A80CF76
:10134B007F00B40700500B24E1F582E43402F583EF
:10135B00E0FF22286E756C6C2900D219120F1A301F
:10136B0019F8C219780930D50108F6020FC92D50AA
:10137B00434958120F1A2403B405004001E490139B
:10138B007993120F4E743A120F4ED21B7509040249
:02139B00119FA0
:100B3A00E9D2E7C933E833F892D5EDD2E7CD33EC01
:070B4A0033FC5002B2D5227A
:100B5100EC30E7100FBF000C0EBE00080DBD000405
:100B61000BEB6014A2D5EB13FCED92E7FD2274FFB1
:100B7100FCFDFEFF22E480F8A2D574FF13FC7D800A
:030B8100E480EF1E
:100B8400F920E73624F950037907E4F42402FBE55D
:100B940082158270021583DBF6E024FB501BE960AA
:100BA40014E4F0E582158270021583E004F0B40ABF
:0D0BB40008E4F0D9EE7401F00A22C2D52247
:100BC100ED33EC3392D5FA602AB4FF33EDC2E77B03
:100BD100FF60067A0B79E6E4227A0B79EF20D504DF
:100BE1007A0B79EA224E614E002B494E46002D497F
:100BF1004E4600E47A08F0A3DAFC7B00740722C0B9
:100C010083C082ECC0E0EDC0E0EEC0E0EFC0E0EAFE
:100C110075F010A4CAABF075F04DA42BFBE435F0D0
:100C2100FCEA2410FAEB34C5FBEC34D9FCEDC2E745
:100C3100FF75F056A4F42411C5F0F434C58FF0A467
:100C41002AE5F03BE43CF020E714120CF6D0E0FF7B
:100C5100D0E0FED0E0FDD0E0FC1209BB8014F4042A
:100C6100120CF6D0E0FFD0E0FED0E0FDD0E0FC12A7
:100C710008B2D082D083E0FAEDD2E7CD33EC332451
:100C810082FBE4C3CF33CFCE33CECD33CD33DBF3D1
:100C91007B0775F00A846004F0A31B0AE5F0F0A35A
:100CA1008FF0740AA4FFACF08EF0740AA42CFEAC91
:100CB100F050010C8DF0740AA42CFDE435F0F0A382
:050CC100DBDE740722D8
:100CC6003F8000004120000042C80000447A000036
:100CD600461C400047C35000497424004B189680B8
:100CE6004CBEBC205A0E1BCA6753C21C749DC5AEAF
:100CF600FB60065407601C2323120D24EB54386056
:100D060009120D10120D1F1208B2ECF8EDF9EEFAE9
:100D1600EFCB22EB120D1F80F1543803241C900CEC
:100D2600C6FE93FC0EEE93FD0EEE930ECE93FF22BF
:0300000002323E8B
:0C323E00787FE4F6D8FD758169023285C6
:100D3600BB010689828A83E0225002E722BBFE02BB
:090D4600E32289828A83E49322EE
:100D4F00BB010CE58229F582E5833AF583E0225059
:100D5F0006E92582F8E622BBFE06E92582F8E222A3
:0D0D6F00E58229F582E5833AF583E49322BD
:100D7C00BB010689828A83F0225002F722BBFE0156
:020D8C00F32250
:100D8E00F8BB010DE58229F582E5833AF583E8F09B
:100D9E00225006E92582C8F622BBFE05E92582C847
:020DAE00F2222F
:100DB000EF8DF0A4A8F0CF8CF0A428CE8DF0A42E57
:020DC000FE2211
:100DC200C5F0F8A3E028F0C5F0F8E58215827002BC
:060DD2001583E038F02259
:0E0DD800C3EF9BFFEE9AFEED99FDEC98FC2216
:0D0DE600EF4BFFEE4AFEED49FDEC48FC220C
:0E0DF300C3E49FFFE49EFEE49DFDE49CFC2211
:100E0100EB9FF5F0EA9E42F0E99D42F0EC6480C868
:060E110064809845F02208
:100E1700E86010ECA2E713FCED13FDEE13FEEF13F1
:040E2700FFD8F022DE
:100E2B00E8600FEFC333FFEE33FEED33FDEC33FC25
:030E3B00D8F122C9
:0C0E3E00E0FCA3E0FDA3E0FEA3E0FF2227
:100E4A00E493FC740193FD740293FE740393FF22EE
:0C0E5A00E0F8A3E0F9A3E0FAA3E0FB221B
:100E6600E493F8740193F9740293FA740393FB22E2
:0C0E7600ECF0A3EDF0A3EEF0A3EFF022EF
:100E8200A8828583F0D083D082120E99120E991215
:100E92000E99120E99E473E493A3C583C5F0C5833A
:100EA200C8C582C8F0A3C583C5F0C583C8C582C8BA
:010EB200221D
:0C0EB300A42582F582E5F03583F583224A
:090EBF00E0FBA3E0FAA3E0F92234
:100EC800F8E0FBA3A3E0F925F0F0E58215827002B3
:070ED8001583E0FA38F02257
:090EDF00EBF0A3EAF0A3E9F02214
:0C0EE800E493FB740193FA740293F92266
:100EF400D083D082F8E4937012740193700DA3A38D
:100F040093F8740193F5828883E4737402936860A0
:060F1400EFA3A3A380DFA0
:103CA000EFB40A07740D123CAB740A309811A8994E
:103CB000B8130CC2983098FDA899C298B811F63084
:073CC00099FDC299F599225C
:10324A0002213AE493A3F8E493A34003F68001F23F
:10325A0008DFF48029E493A3F85407240CC8C33385
:10326A00C4540F4420C8834004F456800146F6DF54
:10327A00E4800B010204081020408090389DE47E0F
:10328A00019360BCA3FF543F30E509541FFEE49349
:10329A00A360010ECF54C025E060A840B8E493A310
:1032AA00FAE493A3F8E493A3C8C582C8CAC583CA3B
:1032BA00F0A3C8C582C8CAC583CADFE9DEE780BEF3
:0138DA0000ED
:00000001FF
