:093644009002B3EFF0A3120EE6B0
:10364D00E49002B7F0A3F09002B4120EC69002B748
:10365D00E0FEA3E0F5828E83120D56FF60279002E7
:10366D00B3E0FD3395E0FC74E42DF58274013CF577
:10367D0083EFF09002B3E004F09002B7E475F0012F
:05368D00120DC980C20E
:013692002215
:0D3DB700E4FF7E289001E47420F0A3DEFC00
:013DC40022DC
:103CE800D3EF9400EE94004015E4FDFC0DBD0001F7
:0E3CF8000CBC05F8BD12F5EF1F70E51E80E252
:013D0600229A
:10000E00900039EEF0A3EFF0D390003AE094009018
:0D001E000039E0940040051213A480EC228C
:1034BB00E490028FF0A3F0A3F07F64FE123CE812BD
:1034CB003DB77B01E4FD7F301238CC7F0A7E0012C2
:1034DB003CE87F301235017F301235207F381235B2
:1034EB00017F081235207F0C123514123CE87F0641
:0634FB00123514023CE84A
:103501007B01E4FD1238CC7F017E00123CE87B0197
:10351100E4FD227B01E4FD1238CC7F017E00221202
:0A35210038CC7F017E00123CE82246
:102B1E0090027BE0705F900009E0C3648094A8404F
:102B2E000AE4F07B01AD357F028057900009E06426
:102B3E0014701474FFF0E5527B01AD3530E7047F5D
:102B4E00C0803F7FA8803B900009E0C364809480E2
:102B5E0050057414F08003900009E0FF04F0EF3389
:102B6E0095E0FE74E42FF58274013EF583E0FFE4F8
:102B7E00FBAD35800D90027BE07B01AD35B40107D6
:102B8E007F081238CC800A7F0C1238CCE490027B7E
:102B9E00F0E549603D654F7027E54AD39400404605
:102BAE00154AE54A7040E52AD394324039854F4B99
:102BBE00E4F52A90027BE06401702BE004F080269D
:102BCE00E54B702285494F754A0A90027774FAF0E8
:102BDE008014E4F54FF54A90027774FAF0E52AC3B3
:0B2BEE0094FF5002052AE54842222215
:1038CC00EB7006ED4420FD8004ED54DFFDC294E462
:1038DC00F5A3C2FF30FFFD85A348AE058EA3C2FF42
:1038EC0030FFFD85A3498FA3C2FF30FFFD85A35296
:0838FC00D294E4F5A3C2FF22FF
:04393900AB07AA0628
:10393D00E4F54B900277E0FF7E007C007DF0120DE8
:10394D00B7EEFDEAC313FEEB13FFC3ED9FEC9E50E4
:0F395D0002AD07AF05900277EFF0F54A752AFF2C
:01396C002238
:0F3DA80030FFFD8FA3C2FF30FFFDD295C29522E1
:103D5F00AD07AC06ECF5A3C2FF30FFFDC296EDF543
:093D6F00A3C2FF30FFFDD2962231
:1039CB0053D9BFE4F5EF12396D123D0712399F122F
:1039DB00372E1239F57FC87E00123CE81234BB7FBC
:0A39EB0021123DA8123CC3D2AF2206
:103D070043B203E4F5B943B98043B9C07F01FE125A
:0E3D17003CE8E5B930E5FBE4F5A975B690226D
:10372E00E59620E7FB759601759708E59620E7FB71
:10373E00759607759707E59620E7FB7596097597B9
:10374E0007E59620E7FB75960B75970775D7E0E5AD
:10375E009620E7FB75960F75978043E602D2AFE58C
:0B376E009620E7FB759601759701227D
:10399F0075A4D575A5F175A6FD75D488E4F5D5F593
:1039AF00D675E10375E2E8D297D296D294C295C24A
:0C39BF00A7C2A6C2A5C2A4C2A2C2A32235
:0A39F50075A20B75A14075F80122C0
:103CC30075D90675D840758951D2A9D2B9D28CD28B
:103CD3008E75CBFE75CA0C75CDFF75B12075C80105
:053CE300D2ADD2CA229F
:10396D0020A12EE4F5B1F5E2F5E1C2CAC28EC28CFA
:10397D00C2ADC2ABC2A9F5D8F5D7C2AF53D9BFF509
:10398D00FFF5EF75C980F5F1F5F2F5F3F5F47587EF
:02399D00022204
:1029310020474F4F434820414E4420484F5553456F
:10294100474F20200020204F4C203430302D432091
:1029510020205625342E32662020004120202020C0
:1029610000205F5F2E5F5F5F2041200025372E33FF
:1029710066204120002020205F5F5F5F204B200008
:1029810025203764204B20002520372E3266206811
:10299100720020203E3130303030206872002537FF
:1029A100752072410045252B3033640025372E34C4
:1029B10066202573200052452D5A45524F2025731C
:1029C100200025377520257320002D2D2D2D2D2D2F
:1029D1002D202573200020204F564552202025739D
:1029E100200020554E4445522020257320005F5F72
:1029F1005F5F2E5F5F205620002056434D504C21D3
:102A0100205620002056204F5645522056200020A7
:102A110056554E4445522056200025372E32662009
:102A2100562000252037752072560021412242246C
:102A3100442040404040D3333340D0000040800028
:012A41000094
:10388E00012C000132000B5E000000000000000061
:10389E000000000B530000000000000000000000BC
:1038AE0041027B0041000900410277644201C900D8
:0738BE00000141000144007C
:1017EE00AF63FCFDFE900171120E7D900171120E21
:1017FE00457808120E32900171120E7D9001711211
:10180E000E61AF62E4FCFDFE120DED900171120E41
:10181E007D900171120E457808120E3290017112F0
:10182E000E7D900171120E61AF61E4FCFDFE120D92
:10183E00ED900171120E7D900171120E4578081215
:10184E000E32900171120E7D90017122120E459092
:10185E0001CB120E611208AD9001D7120E61120863
:10186E00AD9001DB120E611208AD9001DF120E6118
:10187E000208AD7A2979A67BFF9002BC020EE69093
:10188E00018AF0A3E560F0E07F00FE90018AF0A3EC
:10189E00EFF0E55FFF90018AEEF0A3EFF0227F9765
:1018AE007EFF7D1F90018C120E61020A5390018AF9
:1018BE00E0FCA3E0FDE4120AD190009D120E7D9093
:1018CE00009D120E45E4FBFA797A78441209B6901F
:1018DE00009D120E7D90009D020E45120E6D90021F
:1018EE00B9120E450207B8FFFE7DC87C42903A54ED
:1018FE00120E6D0208AD120E45E48F559001711255
:10190E000E457808020E1E755301852154900279FA
:10191E00E0FEA3E0F555EEFF8F569001ADE0FEA37D
:10192E00E0F557EEFF8F589001C7E0FEA3E0F559A2
:10193E00EEFF8F5A229002BF7B017A027971120E4E
:10194E00E67A0179762275F006A4246AF582E434EB
:10195E003AF583E4935480FF3395E04F22E493FCF1
:10196E00740193FDE4120AD1A804A905AA06AB07D7
:10197E0022F9F89001C9E0FEA3E0FFE4FCFD2290FD
:10198E000000120E61902A3A120E510207B8EE9024
:10199E0002BFF0A3EFF0229002B3120E7D9002B3BD
:1019AE00020E45120E459002BF020E7D120E45EF3D
:1019BE002401FFE43EFEE43DFDE43CFC2290018A5E
:1019CE00E0FEA3E09001ABFFEEF0A3EFF02290005B
:1019DE0005120E45E4120ACC7B457AA979AB784DF7
:1019EE00020A53120E7D9001CF120E459001CB22AA
:1019FE00900000120E45902A3E020E6DF0A3E56196
:101A0E00F0E07F00FE90018AF0A3EFF0E560222463
:101A1E0000FFEE343AFE90026FF0A3EFF022755302
:101A2E00089001A9E0FEA3E0F554EEFF8F5522E4E5
:101A3E00FBFAF9783F22E4FFFE7D7A7C4422C390C4
:101A4E0001CAE094649001C9E094002290003CEE3B
:101A5E00F0A3EFF02290018AE0FEA3E0F555EEFF31
:101A6E007E0022902A36120E5190000022E025E0D0
:101A7E0024A5F582E43400F58322E025E02484F5E4
:101A8E0082E43400F583221207BC020B0A7B017A32
:101A9E0002797C2290018C020E7D90018C020E4503
:101AAE009002797480F0A3E4F0229002B5020E4504
:101ABE00120E61AF60E4FCFDFE020DEDEEF0A3EF41
:101ACE00F07BFF229001C9E0FEA3E022747FF0A319
:101ADE0074FFF022E5A054F0F556C4540FF55622CB
:101AEE00E4FFFE7DC87C4290006E227B017A007975
:101AFE001E227B017A00793E22E4FBFAF978BF229E
:101B0E007B017A02797122E0FCA3E0FDE4020AD1A6
:101B1E00900278E025E0227F977EFF7D1F9001C323
:101B2E002290006E020E7D9002B5020E7DFEFDFC2F
:101B3E009000A1020E611207BC9002B3020E7D85C9
:061B4E005F548560552282
:102148001239CBE4900037F0A3F0900037E0FEA3FB
:10215800E0FFC39408EE648094805026EF7802C3B1
:1021680033CE33CED8F92416F58274023EF58312A5
:102178000E8900000000900037E475F001120DC9C7
:1021880080C8E490002EF0F54B900004E0700990B0
:102198000278E0D394074005E4900278F090027842
:1021A800E00490002EF0900190E0D394044002E403
:1021B800F0900190E0FFD39400400BEF12195460A7
:1021C80005E4900190F090003BE0D394024002E4D3
:1021D800F090023AE0D3946440037464F090023AB9
:1021E800E0C3940150037401F01219DC500A900006
:1021F80005120E891575B6A0121A711218B5600C61
:10220800400A900000120E8900000000C20CC20EA5
:10221800C20DC20FE49001ABF0A3F0754502752919
:10222800029001C9F0A3F0F550F551FFFE123D5F91
:10223800122CD27A2979311218851222F2E4FF126F
:1022480036447BFF7A2979461218879002BF120E0E
:1022580089401A3D711222F27F141236447FD07ED3
:102268000712000E123DB712384E1200461213A480
:10227800900190E07B0170117A0179767F02123625
:10228800447BFF7A29795C801B7A0179AF7F02123F
:102298003644900190E075F006A4246AF9743A3542
:1022A800F0FA7BFF7F0F123644121AF97F141236A8
:1022B80044300E05121B00801F300F0790003BE0D2
:1022C800B402087B017A007974800D90003BE0B479
:1022D800010D7B017A00790A7F1E1236448088122C
:1022E8001B007F1E12364402226F7B017A02793C62
:0A22F800120F867B017A02793C2266
:1000460020070302079DC2079001E3E004F0C39472
:100056000A4002E4F090023AE0FF90026EE004F0FB
:10006600C39F4002E4F090023BE004F0C3940A40D0
:1000760002E4F0C2AD90026E121A7BE527F0A3E50A
:1000860028F090023B121A88E533F0A3E534F0D24B
:10009600AD300D03020246300E0D900033120E896C
:1000A60000000000020156903A4CE493FE7401935E
:1000B600FBAA06EA3395E012197F120DDFEC120A4D
:1000C600CC903A481218FE900033120E7D1219FE9B
:1000D600120A53900033601B4019120E45C004C02B
:1000E60005C006C007903A42120E5190003312180E
:1000F6007B8049120E45C004C005C006C007121910
:100106008DC004C005C006C007902A3E120E51904D
:100116003A421218FED003D002D001D0001208AD28
:10012600C004C005C006C007121A0412199312199A
:1001360076D007D006D005D0041209B6121976D0AB
:1001460007D006D005D0041207B8900033120E7DF2
:10015600E4FFFEFDFC9000331218B56010400E124D
:100166001A4490003312187B121A3D800C121A445E
:1001760090003312187B121B07121A959001ADEEF0
:10018600F0A3EFF0900033120E451225B090001A3E
:10019600120E7D200F05121A4C4003300E0B7BFF0A
:1001A6007A297962121887800F7BFF7A29796D1276
:1001B60018879000331219B1121AF9120F867F00B0
:1001C6007EF07DF97C4490001A1218B5E450119027
:1001D60001A9F0A3F07BFF7A297976121887801E91
:1001E600FFFEFD7C3F90001A120E61121A959001D7
:1001F600A9121ACA7A29798112188712199C7B01C9
:100206007A00790A120F861219DC7BFF60234021DF
:100216007A297989121887900005120E45E4120A88
:10022600CC7B007AA0790C78471209B61219B480F3
:10023600077A2979931218877B017A0079748018D6
:10024600121AD29001AD1219D57BFF7A29799F1225
:10025600188712199C121AF9120F8630045E900242
:1002660078E0FFC374FD9FFF74FF9400FE9002B315
:10027600F0A3EFF012188112199C121B0E120F86B2
:10028600900190E0FFD39400401CEF25E02466F532
:1002960082E4343AF583E493FE740193FF9002B34B
:1002A600EE8FF0120DC91218819002B3E0FFA3E0A1
:1002B600CF12199D121A9B120F86C2043003030235
:1002C60004D73001030204D7E52F60030204D79058
:1002D600018C120E8900000000E4900175F0900276
:1002E6003AE0FF900175E0C39F502D90018C120EED
:1002F60061C000C001C002C003900175121A7B12D2
:100306001B15D003D002D001D0001207BC121AA2CE
:10031600900175E004F080C6121AA8C004C005C09A
:1003260006C00790023AE0FCE4120AD6121976D00B
:1003360007D006D005D0041209B6121AA2300D0352
:100346000204B2121B1E2430F582E4343AF58312FD
:10035600196B90018C1218EF121B1E25E0240CF568
:1003660082E4343AF5831218FE121AA2121AA8125F
:100376001B1E25E02416F582E43402F583120E6175
:100386001207B8121AA2E4FFFEFDFC1218B27F0093
:100396007E407D1C7C4690018C600A400812187BCA
:1003A600121A3D800612187B121B07121A9590022C
:1003B60079EEF0A3EFF07FD07EB37D517C4012182A
:1003C600B2600A4008900279121ADA80107F747EB1
:1003D600B57D517CC01218B25003121AAE7C411280
:1003E60018AC50207CC11218AC601940177BFF7AFC
:1003F6002979AD12188790018C1219B1121B0E9033
:1004060002C3800F7BFF7A2979B7121887121B0E59
:100416009002BF12194C120F86900190E0FF603EC9
:100426001219547039900279E0FCA3E0FDEC120A2F
:10043600D17B177AB779D178381208AD9001C312FB
:100446000E7D9001C3120E45900190E025E025E057
:100456002454F582E4343AF5831218FE8003121A06
:10046600A89001C3120E7D7C41121B251218B550AF
:10047600237CC1121B251218B5601940177BFF7A21
:100486002979AD1218879001C31219B1121A9B90DF
:1004960002C3800F7BFF7A2979B7121887121A9B3D
:1004A6009002BF120EE67A0179AF801FE4900190A8
:1004B600F0121AA8120B0A900279121ACA7A29792E
:1004C600C312188712199CA3121946120F86020529
:1004D60054E52FD3940040257BFF7A2979CB121857
:1004E60087121943120F867BFF7A2979CB12188758
:1004F60012079E7480F0A37401F0020554300320A5
:100506007BFF7A2979D7121887121943120F867B37
:10051600FF7A2979D712188712079E121ADA802EC7
:1005260030012B7BFF7A2979E312188712194312BF
:100536000F867BFF7A2979E3121887121A9B90029D
:10054600BF120EE67A0179AF120F86121AAE90002C
:100556006E120E8900000000E4900175F090006EA6
:10056600120E61C000C001C002C003900175121ACC
:1005760088121B15D003D002D001D0001207BC127E
:100586001B2F900175E004F0E0B40AD190006E12C2
:100596000E45E4FBFA792078411209B6121B2F307A
:1005A6000D03020684903A5212196B90006E1218CF
:1005B600EF903A4E1218FE121B2F7F7B7ED47DA33E
:1005C6007C4390006E1218B5600840069001C71271
:1005D6001ADA7FC37ED57DA37CC390006E1218B550
:1005E60050069001C7121AB1E4FFFEFDFC90006EA2
:1005F6001218B5600D400B121AEE12187B121A3D36
:100606008009121AEE12187B121B07121A95900116
:10061600C7EEF0A3EFF0200F0D121A4C50087BFF27
:100626007A2979EF801D300E087BFF7A2979FA80C6
:10063600129001C7E0B47F10A3E0B4FF0B7BFF7AF2
:100646002A7905121887804F9001C7E0FEA3E0FFC4
:10065600EE3395E0FDFC7B007A8079FF78FFC312CC
:100666000E087BFF70097A2A7910121887800D7A96
:100676002A791B12188790006E1219B18019900002
:100686006E120E45120B0A9001C7121ACA7A2A79FF
:100696002412188712199C121B00120F86200F2095
:1006A600121AD2FFD39484EE94034011EF240CFF68
:1006B600EE34FEFEE4FCFD121B35020780020776CF
:1006C6009000051219BA900005120E7D9000521284
:1006D60019BA900052120E7D90003CE0FEA3E0FB9A
:1006E600AA06E412197F120DDF9000A1120E7D12E8
:1006F6001981121B3574FF7F9C121B3BC3120E0817
:10070600500B121AB8EF24641219C0803A9000A157
:10071600120E45EC33500890003C1219848028E4F0
:100726007F64121B3BD3120E084016121AB8C3EF91
:100736009464FFEE9400FEED9400FDEC9400FC80C2
:100746000690003C121984121B35E47FFF7EFFFDE4
:10075600FC9002B5120E61D3120E08400C9002B541
:10076600120E890000FFFF8011121AB8EC33500AEE
:100776009002B5120E8900000000121AB89001C945
:10078600E06E7003A3E06F600CC2AD9001C9EEF09D
:07079600A3EFF0D2ADD20683
:10079D00227B017A02797C9002BF120EE67A0179F2
:0807AD00AF120F8690027922C1
:03000B0002002EC2
:10002E00C0E0758CFFE58030E70553807F80034389
:05003E008080D0E032DB
:03002B00021B5461
:101B5400C0E0C0F0C083C082C0D075D000C000C057
:101B640001C002C003C004C005C006C007308F0412
:101B74000539C28F30DF04054CC2DFD390003AE050
:101B84009401900039E09400400A74FF75F0FE124D
:101B94000DC98007900039E4F0A3F01529E5296008
:101BA40003021C95752932D5450B7545050551E58C
:101BB4005170020550858D37308F040539C28F85E9
:101BC4008B3AE537B58D03308F0D858B3A858D378C
:101BD400308F040539C28F753F00853740E5407565
:101BE4004000F53FE53A2540F540E4353FF53FC375
:101BF400E5409531F528E53F9530F527C313F527E2
:101C0400E52813F528E539D394015010E539B401DA
:101C14000EC3E5409531E53F953040034327808569
:101C24003F308540315331FE75390085F93A85FAE4
:101C34003730DF04054CC2DF754D0085374EE54E65
:101C4400754E00F54DE53A254EF54EE4354DF54D0E
:101C5400C3E54E953EF534E54D953DF533C313F597
:101C640033E53413F534E54CD394015010E54CB40A
:101C7400010EC3E54E953EE54D953D40034333804B
:101C8400854D3D854E3E533EFE754C00D207021DE8
:101C940058E52964196003021D58E52FD3940840C0
:101CA400035322F1E52242203013057569058005AE
:101CB400D56902C2033011057546058005D5460273
:101CC400C201301205752B058005D52B02C20230E6
:101CD40010057547058005D54702C200300004D2BF
:101CE4000E8002C20E752200E52FD3940040021527
:101CF4002F900004E0603420030330011190027837
:101D0400E0D394004008E52F7004E014801820020A
:101D14002F20032C200129900278E0C3940750203F
:101D2400E52F701CE004F0E0FF801290002EE0FF2D
:101D3400600E14FF900278F090002EE4F0123C281C
:101D4400E541600415418002C2A3E54460041544E2
:101D54008002C2A212396D121AD2FF123D5F122BF9
:101D64001EC2CFD007D006D005D004D003D002D0F5
:0E1D740001D000D0D0D082D083D0F0D0E032A9
:103C2800900282EFF0D394074002E4F0900282E021
:103C3800902A2C93FF123DA8752F0AD2045321F81D
:073C4800900282E0422122FC
:102CD200121A711218B5600C400A900000120E8987
:102CE200000000001219FE120A53600D400B903AC8
:102CF20042121A7412187B8031121A04121993C0EC
:102D020004C005C006C00712198DD003D002D0013D
:102D1200D0001209B61219A5903A421218FE1219E1
:102D2200A5902A3E1218FE1219A5900000120E61FB
:102D3200121B44903A48120E6D1219AB1209B6C01A
:102D420004C005C006C007903A4CE493FC7401939A
:102D5200FDEC120AD1D003D002D001D000121B44E4
:102D6200E4FFFEFDFC9002B31218B5500A9002B3C4
:102D7200120E89000000007F007EFF7D7F7C47905D
:102D820002B31218B5600C400A9002B3120E8947C2
:0C2D92007FFF001219AB120B0A121A5A34
:012D9E002212
:1025B0009002B9120E7DE4FFFE7D407C409002B98E
:1025C0001218B55006E4FFFEFDFC22903A8812185E
:1025D000E99001CB120E7D903A8C1218E99001CF50
:1025E000120E7D903A901218E99001D3120E7D9050
:1025F0003A941218E99001D7120E7D903A98121869
:10260000E99001DB120E7D903A9C1218E99001DFEF
:10261000120E7D9001D3120E459001CF12186090DA
:102620003AD01218FE900191120E7D9001D312182B
:102630005A903AD41218FE900195120E7D9001CF57
:1026400012185A903AD81218FE9001991219F112E4
:10265000187B9001D3121869903ADC1218FE900191
:102660009D1219F112187B9001D312187B9001D79B
:10267000121872903AE01218FE9001A11219F1128C
:10268000187B9001D312187B9001D712187B900110
:10269000DB12187B903AE41218FE9001A5120E7D11
:1026A00090019D120E619001991218EFC004C005AF
:1026B000C006C007900195120E619001911218EFAB
:1026C000D003D002D001D0001207BCC004C005C0A6
:1026D00006C0079001A5120E619001A11218EFD05B
:0B26E00003D002D001D0001207BC2282
:1013A4005321F7900004E06003432108E532700301
:1013B4000217B9E4F553F554F555F556F557F558B4
:1013C400F559F55AF55BF55CF55DE55E640160037E
:1013D400021459855F43E54330E30B900004740124
:1013E400F0432108801AE4900004F05321F7E54308
:1013F4005407FF900278E06F6006EF0490002EF02F
:10140400E54330E704D20F8002C20FE54330E50420
:10141400D20D8002C20DE54330E404D20C8002C236
:101424000C90018AE4121A0A1218A29001ABE06E21
:101434007003A3E06F60111219CB300D05121A5A14
:1014440080061218BB1217E4E52C60030217B612CB
:1014540019150215A8E55E6402703412188D240073
:10146400FFEE343A121A24E52C60030217B67553C2
:1014740002121B4D90026FE0FEA3E0FF90006CEEA1
:10148400F0A3EFF0F5828E83E493F5560215A8E5F8
:101494005E6403701E12188D121A1DAD61123C4F4A
:1014A400E52C60030217B6755303121B4D85615674
:1014B4000217A0E55E6404701912188D121A1D1229
:1014C4003C9DE52C60030217B6755304121B4D02B4
:1014D40017A0E55E640560030215ABE52C6003020A
:1014E40017B6755305855F54E554B4010590023A67
:1014F400804AE554B402059001908040E5546403A9
:10150400700690000502157FE554B4040590027B33
:10151400802AE554B405068521550215A8E55464CE
:10152400067011121A4590000012187B121A3D120F
:1015340007BC802EE554B4070990003BE0F5550242
:1015440015A8E554B40812E590540EF555308503FA
:10155400435501121AE20215A8E554640F701312E0
:1015640018F5120B0A1218A3121A631218A3F556CF
:101574008032E55464FE702C900052120E4512180D
:1015840050121904121850120E45E48F5612190AFB
:10159400121850120E45E48F5712190A12185012DD
:1015A4000E458F580217A0E55E6406600302178992
:1015B400E55FB40119E560D3946440030216B5E510
:1015C40060940050030216B590023A021682E55F59
:1015D4006402701FE5607002800EE560C3940550DC
:1015E4000DE5601219547006900190E560F0D20484
:1015F4000216B5E55F640370121217EE121ABE12DA
:101604001850120E459000050216B2E55FB4041C92
:10161400E560B4010990027B7401F00216B59002F2
:101624007BE070030216B504F00216B5E55FB4055D
:101634000EE5607005C20C0216B5D20C0216B5E5B3
:101644005F6406702A90018A121A0A1218A2900185
:10165400ABE06E7003A3E06F60571219CB300D0638
:10166400121A5A0216B51218BB1217E40216B5E57F
:101674005FB40710E560C39403503690003BE56007
:10168400F00216B5E55FB40810E560C454F0FFE558
:10169400A0540F4FF5A00216B5E55F64FE70121258
:1016A40017EE121ABE121850120E45900052120E66
:1016B4007DE52C60030217B6755306855F54E55427
:1016C400B4010590023A8053E554B40205900190A8
:1016D4008049E5546403700690000502175EE554E2
:1016E400B4040590027B8033E554B4050F300C0636
:1016F400755501021787E4F555021787E55464060A
:101704007011121A4590000012187B121A3D12072C
:10171400BC802EE554B4070990003BE0F555021750
:1017240087E554B40812E590540EF555308503430B
:101734005501121AE2021787E554640F7013121848
:10174400F5120B0A1218A3121A631218A3F5568085
:1017540032E55464FE702C900052120E451218505B
:10176400121904121850120E45E48F5612190A1257
:101774001850120E45E48F5712190A121850120EFF
:10178400458F588017E55EB40705122FC88023E5FE
:101794005E64087011E52C7019121A2C752C01D294
:1017A400A275440A800CE5326008E55E7004C20C40
:1017B400F52CE4F532300C1030060DE52C700912CE
:1017C4001915C206D216800F300C14301611E52CF0
:1017D400700D121A2CC216752C01D2A275440A225D
:0A17E400900000120E7D122CD2229C
:1026EB002532640025342E3166004155544F004588
:1026FB00252B303364002D2D2D2D2D00484F555299
:10270B00530025372E32660045444954204C414D29
:10271B00502054415247455400252525642E2564ED
:10272B0066004120202020004741494E2052414E57
:10273B004745203D2000524553504F4E53452054A2
:10274B00494D45203D20202053004D454E55204FEF
:10275B005054494F4E002053455420524553504F2F
:10276B004E53452054494D4520200053454C45437D
:10277B0054204D4F4E49544F5220554E49545300FF
:10278B002053454C454354204C414D5020554E4908
:10279B005453202000202056494557204C414D5082
:1027AB002054494D45522020200020205455524E94
:1027BB0020444953504C4159204F4646202000207D
:1027CB002053484F572044455649434520494E46D0
:1027DB004F202000202055534220434F4D4D204D7C
:1027EB004F4E49544F5220200056494557204354D1
:1027FB00454D502043414C20434F45464600FF2753
:0D280B0061FF2776FF278BFF27A0FF27B571
:1034460090002F120E45E4FBFA7920784122900174
:1034560090E075F006A4246AF582E4343AF583E434
:103466009322120E459002BF120E7D7B017A0279DD
:103476003C22FD3395E0FC743C2DF58274023CF54C
:1034860083227BFF9002BC020EE6120E4590028F4D
:10349600120E61020A53F090029DE0FF90029CE03A
:1034A6002290028FE4F0A3227401F0E4F54B2290FF
:0534B600002F020E7D55
:10384E00E54B603BE54BB41004D20F802FE54BB433
:10385E00080512245D8025E54BB48005122BF980F6
:10386E001BE54BB42005122FC88011E54BB404059F
:10387E001237C48007E54BB40102C20FE4F54B22A8
:10245D001234A704F0A3E4F0A304F0E4F54B122525
:10246D00A1122550900291E07002A3E070030225A5
:10247D004D1200461213A4E54B60E9B4101FC39032
:10248D000290E0940590028FE0648094805006E401
:10249D0075F00180221234A704F0022544E54BB4F7
:1024AD000123D3900290E0940190028FE064809418
:1024BD0080400A74FFF5F0120DC90225441234A7AD
:1024CD007405F08072E54BB44009E4900291F0A3DD
:1024DD00F08064E54B6402705E90028FE07004A39F
:1024ED00E064017005122A42804A90028FE0700468
:1024FD00A3E064027005122302803990028FE07010
:10250D0004A3E064037005122F14802890028FE05D
:10251D007004A3E0640470051233C6801790028F17
:10252D00E07004A3E06405700B90027BE070020480
:10253D00F0E4F54B1225A1122550E4F54B02247160
:03254D00023DB795
:102550007BFF7A2679EB9002BC120EE690028FE0A8
:10256000FFA3E09002BFCFF0A3EFF07B017A0279E6
:102570003C120F867B017A02793C7F0F1236449021
:10258000028FE0FEA3E090280675F003120EBAEE6B
:1025900075F003A42583F583120EEF7F14123644E1
:1025A00022123DB77BFF7A2779557F0312364422EA
:102A42009002941234AE90023AE0900293F0123D5A
:102A5200B77BFF7A2779417F14123644900294E0C3
:102A62007003022B0F1200461213A47B017A017924
:102A7200767F0412364490023AE0FCE4120AD690C1
:102A82000295120E7D9002951234491209B69002F7
:102A920095120E7D7A2679EF1234889002951234BF
:102AA20068120F861234717F23123644E54B60ACF4
:102AB200B41029122B12C39464504CE004F090001D
:102AC200A5E0FEA3E0FF90023AE025E024A3F58210
:102AD200E43400F583EEF0A3EFF0802BE54BB40174
:102AE2000D122B12D39401401EE014F08019E54B15
:102AF200B4400A900293E090023AF08005E54BB4AC
:102B02000205E4900294F0E4F54B022A5E023DB71E
:0C2B12007F647E0012393990023AE02204
:102BF9009002911234AE900278E090028FF090002A
:102C090004E0900290F0123DB77BFF7A2779337F79
:102C190014123644900291E07003022CCF12004640
:102C29001213A47B017A0179767F0412364490004D
:102C390004E060087BFF7A2679F580067B017A0239
:102C490079717F21123644E54B60C9641070249074
:102C59000004E0700F900278E0FFC394075005EF7D
:102C690024028021900278E06407705490000404E3
:102C7900F0804DE54BB40124900004E0600DE4F0D0
:102C8900900278E00490002EF08035900278E0FF01
:102C9900D39400402B90002EEFF08024E54BB440F4
:102CA90015900290E0900004F0701090028FE004FB
:102CB90090002EF08005E54BB40205E4900291F0F6
:092CC900E4F54B022C1D023DB79D
:102302009002947401F0900190E0D394044002E4AE
:10231200F0900190E0FFD394004012EF1234585431
:1023220080FF3395E04F6005E4900190F0E4F54BB7
:10233200900190E0900293F0123DB77BFF7A2779EB
:10234200767F14123644900294E0700302245A906D
:102352000278E0FFC374FD9FFF74FF9400FE9001BA
:1023620090E0FDD394004017ED25E02466F582E469
:10237200343AF583E493FC7401932FFFEC3EFE7A2A
:102382002679FA1234889002BFEEF0A3EFF07B01B7
:102392007A02797C120F861200461213A4900190E1
:1023A200E0FFD394004009EF443090023CF08006F5
:1023B20090023C7420F0E490023DF0123471FF125E
:1023C20036447B017A0179AF7F0212364490019044
:1023D200E070087BFF7A27792D802012345430E791
:1023E200087BFF7A2779018012900190E075F00650
:1023F200A4246AF9743A35F0FA7BFF7F0F1236444F
:10240200E54B7003022348B4100E900190E0C39490
:1024120004503FE004F0803AE54BB4010E90019085
:10242200E0D39400402CE014F08027E54BB4400A3E
:10243200900293E0900190F08013E54BB4021312E6
:10244200345430E708900293E0900190F0E4900257
:0B24520094F0E4F54B022348023DB774
:102F14009002947401F090003BE0D394024002E4E8
:102F2400F0E4F54B90003BE0900293F0123DB77B48
:102F3400FF7A27798B7F14123644900294E0700351
:102F4400022FC51200461213A47B017A00791EE4F5
:102F5400FF12364490003BE070087B017A00793E12
:102F6400801390003BE07B01B401067A00790A806B
:102F7400047A0079747F0A123644E54B60BCB410BD
:102F84000E90003BE0C394025031E004F0802CE545
:102F94004BB4010E90003BE0D39400401EE014F0CB
:102FA4008019E54BB4400A900293E090003BF08016
:102FB40005E54BB40205E4900294F0E4F54B022FCE
:042FC4003E023DB7D5
:102FC800900278E025E025E02416F582E43402F545
:102FD80083120E4590018C120E611207BC1234B593
:102FE800900278E0FF900037E4F0A3EFF0D3900070
:102FF80038E09400900037E06480948040151234E3
:10300800461209B61234B590003774FFF5F0120D68
:10301800C980DAE4900037F0A3F090002F120E4533
:10302800C004C005C006C007900037E0FEA3E078E2
:1030380002C333CE33CED8F92416F58274023EF596
:1030480083D007D006D005D004120E7D1234461264
:1030580008AD1234B5900037E475F001120DC9902F
:0C3068000037E07004A3E0640870AF22A1
:1033C6009002971234AE123DB77BFF7A2779A07F21
:1033D600141236447BFF7A2779077F0D1236449004
:1033E6000297E060581200461213A4900005120ED0
:1033F60045E4120ACC900293120E7D900293120EAF
:10340600457B007AA0790C78471209B69002931290
:103416000E7D7BFF7A27790D12348A90029312343F
:1034260068120F861234717F05123644E54B60AF81
:10343600B44005E4900297F0E4F54B80A2023DB754
:1037C400E4F54B123DB77BFF7A2779137F16123647
:1037D40044900293120E8900000000902A36120EC3
:1037E40051900297120E7D90029B7405F0A304F091
:1037F400A37403F0900000120E45121F7B9000008A
:09380400120E7D122CD2023DB718
:061F7B0090028F120E7DA2
:101F810090028F120E459002AD120E7D9002B1E4C7
:101F9100F0A30412349CC39F24FE9002A8F0A31264
:101FA1000E893F8000007BFF7A27792412348A90C2
:101FB100029CE0FE3395E09002BFF0A3CEF09002C8
:101FC1009DE0FE3395E09002C1F0A3CEF07B017A53
:101FD10002799E120F869002B1E07002A3E07003B5
:101FE1000221391200461213A47B017A02799E1252
:101FF100348A90028F120E459002BF120E7D7A0232
:10200100793C120F869002A8E0FF123478E0B420E8
:1020110014EF123478E0B4200CAE070FEE123479CD
:102021007430F080ECE54F701BE55130E016900202
:10203100A8E0FF3395E0FE743C2FF58274023EF573
:10204100837420F090029BE0FF123471123644E554
:102051004B6083B4100E12213A9002A9120E611244
:1020610007BC8011E54BB4011212213A9002A9126A
:102071000E611207B890028F0220F0E54B64807068
:102081002E9002A8E0D3648094815003022110E0D5
:102091001412349C9F14FF9002A8E0B50703E014CA
:1020A100F09002A91234491208AD9002A98040E5CE
:1020B1004B6420703F90029CE0FF14FE9002A8E068
:1020C100FDC3EE6480F8ED6480985043E004F09025
:1020D100029DE0FEC3EF9E14FF9002A8E0B5070346
:1020E100E004F09002A91234491209B69002A91233
:1020F1000E7D801BE54BB44008E4F54B9002AD80AA
:102101000BE54BB40209E4F54B90028F020E4590AA
:10211100029712349060074005900297800B90025D
:1021210093123490500C900293120E4590028F122C
:082131000E7DE4F54B021FD7FF
:0F213900227F647E0012393990028F120E4522E8
:103074001201000100000040740C12000001010262
:10308400000109022900010100C000090400000236
:1030940003000000092100010001221B0007058133
:1030A4000308000A0705020308000A0600FF0901D5
:1030B400A10109019508750826FF00150009018181
:1030C4000209019102C004030904240347006F00AC
:1030D4006F0063006800200061006E00640020003F
:1030E40048006F0075007300650067006F000E03F1
:1030F4004F004C002000340030003000FF30CAFF85
:0531040030CEFF30F2A7
:0638C5004302F5000000C3
:103D7800FEE02400FFEC3EF0A3EFF022900288E082
:093D88004408F0E49002F5F02279
:03004300022D9FEC
:102D9F00C0E0C0F0C083C082C0D075D000C000C0FA
:0D2DAF0001C002C003C004C005C006C0077B
:102DBC00E59620E7FB759686E59620E7FB90028367
:102DCC00E597F0E59620E7FB759682E59620E7FB04
:102DDC00900284E597F0E59620E7FB759684E596DE
:102DEC0020E7FB900285E597F0E59620E7FB7596CA
:102DFC0091E59620E7FB900286E597F0900283E040
:102E0C0030E103123DC5900283E030E203123D2510
:102E1C00900284E030E003121D82900284E030E1E5
:102E2C000312352B900285E030E2031232BB900284
:082E3C0083E030E003123DCFFA
:102E4400D007D006D005D004D003D002D001D000E2
:0B2E5400D0D0D082D083D0F0D0E0328C
:0A3DC500900287E475F001020DC9B9
:103D25009002FB7402F0E59620E7FB759601759706
:0D3D350001E49002F5F0A37403F0A3F02266
:101D8200E59620E7FB75960EE4F597E59620E7FBCE
:101D9200759691E59620E7FB900287E597F0900211
:101DA200F5E0B40513E59620E7FBE4F5969002EC26
:101DB200E0F597E49002F5F0900287E0FF30E21040
:101DC200E59620E7FB759611E4F5979002F5F0226F
:101DD200EF30E41BE59620E7FB759611759708E551
:101DE2009620E7FB759611759780E49002F5F090C6
:101DF20002F5E06003021ECA900287E020E00302BF
:101E02001ECA7B017A0279E97D087C007F201236A6
:101E1200939002ECE0FE9002EBE07C00123D7A909F
:101E220002EEE09002ED123D789002F0E09002EFB7
:101E3200123D789002E9E0547F64217035A3E024DA
:101E4200FE601B14602224FA600F14601614601DD9
:101E5200240A7071123C00806F12000A806A12001C
:101E6200078065123DD980601239FF805B123DDC2C
:101E720080569002EAE0120EFB1E9A001E9F011E7F
:101E8200A4031EA9051EAE061EB3081EB8091EBD78
:101E92000A1EC20B00001EC7122E5F802B12319D3C
:101EA20080261231098021123779801C122818806D
:101EB200171235F18012123341800D12380D80084D
:101EC2001239048003123D429002F5E0640160037E
:101ED200021F7A900287E030E103021F7AE5962022
:101EE200E7FB759691E59620E7FB900287E597F070
:101EF200E030E40630E003021F7A9002887402F0B8
:101F0200C39002F4E094409002F3E09400403090D9
:101F120002F8120EC67D407C007F201236E190024C
:101F2200F9E475F040120DC99002F374FF75F0C028
:101F3200120DC99002F1E475F040120DC98016909D
:101F420002F3E0FCA3E0FD9002F8120EC67F20121D
:101F520036E1123D849002EFE0FEA3E0FFA3E0B57C
:101F62000608A3E0B50703123D84E59620E7FB755A
:081F72009611900288E0F5973A
:011F7A002244
:10352B00E59620E7FB75960E759701E59620E7FB70
:10353B00759691E59620E7FBAF979002F6E0B40302
:10354B000CE59620E7FB75961175971022EF30E589
:10355B000BE59620E7FB759611759740EF30E20B64
:10356B00E59620E7FB759611E4F597E52C60127B49
:10357B00007A0079537D087C007F211236E1E4F557
:0C358B002CE59620E7FB75961175970162
:013597002211
:1032BB00E4FFE59620E7FB75960E759702E59620E1
:1032CB00E7FB759694E59620E7FBAE979002F7E047
:1032DB00B4030CE59620E7FB75961475972022EE48
:1032EB0030E60BE59620E7FB759614759780E5960F
:1032FB0020E7FB759696E59620E7FBAF97E53270D6
:10330B0005EF6408600DE59620E7FB75961675973B
:10331B001080177B007A00795E7D087C007F22127B
:10332B003693753201D2A375410AE59620E7FB75FA
:05333B009614E4F59773
:01334000226A
:0A3DCF00900287E475F001020DC9AF
:10369300900289EFF090028C120EE690028AECF011
:0336A300A3EDF0A4
:1036A6004C6037900289E0F5964396C0E4FFFED35E
:1036B60090028BE09F90028AE09E401BE59620E7F1
:1036C600FB90028C120EC68F828E83E597120D95A3
:0A36D6000FBF00010E80D8E4F59646
:0136E00022C7
:1036E100900289EFF090028C120EE690028AECF0C3
:0336F100A3EDF056
:1036F4004C6036E59620E7FB900289E0F596E4FFFE
:10370400FED390028BE09F90028AE09E401B9002C1
:103714008C120EC68F828E83120D56F597E5962075
:09372400E7FB0FBF00010E80D885
:01372D002279
:103D4200E59620E7FB75960EE4F597E59620E7FBEE
:0D3D52007596117597209002F57404F0220B
:0400030001000000F8
:103598007596117597409002F57401F0E49002F168
:1035A800F0A3F0227A0079057BFF9002F8120EE66C
:1035B8009002F3E4F0A32275960EE4F5979002F5D5
:1035C800E06404227BFF9002F8020EE675961175FE
:1035D800974022E493FF9002F3E4229002FBE06418
:0935E800042275960E759701226C
:102E5F009002EBE07010A3E0700C9002EFE07006B0
:102E6F00A3E064026003123D429002E9E0247F6018
:102E7F001B1460332402707C9002EDE0701FA3E0FE
:102E8F00600280707BFF7A007903805E9002FBE026
:102E9F00B4040A9002EDE07004A3E0600280557B59
:102EAF00FF7A00790580439002FBE0B4040690029C
:102EBF00EDE06002803E9002EEE0FFB481159002DB
:102ECF00F6E07BFFB403067A00790380047A007979
:102EDF00058017EFB4021B9002F7E07BFFB40306E7
:102EEF007A00790380047A0079051235B27402F002
:102EFF0080058000123D421235C56008E59620E737
:052F0F00FB12359822C1
:10319D001235E370779002E9E0FF60706401606CB6
:1031AD009002EBE070669002EDE070609002EFE04F
:1031BD00705AA3E0600280549002E9E06402704C02
:1031CD009002ECE070469002EEE0FF64816005EF46
:1031DD0064027038EFB48117E59620E7FB1235EAEB
:1031ED00E59620E7FB1235D4E49002F6F08020E559
:1031FD009620E7FB75960E759702E59620E7FB7511
:10320D009614759780E49002F7F08003123D42E525
:10321D009620E7FB1235BF6008E59620E7FB1235D7
:02322D00D422A9
:103109001235E370799002E9E0FF60726401606E44
:103119009002EBE070689002EDE070629002EFE0DF
:10312900705CA3E0600280569002E9E06402704E90
:103139009002ECE070489002EEE0FF64816005EFD8
:103149006402703AEFB48118E59620E7FB1235EA7C
:10315900E59620E7FB7596117597109002F6801990
:10316900E59620E7FB75960E759702E59620E7FB35
:103179007596147597209002F77403F08003123D39
:1031890042E59620E7FB1235BF6008E59620E7FB8C
:043199001235D422F5
:103779009002E9E0701D9002EDE07017A3E070136C
:10378900A3E0700FA3E0700B9002EBE07005A3E0DB
:1037990030E703123D429002F57405F09002ECE027
:1037A9009002FB60057403F080037402F01235C5C2
:0B37B9006008E59620E7FB1235D422E3
:102818009002EBE0120EFB283801284402286303DB
:1028280028800428910528C02128D522000028E105
:102838007A3079741235CC90307480487A30798641
:102848001235CC903089E493FE903088E4937C0074
:102858002400FFEC3E9002F30228CF9002ECE075D2
:10286800F003903100120EBA120EEF1235CE120D8F
:102878003DFF9002F3E4804F7BFF7A30798F123569
:10288800CE90308F1235DB803E9002ECE0FF648101
:102898006005EF64027042EF7BFFB4810C7A3079F7
:1028A800A11235CE9030A1800A7A3079A81235CE9F
:1028B8009030A81235DB800F7BFF7A30799812357B
:1028C800CE9030981235DBF0A3EFF0800F7A307994
:1028D800AF1235B0741BF08003123D429002EBE05A
:1028E800FF64016013EF6402600EEF64036009EF98
:1028F80064046004EFB405239002F0E0FFD3900273
:10290800F4E09F9002F3E0940040109002EFE07032
:102918000AE0FE9002F3EEF0A3EFF01235C560086E
:09292800E59620E7FB1235982228
:1035F1009002E9E06480701C9002EBE07016A3E099
:103601007012A3E0700EA3E0700AA3E07006A3E0BD
:1036110064016005123D42801C9002FBE0FFB4048E
:103621000B7BFF7A0079031235B204F0EFB4030586
:103631001235AC04F01235C56008E59620E7FB129F
:0336410035982297
:103341009002FBE0640260259002E9E0701F9002A8
:10335100EDE07019A3E07015A3E07011A3E0700D0A
:103361009002EBE07007A3E0D394014005123D42C7
:1033710080459002ECE0D3940040309002FB74044D
:10338100F0E49002F6F0A3F0E59620E7FB1235EAAF
:10339100E59620E7FB75961275972012352BE59679
:1033A10020E7FB75960EE4F597800C9002FB740301
:1033B100F09002F6F0A3F01235C56008E59620E71B
:0533C100FB1235D422CF
:10380D001235E370249002E9E06481701C9002EBA4
:10381D00E07016A3E07012A3E0700EA3E0700AA38F
:10382D00E07006A3E064016005123D42800512358B
:10383D00AC04F01235C56008E59620E7FB1235980B
:01384D002258
:103904009002E9E06401701C9002EFE07016A3E0FD
:1039140070129002EBE0700CA3E07008A3E0700456
:10392400A3E06003123D421235C56008E59620E726
:05393400FB1235D42256
:103C000090026FE0FEA3E0FF9002F5E06401600A1D
:103C1000AA06A9071235B07440F01235C56008E550
:073C20009620E7FB12359826
:013C2700227A
:01000A0022D3
:03000700023D4275
:033DD900023D4266
:0139FF0022A5
:013DDC0022C4
:103A00000000000100000064000000003882715FC7
:103A10003882715F3882715F3882715F3882715F7E
:103A20003882715F3882715F3882715F3882715F6E
:103A3000149F149814A01499149F149914A014A9F5
:103A4000000000000000131538DA1A9301F43A5907
:103A5000C3551379401A3D713F800000405B439687
:103A60000000000000000000000800080000000046
:103A7000664C2020200063642F6D3200FFFFFFFFA3
:103A8000FFFFFFFFFFFFFFFF00000000000000003E
:103A90000000000000000000000000000000000026
:103AA0000000000000000000000000000000000016
:103AB0000000000000000000000000000000000006
:103AC00000000000000000000000000000000000F6
:103AD00000000000000000000000000000000000E6
:0A3AE00000000000000000007FFF5E
:103D9100C2AF8F828E8375FF80E4FFFE2243EF0264
:073DA10075B7A575B7F1220B
:103C4F00A2AF9218123D910FBF00010EEF64C34E49
:103C5F0070F5123D9E438F01EDF053EFFDE4F5FF3C
:063C6F00F58FA21892AFD0
:013C7500222C
:103C9D00A2AF9218123D910FBF00010EBE01F8BFE9
:103CAD0090F5123D9E438F03E4F053EFFDF5FFF5C4
:053CBD008FA21892AF78
:013CC20022DF
:1007B500020B76E86480F8E933E83360110460F0F1
:1007C500ED33EC337009E8FCE9FDEAFEEBFF2204AA
:1007D50060DED3EB9FEA9EE99DE8C2E78CF0C2F7A5
:1007E50095F0400CE8CCF8E9CDF9EACEFAEBCFFB71
:1007F500120B4185D0F05804700320D5B3E804707E
:10080500075002B2D5020B8092D5EC0460F7E4CC18
:10081500C0E0C398F8603B94186008400DD0E0FB39
:10082500020B58E4FBFAC9FC8028E830E406E4C969
:10083500FBE4CAFCE830E305E4C9CACBFCE854078D
:100845006010F8C3E913F9EA13FAEB13FBEC13FC98
:10085500D8F130F52FC3E49CFCEF9BFFEE9AFEED3B
:1008650099FDD0E0FBEF4E4D4C701222DB03020BDD
:100875007DEC2CFCEF33FFEE33FEED33FDED30E781
:10088500EB020B58EF2BFFEE3AFEED39FDD0E0FB06
:1008950050130BBB0003020B80ED13FDEE13FEEFAF
:0808A50013FFEC13FC020B58D9
:1008AD00EC4D6011E8497017ED33EC3304600DE445
:1008BD00FCFFFEFD22E933E8330470F8020B7612DB
:1008CD000B4158046009E4CC2481500628500902DC
:1008DD000B80284003020B7DC0E0EB4A7044B980C9
:1008ED0006D0E0FB020B6CEF4E701CBD8008EBFFD9
:1008FD00EAFEE9FD80EBE98DF0A4FEE5F002099634
:10090D00E9CDF9EAFEEBFFEF89F0A4FCE5F0CE8925
:10091D00F0A42EFFE435F0CD89F0A42DFEE435F0E2
:10092D008067EF4E7005BD80D780C3EF8BF0A4AC10
:10093D00F0EE8BF0A42CFCE435F0F8EF8AF0A42C4B
:10094D00E5F038FCE433CB8DF0A42CFCE5F03BF85E
:10095D00EE8AF0A42CFCE5F038F8E433CF89F0A44E
:10096D002CFCE5F038CF3400CE89F0A42FFFE5F054
:10097D003EFEE433C98DF0A42EFEE5F039CD8AF0AC
:10098D00A42FFFE5F03EFEE43DFD33D0E0FB500724
:10099D000BBB000F020B80EC2CFCEF33FFEE33FE94
:0609AD00ED33FD020B58C2
:1009B300020B80EC5D046005E859047003020B76BA
:1009C300120B41580460F6EC4860F2EC7004FDFE33
:1009D300FF22C860DB2481C85009C3986002500617
:1009E300020B7D9850CAF582E9294B4A7005AB8208
:1009F300020B6C75F0007C1A7880C3EF9BEE9AEDC6
:100A030099400DC3EF9BFFEE9AFEED99FDE842F08E
:100A1300DC23ACF0D0E0FFD0E0FED0E0FDAB8220E1
:100A2300E7101BEB60BAEC2CFCEF33FFEE33FEED6B
:100A330033FD020B58E803F830E705C0F075F0000A
:100A4300EF2FFFEE33FEED33FD40B830E7C280AA4F
:100A530074F8CC6480CCC86480C8F58204604FC34A
:100A6300EB9FF5F0EA9E42F0E99D42F0E89C45F0E9
:100A7300603C501DE5825FFFE582D313CB5BCBF473
:100A83002B5582FB50280ABA002409B9002008809C
:100A93001DE5825BFBE582D313CF5FCFF4C3132F36
:100AA3005582FF50090EBE00050DBD00010CC3EBBE
:100AB3009FF5F0EA9E42F0E99D42F0E89C45F06024
:090AC30007CC4820E701B3EC2246
:100ACC0075F020800E75F010800575F0087D007EA5
:100ADC00007F003392D530D503120DFAEC33401061
:100AEC00EF33FFEE33FEED33FDEC33FCD5F0ED22AE
:0E0AFC00E5F0247EA2D513CC92E7CDCEFF22EA
:100B0A00EDD2E7CD33EC3392D524814006E4FFFEE3
:100B1A00FDFC22FCE4CFCECDCC24E0501174FF8042
:100B2A00EDC3CC13CCCD13CDCE13CECF13CF0470DF
:070B3A00F030D5DE020DFAD8
:100F2100E50824BCF582E43402F583E0050822904B
:100F310002B9301F039002BCE475F001120ECF021A
:100F41000D3D2018E97F2ED2188018EF540F249000
:100F5100D43440D4FF301C0BEF24BFB41A0050032B
:100F61002461FFE50960021509050CE50C70020515
:100F71000B301F0E9002B9E475F001120ECFEF0293
:100F81000D83023C767403D21F8003E4C21FF5086F
:100F91009002B9120EE6E4F509F50BF50CE50960CE
:100FA100077F20120F6480F5750AFFC219C218C2AB
:100FB1001AC21BC21DC21EC220120F30FF700D309B
:100FC1001F057F00120F75AF0CAE0B22B4255FC257
:100FD100D5C21C120F30FF24D0B40A00501A75F08C
:100FE1000A780930D50508B6FF0106C6A426F62001
:100FF100D5047002D21B80D924CFB41A00EF50045B
:10100100C2E5D21C021267D21980C6D21880C0D2A2
:101011001A80BCD2D580BAD21D80B47F20120F6451
:10102100201A077401B5090040F1120F21FF120FB8
:1010310064020F9ED220D21E8095120F21FB120F47
:1010410021FA120F21F94A4B700679657A137BFF59
:10105100201A2EE509602A7E008E82758300120D0A
:101061005660060EEE650A70F0C2D5EBC0E0EAC02C
:10107100E0E9C0E0EE1212C8D0E0F9D0E0FAD0E029
:10108100FB120D3DFF60AAEBC0E0EAC0E0E9C0E061
:10109100120F64D0E02401F9D0E03400FAD0E0FB73
:1010A100E50A0460DCD50AD98087D21A80A212121F
:1010B100AA60F7E50A700104120B8BA90A600DE51D
:1010C1000A600914F50A121352EF60F3EA30E702DD
:1010D100F404C3995079EAF4250A0430E701E404E1
:1010E100F50A800D1212AA60C1EA050A250A120B3F
:1010F1008BEA9002E8F030E701E4250A04D50A04FE
:10110100201D01141212C8E4C0E01213529002E82B
:10111100E0601320E70714F0120F4C802204F0D096
:10112100E014C0E07F00120F4CE50A6007120F4384
:10113100150A800B301D03120F43D0E0020F9ED021
:10114100E00480C41212AA609EE50A04120B8B907F
:1011510002E8EAF0E50A201D0260010424041212EB
:01116100C8C5
:1011620074FF04C0E0121352120F4CE50A201D0254
:101172006003120F43D0E0B50AE87F45120F569084
:1011820002E8E07F2B30E7047F2DF404C0E0120F69
:1011920064D0E075F00A84C0F0120F4DD0E0120F57
:1011A2004D020F9E791080027908C21EC22080086B
:1011B200D2D5790A8004790AC2D5E50A047002F50B
:1011C2000AE4FAFDFEFF120F21FC7B08201913121C
:1011D2000F21FD7B1030180A120F21FE120F21FF82
:1011E2007B20EC3382D592D55013C3E43018069F8E
:1011F200FFE49EFEE42019039DFDE49CFCE4CBF891
:10120200C219EC700CCFCECDCCE824F8F870F38084
:1012120017C3EF33FFEE33FEED33FDEC33FCEB335C
:10122200FB994002FB0FD8E9EB301905F8D0E0C476
:1012320048B219C0E00AEC4D4E4F78207B0070C2D4
:10124200EAB50A0040BCC0E01212CAD0F0D0E020D9
:101252001904C4C0E0C4B219C0F0120F4DD0F0D5C9
:10126200F0EB020F9E120EFB103B5311A658100C0E
:101272004C10084211AA4F11B24411B24910214335
:1012820011B85510E54611454510AF47138550106A
:10129200102D10142E10372B101823103520136E1A
:1012A2002A0FD0480000102FE50AB4FF03750A0682
:1012B200120F21FC120F21FD120F21FE120F21FF2E
:1012C2009002E1020BC8790AA2D5201B14301D0935
:1012D200B910020404B9080104A2D5201E0250016B
:1012E20004201A68921AB509005034C0E07F2030F9
:1012F2001B197F30A21A721E721D500F121321C2C7
:101302001AC21EC21DC2207F30800F301D03E9C0E9
:10131200E0120F64301D03D0E0F9D0E0B509CC3003
:101322001D177F30B9100C120F647F58301C077FD5
:10133200788003B90803120F64301A057F2D020F5B
:10134200647F202020F87F2B201EF322921A80CF68
:101352007F00B40700500B24E1F582E43402F583E8
:10136200E0FF22286E756C6C2900D219120F213011
:1013720019F8C219780930D50108F6020FD02D509C
:10138200434958120F212403B405004001E490138D
:101392008093120F55743A120F55D21B750904022D
:0213A20011A692
:100B4100E9D2E7C933E833F892D5EDD2E7CD33ECFA
:070B510033FC5002B2D52273
:100B5800EC30E7100FBF000C0EBE00080DBD0004FE
:100B68000BEB6014A2D5EB13FCED92E7FD2274FFAA
:100B7800FCFDFEFF22E480F8A2D574FF13FC7D8003
:030B8800E480EF17
:100B8B00F920E73624F950037907E4F42402FBE556
:100B9B0082158270021583DBF6E024FB501BE960A3
:100BAB0014E4F0E582158270021583E004F0B40AB8
:0D0BBB0008E4F0D9EE7401F00A22C2D52240
:100BC800ED33EC3392D5FA602AB4FF33EDC2E77BFC
:100BD800FF60067A0B79EDE4227A0B79F620D504CA
:100BE8007A0B79F1224E614E002B494E46002D4971
:100BF8004E4600E47A08F0A3DAFC7B00740722C0B2
:100C080083C082ECC0E0EDC0E0EEC0E0EFC0E0EAF7
:100C180075F010A4CAABF075F04DA42BFBE435F0C9
:100C2800FCEA2410FAEB34C5FBEC34D9FCEDC2E73E
:100C3800FF75F056A4F42411C5F0F434C58FF0A460
:100C48002AE5F03BE43CF020E714120CFDD0E0FF6D
:100C5800D0E0FED0E0FDD0E0FC1209B68014F40428
:100C6800120CFDD0E0FFD0E0FED0E0FDD0E0FC1299
:100C780008ADD082D083E0FAEDD2E7CD33EC33244F
:100C880082FBE4C3CF33CFCE33CECD33CD33DBF3CA
:100C98007B0775F00A846004F0A31B0AE5F0F0A353
:100CA8008FF0740AA4FFACF08EF0740AA42CFEAC8A
:100CB800F050010C8DF0740AA42CFDE435F0F0A37B
:050CC800DBDE740722D1
:100CCD003F8000004120000042C80000447A00002F
:100CDD00461C400047C35000497424004B189680B1
:100CED004CBEBC205A0E1BCA6753C21C749DC5AEA8
:100CFD00FB60065407601C2323120D2BEB54386048
:100D0D0009120D17120D261208ADECF8EDF9EEFAD9
:100D1D00EFCB22EB120D2680F1543803241C900CDE
:100D2D00CDFE93FC0EEE93FD0EEE930ECE93FF22B1
:0300000002322F9A
:0C322F00787FE4F6D8FD758169023276E4
:100D3D00BB010689828A83E0225002E722BBFE02B4
:090D4D00E32289828A83E49322E7
:100D5600BB010CE58229F582E5833AF583E0225052
:100D660006E92582F8E622BBFE06E92582F8E2229C
:0D0D7600E58229F582E5833AF583E49322B6
:100D8300BB010689828A83F0225002F722BBFE014F
:020D9300F32249
:100D9500F8BB010DE58229F582E5833AF583E8F094
:100DA500225006E92582C8F622BBFE05E92582C840
:020DB500F22228
:100DB700EF8DF0A4A8F0CF8CF0A428CE8DF0A42E50
:020DC700FE220A
:100DC900C5F0F8A3E028F0C5F0F8E58215827002B5
:060DD9001583E038F02252
:0E0DDF00C3EF9BFFEE9AFEED99FDEC98FC220F
:0D0DED00EF4BFFEE4AFEED49FDEC48FC2205
:0E0DFA00C3E49FFFE49EFEE49DFDE49CFC220A
:100E0800EB9FF5F0EA9E42F0E99D42F0EC6480C861
:060E180064809845F02201
:100E1E00E86010ECA2E713FCED13FDEE13FEEF13EA
:040E2E00FFD8F022D7
:100E3200E8600FEFC333FFEE33FEED33FDEC33FC1E
:030E4200D8F122C2
:0C0E4500E0FCA3E0FDA3E0FEA3E0FF2220
:100E5100E493FC740193FD740293FE740393FF22E7
:0C0E6100E0F8A3E0F9A3E0FAA3E0FB2214
:100E6D00E493F8740193F9740293FA740393FB22DB
:0C0E7D00ECF0A3EDF0A3EEF0A3EFF022E8
:100E8900A8828583F0D083D082120EA0120EA01200
:100E99000EA0120EA0E473E493A3C583C5F0C58325
:100EA900C8C582C8F0A3C583C5F0C583C8C582C8B3
:010EB9002216
:0C0EBA00A42582F582E5F03583F5832243
:090EC600E0FBA3E0FAA3E0F9222D
:100ECF00F8E0FBA3A3E0F925F0F0E58215827002AC
:070EDF001583E0FA38F02250
:090EE600EBF0A3EAF0A3E9F0220D
:0C0EEF00E493FB740193FA740293F9225F
:100EFB00D083D082F8E4937012740193700DA3A386
:100F0B0093F8740193F5828883E473740293686099
:060F1B00EFA3A3A380DF99
:103C7600EFB40A07740D123C81740A309811A899A2
:103C8600B8130CC2983098FDA899C298B811F630AE
:073C960099FDC299F5992286
:10323B00022148E493A3F8E493A34003F68001F240
:10324B0008DFF48029E493A3F85407240CC8C33394
:10325B00C4540F4420C8834004F456800146F6DF63
:10326B00E4800B010204081020408090388EE47E2D
:10327B00019360BCA3FF543F30E509541FFEE49358
:10328B00A360010ECF54C025E060A840B8E493A31F
:10329B00FAE493A3F8E493A3C8C582C8CAC583CA4A
:1032AB00F0A3C8C582C8CAC583CADFE9DEE780BE02
:0138CB0000FC
:00000001FF
