:0935EB009002B1EFF0A3120EDC16
:1035F400E49002B5F0A3F09002B2120EBC9002B5B2
:10360400E0FEA3E0F5828E83120D4CFF602790024A
:10361400B1E0FD3395E0FC74E22DF58274013CF5D4
:1036240083EFF09002B1E004F09002B5E475F0018C
:05363400120DBF80C271
:01363900226E
:0D3D1E00E4FF7E289001E27420F0A3DEFC9B
:013D2B002275
:103C9900D3EF9400EE94004015E4FDFC0DBD000146
:0E3CA9000CBC05F8BD12F5EF1F70E51E80E2A1
:013CB70022EA
:10346200E490028DF0A3F0A3F07F64FE123C991267
:103472003D1E7B01E4FD7F301238737F0A7E00120D
:103482003C997F301234A87F301234C77F3812340F
:10349200A87F081234C77F0C1234BB123C997F06F6
:0634A2001234BB023C994C
:1034A8007B01E4FD1238737F017E00123C997B0199
:1034B800E4FD227B01E4FD1238737F017E002212B5
:0A34C80038737F017E00123C992248
:102AB600900279E0705F900009E0C3648094A840BA
:102AC6000AE4F07B01AD357F028057900009E0648F
:102AD60014701474FFF0E5527B01AD3530E7047FC6
:102AE600C0803F7FA8803B900009E0C3648094804B
:102AF60050057414F08003900009E0FF04F0EF33F2
:102B060095E0FE74E22FF58274013EF583E0FFE462
:102B1600FBAD35800D900279E07B01AD35B4010740
:102B26007F08123873800A7F0C123873E49002799A
:102B3600F0E549603D654F7027E54AD3940040466D
:102B4600154AE54A7040E52AD394324039854F4B01
:102B5600E4F52A900279E06401702BE004F0802607
:102B6600E54B702285494F754A0A90027574FAF052
:102B76008014E4F54FF54A90027574FAF0E52AC31D
:0B2B860094FF5002052AE5484222227D
:10387300EB7006ED4420FD8004ED54DFFDC294E4BB
:10388300F5A3C2FF30FFFD85A348AE058EA3C2FF9B
:1038930030FFFD85A3498FA3C2FF30FFFD85A352EF
:0838A300D294E4F5A3C2FF2258
:0438E000AB07AA0682
:1038E400E4F54B900275E0FF7E007C007DF0120D44
:1038F400ADEEFDEAC313FEEB13FFC3ED9FEC9E5048
:0F39040002AD07AF05900275EFF0F54A752AFF87
:013913002291
:0F39EB0030FFFD8FA3C2FF30FFFDD295C29522A2
:103CD500AD07AC06ECF5A3C2FF30FFFDC296EDF5CE
:093CE500A3C2FF30FFFDD29622BC
:1039720053D9BFE4F5EF123914123D2C1239461215
:1039820036D5123D397FC87E00123C991234627FCF
:0A399200211239EB123C74D2AF226F
:0D3D2C0043B203E4F5A943A91075B6902237
:1036D500E59620E7FB759601759708E59620E7FBCB
:1036E500759607759707E59620E7FB759609759713
:1036F50007E59620E7FB75960B75970775D7C0E527
:103705009620E7FB75960F7597A043E602D2AFE5C5
:0B3715009620E7FB75960175970122D6
:1039460075A4D575A5F175A6FD75D488E4F5D5F5EC
:10395600D675E10375E2E8D297D296D294C295C2A3
:0C396600A7C2A6C2A5C2A4C2A2C2A3228E
:0A3D390075A20B75A14075F8012278
:103C740075D90675D840758951D2A9D2B9D28CD2DA
:103C84008E75CBFE75CA0C75CDFF75B12075C80154
:053C9400D2ADD2CA22EE
:1039140020A12EE4F5B1F5E2F5E1C2CAC28EC28C53
:10392400C2ADC2ABC2A9F5D8F5D7C2AF53D9BFF562
:10393400FFF5EF75C980F5F1F5F2F5F3F5F4758748
:0239440002225D
:1028C90020474F4F434820414E4420484F555345D8
:1028D900474F20200020204F4C203430302D4320FA
:1028E90020205625342E3266202000412020202029
:1028F90000205F5F2E5F5F5F2041200025372E3368
:1029090066204120002020205F5F5F5F204B200070
:1029190025203764204B20002520372E3266206879
:10292900720020203E313030303020687200253767
:10293900752072410045252B3033640025372E342C
:1029490066202573200052452D5A45524F20257384
:10295900200025377520257320002D2D2D2D2D2D97
:102969002D202573200020204F5645522020257305
:10297900200020554E4445522020257320005F5FDA
:102989005F5F2E5F5F205620002056434D504C213B
:10299900205620002056204F564552205620002010
:1029A90056554E4445522056200025372E32662072
:1029B90056200025203775207256002141224224D5
:1029C900442040404040D3333340D0000040800091
:0129D90000FD
:10383500012C000132000B5E0000000000000000BA
:103845000000000B53000000000000000000000015
:103855004102790041000900410275644201C70037
:0738650000014100014400D5
:1017B800AF63FCFDFE90016F120E7390016F120E65
:1017C8003B7808120E2890016F120E7390016F1269
:1017D8000E57AF62E4FCFDFE120DE390016F120E8E
:1017E8007390016F120E3B7808120E2890016F1249
:1017F8000E7390016F120E57AF61E4FCFDFE120DDF
:10180800E390016F120E7390016F120E3B7808126D
:101818000E2890016F120E7390016F22120E3B90EA
:1018280001C9120E571208AF9001D5120E571208AF
:10183800AF9001D9120E571208AF9001DD120E5762
:101848000208AF7A29793E7BFF9002BA020EDC903B
:101858000188F0A3E560F0E07F00FE900188F0A326
:10186800EFF0E55FFF900188EEF0A3EFF0227F979D
:101878007EFF7D1F90018A120E57020A559001883B
:10188800E0FCA3E0FDE4120AC790009B120E7390DF
:10189800009B120E3BE4FBFA797A78441209B8905F
:1018A800009B120E7390009B020E3B120E63900277
:1018B800B7120E3B0207BA120E3BE48F5590016F28
:1018C800120E3B7808020E147553018521549002BC
:1018D80078E0F555900277E0FF8F569001ACE0F57F
:1018E800579001ABE0FF8F589001C6E0F559900181
:1018F800C5E0FF8F5A229002BD7B017A02796F12F0
:101908000EDC7A01797422903A42120E630208AF13
:1019180075F006A4246AF582E4343AF583E4935416
:1019280080FF3395E04F22E493FC740193FDE412A9
:101938000AC7A804A905AA06AB0722F9F89001C7A7
:10194800E0FEA3E0FFE4FCFD22900000120E579099
:1019580029D2120E470207BAEE9002BDF0A3EFF0AB
:10196800229002B1120E739002B1020E3B120E3B8E
:101978009002BD020E73E4FBFAF9783F1207BE022B
:101988000B00120E3BEF2401FFE43EFEE43DFDE4B4
:101998003CFC22900188E0FEA3E09001A9FFEEF054
:1019A800A3EFF022900005120E3BE4120AC27B4519
:1019B8007AA979AB784D020A55120E739001CD12AF
:1019C8000E3B9001C922900000120E3B9029D602CE
:1019D8000E63F0A3E561F0E07F00FE900188F0A3BC
:1019E800EFF0E560222400FFEE343AFE90026DF03D
:1019F800A3EFF022E0F555900188E0F8E4F0E8A3C1
:101A0800F0E0F556227553089001A8E0F5549001CE
:101A1800A7E0FF8F5522E4FFFE7D7A7C4422C39025
:101A280001C8E094649001C7E094002290003AEE67
:101A3800F0A3EFF0229029CE120E4790000022E08A
:101A480025E024A3F582E43400F58322E025E02490
:101A580082F582E43400F583227B017A02797A22C6
:101A680090018A020E7390018A020E3B90027774ED
:101A780080F0A3E4F022120E57AF60E4FCFDFE02F2
:101A88000DE3EEF0A3EFF07BFF229001C7E0FEA389
:101A9800E022747FF0A374FFF022E5A054F0F5561D
:101AA800C4540FF55622E4FFFE7DC87C4290006CBA
:101AB800227B017A00791E227B017A00793C22E49C
:101AC800FBFAF9783F22E4FBFAF978BF227B017A26
:101AD80002796F22E0FCA3E0FDE4020AC7900276D7
:101AE800E025E0227F977EFF7D1F9001C1229000B4
:101AF8006C020E739002B3020E73FEFDFC90009F01
:101B0800020E579002B3020E3B1207BE9002B102BA
:091B18000E73855F5485605522AF
:1020F500123972E4900037F0A3F0900037E0FEA3A8
:10210500E0FFC39408EE648094805026EF7802C304
:1021150033CE33CED8F92414F58274023EF58312FA
:102125000E7F00000000900037E475F001120DBF2E
:1021350080C8E490002EF0F54B900004E070099003
:102145000276E0D394074005E4900276F09002769B
:10215500E00490002EF090018EE0D394044002E458
:10216500F090018EE0FFD39400400BEF1219186038
:1021750005E490018EF0900039E0D394024002E42A
:10218500F0900238E0D3946440037464F090023810
:10219500E0C3940150037401F01219AC500A900089
:1021A50005120E7F1575B6A0121A3D12187F600C28
:1021B500400A900000120E7F00000000C20CC20E03
:1021C500C20DC20FE49001A9F0A3F075450275296F
:1021D500029001C7F0A3F0F550F551FFFE123CD572
:1021E500122C6A7A2879C912184F12229FE4FF121D
:1021F50035EB7BFF7A2879DE1218519002BD120E5D
:102205007F4013333312229F7F141235EB7FD07E2C
:1022150007123C99123D1E1237F512004612139A09
:1022250090018EE07B0170117A0179747F0212357D
:10223500EB7BFF7A2879F4801B7A0179AD7F021256
:1022450035EB90018EE075F006A4246AF9743A35F1
:10225500F0FA7BFF7F0F1235EB121AB97F14123596
:10226500EB300E05121AC0801F300F07900039E0C1
:10227500B402087B017A007972800D900039E0B4D0
:10228500010D7B017A00790A7F1E1235EB808812D9
:102295001AC07F1E1235EB02221C7B017A02793AA5
:0A22A500120F7C7B017A02793A22C5
:1000460020070302079FC2079001E1E004F0C39472
:100056000A4002E4F0900238E0FF90026CE004F0FF
:10006600C39F4002E4F0900239E004F0C3940A40D2
:1000760002E4F0C2AD90026C121A47E527F0A3E540
:1000860028F0900239121A54E533F0A3E534F0D281
:10009600AD300D03020243300E0D900033120E7F79
:1000A60000000000020153903A4CE493FE74019361
:1000B600FBAA06EA3395E0121943120DD5EC120A93
:1000C600C2903A48121912900033120E731219CECA
:1000D600120A55900033601B4019120E3BC004C033
:1000E60005C006C007903A42120E47900033121818
:1000F600458046120E3BC004C005C006C007121953
:1001060051C004C005C006C0079029D6120E47127A
:10011600190FD003D002D001D0001208AFC004C01E
:1001260005C006C0071219D412195712193AD0077A
:10013600D006D005D0041209B812193AD007D00655
:10014600D005D0041207BA900033120E73E4FFFEF6
:10015600FDFC90003312187F6010400E121A1E909C
:100166000033121845121AC7800C121A1E9000335B
:10017600121845121ACE1219849001ABEEF0A3EFB5
:10018600F0900033120E3B12255D90001A120E738A
:10019600200F05121A264003300E0B7BFF7A2879B2
:1001A600FA121851800F7BFF7A297905121851909F
:1001B6000033121975121AB9120F7C7F007EF07D7A
:1001C600F97C4490001A12187FE450119001A7F0B0
:1001D600A3F07BFF7A29790E121851801EFFFEFDCF
:1001E6007C3F90001A120E571219849001A7121A1A
:1001F6008A7A2979191218511219607B017A0079C5
:100206000A120F7C1219AC7BFF602340217A2979F0
:1002160021121851900005120E3BE4120AC27B000F
:100226007AA0790C78471209B812197880077A29CA
:10023600792B1218517B017A0079728018121A9262
:100246009001AB1219A57BFF7A2979371218511242
:100256001960121AB9120F7C30045E900276E0FF24
:10026600C374FD9FFF74FF9400FE9002B1F0A3EFEC
:10027600F012184B121960121AD5120F7C90018ECB
:10028600E0FFD39400401CEF25E02466F582E434B9
:100296003AF583E493FE740193FF9002B1EE8FF07A
:1002A600120DBF12184B9002B1E0FFA3E0CF121956
:1002B60061121A61120F7CC2043003030204D430A7
:1002C60001030204D4E52F60030204D490018A12CC
:1002D6000E7F00000000E4900173F0900238E0FF0A
:1002E600900173E0C39F502D90018A120E57C000F3
:1002F600C001C002C003900173121A47121ADCD063
:1003060003D002D001D0001207BE121A6890017302
:10031600E004F080C6121A6EC004C005C006C0070D
:10032600900238E0FCE4120ACC12193AD007D00643
:10033600D005D0041209B8121A68300D030204AFB2
:10034600121AE52430F582E4343AF58312192F9017
:10035600018A1218B9121AE525E0240CF582E43454
:100366003AF583121912121A68121A6E121AE52534
:10037600E02414F582E43402F583120E571207BA0C
:10038600121A68E4FFFEFDFC12187C7F007E407D99
:100396001C7C4690018A600A4008121845121AC74A
:1003A6008006121845121ACE121984900277EEF0C2
:1003B600A3EFF07FD07EB37D517C4012187C600A9B
:1003C6004008900277121A9A80107F747EB57D518C
:1003D6007CC012187C5003121A747C411218765095
:1003E600207CC1121876601940177BFF7A2979455F
:1003F60012185190018A121975121AD59002C180ED
:100406000F7BFF7A29794F121851121AD59002BD27
:10041600121907120F7C90018EE0FF603E12191828
:100426007039900277E0FCA3E0FDEC120AC77B1757
:100436007AB779D178381208AF9001C1120E73904D
:1004460001C1120E3B90018EE025E025E02454F513
:1004560082E4343AF5831219128003121A6E90015F
:10046600C1120E737C41121AEC12187F50237CC104
:10047600121AEC12187F601940177BFF7A2979450A
:100486001218519001C1121975121A619002C18099
:100496000F7BFF7A29794F121851121A619002BD0B
:1004A600120EDC7A0179AD801FE490018EF0121AEB
:1004B6006E120B00900277121A8A7A29795B12184B
:1004C60051121960A3121901120F7C020551E52F72
:1004D600D3940040257BFF7A2979631218511218AC
:1004E600FE120F7C7BFF7A2979631218511207A03E
:1004F6007480F0A37401F00205513003207BFF7A6B
:1005060029796F1218511218FE120F7C7BFF7A2977
:10051600796F1218511207A0121A9A802E30012BE9
:100526007BFF7A29797B1218511218FE120F7C7BF9
:10053600FF7A29797B121851121A619002BD120EA8
:10054600DC7A0179AD120F7C121A7490006C120ECF
:100556007F00000000E4900173F090006C120E57CB
:10056600C000C001C002C003900173121A54121ACF
:10057600DCD003D002D001D0001207BE121AF690CA
:100586000173E004F0E0B40AD190006C120E3BE473
:10059600FBFA792078411209B8121AF6300D0302D7
:1005A6000681903A5212192F90006C1218B9903A9F
:1005B6004E121912121AF67F7B7ED47DA37C4390CD
:1005C600006C12187F600840069001C5121A9A7FC7
:1005D600C37ED57DA37CC390006C12187F50069015
:1005E60001C5121A77E4FFFEFDFC90006C12187F1D
:1005F600600D400B121AAE121845121AC780091266
:100606001AAE121845121ACE1219849001C5EEF0D0
:10061600A3EFF0200F0D121A2650087BFF7A2979D6
:1006260087801D300E087BFF7A297992801290010F
:10063600C5E0B47F10A3E0B4FF0B7BFF7A29799D58
:10064600121851804F9001C5E0FEA3E0FFEE3395EE
:10065600E0FDFC7B007A8079FF78FFC3120DFE7BFC
:10066600FF70097A2979A8121851800D7A2979B371
:1006760012185190006C121975801990006C120EA8
:100686003B120B009001C5121A8A7A2979BC1218FE
:1006960051121960121AC0120F7C200F20121A92E2
:1006A600FFD39484EE94034011EF240CFFEE34FE46
:1006B600FEE4FCFD121AFC02077D0207739000059A
:1006C60012198A900005120E7390005012198A9022
:1006D6000050120E7390003AE0FEA3E0FBAA06E477
:1006E600121943120DD590009F120E73121945125E
:1006F6001AFC74FF7F9C121B02C3120DFE500B12D4
:100706001B0BEF2464121990803A90009F120E3B47
:10071600EC33500890003A1219488028E47F64129E
:100726001B02D3120DFE4016121B0BC3EF9464FF7F
:10073600EE9400FEED9400FDEC9400FC8006900023
:100746003A121948121AFCE47FFF7EFFFDFC900264
:10075600B3120E57D3120DFE400C9002B3120E7F49
:100766000000FFFF8011121B0BEC33500A9002B3FE
:10077600120E7F000000009002B5E0FEA3E0FF909D
:1007860001C7E06E7003A3E06F600CC2AD9001C7B5
:09079600EEF0A3EFF0D2ADD206A3
:10079F00227B017A02797A9002BD120EDC7A0179FE
:0807AF00AD120F7C90027722CD
:03000B0002002EC2
:10002E00C0E0758CFFE58030E70553807F80034389
:05003E008080D0E032DB
:03002B00021B2194
:101B2100C0E0C0F0C083C082C0D075D000C000C08A
:101B310001C002C003C004C005C006C007308F0445
:101B41000539C28F30DF04054CC2DF1529E5296054
:101B510003021C42752932D5450B7545050551E532
:101B61005170020550858D37308F040539C28F853C
:101B71008B3AE537B58D03308F0D858B3A858D37DF
:101B8100308F040539C28F753F00853740E54075B8
:101B91004000F53FE53A2540F540E4353FF53FC3C8
:101BA100E5409531F528E53F9530F527C313F52735
:101BB100E52813F528E539D394015010E539B4012E
:101BC1000EC3E5409531E53F9530400343278085BD
:101BD1003F308540315331FE75390085F93A85FA38
:101BE1003730DF04054CC2DF754D0085374EE54EB9
:101BF100754E00F54DE53A254EF54EE4354DF54D62
:101C0100C3E54E953EF534E54D953DF533C313F5EA
:101C110033E53413F534E54CD394015010E54CB45D
:101C2100010EC3E54E953EE54D953D40034333809E
:101C3100854D3D854E3E533EFE754C00D207021D3B
:101C410005E52964196003021D05E52FD3940840B9
:101C5100035322F1E5224220301305756905800501
:101C6100D56902C2033011057546058005D54602C6
:101C7100C201301205752B058005D52B02C2023039
:101C810010057547058005D54702C200300004D212
:101C91000E8002C20E752200E52FD394004002157A
:101CA1002F900004E060342003033001119002768C
:101CB100E0D394004008E52F7004E014801820025E
:101CC1002F20032C200129900276E0C39407502095
:101CD100E52F701CE004F0E0FF801290002EE0FF81
:101CE100600E14FF900276F090002EE4F01239C4D9
:101CF100E541600415418002C2A3E5446004154436
:101D01008002C2A2123914121A92FF123CD5122A71
:101D1100B6C2CFD007D006D005D004D003D002D0B0
:0E1D210001D000D0D0D082D083D0F0D0E032FC
:1039C400900280EFF0D394074002E4F0900280E08C
:1039D4009029C493FF1239EB752F0AD2045321F8AE
:0739E400900280E042212265
:102C6A00121A3D12187F600C400A900000120E7F63
:102C7A00000000001219CE120A55600D400B903A5E
:102C8A0042121A40121845802E1219D4121957C02E
:102C9A0004C005C006C007121951D003D002D001E2
:102CAA00D0001209B812196912190F12196990295C
:102CBA00D6121912121969900000120E57121B111E
:102CCA00903A48120E6312196F1209B8C004C0056F
:102CDA00C006C007903A4CE493FC740193FDEC12D1
:102CEA000AC7D003D002D001D000121B11E4FFFEA4
:102CFA00FDFC9002B112187F500A9002B1120E7FA9
:102D0A00000000007F007EFF7D7F7C479002B112A9
:102D1A00187F600C400A9002B1120E7F477FFF00B5
:092D2A0012196F120B00121A3489
:012D3300227D
:10255D009002B7120E73E4FFFE7D407C409002B7EF
:10256D0012187F5006E4FFFEFDFC22903A881218E7
:10257D00B39001C9120E73903A8C1218B39001CD1D
:10258D00120E73903A901218B39001D1120E7390EF
:10259D003A941218B39001D5120E73903A981218FE
:1025AD00B39001D9120E73903A9C1218B39001DDBD
:1025BD00120E739001D1120E3B9001CD12182A907C
:1025CD003AD012191290018F120E739001D1121878
:1025DD0024903AD4121912900193120E739001CDDA
:1025ED00121824903AD81219129001971219C1128B
:1025FD0018459001D1121833903ADC12191290013E
:10260D009B1219C11218459001D11218459001D590
:10261D0012183C903AE012191290019F1219C11232
:10262D0018459001D11218459001D5121845900109
:10263D00D9121845903AE41219129001A3120E7393
:10264D0090019B120E579001971218B9C004C00546
:10265D00C006C007900193120E5790018F1218B942
:10266D00D003D002D001D0001207BEC004C005C0F7
:10267D0006C0079001A3120E5790019F1218B9D0F2
:0B268D0003D002D001D0001207BE22D3
:10139A005321F7900004E06003432108E53270030B
:1013AA00021783E4F553F554F555F556F557F558F4
:1013BA00F559F55AF55BF55CF55DE55E6401600388
:1013CA0002144F855F43E54330E30B900004740138
:1013DA00F0432108801AE4900004F05321F7E54312
:1013EA005407FF900276E06F6006EF0490002EF03B
:1013FA00E54330E704D20F8002C20FE54330E5042B
:10140A00D20D8002C20DE54330E404D20C8002C240
:10141A000C900188E41219DA12186C9001A9E06E96
:10142A007003A3E06F601112199B300D05121A3474
:10143A0080061218851217AEE52C60030217801277
:10144A0018D0021588E55E64027034121857240019
:10145A00FFEE343A1219F4E52C6003021780755333
:10146A0002121B1A90026DE0FEA3E0FF90006AEEE2
:10147A00F0A3EFF0F5828E83E493F556021588E522
:10148A005E6403701E1218571219EDAD61123C000A
:10149A00E52C6003021780755303121B1A856156E7
:1014AA0002176AE55E640470191218571219ED12D0
:1014BA003C4EE52C6003021780755304121B1A0276
:1014CA00176AE55E6405600302158BE52C6003026A
:1014DA001780755305855F54E554B40105900238A9
:1014EA00804EE554B4020590018E8044E5546403AD
:1014FA00700690000502155FE554B4040590027960
:10150A00802EE554B40506852155021588E55464F4
:10151A00067015121A1F90000012184512197E1231
:10152A00186D1219FC021588E554B40709900039A0
:10153A00E0F555021588E554B40811E590540EF506
:10154A0055308503435501121AA28032E55464FED0
:10155A00702C900050120E3B12181A1218BF121853
:10156A001A120E3BE48F561218C512181A120E3BA5
:10157A00E48F571218C512181A120E3B8F58021709
:10158A006AE55E64066003021753E55FB40119E574
:10159A0060D394644003021695E5609400500302F8
:1015AA001695900238021662E55F6402701FE560C4
:1015BA007002800EE560C39405500DE5601219189B
:1015CA00700690018EE560F0D204021695E55F641C
:1015DA000370121217B8121A7E12181A120E3B90C2
:1015EA000005021692E55FB4041CE560B401099097
:1015FA0002797401F0021695900279E070030216DE
:10160A009504F0021695E55FB4050EE5607005C213
:10161A000C021695D20C021695E55F6406702A90A4
:10162A0001881219DA12186C9001A9E06E7003A3EE
:10163A00E06F605712199B300D06121A3402169584
:10164A001218851217AE021695E55FB40710E56009
:10165A00C394035036900039E560F0021695E55FB1
:10166A00B40810E560C454F0FFE5A0540F4FF5A08C
:10167A00021695E55F64FE70121217B8121A7E12EE
:10168A00181A120E3B900050120E73E52C600302DA
:10169A001780755306855F54E554B40105900238E6
:1016AA008057E554B4020590018E804DE5546403D9
:1016BA007006900005021728E554B40405900279D3
:1016CA008037E554B4050F300C06755501021751E1
:1016DA00E4F555021751E55464067015121A1F9065
:1016EA00000012184512197E12186D1219FC021701
:1016FA0051E554B40709900039E0F555021751E550
:10170A0054B40811E590540EF5553085034355013C
:10171A00121AA28032E55464FE702C900050120E08
:10172A003B12181A1218BF12181A120E3BE48F56DF
:10173A001218C512181A120E3BE48F571218C51246
:10174A00181A120E3B8F588017E55EB40705122F40
:10175A005D8023E55E64087011E52C7019121A0D7C
:10176A00752C01D2A275440A800CE5326008E55E48
:10177A007004C20CF52CE4F532300C1030060DE57D
:10178A002C70091218D0C206D216800F300C1430F1
:10179A001611E52C700D121A0DC216752C01D2A263
:0E17AA0075440A22900000120E73122C6A225F
:1027B1002532640025342E3166004155544F0045C1
:1027C100252B303364002D2D2D2D2D00484F5552D2
:1027D100530025372E32660045444954204C414D63
:1027E100502054415247455400252525642E256427
:1027F10066004120202020004741494E2052414E91
:102801004745203D2000524553504F4E53452054DB
:10281100494D45203D20202053004D454E55204F28
:102821005054494F4E002053455420524553504F68
:102831004E53452054494D4520200053454C4543B6
:1028410054204D4F4E49544F5220554E4954530038
:102851002053454C454354204C414D5020554E4941
:102861005453202000202056494557204C414D50BB
:102871002054494D45522020200020205455524ECD
:1028810020444953504C4159204F464620200020B6
:102891002055534220434F4D4D204D4F4E49544FEB
:1028A1005220200056494557204354454D5020435E
:1028B100414C20434F45464600FF2827FF283CFF57
:0828C1002851FF2866FF287B67
:1033ED0090002F120E3BE4FBFA79207841229001D8
:1033FD008EE075F006A4246AF582E4343AF583E490
:10340D009322120E3B9002BD120E737B017A02794C
:10341D003A22FD3395E0FC743A2DF58274023CF5A9
:10342D0083227BFF9002BA020EDC120E3B90028DBE
:10343D00120E57020A55F090029BE0FF90029AE09F
:10344D002290028DE4F0A3227401F0E4F54B22905A
:05345D00002F020E73B8
:1037F500E54B603BE54BB41004D20F802FE54BB48D
:10380500080512240A8025E54BB48005122B91800A
:103815001BE54BB42005122F5D8011E54BB4040563
:1038250012376B8007E54BB40102C20FE4F54B225A
:10240A0012344E04F0A3E4F0A304F0E4F54B1225D1
:10241A004E1224FD90028FE07002A3E070030224A2
:10242A00FA12004612139AE54B60E9B4101FC390E2
:10243A00028EE0940590028DE0648094805006E458
:10244A0075F001802212344E04F00224F1E54BB4F7
:10245A000123D390028EE0940190028DE06480946F
:10246A0080400A74FFF5F0120DBF0224F112344EB7
:10247A007405F08072E54BB44009E490028FF0A332
:10248A00F08064E54B6402705E90028DE07004A3F4
:10249A00E0640170051229DA804A90028DE0700426
:1024AA00A3E0640270051222AF803990028DE070B9
:1024BA0004A3E064037005122EA9802890028DE01F
:1024CA007004A3E06404700512336D801790028DC6
:1024DA00E07004A3E06405700B900279E0700204D6
:1024EA00F0E4F54B12254E1224FDE4F54B02241EAE
:0324FA00023D1E82
:1024FD007BFF7A2779B19002BA120EDC90028DE043
:10250D00FFA3E09002BDCFF0A3EFF07B017A02793B
:10251D003A120F7C7B017A02793A7F0F1235EB90DC
:10252D00028DE0FEA3E09028B775F003120EB0EE19
:10253D0075F003A42583F583120EE57F141235EB98
:10254D0022123D1E7BFF7A28791B7F031235EB2269
:1029DA00900292123455900238E0900291F0123D22
:1029EA001E7BFF7A2879077F141235EB900292E05A
:1029FA007003022AA712004612139A7B017A017900
:102A0A00747F041235EB900238E0FCE4120ACC9091
:102A1A000293120E739002931233F01209B89002C5
:102A2A0093120E737A2779B512342F9002931234C7
:102A3A000F120F7C1234187F231235EBE54B60AC72
:102A4A00B41029122AAAC39464504CE004F09000EE
:102A5A00A3E0FEA3E0FF900238E025E024A1F5827E
:102A6A00E43400F583EEF0A3EFF0802BE54BB401DC
:102A7A000D122AAAD39401401EE014F08019E54BE6
:102A8A00B4400A900291E0900238F08005E54BB418
:102A9A000205E4900292F0E4F54B0229F6023D1E8B
:0C2AAA007F647E001238E0900238E022C9
:102B910090028F123455900276E090028DF09000F1
:102BA10004E090028EF0123D1E7BFF7A2779F97FB7
:102BB100141235EB90028FE07003022C671200466D
:102BC10012139A7B017A0179747F041235EB90001C
:102BD10004E060087BFF7A2779BB80067B017A02DB
:102BE100796F7F211235EBE54B60C9641070249039
:102BF1000004E0700F900276E0FFC394075005EFE8
:102C010024028021900276E064077054900004044D
:102C1100F0804DE54BB40124900004E0600DE4F038
:102C2100900276E00490002EF08035900276E0FF6D
:102C3100D39400402B90002EEFF08024E54BB4405C
:102C41001590028EE0900004F0701090028DE00467
:102C510090002EF08005E54BB40205E490028FF060
:092C6100E4F54B022BB5023D1E07
:1022AF009002927401F090018EE0D394044002E406
:1022BF00F090018EE0FFD394004012EF1233FF54E1
:1022CF0080FF3395E04F6005E490018EF0E4F54B0D
:1022DF0090018EE0900291F0123D1E7BFF7A2879DB
:1022EF003C7F141235EB900292E0700302240790AA
:1022FF000276E0FFC374FD9FFF74FF9400FE900110
:10230F008EE0FDD394004017ED25E02466F582E4BE
:10231F00343AF583E493FC7401932FFFEC3EFE7A7D
:10232F002779C012342F9002BDEEF0A3EFF07B019E
:10233F007A02797A120F7C12004612139A90018E4C
:10234F00E0FFD394004009EF443090023AF080064A
:10235F0090023A7420F0E490023BF0123418FF120E
:10236F0035EB7B017A0179AD7F021235EB90018E4F
:10237F00E070087BFF7A2779F380201233FB30E778
:10238F00087BFF7A2779C7801290018EE075F006DF
:10239F00A4246AF9743A35F0FA7BFF7F0F1235EBFC
:1023AF00E54B70030222F5B4100E90018EE0C3943A
:1023BF0004503FE004F0803AE54BB4010E90018EDB
:1023CF00E0D39400402CE014F08027E54BB4400A92
:1023DF00900291E090018EF08013E54BB40213123E
:1023EF0033FB30E708900291E090018EF0E4900209
:0B23FF0092F0E4F54B0222F5023D1EB7
:102EA9009002927401F0900039E0D394024002E458
:102EB900F0E4F54B900039E0900291F0123D1E7B51
:102EC900FF7A2879517F141235EB900292E0700352
:102ED900022F5A12004612139A7B017A00791EE4D6
:102EE900FF1235EB900039E070087B017A00793CDC
:102EF9008013900039E07B01B401067A00790A80D9
:102F0900047A0079727F0A1235EBE54B60BCB41084
:102F19000E900039E0C394025031E004F0802CE5B2
:102F29004BB4010E900039E0D39400401EE014F038
:102F39008019E54BB4400A900291E0900039F08085
:102F490005E54BB40205E4900292F0E4F54B022E3C
:042F5900D3023D1E44
:102F5D00900276E025E025E02414F582E43402F5B4
:102F6D0083120E3B90018A120E571207BE12345C6B
:102F7D00900276E0FF900037E4F0A3EFF0D39000DD
:102F8D0038E09400900037E064809480401512334F
:102F9D00ED1209B812345C90003774FFF5F0120D84
:102FAD00BF80DAE4900037F0A3F090002F120E3BB3
:102FBD00C004C005C006C007900037E0FEA3E0784E
:102FCD0002C333CE33CED8F92414F58274023EF504
:102FDD0083D007D006D005D004120E731233ED1234
:102FED0008AF12345C900037E475F001120DBF90FC
:0C2FFD000037E07004A3E0640870AF220D
:10336D00900295123455123D1E7BFF7A2879667FA7
:10337D00141235EB7BFF7A2779CD7F0D1235EB904B
:10338D000295E0605812004612139A900005120E35
:10339D003BE4120AC2900291120E73900291120E2A
:1033AD003B7B007AA0790C78471209B890029112F4
:1033BD000E737BFF7A2779D3123431900291123438
:1033CD000F120F7C1234187F051235EBE54B60AFF1
:1033DD00B44005E4900295F0E4F54B80A2023D1E49
:10376B00E4F54B123D1E7BFF7A2779D97F16123574
:10377B00EB900291120E7F000000009029CE120EEA
:10378B0047900295120E739002997405F0A304F002
:10379B00A37403F0900000120E3B121F2890000040
:0937AB00120E73122C6A023D1E7D
:061F280090028D120E7301
:101F2E0090028D120E3B9002AB120E739002AFE434
:101F3E00F0A304123443C39F24FE9002A6F0A31212
:101F4E000E7F3F8000007BFF7A2779EA12343190B2
:101F5E00029AE0FE3395E09002BDF0A3CEF090021F
:101F6E009BE0FE3395E09002BFF0A3CEF07B017AAA
:101F7E0002799C120F7C9002AFE07002A3E0700316
:101F8E000220E612004612139A7B017A02799C1205
:101F9E00343190028D120E3B9002BD120E737A02F6
:101FAE00793A120F7C9002A6E0FF12341FE0B420A3
:101FBE0014EF12341FE0B4200CAE070FEE123420D3
:101FCE007430F080ECE54F701BE55130E016900256
:101FDE00A6E0FF3395E0FE743A2FF58274023EF5CB
:101FEE00837420F0900299E0FF1234181235EBE55D
:101FFE004B6083B4100E1220E79002A7120E5712F8
:10200E0007BE8011E54BB401121220E79002A71211
:10201E000E571207BA90028D02209DE54B64807018
:10202E002E9002A6E0D36480948150030220BDE07E
:10203E00141234439F14FF9002A6E0B50703E01478
:10204E00F09002A71233F01208AF9002A78040E57D
:10205E004B6420703F90029AE0FF14FE9002A6E0BF
:10206E00FDC3EE6480F8ED6480985043E004F09078
:10207E00029BE0FEC3EF9E14FF9002A6E0B507039D
:10208E00E004F09002A71233F01209B89002A712E2
:10209E000E73801BE54BB44008E4F54B9002AB8009
:1020AE000BE54BB40209E4F54B90028D020E3B900A
:1020BE00029512343760074005900295800B90020E
:1020CE0091123437500C900291120E3B90028D12E9
:0820DE000E73E4F54B021F84B0
:0F20E600227F647E001238E090028D120E3B22A2
:103009001201000100000008740C12000001010205
:10301900000109022900010100C0000904000002A1
:1030290003000000092100010001221B000705819E
:103039000308000A0705020308000A0600FF090140
:10304900A10109019508750826FF001500090181EC
:103059000209019102C0040309041C034F00700016
:10306900740072006F006E006900630020004C005C
:1030790061006200730028034F004C0020003400F7
:103089003000300020004C006900670068007400BF
:10309900200053006F007500720063006500FF3067
:0730A9005FFF3063FF307F81
:06386C004302F30000001E
:103CEE00FEE02400FFEC3EF0A3EFF022900286E00F
:093CFE004408F0E49002F3F02206
:03004300022D3457
:102D3400C0E0C0F0C083C082C0D075D000C000C065
:0D2D440001C002C003C004C005C006C007E6
:102D5100E59620E7FB759686E59620E7FB900281D4
:102D6100E597F0E59620E7FB759682E59620E7FB6F
:102D7100900282E597F0E59620E7FB759684E5964B
:102D810020E7FB900283E597F0E59620E7FB759637
:102D910091E59620E7FB900284E597F0900281E0AF
:102DA10030E103123D43900281E030E20312000E54
:102DB100900282E030E003121D2F900282E030E1A8
:102DC100031234D2900283E030E2031232629002A5
:082DD10081E030E003123D4DEA
:102DD900D007D006D005D004D003D002D001D0004E
:0B2DE900D0D0D082D083D0F0D0E032F8
:0A3D4300900285E475F001020DBF47
:10000E009002F97402F0E59620E7FB75960175975C
:0D001E0001E49002F3F0A37403F0A3F022BC
:101D2F00E59620E7FB75960EE4F597E59620E7FB21
:101D3F00759691E59620E7FB900285E597F0900266
:101D4F00F3E0B40513E59620E7FBE4F5969002EA7D
:101D5F00E0F597E49002F3F0900285E0FF30E21097
:101D6F00E59620E7FB759611E4F5979002F3F022C4
:101D7F00EF30E41BE59620E7FB759611759708E5A4
:101D8F009620E7FB759611759780E49002F3F0901B
:101D9F0002F3E06003021E77900285E020E0030269
:101DAF001E777B017A0279E77D087C007F2012364F
:101DBF003A9002EAE0FE9002E9E07C00123CF090DB
:101DCF0002ECE09002EB123CEE9002EEE09002ED9E
:101DDF00123CEE9002E7E0547F64217035A3E024BB
:101DEF00FE601B14602224FA600F14601614601D2D
:101DFF00240A707112399C806F12000A806A1200D7
:101E0F000780651239FA80601239FD805B1239FE46
:101E1F0080569002E8E0120EF11E47001E4C011E84
:101E2F0051031E56051E5B061E60081E65091E6ABD
:101E3F000A1E6F0B00001E74122DF4802B123144FA
:101E4F0080261230B08021123720801C12269880F5
:101E5F001712359880121232E8800D1237B48008AD
:101E6F001238AB8003123CB89002F3E064016003B8
:101E7F00021F27900285E030E103021F27E596201D
:101E8F00E7FB759691E59620E7FB900285E597F0C5
:101E9F00E030E40630E003021F279002867402F060
:101EAF00C39002F2E094089002F1E0940040309069
:101EBF0002F6120EBC7D087C007F2012368890023D
:101ECF00F7E475F008120DBF9002F174FF75F0F88A
:101EDF00120DBF9002EFE475F008120DBF8016903F
:101EEF0002F1E0FCA3E0FD9002F6120EBC7F20127F
:101EFF003688123CFA9002EDE0FEA3E0FFA3E0B5B6
:101F0F000608A3E0B50703123CFAE59620E7FB7538
:081F1F009611900286E0F5978F
:011F27002297
:1034D200E59620E7FB75960E759701E59620E7FBCA
:1034E200759691E59620E7FBAF979002F4E0B4035E
:1034F2000CE59620E7FB75961175971022EF30E5E3
:103502000BE59620E7FB759611759740EF30E20BBD
:10351200E59620E7FB759611E4F597E52C60127BA2
:10352200007A0079537D087C007F21123688E4F509
:0C3532002CE59620E7FB759611759701BB
:01353E00226A
:10326200E4FFE59620E7FB75960E759702E596203A
:10327200E7FB759694E59620E7FBAE979002F5E0A2
:10328200B4030CE59620E7FB75961475972022EEA1
:1032920030E60BE59620E7FB759614759780E59668
:1032A20020E7FB759696E59620E7FBAF97E532702F
:1032B20005EF6408600DE59620E7FB759616759795
:1032C2001080177B007A00795E7D087C007F2212D5
:1032D200363A753201D2A375410AE59620E7FB75AD
:0532E2009614E4F597CD
:0132E70022C4
:0A3D4D00900285E475F001020DBF3D
:10363A00900287EFF090028A120EDC900288ECF07A
:03364A00A3EDF0FD
:10364D004C6037900287E0F5964396C0E4FFFED3B9
:10365D00900289E09F900288E09E401BE59620E74E
:10366D00FB90028A120EBC8F828E83E597120D8B12
:0A367D000FBF00010E80D8E4F5969F
:013687002220
:10368800900287EFF090028A120EDC900288ECF02C
:03369800A3EDF0AF
:10369B004C6036E59620E7FB900287E0F596E4FF59
:1036AB00FED3900289E09F900288E09E401B90021F
:1036BB008A120EBC8F828E83120D4CF597E59620E5
:0936CB00E7FB0FBF00010E80D8DF
:0136D40022D3
:103CB800E59620E7FB75960EE4F597E59620E7FB79
:0D3CC8007596117597209002F37404F02298
:0400030001000000F8
:10353F007596117597409002F37401F0E49002EFC5
:10354F00F0A3F0227A0079057BFF9002F6120EDCD1
:10355F009002F1E4F0A32275960EE4F5979002F332
:10356F00E06404227BFF9002F6020EDC7596117563
:10357F00974022E493FF9002F1E4229002F9E06475
:09358F00042275960E75970122C5
:102DF4009002E9E07010A3E0700C9002EDE0700620
:102E0400A3E064026003123CB89002E7E0247F6010
:102E14001B1460332402707C9002EBE0701FA3E06B
:102E2400600280707BFF7A007903805E9002F9E093
:102E3400B4040A9002EBE07004A3E0600280557BC6
:102E4400FF7A00790580439002F9E0B40406900209
:102E5400EBE06002803E9002ECE0FFB4811590024A
:102E6400F4E07BFFB403067A00790380047A0079E6
:102E7400058017EFB4021B9002F5E07BFFB4030654
:102E84007A00790380047A0079051235597402F0C6
:102E940080058000123CB812356C6008E59620E786
:052EA400FB12353F2286
:1031440012358A70779002E7E0FF60706401606C6A
:103154009002E9E070669002EBE070609002EDE0AE
:10316400705AA3E0600280549002E7E06402704C5D
:103174009002EAE070469002ECE0FF64816005EFA3
:1031840064027038EFB48117E59620E7FB1235919D
:10319400E59620E7FB12357BE49002F4F08020E50D
:1031A4009620E7FB75960E759702E59620E7FB756A
:1031B4009614759780E49002F5F08003123CB8E50C
:1031C4009620E7FB1235666008E59620E7FB12358A
:0231D4007B225C
:1030B00012358A70799002E7E0FF60726401606EF9
:1030C0009002E9E070689002EBE070629002EDE03F
:1030D000705CA3E0600280569002E7E06402704EEC
:1030E0009002EAE070489002ECE0FF64816005EF36
:1030F0006402703AEFB48118E59620E7FB1235912F
:10310000E59620E7FB7596117597109002F48019EB
:10311000E59620E7FB75960E759702E59620E7FB8E
:103120007596147597209002F57403F08003123C95
:10313000B8E59620E7FB1235666008E59620E7FBC8
:0431400012357B22A7
:103720009002E7E0701D9002EBE07017A3E07013C9
:10373000A3E0700FA3E0700B9002E9E07005A3E036
:1037400030E703123CB89002F37405F09002EAE00F
:103750009002F960057403F080037402F012356C76
:0B3760006008E59620E7FB12357B2295
:102698009002E9E0120EF126B80126C40226E303EF
:1026A800270004271105274021275522000027610C
:1026B8007A30790912357390300980487A30791B5D
:1026C80012357390301EE493FE90301DE4937C0025
:1026D8002400FFEC3E9002F102274F9002EAE075D9
:1026E800F0039030A7120EB0120EE5123575120DD8
:1026F80033FF9002F1E4804F7BFF7A307924123562
:1027080075903024123582803E9002EAE0FF6481A1
:102718006005EF64027042EF7BFFB4810C7A307978
:1027280036123575903036800A7A30793D12357513
:1027380090303D123582800F7BFF7A30792D12352B
:102748007590302D123582F0A3EFF0800F7A307932
:1027580044123557741BF08003123CB89002E9E02C
:10276800FF64016013EF6402600EEF64036009EF19
:1027780064046004EFB405239002EEE0FFD39002F6
:10278800F2E09F9002F1E0940040109002EDE070BA
:102798000AE0FE9002F1EEF0A3EFF012356C60084B
:0927A800E59620E7FB12353F2203
:103598009002E7E06480701C9002E9E07016A3E0F6
:1035A8007012A3E0700EA3E0700AA3E07006A3E017
:1035B80064016005123CB8801C9002F9E0FFB40475
:1035C8000B7BFF7A00790312355904F0EFB4030539
:1035D80012355304F012356C6008E59620E7FB12AB
:0335E800353F224A
:1032E8009002F9E0640260259002E7E0701F900206
:1032F800EBE07019A3E07015A3E07011A3E0700D66
:103308009002E9E07007A3E0D394014005123CB8AD
:1033180080459002EAE0D3940040309002F97404AA
:10332800F0E49002F4F0A3F0E59620E7FB12359163
:10333800E59620E7FB7596127597201234D2E5962C
:1033480020E7FB75960EE4F597800C9002F974035C
:10335800F09002F4F0A3F012356C6008E59620E7CF
:05336800FB12357B2281
:1037B40012358A70249002E7E06481701C9002E95B
:1037C400E07016A3E07012A3E0700EA3E0700AA3E9
:1037D400E07006A3E064016005123CB88005123570
:1037E4005304F012356C6008E59620E7FB12353F70
:0137F40022B2
:1038AB009002E7E06401701C9002EDE07016A3E05B
:1038BB0070129002E9E0700CA3E07008A3E07004B2
:1038CB00A3E06003123CB812356C6008E59620E764
:0538DB00FB12357B2209
:10399C0090026DE0FEA3E0FF9002F3E06401600A88
:1039AC00AA06A9071235577440F012356C6008E569
:0739BC009620E7FB12353FE6
:0139C30022E1
:01000A0022D3
:03000700023CB800
:0339FA00023CB8D4
:0139FD0022A7
:0139FE0022A6
:103A00000000000100000064000000003882715FC7
:103A10003882715F3882715F3882715F3882715F7E
:103A20003882715F3882715F3882715F3882715F6E
:103A3000149F149814A01499149F149914A014A9F5
:103A4000000000000000131538DA1A9301F43A5907
:103A5000C3551379401333333F800000405B4396D6
:103A60000000000000000000000800080000000046
:103A7000664C2020200063642F6D3200FFFFFFFFA3
:103A8000FFFFFFFFFFFFFFFF00000000000000003E
:103A90000000000000000000000000000000000026
:103AA0000000000000000000000000000000000016
:103AB0000000000000000000000000000000000006
:103AC00000000000000000000000000000000000F6
:103AD00000000000000000000000000000000000E6
:0A3AE00000000000000000007FFF5E
:103D0700C2AF8F828E8375FF80E4FFFE2243EF02EE
:073D170075B7A575B7F12295
:103C0000A2AF9218123D070FBF00010EEF64C34E22
:103C100070F5123D14438F01EDF053EFFDE4F5FF15
:063C2000F58FA21892AF1F
:013C2600227B
:103C4E00A2AF9218123D070FBF00010EBE01F8BFC2
:103C5E0090F5123D14438F03E4F053EFFDF5FFF59D
:053C6E008FA21892AFC7
:013C7300222E
:1007B700020B6CE86480F8E933E83360110460F0F9
:1007C700ED33EC337009E8FCE9FDEAFEEBFF2204A8
:1007D70060DED3EB9FEA9EE99DE8C2E78CF0C2F7A3
:1007E70095F0400CE8CCF8E9CDF9EACEFAEBCFFB6F
:1007F700120B3785D0F05804700320D5B3E8047086
:10080700075002B2D5020B7692D5EC0460F7E4CC20
:10081700C0E0C398F8603B94186008400DD0E0FB37
:10082700020B4EE4FBFAC9FC8028E830E406E4C971
:10083700FBE4CAFCE830E305E4C9CACBFCE854078B
:100847006010F8C3E913F9EA13FAEB13FBEC13FC96
:10085700D8F130F52FC3E49CFCEF9BFFEE9AFEED39
:1008670099FDD0E0FBEF4E4D4C701222DB03020BDB
:1008770073EC2CFCEF33FFEE33FEED33FDED30E789
:10088700EB020B4EEF2BFFEE3AFEED39FDD0E0FB0E
:1008970050130BBB0003020B76ED13FDEE13FEEFB7
:0808A70013FFEC13FC020B4EE1
:1008AF00EC4D6011E8497017ED33EC3304600DE443
:1008BF00FCFFFEFD22E933E8330470F8020B6C12E3
:1008CF000B3758046009E4CC2481500628500902E4
:1008DF000B76284003020B73C0E0EB4A7044B980DB
:1008EF0006D0E0FB020B62EF4E701CBD8008EBFFE1
:1008FF00EAFEE9FD80EBE98DF0A4FEE5F002099830
:10090F00E9CDF9EAFEEBFFEF89F0A4FCE5F0CE8923
:10091F00F0A42EFFE435F0CD89F0A42DFEE435F0E0
:10092F008067EF4E7005BD80D780C3EF8BF0A4AC0E
:10093F00F0EE8BF0A42CFCE435F0F8EF8AF0A42C49
:10094F00E5F038FCE433CB8DF0A42CFCE5F03BF85C
:10095F00EE8AF0A42CFCE5F038F8E433CF89F0A44C
:10096F002CFCE5F038CF3400CE89F0A42FFFE5F052
:10097F003EFEE433C98DF0A42EFEE5F039CD8AF0AA
:10098F00A42FFFE5F03EFEE43DFD33D0E0FB500722
:10099F000BBB000F020B76EC2CFCEF33FFEE33FE9C
:0609AF00ED33FD020B4ECA
:1009B500020B76EC5D046005E859047003020B6CCC
:1009C500120B37580460F6EC4860F2EC7004FDFE3B
:1009D500FF22C860DB2481C85009C3986002500615
:1009E500020B739850CAF582E9294B4A7005AB8210
:1009F500020B6275F0007C1A7880C3EF9BEE9AEDCE
:100A050099400DC3EF9BFFEE9AFEED99FDE842F08C
:100A1500DC23ACF0D0E0FFD0E0FED0E0FDAB8220DF
:100A2500E7101BEB60BAEC2CFCEF33FFEE33FEED69
:100A350033FD020B4EE803F830E705C0F075F00012
:100A4500EF2FFFEE33FEED33FD40B830E7C280AA4D
:100A550074F8CC6480CCC86480C8F582046043C354
:100A6500EB9FF5F0EA9E42F0E99D42F0E89C45F0E7
:100A750060305018E5825FFFE582F42B5582FB500C
:100A8500210ABA001D09B90019088016E5825BFB29
:100A9500E582F42F5582FF50090EBE00050DBD00FD
:100AA500010CC3EB9FF5F0EA9E42F0E99D42F0E8A8
:0D0AB5009C45F06007CC4820E701B3EC221F
:100AC20075F020800E75F010800575F0087D007EAF
:100AD200007F003392D530D503120DF0EC33401075
:100AE200EF33FFEE33FEED33FDEC33FCD5F0ED22B8
:0E0AF200E5F0247EA2D513CC92E7CDCEFF22F4
:100B0000EDD2E7CD33EC3392D524814006E4FFFEED
:100B1000FDFC22FCE4CFCECDCC24E0501174FF804C
:100B2000EDC3CC13CCCD13CDCE13CECF13CF0470E9
:070B3000F030D5DE020DF0EC
:100F1700E50824BAF582E43402F583E00508229057
:100F270002B7301F039002BAE475F001120EC50232
:100F37000D332018E97F2ED2188018EF540F249014
:100F4700D43440D4FF301C0BEF24BFB41A00500335
:100F57002461FFE50960021509050CE50C7002051F
:100F67000B301F0E9002B7E475F001120EC5EF02A9
:100F77000D79023C277403D21F8003E4C21FF508D2
:100F87009002B7120EDCE4F509F50BF50CE50960E4
:100F9700077F20120F5A80F5750AFFC219C218C2BF
:100FA7001AC21BC21DC21EC220120F26FF700D30AF
:100FB7001F057F00120F6BAF0CAE0B22B4255FC26B
:100FC700D5C21C120F26FF24D0B40A00501A75F0A0
:100FD7000A780930D50508B6FF0106C6A426F6200B
:100FE700D5047002D21B80D924CFB41A00EF500465
:100FF700C2E5D21C02125DD21980C6D21880C0D2B7
:101007001A80BCD2D580BAD21D80B47F20120F5A65
:10101700201A077401B5090040F1120F17FF120FCC
:101027005A020F94D220D21E8095120F17FB120F6F
:1010370017FA120F17F94A4B7006795B7A137BFF81
:10104700201A2EE509602A7E008E82758300120D14
:101057004C60060EEE650A70F0C2D5EBC0E0EAC040
:10106700E0E9C0E0EE1212BED0E0F9D0E0FAD0E03D
:10107700FB120D33FF60AAEBC0E0EAC0E0E9C0E075
:10108700120F5AD0E02401F9D0E03400FAD0E0FB87
:10109700E50A0460DCD50AD98087D21A80A2121229
:1010A700A060F7E50A700104120B81A90A600DE53B
:1010B7000A600914F50A121348EF60F3EA30E702F1
:1010C700F404C3995079EAF4250A0430E701E404EB
:1010D700F50A800D1212A060C1EA050A250A120B53
:1010E70081EA9002E6F030E701E4250A04D50A0414
:1010F700201D01141212BEE4C0E01213489002E64C
:10110700E0601320E70714F0120F42802204F0D0AA
:10111700E014C0E07F00120F42E50A6007120F39A2
:10112700150A800B301D03120F39D0E0020F94D03F
:10113700E00480C41212A0609EE50A04120B81909D
:1011470002E6EAF0E50A201D0260010424041212F7
:01115700BED9
:1011580074FF04C0E0121348120F42E50A201D0272
:101168006003120F39D0E0B50AE87F45120F4C90A2
:1011780002E6E07F2B30E7047F2DF404C0E0120F75
:101188005AD0E075F00A84C0F0120F43D0E0120F75
:1011980043020F94791080027908C21EC220800889
:1011A800D2D5790A8004790AC2D5E50A047002F515
:1011B8000AE4FAFDFEFF120F17FC7B082019131230
:1011C8000F17FD7B1030180A120F17FE120F17FFAA
:1011D8007B20EC3382D592D55013C3E43018069F98
:1011E800FFE49EFEE42019039DFDE49CFCE4CBF89B
:1011F800C219EC700CCFCECDCCE824F8F870F3808F
:1012080017C3EF33FFEE33FEED33FDEC33FCEB3366
:10121800FB994002FB0FD8E9EB301905F8D0E0C480
:1012280048B219C0E00AEC4D4E4F78207B0070C2DE
:10123800EAB50A0040BCC0E01212C0D0F0D0E020ED
:101248001904C4C0E0C4B219C0F0120F43D0F0D5DD
:10125800F0EB020F94120EF1103153119C5810024A
:101268004C0FFE4211A04F11A84411A84910174372
:1012780011AE5510DB46113B4510A547137B5010A6
:10128800062D100A2E102D2B100E23102B20136460
:101298002A0FC64800001025E50AB4FF03750A06A0
:1012A800120F17FC120F17FD120F17FE120F17FF60
:1012B8009002DF020BBE790AA2D5201B14301D094B
:1012C800B910020404B9080104A2D5201E02500175
:1012D80004201A68921AB509005034C0E07F203003
:1012E8001B197F30A21A721E721D500F121317C2DB
:1012F8001AC21EC21DC2207F30800F301D03E9C0F4
:10130800E0120F5A301D03D0E0F9D0E0B509CC3017
:101318001D177F30B9100C120F5A7F58301C077FE9
:10132800788003B90803120F5A301A057F2D020F6F
:101338005A7F202020F87F2B201EF322921A80CF7C
:101348007F00B40700500B24DFF582E43402F583F4
:10135800E0FF22286E756C6C2900D219120F173025
:1013680019F8C219780930D50108F6020FC62D50B0
:10137800434958120F172403B405004001E49013A1
:101388007693120F4B743A120F4BD21B7509040255
:02139800119CA6
:100B3700E9D2E7C933E833F892D5EDD2E7CD33EC04
:070B470033FC5002B2D5227D
:100B4E00EC30E7100FBF000C0EBE00080DBD000408
:100B5E000BEB6014A2D5EB13FCED92E7FD2274FFB4
:100B6E00FCFDFEFF22E480F8A2D574FF13FC7D800D
:030B7E00E480EF21
:100B8100F920E73624F950037907E4F42402FBE560
:100B910082158270021583DBF6E024FB501BE960AD
:100BA10014E4F0E582158270021583E004F0B40AC2
:0D0BB10008E4F0D9EE7401F00A22C2D5224A
:100BBE00ED33EC3392D5FA602AB4FF33EDC2E77B06
:100BCE00FF60067A0B79E3E4227A0B79EC20D504E8
:100BDE007A0B79E7224E614E002B494E46002D4985
:100BEE004E4600E47A08F0A3DAFC7B00740722C0BC
:100BFE0083C082ECC0E0EDC0E0EEC0E0EFC0E0EA02
:100C0E0075F010A4CAABF075F04DA42BFBE435F0D3
:100C1E00FCEA2410FAEB34C5FBEC34D9FCEDC2E748
:100C2E00FF75F056A4F42411C5F0F434C58FF0A46A
:100C3E002AE5F03BE43CF020E714120CF3D0E0FF81
:100C4E00D0E0FED0E0FDD0E0FC1209B88014F40430
:100C5E00120CF3D0E0FFD0E0FED0E0FDD0E0FC12AD
:100C6E0008AFD082D083E0FAEDD2E7CD33EC332457
:100C7E0082FBE4C3CF33CFCE33CECD33CD33DBF3D4
:100C8E007B0775F00A846004F0A31B0AE5F0F0A35D
:100C9E008FF0740AA4FFACF08EF0740AA42CFEAC94
:100CAE00F050010C8DF0740AA42CFDE435F0F0A385
:050CBE00DBDE740722DB
:100CC3003F8000004120000042C80000447A000039
:100CD300461C400047C35000497424004B189680BB
:100CE3004CBEBC205A0E1BCA6753C21C749DC5AEB2
:100CF300FB60065407601C2323120D21EB5438605C
:100D030009120D0D120D1C1208AFECF8EDF9EEFAF5
:100D1300EFCB22EB120D1C80F1543803241C900CF2
:100D2300C3FE93FC0EEE93FD0EEE930ECE93FF22C5
:030000000231D6F4
:0C31D600787FE4F6D8FD75816902321D97
:100D3300BB010689828A83E0225002E722BBFE02BE
:090D4300E32289828A83E49322F1
:100D4C00BB010CE58229F582E5833AF583E022505C
:100D5C0006E92582F8E622BBFE06E92582F8E222A6
:0D0D6C00E58229F582E5833AF583E49322C0
:100D7900BB010689828A83F0225002F722BBFE0159
:020D8900F32253
:100D8B00F8BB010DE58229F582E5833AF583E8F09E
:100D9B00225006E92582C8F622BBFE05E92582C84A
:020DAB00F22232
:100DAD00EF8DF0A4A8F0CF8CF0A428CE8DF0A42E5A
:020DBD00FE2214
:100DBF00C5F0F8A3E028F0C5F0F8E58215827002BF
:060DCF001583E038F0225C
:0E0DD500C3EF9BFFEE9AFEED99FDEC98FC2219
:0D0DE300EF4BFFEE4AFEED49FDEC48FC220F
:0E0DF000C3E49FFFE49EFEE49DFDE49CFC2214
:100DFE00EB9FF5F0EA9E42F0E99D42F0EC6480C86C
:060E0E0064809845F0220B
:100E1400E86010ECA2E713FCED13FDEE13FEEF13F4
:040E2400FFD8F022E1
:100E2800E8600FEFC333FFEE33FEED33FDEC33FC28
:030E3800D8F122CC
:0C0E3B00E0FCA3E0FDA3E0FEA3E0FF222A
:100E4700E493FC740193FD740293FE740393FF22F1
:0C0E5700E0F8A3E0F9A3E0FAA3E0FB221E
:100E6300E493F8740193F9740293FA740393FB22E5
:0C0E7300ECF0A3EDF0A3EEF0A3EFF022F2
:100E7F00A8828583F0D083D082120E96120E96121E
:100E8F000E96120E96E473E493A3C583C5F0C58343
:100E9F00C8C582C8F0A3C583C5F0C583C8C582C8BD
:010EAF002220
:0C0EB000A42582F582E5F03583F583224D
:090EBC00E0FBA3E0FAA3E0F92237
:100EC500F8E0FBA3A3E0F925F0F0E58215827002B6
:070ED5001583E0FA38F0225A
:090EDC00EBF0A3EAF0A3E9F02217
:0C0EE500E493FB740193FA740293F92269
:100EF100D083D082F8E4937012740193700DA3A390
:100F010093F8740193F5828883E4737402936860A3
:060F1100EFA3A3A380DFA3
:103C2700EFB40A07740D123C32740A309811A89940
:103C3700B8130CC2983098FDA899C298B811F630FD
:073C470099FDC299F59922D5
:1031E2000220F5E493A3F8E493A34003F68001F2EE
:1031F20008DFF48029E493A3F85407240CC8C333EE
:10320200C4540F4420C8834004F456800146F6DFBC
:10321200E4800B0102040810204080903835E47EDF
:10322200019360BCA3FF543F30E509541FFEE493B1
:10323200A360010ECF54C025E060A840B8E493A378
:10324200FAE493A3F8E493A3C8C582C8CAC583CAA3
:10325200F0A3C8C582C8CAC583CADFE9DEE780BE5B
:013872000055
:00000001FF
