:093602009002A9EFF0A312076B7E
:10360B00E49002ADF0A3F09002AA12074B9002AD2A
:10361B00E0FEA3E0F5828E831205DBFF60279002AC
:10362B00A9E0FD3395E0FC74DC2DF58274013CF5CB
:10363B0083EFF09002A9E004F09002ADE475F00185
:05364B0012064E80C2D2
:013650002257
:0D3D0E00E4FF7E289001DC7420F0A3DEFCB1
:013D1B002285
:1039DD00D3EF9400EE94004015E4FDFC0DBD000105
:0E39ED000CBC05F8BD12F5EF1F70E51E80E260
:0139FB0022A9
:10347B00E4900285F0A3F0A3F07F64FE1239DD1215
:10348B003D0E7B01E4FD7F3012388D7F0A7E0012EA
:10349B0039DD7F301234C17F301234E07F38123483
:1034AB00C17F081234E07F0C1234D41239DD7F0651
:0634BB001234D40239DDD9
:1034C1007B01E4FD12388D7F017E001239DD7B0125
:1034D100E4FD227B01E4FD12388D7F017E00221282
:0A34E100388D7F017E001239DD22D4
:102B9300900271E07055900009E0C3648094A840EE
:102BA3000AE4F07B01AD357F02804D900009E0B46B
:102BB300140B74FFF07B01AD357FA8803B900009B7
:102BC300E0C36480948050057414F080039000097E
:102BD300E0FF04F0EF3395E0FE74DC2FF58274011F
:102BE3003EF583E0FFE4FBAD35800D900271E07BA1
:102BF30001AD35B401077F0812388D800A7F0C12AE
:102C0300388DE4900271F0E549603D654F7027E52A
:102C13004AD394004046154AE54A7040E52AD394C6
:102C2300324039854F4BE4F52A900271E06401701C
:102C33002BE004F08026E54B702285494F754A0A44
:102C430090026D74FAF08014E4F54FF54A90026D2A
:102C530074FAF0E52AC394FF5002052AE54842229C
:012C6300224E
:10388D00EB7006ED4420FD8004ED54DFFDC294E4A1
:10389D00F5A3C2FF30FFFD85A348AE058EA3C2FF81
:1038AD0030FFFD85A3498FA3C2FF30FFFD85A352D5
:0838BD00D294E4F5A3C2FF223E
:0438FA00AB07AA0668
:1038FE00E4F54B90026DE0FF7E007C007DF0120639
:10390E003CEEFDEAC313FEEB13FFC3ED9FEC9E509E
:0F391E0002AD07AF0590026DEFF0F54A752AFF75
:01392D002277
:0F3CFF0030FFFD8FA3C2FF30FFFDD295C295228B
:103CB600AD07AC06ECF5A3C2FF30FFFDC296EDF5ED
:093CC600A3C2FF30FFFDD29622DB
:10398C0053D9BFE4F5EF12392E123D1C12396012D7
:10399C0036EC123D297FC87E001239DD12347B7F54
:0A39AC0021123CFF123C74D2AF223E
:0D3D1C0043B203E4F5A943A91075B6902247
:1036EC00E59620E7FB759601759708E59620E7FBB4
:1036FC00759607759707E59620E7FB7596097597FC
:10370C0007E59620E7FB75960B75970775D7C0E50F
:10371C009620E7FB75960F7597A043E602D2AFE5AE
:0B372C009620E7FB75960175970122BF
:1039600075A4D575A5F175A6FD75D488E4F5D5F5D2
:10397000D675E10375E2E8D297D296D294C295C289
:0C398000A7C2A6C2A5C2A4C2A2C2A32274
:0A3D290075A20B75A14075F8012288
:103C740075D90675D840758951D2A9D2B9D28CD2DA
:103C84008E75CBFE75CA0C75CDFF75B12075C80154
:053C9400D2ADD2CA22EE
:10392E0020A12EE4F5B1F5E2F5E1C2CAC28EC28C39
:10393E00C2ADC2ABC2A9F5D8F5D7C2AF53D9BFF548
:10394E00FFF5EF75C980F5F1F5F2F5F3F5F475872E
:02395E00022243
:10280F00204F5054524F4E4943204C4142532C209D
:10281F00494E432E0020204F4C203430302D432082
:10282F0020205625342E32662020004120202020E3
:10283F0000205F5F2E5F5F5F2041200025372E3322
:10284F0066204120002020205F5F5F5F204B20002B
:10285F0025203764204B20002520372E3266204854
:10286F0072002537752020200045252B303364005A
:10287F0025372E3466202573200052452D5A455298
:10288F004F202573200025377520257320002D2D0F
:10289F002D2D2D2D2D202573200020204F564552F4
:1028AF0020202573200020554E44455220202573AB
:1028BF0020005F5F5F5F2E5F5F2056200020564332
:1028CF004D504C212056200025372E3266205620A1
:1028DF00002520377520200021412242244420402A
:0628EF00404040D33333EA
:10384F00012C000132000B5E0000000000000000A0
:10385F000000000B530000000000000000000000FB
:10386F00410271004100090041026D644201C10033
:07387F0000014100014400BB
:1016D9009000051206CA9001691207029001691269
:1016E90006CAE48F559001691206CA78081206A342
:1016F9009001691207029001691206CAE48F569097
:1017090001691206CA78081206A390016912070234
:101719009001691206CAE48F579001691206CA78C6
:10172900081206A39001691207029001690206CA0C
:101739001206CA9001C31206E612013E9001CF12A9
:1017490006E612013E9001D31206E612013E90010F
:10175900D71206E602013E7A2879787BFF9002B219
:1017690002076B7F977EFF7D1F9001841206E602B8
:1017790002E41206F29002AF1206CA02004975533A
:1017890001852154900270E0F55590026FE0FF8FBA
:10179900569001A6E0F5579001A5E0FF8F589001FA
:1017A900C0E0F5599001BFE0FF8F5A229002B57B46
:1017B900017A02796712076B7A01796E22900033F8
:1017C9001206E69028F11206D6020049F5831206A0
:1017D900F202013EF9F89001C1E0FEA3E0FFE4FC4A
:1017E900FD2278081206B790016912070290016973
:1017F9000206E6E493FC740193FDE4120356A8047F
:10180900A905AA06AB0722EE9002B5F0A3EFF022D4
:101819001206CA9002B50207021207029001C71206
:1018290006CA9001C322F583E0FCA3E0FDE40203AC
:10183900567553089001A2E0F5549001A1E0FF8F7D
:10184900552212004D02038FEEF0A3EFF07BFF2229
:10185900C39001C2E094649001C1E0940022E4FBCA
:10186900FAF9783F221206CA02038F7B017A0279BC
:101879007222900184020702900182EEF0A3EFF038
:1018890022E5A054F0F556C4540FF55622E4FCFDA8
:10189900FE0206729000051206CAE4020351E02511
:1018A900E0249DF582E4340022E025E0247CF582E1
:1018B900E4340022E4FFFE7D7A7C4422E4FFFE7DCD
:1018C900C87C4290006622FFE43EFEE43DFDE43C14
:1018D900FC227B017A00791E227B017A00793C2265
:1018E900E4FBFAF978BF227B017A02796722900139
:1018F900840206CA90026EE025E02290026F74808D
:10190900F0A3E4F0227F977EFF7D1F9001BB229018
:1019190000660207029002AB020702FEFDFC90007E
:10192900990206E69002AB0206CA12004D9002A97E
:03193900020702A0
:101F110012398CE4900037F0A3F0900037E0FEA373
:101F2100E0FFC39408EE648094805026EF7802C3EA
:101F310033CE33CED8F9240EF58274023EF58312E6
:101F4100070E00000000900037E475F00112064E04
:101F510080C8E490002EF0F54B900004E0700990E9
:101F6100026EE0D394074005E490026EF090026E99
:101F7100E00490002EF0900188E0D394044002E444
:101F8100F0900039E0D394024002E4F0900232E094
:101F9100D3946440037464F0900232E0C39401501E
:101FA100037401F012189D7B457AA979AB784D1223
:101FB10002E4500A90000512070E157528A090281A
:101FC100F11206D6900000121775600C400A9000BD
:101FD1000012070E00000000C20CC20EC20DC20F9B
:101FE100E49001A3F0A3F07545027529029001C1A7
:101FF100F0A3F0F550F551FFFE123CB61230957A80
:1020010028790F1217641220B7E4FF1236027BFF02
:102011007A2879241217669002B512070E400666D7
:10202100661220B77F141236027FD07E071239DD87
:10203100123D0E12380F1207A6121323900188E0E9
:102041007B0170117A01796E7F021236027BFF7A71
:1020510028793A801B7A0179A77F02123602900112
:1020610088E075F006A4246AF9743A35F0FA7BFF2A
:102071007F0F1236021218DB7F14123602300E0562
:102081001218E2801F300F07900039E0B402087B7C
:10209100017A00796C800D900039E0B4010D7B016B
:1020A1007A00790A7F1E12360280881218E27F1E9A
:1020B1001236020220347B017A027934120F057B39
:0620C100017A02793422CD
:1007A600200703020E88C2079001DBE004F0C39421
:1007B6000A4002E4F0900232E0FF900266E004F0A4
:1007C600C39F4002E4F0900233E004F0C3940A4071
:1007D60002E4F0C2AD9002661218A7F583E527F091
:1007E600A3E528F09002331218B2F583E533F0A39F
:1007F600E534F0D2AD300D03020962300E0D9000E3
:100806003312070E00000000020889903A4CE49368
:10081600FE740193FBAA06EA3395E01217DD120671
:1008260064EC120351903A481217D790003312071E
:10083600021217C690003312177590003350191222
:1008460006CAC004C005C006C007903A421206D6C2
:100856009000331206E680141206CAC004C005C012
:1008660006C0071217C6903A421206F212013E124D
:100876001807D007D006D005D004120049900033DF
:10088600120702E4FFFEFDFC90003312177560109C
:10089600400E1218BD90003312175A121867800CBA
:1008A6001218BD90003312175A1218E912184B90FD
:1008B60001A5EEF0A3EFF09000331206CA1223A8AA
:1008C60090001A120702200F051218594003300E25
:1008D6000B7BFF7A287940121766800F7BFF7A28F8
:1008E600794B1217669000331218191218DB120F83
:1008F600057F007EF07DF97C4490001A121775E49E
:1009060050119001A1F0A3F07BFF7A2879541217B9
:1009160066801EFFFEFD7C3F90001A1206E6121846
:100926004B9001A11218517A28795F121766121896
:10093600107B017A00790A120F057BFF7A28796706
:1009460012176612189D7B007AA0790C784712025E
:100956004712181C7B017A00796C801990003312BB
:10096600186E9001A51218517A287971121766121D
:1009760018101218DB120F0530045E90026EE0FFAD
:10098600C374FD9FFF74FF9400FE9002A9F0A3EFCD
:10099600F01217601218101218F0120F0590018845
:1009A600E0FFD39400401CEF25E02466F582E43492
:1009B6003AF583E493FE740193FF9002A9EE8FF05B
:1009C60012064E1217609002A9E0FFA3E0CF12189C
:1009D60011121874120F05C204300303020BEE3015
:1009E6000103020BEEE52F6003020BEE9001841269
:1009F600070E00000000E490016DF0900232E0FF67
:100A060090016DE0C39F502D9001841206E6C00050
:100A1600C001C002C00390016D1218A712182FD092
:100A260003D002D001D00012004D12187B90016D48
:100A3600E004F080C61218F7C004C005C006C0075F
:100A4600900232E0FCE412035B121807D007D006CE
:100A5600D005D00412024712187B300D03020BC9D1
:100A66001218FD2430F582E4343AF5831217FC900F
:100A760001841217811218FD25E0240CF582E43456
:100A86003A1217D512187B1218F71218FD25E02412
:100A96000EF582E43402F5831206E61200491218B6
:100AA6007BE4FFFEFDFC1217727F007E407D1C7CFE
:100AB60046900184600A400812175A121867800689
:100AC60012175A1218E912184B90026FEEF0A3EFA4
:100AD600F07FD07EB37D517C40121772600E400CC1
:100AE60090026F747FF0A374FFF080107F747EB560
:100AF6007D517CC012177250031219047C411217E3
:100B06006C50207CC112176C601940177BFF7A2845
:100B1600797F1217669001841218191218F0900244
:100B2600B9800F7BFF7A2879891217661218F09020
:100B360002B51217BE120F05900188E060379002C9
:100B46006FE0FCA3E0FDEC1203567B177AB779D170
:100B5600783812013E9001BB1207029001BB1206C3
:100B6600CA900188E025E025E02454F582E4343A71
:100B76001217D580031218F79001BB1207027C41A9
:100B860012190E12177550237CC112190E12177501
:100B9600601940177BFF7A28797F1217669001BB90
:100BA6001218191218749002B9800F7BFF7A2879EF
:100BB600891217661218749002B512076B7A0179BA
:100BC600A7801FE4900188F090018412186E9002AD
:100BD6006F1218517A287995121766121810A312F7
:100BE60017B8120F05020C6FE52FD3940040257B32
:100BF600FF7A28799D1217661217B5120F057BFF2B
:100C06007A28799D121766120E897480F0A37401F2
:100C1600F0020C6F3003247BFF7A2879A91217663D
:100C26001217B5120F057BFF7A2879A912176612DB
:100C36000E89747FF0A374FFF0802E30012B7BFFAA
:100C46007A2879B51217661217B5120F057BFF7A47
:100C56002879B51217661218749002B512076B7AC6
:100C66000179A7120F0512190490006612070E00EB
:100C7600000000E490016DF09000661206E6C000E8
:100C8600C001C002C00390016D1218B212182FD015
:100C960003D002D001D00012004D12191890016D38
:100CA600E004F0E0B40AD19000661206CAE4FBFA4A
:100CB60079207841120247121918300D03020D6F80
:100CC600903A521217FC900066121781903A4E1213
:100CD60017D71219187F7B7ED47DA37C43900066BC
:100CE600121775600C400A9001BF7401F0A3744797
:100CF600F07FC37ED57DA37CC39000661217755026
:100D06000A9001BF74FEF0A374B9F0E4FFFEFDFC87
:100D1600900066121775600D400B1218C512175A0F
:100D260012186780091218C512175A1218E91218F4
:100D36004B9001BFEEF0A3EFF0200F1012185950A0
:100D46000B7BFF7A2879C112176680337BFF300E42
:100D5600097A2879CC121766800D7A2879D7121766
:100D660066900066121819801690006612186E902A
:100D760001BF1218517A2879E0121766121810125C
:100D860018E2120F05200F249001C1E0FEA3E0FF38
:100D9600D39484EE94034011EF240CFFEE34FEFE50
:100DA600E4FCFD12191E020E66020E5C900005128E
:100DB60006CAEF24011218D090000512070290000F
:100DC6003AE0FEA3E0FBAA06E41217DD12066490E1
:100DD60000991207021217DF12191E74FF7F9C1268
:100DE6001924C312068D500B12192DEF2464121804
:100DF600D0803A9000991206CAEC33500890003A17
:100E06001217E28028E47F64121924D312068D405B
:100E16001612192DC3EF9464FFEE9400FEED9400B4
:100E2600FDEC9400FC800690003A1217E212191E9F
:100E3600E47FFF7EFFFDFC9002AB1206E6D31206AE
:100E46008D400C9002AB12070E0000FFFF801112BE
:100E5600192DEC33500A9002AB12070E0000000069
:100E66009002ADE0FEA3E0FF9001C1E06E7003A327
:100E7600E06F600CC2AD9001C1EEF0A3EFF0D2AD11
:020E8600D20692
:100E8800227B017A0279729002B512076B7A017996
:080E9800A7120F0590026F2262
:03000B0002002EC2
:10002E00C0E0758CFFE58030E70553807F80034389
:05003E008080D0E032DB
:03002B0002193C7B
:10193C00C0E0C0F0C083C082C0D075D000C000C071
:10194C0001C002C003C004C005C006C007308F042C
:10195C000539C28F30DF04054CC2DF1529E529603B
:10196C0003021A5D752932D5450B7545050551E500
:10197C005170020550858D37308F040539C28F8523
:10198C008B3AE537B58D03308F0D858B3A858D37C6
:10199C00308F040539C28F753F00853740E540759F
:1019AC004000F53FE53A2540F540E4353FF53FC3AF
:1019BC00E5409531F528E53F9530F527C313F5271C
:1019CC00E52813F528E539D394015010E539B40115
:1019DC000EC3E5409531E53F9530400343278085A4
:1019EC003F308540315331FE75390085F93A85FA1F
:1019FC003730DF04054CC2DF754D0085374EE54EA0
:101A0C00754E00F54DE53A254EF54EE4354DF54D48
:101A1C00C3E54E953EF534E54D953DF533C313F5D1
:101A2C0033E53413F534E54CD394015010E54CB444
:101A3C00010EC3E54E953EE54D953D400343338085
:101A4C00854D3D854E3E533EFE754C00D207021B24
:101A5C0020E52964196003021B20E52FD39408406C
:101A6C00035322F1E52242203013057569058005E8
:101A7C00D56902C2033011057546058005D54602AD
:101A8C00C201301205752B058005D52B02C2023020
:101A9C0010057547058005D54702C200300004D2F9
:101AAC000E8002C20E752200E52FD3940040021561
:101ABC002F900004E0603420030330011190026E7B
:101ACC00E0D394004008E52F7004E0148018200245
:101ADC002F20032C20012990026EE0C39407502084
:101AEC00E52F701CE004F0E0FF801290002EE0FF68
:101AFC00600E14FF90026EF090002EE4F01239B6D6
:101B0C00E541600415418002C2A3E544600415441C
:101B1C008002C2A212392E9001C1E0FEA3E0FF1296
:101B2C003CB6122B93C2CFD007D006D005D004D030
:101B3C0003D002D001D000D0D0D082D083D0F0D04E
:021B4C00E03285
:1039B600900278EFF0D394074002E4F0900278E0AA
:1039C6009028E793FF123CFF752F0AD2045321F883
:0739D600900278E04221227B
:103095009000001217C9900000121775500E903A53
:1030A500421206D69000001206E6800C900000122F
:1030B50017C9903A421206F212013E90000012061C
:1030C500E6121933903A481206F29002A91206CA7E
:1030D500120247C004C005C006C007903A4CE493ED
:1030E500FC740193FDEC120356D003D002D001D03D
:1030F50000121933E4FFFEFDFC9002A9121775506A
:103105000A9002A912070E000000007F007EFF7DD5
:103115007F7C479002A9121775600C400A9002A99E
:1031250012070E477FFF009002A912186E90003A11
:05313500EEF0A3EFF035
:01313A002272
:1023A8009002AF120702E4FFFE7D407C409002AF2E
:1023B8001217755006E4FFFEFDFC22903A881217AA
:1023C8007B9001C3120702903A8C12177B9001C7C9
:1023D800120702903A9012177B9001CB12070290D5
:1023E8003A9412177B9001CF120702903A9812176D
:1023F8007B9001D3120702903A9C12177B9001D769
:102408001207029001CB1206CA9001C712173F901B
:102418003AD01217D79001891207029001CB1217F0
:1024280039903AD41217D790018D1207029001C73C
:10243800121739903AD81217D79001911218221210
:10244800175A9001CB121748903ADC1217D790010F
:102458009512182212175A9001CB12175A9001CFD1
:10246800121751903AE01217D790019912182212B8
:10247800175A9001CB12175A9001CF12175A900190
:10248800D312175A903AE41217D790019D120702F7
:102498009001951206E6900191121781C004C005BB
:1024A800C006C00790018D1206E6900189121781B7
:1024B800D003D002D001D00012004DC004C005C026
:1024C80006C00790019D1206E6900199121781D067
:0B24D80003D002D001D00012004D2202
:101323005321F7900004E06003432108E532700382
:101333000216AEE4F553F554F555F556F557F55841
:10134300F559F55AF55BF55CF55DE55E64016003FF
:10135300021435855F43E54330E30B9000047401C9
:10136300F0432108801AE4900004F05321F7E54389
:101373005407FF90026EE06F6006EF0490002EF0BA
:10138300E54330E704D20F8002C20FE54330E504A2
:10139300D20D8002C20DE54330E404D20C8002C2B8
:1013A3000C900182E4F0A3E561F0E07F00FE900180
:1013B30082F0A3EFF0E560FF1218819001A3E06EC5
:1013C3007003A3E06F605E900182E0FEA3E0FF90F4
:1013D30001A3EEF0A3EFF0300D0A90003AEEF0A374
:1013E300EFF08041900182121831900095120702AC
:1013F3009000951206CAE4FBFA797A784412024700
:101403009000951207029028F11206D690009512CB
:1014130017756002500F9000951206CA90000012D3
:101423000702123095E52C60030216AB12178702F0
:101433001544E55E6402702C255FFEE4343A9000A7
:101443006AF0A3CEF0E52C60030216AB7553028558
:101453005F5490006AE0FEA3E0F5828E83E493F587
:1014630055021544E55E64037026255FFFE4343AB4
:10147300FE90006AF0A3EFF0AD60123C00E52C6033
:10148300030216AB755303855F54856055021695A9
:10149300E55EB404147F007E3A123C4EE52C6003F3
:1014A3000216AB755304021695E55E6405600302EC
:1014B3001547E52C60030216AB755305855F54E5AC
:1014C30054B4010690023202152BE554B40206907F
:1014D300018802152BE554640370071216D98F583F
:1014E300805FE554B40405900271803CE554B40573
:1014F30005852155804BE554640670241218BE906F
:10150300000012175A12186712184B121881E0F5CF
:1015130055900182E0F8E4F0E8A3F0E0F55680216D
:10152300E554B40708900039E0F5558014E554B448
:10153300080FE590540EF5553085034355011218F5
:101543008A021695E55E6406600302167EE55FB4C3
:101553000119E560D39464400302160FE56094001B
:10156300500302160F9002320215F8E55FB402121F
:10157300E560C394045006900188E560F0D204024C
:10158300160FE55F64037031AF63FCFDFE12172D88
:101593001217EBAF6212189612172D1217EBAF61E9
:1015A30012189612172D1217EBAF60121896121716
:1015B3002D9000051207028053E55FB40417E56020
:1015C300B401089002717401F08041900271E060EF
:1015D3003B04F08037E55FB4050CE5607004C20C92
:1015E300802AD20C8026E55FB4070FE560C394031D
:1015F300501A900039E560F08012E55FB4080DE5FC
:1016030060C454F0FFE5A0540F4FF5A0E52C600330
:101613000216AB755306855F54E554B40106900278
:1016230032021663E554B40206900188021663E59C
:1016330054640370071216D98F58803DE554B404DF
:1016430005900271801AE554B4050D300C057555EB
:10165300018026E4F5558021E554B407089000394C
:10166300E0F5558014E554B4080FE590540EF55594
:1016730030850343550112188A8017E55EB40705C8
:10168300122F458023E55E64087011E52C70191252
:10169300183A752C01D2A275440A800CE532600811
:1016A300E55E7004C20CF52CE4F532300C10300604
:1016B3000DE52C7009121787C206D216800F300C65
:1016C30014301611E52C700D12183AC216752C0140
:0616D300D2A275440A22B8
:10224B0025326400256420433D25352E336620540A
:10225B003D25352E316620202000613D25352E3160
:10226B0045206B25352E3145202020002530325856
:10227B002C253032582C253032582C253032582C06
:10228B00253032582C253032582C25303258002529
:10229B00342E3166004155544F0045252B303364A5
:1022AB0000484F5552530025372E3266004544499E
:1022BB0054204C414D502054415247455400252544
:1022CB0025642E25646600412020202000474149CB
:1022DB004E2052414E4745203D2000524553504F12
:1022EB004E53452054494D45203D20202053004D51
:1022FB00454E55204F5054494F4E002053455420C6
:10230B00524553504F4E53452054494D45202000C4
:10231B0053454C454354204D4F4E49544F52205535
:10232B004E495453002053454C454354204C414D8A
:10233B005020554E495453202000202056494557D4
:10234B00204C414D502054494D4552202020002017
:10235B00205455524E20444953504C4159204F461E
:10236B0046202000202055534220434F4D4D204DF9
:10237B004F4E49544F522020005649455720435445
:10238B00454D502043414C20434F45464600FF23CB
:0D239B0006FF231BFF2330FF2345FF235ABD
:10272300FBAA062488F582743A3AF5831206D690FA
:1027330002B712070274A02BF582743A3AF583129A
:1027430006D69002BB1207027B017A0279342290EB
:102753000289E024FFFEE434FFA3F0A3CEF07A2243
:10276300794F7BFF9002B202076BFBAA0624D0F5D8
:1027730082743A3AF5831206D69002B512070274B0
:10278300B82BF582743A3AF5830206D690002F12DD
:1027930006CAE4FBFA7920784122A3F0A3E4F0A36C
:1027A3002290028AE0FEA3E0FFEE9002B5F0A3EFD1
:1027B300F022FD3395E0FC74342DF58274023CF570
:1027C3008322A3F0A3E4F0A32290028AE0FEA3E015
:1027D3007802221206CA9002851206E60202E4F08B
:1027E300900293E0FF900292E022900285E4F0A32E
:1027F30022A3F0A3E4F0A3227401F0E4F54B221228
:0C28030006CA9002B52290002F020702C6
:10380F00E54B603BE54BB41004D20F802FE54BB472
:10381F0008051220C78025E54BB48005122ABA800F
:10382F001BE54BB42005122F458011E54BB4040561
:10383F001237828007E54BB40102C20FE4F54B2229
:1020C7001227ED04F0A3E4F0A304F0E4F54B122289
:1020D7003C7A22794B122765900285E0FFA3E0CF77
:1020E7001227AD12274B120F0512274B12221590FC
:1020F7000287E07002A3E070030222121207A61201
:102107001323E54B60E9B4101FC3900286E09405E2
:10211700900285E0648094805006E475F001802287
:102127001227ED04F00221E8E54BB40124D3900215
:1021370086E09401900285E064809480400A74FFF1
:10214700F5F012064E0221E81227ED7405F0022180
:10215700E8E54BB4400AE4900287F0A3F00221E8D7
:10216700E54B6402707B900285E07004A3E0640194
:1021770070051229D98067900285E07004A3E06496
:102187000270051224E38056900285E07004A3E0F4
:1021970064037005122DDF8045900285E07004A36B
:1021A700E0640470051233F88034900285E0FEA3E2
:1021B700E0FF64054E700D900271E0700204F0E4D8
:1021C700F54B801AEF64064E7005122E93800F9020
:1021D7000285E07004A3E0640770031228F5122259
:1021E7003C7BFF7A22794B122767900285E0FFA399
:1021F700E09002B5CFF0A3EFF012274B120F0512B4
:0E220700274B122215E4F54B0220F6023D0E85
:102215007F0F123602900285E0FEA3E090239675AB
:10222500F00312073FEE75F003A42583F58312072B
:10223500747F1412360222123D0E7BFF7A2279FA40
:062245007F0312360222A5
:1028F5009002897401F0E4A3F0A3F0123D0E1227B3
:10290500521227A47802C333CE33CED8F912272327
:10291500120F0512274B1229CD1227671227CCC398
:1029250033CE33CED8F912276D9002B9122748124B
:102935000F0512274B7F14123602900289E07003AF
:102945000229CA1207A6121323E54B60EDB4400510
:10295500E4900289F0E54BB41012900289E0B406C8
:10296500057401F08006900289E004F0E54BB4019E
:1029750012900289E0B401057406F0800690028980
:10298500E014F01227521227A47802C333CE33CEB7
:10299500D8F9122723120F0512274B1229CD12271A
:1029A500671227CCC333CE33CED8F912276D9002E8
:1029B500B9122748120F0512274B7F14123602E46D
:0829C500F54B02293F023D0E13
:0C29CD00E4FF1236027BFF7A22796522BB
:102E93009002897401F0123D0E900289E0700302E2
:102EA3002F421207A61213237BFF7A227977122768
:102EB300679002B5E4F0E55E12279DE55FF0A3E4B9
:102EC300F0E56012279DE561F0A3E4F0E5621227C7
:102ED300C5E563F0A3E4F0A3E564F012274B120FFA
:102EE3000512274BE4FF1236027BFF7A2279771211
:102EF30027679002B5E4F0E5531227C5E554F0A324
:102F0300E4F0E5551227F4E556F0A3E4F0E5571293
:102F130027F4E558F0A3E4F0A3E559F012274B1288
:102F23000F0512274B7F14123602E54B7003022E56
:102F33009CB44005E4900289F0E4F54B022E9C0218
:022F43003D0E41
:1029D90090028A1227FB900232E0900289F0123DA0
:1029E9000E7BFF7A2279E67F1412360290028AE082
:1029F9007003022AAB1207A61213237B017A01790D
:102A09006E7F04123602900232E0FCE412035B90FE
:102A1900028B12070290028B122792120247900230
:102A29008B1207027BFF7A22799A12276790028B11
:102A3900122802122748120F0512274B7F2312363C
:102A490002E54B60A7B41029122AAEC39464504C16
:102A5900E004F090009DE0FEA3E0FF900232E02543
:102A6900E0249BF582E43400F583EEF0A3EFF080D7
:102A79002BE54BB4010D122AAED39401401EE0148C
:102A8900F08019E54BB4400A900289E0900232F0D7
:102A99008005E54BB40205E490028AF0E4F54B02A7
:052AA90029F5023D0EBD
:0C2AAE007F647E001238FA900232E022B1
:102ABA009002871227FB90026EE0900285F0900048
:102ACA0004E0900286F0123D0E7BFF7A2279D87FCD
:102ADA0014123602900287E07003022B901207A6A6
:102AEA001213237B017A01796E7F04123602900059
:102AFA0004E060087BFF7A2279A080067B017A02D3
:102B0A0079677F21123602E54B60C9641070249000
:102B1A000004E0700F90026EE0FFC394075005EFC7
:102B2A002402802190026EE064077054900004042D
:102B3A00F0804DE54BB40124900004E0600DE4F010
:102B4A0090026EE00490002EF0803590026EE0FF55
:102B5A00D39400402B90002EEFF08024E54BB44034
:102B6A0015900286E0900004F07010900285E0044F
:102B7A0090002EF08005E54BB40205E4900287F040
:092B8A00E4F54B022ADE023D0EC7
:1024E30090028A7401F0900188E0D394044002E4DE
:1024F300F0E4F54B900188E0900289F0123D0E7BE9
:10250300FF7A23791B7F1412360290028AE070034C
:1025130002260090026EE0FFC374FD9FFF74FF94D8
:1025230000FE900188E0FDD394004017ED25E024E0
:1025330066F582E4343AF583E493FC7401932FFF48
:10254300EC3EFE7BFF7A2279A51227671227AC7B2C
:10255300017A027972120F051207A6121323900152
:1025630088E0FFD394004009EF4430900234F080B8
:10257300069002347420F0E4900235F012274BFFEA
:102583001236027B017A0179A77F0212360290018B
:1025930088E070087BFF7A2279D28012900188E06C
:1025A30075F006A4246AF9743A35F0FA7BFF7F0FBD
:1025B300123602E54B700302250DB4100E9001880C
:1025C300E0C394045031E004F0802CE54BB4010ED9
:1025D300900188E0D39400401EE014F08019E54B8D
:1025E300B4400A900289E0900188F08005E54BB47D
:1025F3000205E490028AF0E4F54B02250D023D0E3C
:102DDF0090028A7401F0900039E0D394024002E42B
:102DEF00F0E4F54B900039E0900289F0123D0E7B34
:102DFF00FF7A2379307F1412360290028AE0700333
:102E0F00022E901207A61213237B017A00791EE47B
:102E1F00FF123602900039E070087B017A00793C8E
:102E2F008013900039E07B01B401067A00790A80A3
:102E3F00047A00796C7F0A123602E54B60BCB4103D
:102E4F000E900039E0C394025031E004F0802CE57D
:102E5F004BB4010E900039E0D39400401EE014F003
:102E6F008019E54BB4400A900289E0900039F08058
:102E7F0005E54BB40205E490028AF0E4F54B022E0F
:042E8F0009023D0EE9
:102F450090026EE025E025E0240EF582E43402F5DA
:102F5500831206CA9001841206E612004D12280952
:102F650090026EE0FF900037E4F0A3EFF0D39000FD
:102F750038E09400900037E0648094804015122773
:102F85008F12024712280990003774FFF5F01206D8
:102F95004E80DAE4900037F0A3F090002F1206CAB5
:102FA500C004C005C006C0079000371227CFC33341
:102FB500CE33CED8F9240EF58274023EF583D007C0
:102FC500D006D005D00412070212278F12013E1237
:102FD5002809900037E475F00112064E900037E09D
:092FE5007004A3E0640870B2223C
:1033F80090028D1227FB123D0E7BFF7A2379457FC1
:10340800141236027BFF7A2279AC7F0D12360290B5
:10341800028DE0605B1207A61213239000051206C6
:10342800CAE4120351900289120702900289120617
:10343800CA7B007AA0790C78471202479002891259
:1034480007027BFF7A2279B2122767900289122835
:1034580002122748120F0512274B7F05123602E584
:103468004B60ACB44005E490028DF0E4F54B809FCE
:03347800023D0E04
:10378200E4F54B123D0E7BFF7A2279B87F16123692
:103792000290028912070E000000009028F1120622
:1037A200D690028D1207029002917405F0A304F0E4
:1037B200A37403F09000001206CA121D4790000085
:0937C200120702123095023D0EBF
:061D470090028512070264
:101D4D009002851206CA9002A31207029002A7E420
:101D5D00F0A3041227E2C39F24FE90029EF0A3126B
:101D6D00070E3F8000007BFF7A2279C9122767900A
:101D7D000292E0FE3395E09002B5F0A3CEF0900212
:101D8D0093E0FE3395E09002B7F0A3CEF07B017A9D
:101D9D00027994120F059002A7E07002A3E0700380
:101DAD00021F021207A61213237B017A02799412E5
:101DBD0027679002851228021207027A02793412DF
:101DCD000F0590029EE0FF1227B5E0B42014EF122C
:101DDD0027B5E0B4200CAE070FEE1227B67430F025
:101DED0080ECE54F701BE55130E01690029EE0FF50
:101DFD003395E0FE74342FF58274023EF583742022
:101E0D00F0900291E0FF12274B123602E54B6086EF
:101E1D00B4100E121F0390029F1206E612004D80A1
:101E2D0011E54BB40112121F0390029F1206E61228
:101E3D000049900285021EB9E54B6480702E900218
:101E4D009EE0D3648094815003021ED9E0141227C2
:101E5D00E29F14FF90029EE0B50703E014F090029C
:101E6D009F12279212013E90029F8040E54B642005
:101E7D00703F900292E0FF14FE90029EE0FDC3EED3
:101E8D006480F8ED6480985043E004F0900293E094
:101E9D00FEC3EF9E14FF90029EE0B50703E004F031
:101EAD0090029F12279212024790029F1207028002
:101EBD001BE54BB44008E4F54B9002A3800BE54BBA
:101ECD00B40209E4F54B9002850206CA90028D1208
:101EDD0027D66007400590028D800B90028912274E
:101EED00D6500C9002891206CA900285120702E4A0
:051EFD00F54B021DA3DE
:0F1F0200227F647E001238FA9002851206CA22EE
:102FEE001201000100000008740C0700000101022C
:102FFE00000109022900010100C0000904000002BD
:10300E0003000000092100010001221B00070581B9
:10301E000308000A0705020308000A0600FF09015B
:10302E00A10109019508750826FF00150009018107
:10303E000209019102C0040309041C034F00700031
:10304E00740072006F006E006900630020004C0077
:10305E0061006200730028034F004C002000340012
:10306E003000300020004C006900670068007400DA
:10307E00200053006F007500720063006500FF3082
:07308E0044FF3048FF3064ED
:063886004302EB0000000C
:103CCF00FEE02400FFEC3EF0A3EFF02290027EE036
:093CDF004408F0E49002EBF0222D
:03004300022C6428
:102C6400C0E0C0F0C083C082C0D075D000C000C036
:0D2C740001C002C003C004C005C006C007B7
:102C8100E59620E7FB759686E59620E7FB900279AD
:102C9100E597F0E59620E7FB759682E59620E7FB40
:102CA10090027AE597F0E59620E7FB759684E59624
:102CB10020E7FB90027BE597F0E59620E7FB759610
:102CC10091E59620E7FB90027CE597F0900279E090
:102CD10030E103123D33900279E030E20312000E3D
:102CE10090027AE030E003121B4E90027AE030E16C
:102CF100031234EB90027BE030E2031232ED9002DA
:082D010079E030E003123D3DD2
:102D0900D007D006D005D004D003D002D001D0001E
:0B2D1900D0D0D082D083D0F0D0E032C8
:0A3D330090027DE475F00102064ED7
:10000E009002F17402F0E59620E7FB759601759764
:0D001E0001E49002EBF0A37403F0A3F022C4
:101B4E00E59620E7FB75960EE4F597E59620E7FB04
:101B5E00759691E59620E7FB90027DE597F0900251
:101B6E00EBE0B40513E59620E7FBE4F5969002E270
:101B7E00E0F597E49002EBF090027DE0FF30E2108A
:101B8E00E59620E7FB759611E4F5979002EBF022AF
:101B9E00EF30E41BE59620E7FB759611759708E587
:101BAE009620E7FB759611759780E49002EBF09006
:101BBE0002EBE06003021C9690027DE020E003023F
:101BCE001C967B017A0279DF7D087C007F2012361D
:101BDE00519002E2E0FE9002E1E07C00123CD190D6
:101BEE0002E4E09002E3123CCF9002E6E09002E5C0
:101BFE00123CCF9002DFE0547F64217035A3E024C5
:101C0E00FE601B14602224FA600F14601614601D0F
:101C1E00240A707112000A806F1239FF806A120056
:101C2E000780651239FC8060123D47805B123D488B
:101C3E0080569002E0E01207801C66001C6B011CAF
:101C4E0070031C75051C7A061C7F081C84091C89F0
:101C5E000A1C8E0B00001C93122D24802B1231CFE8
:101C6E00802612313B8021123737801C12260380CA
:101C7E00171235588012123373800D1237CB80082D
:101C8E001238C58003123C999002EBE064016003A8
:101C9E00021D4690027DE030E103021D46E59620CE
:101CAE00E7FB759691E59620E7FB90027DE597F0B0
:101CBE00E030E40630E003021D4690027E7402F02E
:101CCE00C39002EAE094089002E9E094004030905C
:101CDE0002EE12074B7D087C007F2012369F900289
:101CEE00EFE475F00812064E9002E974FF75F0F8F5
:101CFE0012064E9002E7E475F00812064E8016901A
:101D0E0002E9E0FCA3E0FD9002EE12074B7F2012E9
:101D1E00369F123CDB9002E5E0FEA3E0FFA3E0B5A8
:101D2E000608A3E0B50703123CDBE59620E7FB753A
:081D3E00961190027EE0F5977A
:011D4600227A
:1034EB00E59620E7FB75960E759701E59620E7FBB1
:1034FB00759691E59620E7FBAF979002ECE0B4034D
:10350B000CE59620E7FB75961175971022EF30E5C9
:10351B000BE59620E7FB759611759740EF30E20BA4
:10352B00E59620E7FB759611E4F597E52C60127B89
:10353B00007A0079537D087C007F2112369FE4F5D9
:0C354B002CE59620E7FB759611759701A2
:013557002251
:1032ED00E4FFE59620E7FB75960E759702E59620AF
:1032FD00E7FB759694E59620E7FBAE979002EDE01F
:10330D00B4030CE59620E7FB75961475972022EE15
:10331D0030E60BE59620E7FB759614759780E596DC
:10332D0020E7FB759696E59620E7FBAF97E53270A3
:10333D0005EF6408600DE59620E7FB759616759709
:10334D001080177B007A00795E7D087C007F221249
:10335D003651753201D2A375410AE59620E7FB750A
:05336D009614E4F59741
:013372002238
:0A3D3D0090027DE475F00102064ECD
:1036510090027FEFF090028212076B900280ECF0F3
:03366100A3EDF0E6
:103664004C603790027FE0F5964396C0E4FFFED3AA
:10367400900281E09F900280E09E401BE59620E747
:10368400FB90028212074B8F828E83E59712061AF3
:0A3694000FBF00010E80D8E4F59688
:01369E002209
:10369F0090027FEFF090028212076B900280ECF0A5
:0336AF00A3EDF098
:1036B2004C6036E59620E7FB90027FE0F596E4FF4A
:1036C200FED3900281E09F900280E09E401B900218
:1036D2008212074B8F828E831205DBF597E59620C7
:0936E200E7FB0FBF00010E80D8C8
:0136EB0022BC
:103C9900E59620E7FB75960EE4F597E59620E7FB98
:0D3CA9007596117597209002EB7404F022BF
:0400030001000000F8
:1035B1007A0079057BFF9002EE02076B7596117513
:1035C10097409002EB7401F0E49002E7F0A3F0223F
:1035D10075960EE4F5979002EBE06404227596115E
:1035E100759740229002E9E4F0A322E493FF900250
:1035F100E9E4229002F1E064042275960E759701C8
:0136010022A6
:102D24009002E1E07010A3E0700C9002E5E0700600
:102D3400A3E064026003123C999002DFE0247F6008
:102D44001E14603624026003022DCE9002E3E0706C
:102D54001FA3E0600280737BFF7A007903805E909A
:102D640002F1E0B4040A9002E3E07004A3E060021C
:102D740080587BFF7A00790580439002F1E0B40427
:102D8400069002E3E0600280419002E4E0FFB48137
:102D9400159002ECE07BFFB403067A00790380040B
:102DA4007A0079058017EFB4021E9002EDE07BFFF4
:102DB400B403067A00790380047A0079051235B7E2
:102DC4001235E57402F080058000123C991235D763
:0B2DD4006008E59620E7FB1235BD22E9
:1031CF001235F470779002DFE0FF60706401606C7D
:1031DF009002E1E070669002E3E070609002E5E03B
:1031EF00705AA3E0600280549002DFE06402704CDA
:1031FF009002E2E070469002E4E0FF64816005EF28
:10320F0064027038EFB48117E59620E7FB1235FBA7
:10321F00E59620E7FB1235DEE49002ECF08020E526
:10322F009620E7FB75960E759702E59620E7FB75DE
:10323F009614759780E49002EDF08003123C99E5A7
:10324F009620E7FB1235D16008E59620E7FB123593
:02325F00DE226D
:10313B001235F470799002DFE0FF60726401606E0B
:10314B009002E1E070689002E3E070629002E5E0CB
:10315B00705CA3E0600280569002DFE06402704E68
:10316B009002E2E070489002E4E0FF64816005EFBA
:10317B006402703AEFB48118E59620E7FB1235FB39
:10318B00E59620E7FB7596117597109002EC801968
:10319B00E59620E7FB75960E759702E59620E7FB03
:1031AB007596147597209002ED7403F08003123C12
:1031BB0099E59620E7FB1235D16008E59620E7FBF1
:0431CB001235DE22B9
:103737009002DFE0701D9002E3E07017A3E07013C2
:10374700A3E0700FA3E0700B9002E1E07005A3E027
:1037570030E703123C999002EB7405F09002E2E027
:103767009002F160057403F080037402F01235D7FC
:0B3777006008E59620E7FB1235DE221B
:102603009002E1E0120780262301262F02265003C1
:10261300266D04267E0526AD2126C222000026D380
:102623007A2F79EE1235B5902FEE804A7BFF7A3000
:1026330079001235B7903003E493FE903002E493AF
:102643007C002400FFEC3E9002E90226BC9002E2EB
:10265300E075F00390308C12073F1207741235B700
:102663001205C2FF9002E9E4804F7BFF7A307909BB
:102673001235B79030091235EC803E9002E2E0FF4C
:1026830064816005EF64027047EF7BFFB4810C7ACD
:1026930030791B1235B790301B800A7A30792212B9
:1026A30035B79030221235EC800F7BFF7A307912E8
:1026B3001235B79030121235ECF0A3EFF080147B93
:1026C300FF7A3079291235B71235E5741BF0800390
:1026D300123C999002E1E0FF64016013EF64026031
:1026E3000EEF64036009EF64046004EFB405239004
:1026F30002E6E0FFD39002EAE09F9002E9E0940053
:1027030040109002E5E0700AE0FE9002E9EEF0A3CB
:10271300EFF01235D76008E59620E7FB1235BD22AE
:103558009002DFE06480701C9002E1E07016A3E046
:103568007012A3E0700EA3E0700AA3E07006A3E057
:1035780064016005123C9980229002F1E0FFB404D6
:103588000E7BFF7A0079031235B71235E504F0EFA8
:10359800B403081235B11235E504F01235D76008C6
:0935A800E59620E7FB1235BD2277
:103373009002F1E0640260259002DFE0701F90028A
:10338300E3E07019A3E07015A3E07011A3E0700DE2
:103393009002E1E07007A3E0D394014005123C9949
:1033A30080459002E2E0D3940040309002F174042F
:1033B300F0E49002ECF0A3F0E59620E7FB1235FB76
:1033C300E59620E7FB7596127597201234EBE59688
:1033D30020E7FB75960EE4F597800C9002F17403D9
:1033E300F09002ECF0A3F01235D76008E59620E7E1
:0533F300FB1235DE2293
:1037CB001235F470249002DFE06481701C9002E1EA
:1037DB00E07016A3E07012A3E0700EA3E0700AA3D2
:1037EB00E07006A3E064016005123C998008123575
:1037FB00B11235E504F01235D76008E59620E7FBEA
:04380B001235BD2293
:1038C5009002DFE06401701C9002E5E07016A3E051
:1038D50070129002E1E0700CA3E07008A3E07004A0
:1038E500A3E06003123C991235D76008E59620E7FE
:0538F500FB1235DE228C
:01000A0022D3
:0139FF0022A5
:03000700023C991F
:0339FC00023C99F1
:013D47002259
:013D48002258
:103A00000000000100000064000000003882715FC7
:103A10003882715F3882715F3882715F3882715F7E
:103A20003882715F3882715F3882715F3882715F6E
:103A3000149F149814A01499149F149914A014A9F5
:103A4000000000000000131538DA1A9301F43A5907
:103A5000C3551379400666663F800000405B43967D
:103A60000000000000000000000800080000000046
:103A7000664C2020200063642F6D3200202020201F
:103A80002000202020202000000000000000000076
:103A90000000000000000000000000000000000026
:103AA0000000000000000000000000000000000016
:103AB0000000000000000000000000000000000006
:103AC00000000000000000000000000000000000F6
:103AD00000000000000000000000000000000000E6
:0A3AE00000000000000000007FFF5E
:103CE800C2AF8F828E8375FF80E4FFFE2243EF020E
:073CF80075B7A575B7F122B5
:103C0000A2AF9218123CE80FBF00010EEF64C34E42
:103C100070F5123CF5438F01EDF053EFFDE4F5FF35
:063C2000F58FA21892AF1F
:013C2600227B
:103C4E00A2AF9218123CE80FBF00010EBE01F8BFE2
:103C5E0090F5123CF5438F03E4F053EFFDF5FFF5BD
:053C6E008FA21892AFC7
:013C7300222E
:100046000203FBE86480F8E933E83360110460F0EA
:10005600ED33EC337009E8FCE9FDEAFEEBFF220420
:1000660060DED3EB9FEA9EE99DE8C2E78CF0C2F71B
:1000760095F0400CE8CCF8E9CDF9EACEFAEBCFFBE7
:100086001203C685D0F05804700320D5B3E8047077
:10009600075002B2D502040592D5EC0460F7E4CC11
:1000A600C0E0C398F8603B94186008400DD0E0FBB0
:1000B6000203DDE4FBFAC9FC8028E830E406E4C963
:1000C600FBE4CAFCE830E305E4C9CACBFCE8540704
:1000D6006010F8C3E913F9EA13FAEB13FBEC13FC0F
:1000E600D8F130F52FC3E49CFCEF9BFFEE9AFEEDB2
:1000F60099FDD0E0FBEF4E4D4C701222DB0302045B
:1001060002EC2CFCEF33FFEE33FEED33FDED30E772
:10011600EB0203DDEF2BFFEE3AFEED39FDD0E0FBFF
:1001260050130BBB0003020405ED13FDEE13FEEFA7
:0801360013FFEC13FC0203DDD2
:10013E00EC4D6011E8497017ED33EC3304600DE4BB
:10014E00FCFFFEFD22E933E8330470F80203FB12D4
:10015E0003C658046009E4CC2481500628500902D5
:10016E000405284003020402C0E0EB4A7044B98043
:10017E0006D0E0FB0203F1EF4E701CBD8008EBFFD2
:10018E00EAFEE9FD80EBE98DF0A4FEE5F002022720
:10019E00E9CDF9EAFEEBFFEF89F0A4FCE5F0CE899C
:1001AE00F0A42EFFE435F0CD89F0A42DFEE435F059
:1001BE008067EF4E7005BD80D780C3EF8BF0A4AC87
:1001CE00F0EE8BF0A42CFCE435F0F8EF8AF0A42CC2
:1001DE00E5F038FCE433CB8DF0A42CFCE5F03BF8D5
:1001EE00EE8AF0A42CFCE5F038F8E433CF89F0A4C5
:1001FE002CFCE5F038CF3400CE89F0A42FFFE5F0CB
:10020E003EFEE433C98DF0A42EFEE5F039CD8AF022
:10021E00A42FFFE5F03EFEE43DFD33D0E0FB50079A
:10022E000BBB000F020405EC2CFCEF33FFEE33FE8C
:06023E00ED33FD0203DDBB
:10024400020405EC5D046005E8590470030203FB35
:100254001203C6580460F6EC4860F2EC7004FDFE2C
:10026400FF22C860DB2481C85009C398600250068D
:100274000204029850CAF582E9294B4A7005AB8200
:100284000203F175F0007C1A7880C3EF9BEE9AEDBF
:1002940099400DC3EF9BFFEE9AFEED99FDE842F005
:1002A400DC23ACF0D0E0FFD0E0FED0E0FDAB822058
:1002B400E7101BEB60BAEC2CFCEF33FFEE33FEEDE2
:1002C40033FD0203DDE803F830E705C0F075F00004
:1002D400EF2FFFEE33FEED33FD40B830E7C280AAC6
:1002E40074F8CC6480CCC86480C8F582046043C3CD
:1002F400EB9FF5F0EA9E42F0E99D42F0E89C45F060
:1003040060305018E5825FFFE582F42B5582FB5084
:10031400210ABA001D09B90019088016E5825BFBA1
:10032400E582F42F5582FF50090EBE00050DBD0075
:10033400010CC3EB9FF5F0EA9E42F0E99D42F0E820
:0D0344009C45F06007CC4820E701B3EC2297
:1003510075F020800E75F010800575F0087D007E27
:10036100007F003392D530D50312067FEC33401065
:10037100EF33FFEE33FEED33FDEC33FCD5F0ED2230
:0E038100E5F0247EA2D513CC92E7CDCEFF226C
:10038F00EDD2E7CD33EC3392D524814006E4FFFE66
:10039F00FDFC22FCE4CFCECDCC24E0501174FF80C5
:1003AF00EDC3CC13CCCD13CDCE13CECF13CF047062
:0703BF00F030D5DE02067FDD
:100EA000E50824B2F582E43402F583E005082290D7
:100EB00002AF301F039002B2E475F0011207540232
:100EC00005C22018E97F2ED2188018EF540F249005
:100ED000D43440D4FF301C0BEF24BFB41A005003AD
:100EE0002461FFE50960021509050CE50C70020597
:100EF0000B301F0E9002AFE475F001120754EF02A1
:100F00000608023C277403D21F8003E4C21FF508C1
:100F10009002AF12076BE4F509F50BF50CE50960DB
:100F2000077F20120EE380F5750AFFC219C218C2AE
:100F30001AC21BC21DC21EC220120EAFFF700D309E
:100F40001F057F00120EF4AF0CAE0B22B4255FC25A
:100F5000D5C21C120EAFFF24D0B40A00501A75F08F
:100F60000A780930D50508B6FF0106C6A426F62082
:100F7000D5047002D21B80D924CFB41A00EF5004DC
:100F8000C2E5D21C0211E6D21980C6D21880C0D2A6
:100F90001A80BCD2D580BAD21D80B47F20120EE355
:100FA000201A077401B5090040F1120EA0FF120EBD
:100FB000E3020F1DD220D21E8095120EA0FB120E4E
:100FC000A0FA120EA0F94A4B700679E47A127BFF60
:100FD000201A2EE509602A7E008E82758300120594
:100FE000DB60060EEE650A70F0C2D5EBC0E0EAC029
:100FF000E0E9C0E0EE121247D0E0F9D0E0FAD0E02C
:10100000FB1205C2FF60AAEBC0E0EAC0E0E9C0E065
:10101000120EE3D0E02401F9D0E03400FAD0E0FB76
:10102000E50A0460DCD50AD98087D21A80A21212A0
:101030002960F7E50A700104120410A90A600DE5A1
:101040000A600914F50A1212D1EF60F3EA30E702E0
:10105000F404C3995079EAF4250A0430E701E40462
:10106000F50A800D12122960C1EA050A250A120448
:1010700010EA9002DEF030E701E4250A04D50A0404
:10108000201D0114121247E4C0E01212D19002DEBA
:10109000E0601320E70714F0120ECB802204F0D09A
:1010A000E014C0E07F00120ECBE50A6007120EC20A
:1010B000150A800B301D03120EC2D0E0020F1DD0A6
:1010C000E00480C4121229609EE50A041204109004
:1010D00002DEEAF0E50A201D026001042404121277
:0110E00047C8
:1010E10074FF04C0E01212D1120ECBE50A201D02DA
:1010F1006003120EC2D0E0B50AE87F45120ED5900A
:1011010002DEE07F2B30E7047F2DF404C0E0120EF5
:10111100E3D0E075F00A84C0F0120ECCD0E0120EDC
:10112100CC020F1D791080027908C21EC2208008EE
:10113100D2D5790A8004790AC2D5E50A047002F58C
:101141000AE4FAFDFEFF120EA0FC7B08201913121F
:101151000EA0FD7B1030180A120EA0FE120EA0FF89
:101161007B20EC3382D592D55013C3E43018069F0F
:10117100FFE49EFEE42019039DFDE49CFCE4CBF812
:10118100C219EC700CCFCECDCCE824F8F870F38006
:1011910017C3EF33FFEE33FEED33FDEC33FCEB33DE
:1011A100FB994002FB0FD8E9EB301905F8D0E0C4F8
:1011B10048B219C0E00AEC4D4E4F78207B0070C256
:1011C100EAB50A0040BCC0E0121249D0F0D0E020DC
:1011D1001904C4C0E0C4B219C0F0120ECCD0F0D5CD
:1011E100F0EB020F1D1207800FBA531125580F8B18
:1011F1004C0F874211294F1131441131490FA0433E
:1012010011375510644610C445102E471304500F72
:101211008F2D0F932E0FB62B0F97230FB42012EDA6
:101221002A0F4F4800000FAEE50AB4FF03750A0606
:10123100120EA0FC120EA0FD120EA0FE120EA0FFB7
:101241009002D702044D790AA2D5201B14301D0942
:10125100B910020404B9080104A2D5201E025001EC
:1012610004201A68921AB509005034C0E07F20307A
:101271001B197F30A21A721E721D500F1212A0C2CA
:101281001AC21EC21DC2207F30800F301D03E9C06B
:10129100E0120EE3301D03D0E0F9D0E0B509CC3007
:1012A1001D177F30B9100C120EE37F58301C077FD9
:1012B100788003B90803120EE3301A057F2D020E60
:1012C100E37F202020F87F2B201EF322921A80CF6B
:1012D1007F00B40700500B24D7F582E43402F58374
:1012E100E0FF22286E756C6C2900D219120EA03015
:1012F10019F8C219780930D50108F6020F4F2D509F
:10130100434958120EA02403B405004001E4901291
:10131100FF93120ED4743A120ED4D21B7509040233
:02132100112594
:1003C600E9D2E7C933E833F892D5EDD2E7CD33EC7D
:0703D60033FC5002B2D522F6
:1003DD00EC30E7100FBF000C0EBE00080DBD000481
:1003ED000BEB6014A2D5EB13FCED92E7FD2274FF2D
:1003FD00FCFDFEFF22E480F8A2D574FF13FC7D8086
:03040D00E480EF99
:10041000F920E73624F950037907E4F42402FBE5D8
:1004200082158270021583DBF6E024FB501BE96025
:1004300014E4F0E582158270021583E004F0B40A3A
:0D04400008E4F0D9EE7401F00A22C2D522C2
:10044D00ED33EC3392D5FA602AB4FF33EDC2E77B7E
:10045D00FF60067A047972E4227A04797B20D50450
:10046D007A047976224E614E002B494E46002D4975
:10047D004E4600E47A08F0A3DAFC7B00740722C034
:10048D0083C082ECC0E0EDC0E0EEC0E0EFC0E0EA7A
:10049D0075F010A4CAABF075F04DA42BFBE435F04C
:1004AD00FCEA2410FAEB34C5FBEC34D9FCEDC2E7C1
:1004BD00FF75F056A4F42411C5F0F434C58FF0A4E3
:1004CD002AE5F03BE43CF020E714120582D0E0FF72
:1004DD00D0E0FED0E0FDD0E0FC1202478014F40421
:1004ED00120582D0E0FFD0E0FED0E0FDD0E0FC129E
:1004FD00013ED082D083E0FAEDD2E7CD33EC332448
:10050D0082FBE4C3CF33CFCE33CECD33CD33DBF34C
:10051D007B0775F00A846004F0A31B0AE5F0F0A3D5
:10052D008FF0740AA4FFACF08EF0740AA42CFEAC0C
:10053D00F050010C8DF0740AA42CFDE435F0F0A3FD
:05054D00DBDE74072253
:100552003F8000004120000042C80000447A0000B1
:10056200461C400047C35000497424004B18968033
:100572004CBEBC205A0E1BCA6753C21C749DC5AE2A
:10058200FB60065407601C23231205B0EB5438604D
:100592000912059C1205AB12013EECF8EDF9EEFAD8
:1005A200EFCB22EB1205AB80F1543803241C9005EB
:1005B20052FE93FC0EEE93FD0EEE930ECE93FF22AF
:0300000002326168
:0C326100787FE4F6D8FD7581690232A880
:1005C200BB010689828A83E0225002E722BBFE0237
:0905D200E32289828A83E493226A
:1005DB00BB010CE58229F582E5833AF583E02250D5
:1005EB0006E92582F8E622BBFE06E92582F8E2221F
:0D05FB00E58229F582E5833AF583E4932239
:10060800BB010689828A83F0225002F722BBFE01D1
:02061800F322CB
:10061A00F8BB010DE58229F582E5833AF583E8F016
:10062A00225006E92582C8F622BBFE05E92582C8C2
:02063A00F222AA
:10063C00EF8DF0A4A8F0CF8CF0A428CE8DF0A42ED2
:02064C00FE228C
:10064E00C5F0F8A3E028F0C5F0F8E5821582700237
:06065E001583E038F022D4
:0E066400C3EF9BFFEE9AFEED99FDEC98FC2291
:0D067200EF4BFFEE4AFEED49FDEC48FC2287
:0E067F00C3E49FFFE49EFEE49DFDE49CFC228C
:10068D00EB9FF5F0EA9E42F0E99D42F0EC6480C8E4
:06069D0064809845F02284
:1006A300E86010ECA2E713FCED13FDEE13FEEF136D
:0406B300FFD8F0225A
:1006B700E8600FEFC333FFEE33FEED33FDEC33FCA1
:0306C700D8F12245
:0C06CA00E0FCA3E0FDA3E0FEA3E0FF22A3
:1006D600E493FC740193FD740293FE740393FF226A
:0C06E600E0F8A3E0F9A3E0FAA3E0FB2297
:1006F200E493F8740193F9740293FA740393FB225E
:0C070200ECF0A3EDF0A3EEF0A3EFF0226A
:10070E00A8828583F0D083D0821207251207251286
:10071E000725120725E473E493A3C583C5F0C583AB
:10072E00C8C582C8F0A3C583C5F0C583C8C582C835
:01073E002298
:0C073F00A42582F582E5F03583F58322C5
:09074B00E0FBA3E0FAA3E0F922AF
:10075400F8E0FBA3A3E0F925F0F0E582158270022E
:070764001583E0FA38F022D2
:09076B00EBF0A3EAF0A3E9F0228F
:0C077400E493FB740193FA740293F922E1
:10078000D083D082F8E4937012740193700DA3A308
:1007900093F8740193F5828883E47374029368601C
:0607A000EFA3A3A380DF1C
:103C2700EFB40A07740D123C32740A309811A89940
:103C3700B8130CC2983098FDA899C298B811F630FD
:073C470099FDC299F59922D5
:10326D00021F11E493A3F8E493A34003F68001F247
:10327D0008DFF48029E493A3F85407240CC8C33362
:10328D00C4540F4420C8834004F456800146F6DF31
:10329D00E4800B010204081020408090384FE47E3A
:1032AD00019360BCA3FF543F30E509541FFEE49326
:1032BD00A360010ECF54C025E060A840B8E493A3ED
:1032CD00FAE493A3F8E493A3C8C582C8CAC583CA18
:1032DD00F0A3C8C582C8CAC583CADFE9DEE780BED0
:01388C00003B
:00000001FF
